{
  "transactions": [
    {
      "hash": "0x89647a75efd1234e009b176816c9dc3f33bb21b0376d015cdbc68fc832a1495c",
      "transactionType": "CREATE",
      "contractName": "ERC20Mock",
      "contractAddress": "0xc6e7df5e7b4f2a278906862b61205850344d4e7d",
      "function": null,
      "arguments": null,
      "transaction": {
        "from": "0xf39fd6e51aad88f6f4ce6ab8827279cfffb92266",
        "gas": "0xabceb",
        "value": "0x0",
        "input": "0x608060405234801561001057600080fd5b506040518060400160405280600981526020016845524332304d6f636b60b81b815250604051806040016040528060048152602001634532304d60e01b815250816003908161005f9190610115565b50600461006c8282610115565b5050506101d4565b634e487b7160e01b600052604160045260246000fd5b600181811c9082168061009e57607f821691505b6020821081036100be57634e487b7160e01b600052602260045260246000fd5b50919050565b601f821115610110576000816000526020600020601f850160051c810160208610156100ed5750805b601f850160051c820191505b8181101561010c578281556001016100f9565b5050505b505050565b81516001600160401b0381111561012e5761012e610074565b6101428161013c845461008a565b846100c4565b602080601f831160018114610177576000841561015f5750858301515b600019600386901b1c1916600185901b17855561010c565b600085815260208120601f198616915b828110156101a657888601518255948401946001909101908401610187565b50858210156101c45787850151600019600388901b60f8161c191681555b5050505050600190811b01905550565b6107e3806101e36000396000f3fe608060405234801561001057600080fd5b50600436106100a95760003560e01c806340c10f191161007157806340c10f191461012357806370a082311461013857806395d89b41146101615780639dc29fac14610169578063a9059cbb1461017c578063dd62ed3e1461018f57600080fd5b806306fdde03146100ae578063095ea7b3146100cc57806318160ddd146100ef57806323b872dd14610101578063313ce56714610114575b600080fd5b6100b66101c8565b6040516100c3919061062c565b60405180910390f35b6100df6100da366004610697565b61025a565b60405190151581526020016100c3565b6002545b6040519081526020016100c3565b6100df61010f3660046106c1565b610274565b604051601281526020016100c3565b610136610131366004610697565b610298565b005b6100f36101463660046106fd565b6001600160a01b031660009081526020819052604090205490565b6100b66102a6565b610136610177366004610697565b6102b5565b6100df61018a366004610697565b6102bf565b6100f361019d36600461071f565b6001600160a01b03918216600090815260016020908152604080832093909416825291909152205490565b6060600380546101d790610752565b80601f016020809104026020016040519081016040528092919081815260200182805461020390610752565b80156102505780601f1061022557610100808354040283529160200191610250565b820191906000526020600020905b81548152906001019060200180831161023357829003601f168201915b5050505050905090565b6000336102688185856102cd565b60019150505b92915050565b6000336102828582856102df565b61028d858585610362565b506001949350505050565b6102a282826103c1565b5050565b6060600480546101d790610752565b6102a282826103f7565b600033610268818585610362565b6102da838383600161042d565b505050565b6001600160a01b03838116600090815260016020908152604080832093861683529290522054600019811461035c578181101561034d57604051637dc7a0d960e11b81526001600160a01b038416600482015260248101829052604481018390526064015b60405180910390fd5b61035c8484848403600061042d565b50505050565b6001600160a01b03831661038c57604051634b637e8f60e11b815260006004820152602401610344565b6001600160a01b0382166103b65760405163ec442f0560e01b815260006004820152602401610344565b6102da838383610502565b6001600160a01b0382166103eb5760405163ec442f0560e01b815260006004820152602401610344565b6102a260008383610502565b6001600160a01b03821661042157604051634b637e8f60e11b815260006004820152602401610344565b6102a282600083610502565b6001600160a01b0384166104575760405163e602df0560e01b815260006004820152602401610344565b6001600160a01b03831661048157604051634a1406b160e11b815260006004820152602401610344565b6001600160a01b038085166000908152600160209081526040808320938716835292905220829055801561035c57826001600160a01b0316846001600160a01b03167f8c5be1e5ebec7d5bd14f71427d1e84f3dd0314c0f7b2291e5b200ac8c7c3b925846040516104f491815260200190565b60405180910390a350505050565b6001600160a01b03831661052d578060026000828254610522919061078c565b9091555061059f9050565b6001600160a01b038316600090815260208190526040902054818110156105805760405163391434e360e21b81526001600160a01b03851660048201526024810182905260448101839052606401610344565b6001600160a01b03841660009081526020819052604090209082900390555b6001600160a01b0382166105bb576002805482900390556105da565b6001600160a01b03821660009081526020819052604090208054820190555b816001600160a01b0316836001600160a01b03167fddf252ad1be2c89b69c2b068fc378daa952ba7f163c4a11628f55a4df523b3ef8360405161061f91815260200190565b60405180910390a3505050565b60006020808352835180602085015260005b8181101561065a5785810183015185820160400152820161063e565b506000604082860101526040601f19601f8301168501019250505092915050565b80356001600160a01b038116811461069257600080fd5b919050565b600080604083850312156106aa57600080fd5b6106b38361067b565b946020939093013593505050565b6000806000606084860312156106d657600080fd5b6106df8461067b565b92506106ed6020850161067b565b9150604084013590509250925092565b60006020828403121561070f57600080fd5b6107188261067b565b9392505050565b6000806040838503121561073257600080fd5b61073b8361067b565b91506107496020840161067b565b90509250929050565b600181811c9082168061076657607f821691505b60208210810361078657634e487b7160e01b600052602260045260246000fd5b50919050565b8082018082111561026e57634e487b7160e01b600052601160045260246000fdfea26469706673582212206b8b44da210be7472b831dcd4c003bd1f09c3d9dc7f9b1d50dafa1709f749a1564736f6c63430008180033",
        "nonce": "0x14",
        "chainId": "0x1e14"
      },
      "additionalContracts": [],
      "isFixedGasLimit": false
    },
    {
      "hash": "0x56511ae2e172e25dce76144adfd2f4adf13104801ce1d10fb9cc559649c76876",
      "transactionType": "CREATE",
      "contractName": "ERC20Mock",
      "contractAddress": "0x59b670e9fa9d0a427751af201d676719a970857b",
      "function": null,
      "arguments": null,
      "transaction": {
        "from": "0xf39fd6e51aad88f6f4ce6ab8827279cfffb92266",
        "gas": "0xabceb",
        "value": "0x0",
        "input": "0x608060405234801561001057600080fd5b506040518060400160405280600981526020016845524332304d6f636b60b81b815250604051806040016040528060048152602001634532304d60e01b815250816003908161005f9190610115565b50600461006c8282610115565b5050506101d4565b634e487b7160e01b600052604160045260246000fd5b600181811c9082168061009e57607f821691505b6020821081036100be57634e487b7160e01b600052602260045260246000fd5b50919050565b601f821115610110576000816000526020600020601f850160051c810160208610156100ed5750805b601f850160051c820191505b8181101561010c578281556001016100f9565b5050505b505050565b81516001600160401b0381111561012e5761012e610074565b6101428161013c845461008a565b846100c4565b602080601f831160018114610177576000841561015f5750858301515b600019600386901b1c1916600185901b17855561010c565b600085815260208120601f198616915b828110156101a657888601518255948401946001909101908401610187565b50858210156101c45787850151600019600388901b60f8161c191681555b5050505050600190811b01905550565b6107e3806101e36000396000f3fe608060405234801561001057600080fd5b50600436106100a95760003560e01c806340c10f191161007157806340c10f191461012357806370a082311461013857806395d89b41146101615780639dc29fac14610169578063a9059cbb1461017c578063dd62ed3e1461018f57600080fd5b806306fdde03146100ae578063095ea7b3146100cc57806318160ddd146100ef57806323b872dd14610101578063313ce56714610114575b600080fd5b6100b66101c8565b6040516100c3919061062c565b60405180910390f35b6100df6100da366004610697565b61025a565b60405190151581526020016100c3565b6002545b6040519081526020016100c3565b6100df61010f3660046106c1565b610274565b604051601281526020016100c3565b610136610131366004610697565b610298565b005b6100f36101463660046106fd565b6001600160a01b031660009081526020819052604090205490565b6100b66102a6565b610136610177366004610697565b6102b5565b6100df61018a366004610697565b6102bf565b6100f361019d36600461071f565b6001600160a01b03918216600090815260016020908152604080832093909416825291909152205490565b6060600380546101d790610752565b80601f016020809104026020016040519081016040528092919081815260200182805461020390610752565b80156102505780601f1061022557610100808354040283529160200191610250565b820191906000526020600020905b81548152906001019060200180831161023357829003601f168201915b5050505050905090565b6000336102688185856102cd565b60019150505b92915050565b6000336102828582856102df565b61028d858585610362565b506001949350505050565b6102a282826103c1565b5050565b6060600480546101d790610752565b6102a282826103f7565b600033610268818585610362565b6102da838383600161042d565b505050565b6001600160a01b03838116600090815260016020908152604080832093861683529290522054600019811461035c578181101561034d57604051637dc7a0d960e11b81526001600160a01b038416600482015260248101829052604481018390526064015b60405180910390fd5b61035c8484848403600061042d565b50505050565b6001600160a01b03831661038c57604051634b637e8f60e11b815260006004820152602401610344565b6001600160a01b0382166103b65760405163ec442f0560e01b815260006004820152602401610344565b6102da838383610502565b6001600160a01b0382166103eb5760405163ec442f0560e01b815260006004820152602401610344565b6102a260008383610502565b6001600160a01b03821661042157604051634b637e8f60e11b815260006004820152602401610344565b6102a282600083610502565b6001600160a01b0384166104575760405163e602df0560e01b815260006004820152602401610344565b6001600160a01b03831661048157604051634a1406b160e11b815260006004820152602401610344565b6001600160a01b038085166000908152600160209081526040808320938716835292905220829055801561035c57826001600160a01b0316846001600160a01b03167f8c5be1e5ebec7d5bd14f71427d1e84f3dd0314c0f7b2291e5b200ac8c7c3b925846040516104f491815260200190565b60405180910390a350505050565b6001600160a01b03831661052d578060026000828254610522919061078c565b9091555061059f9050565b6001600160a01b038316600090815260208190526040902054818110156105805760405163391434e360e21b81526001600160a01b03851660048201526024810182905260448101839052606401610344565b6001600160a01b03841660009081526020819052604090209082900390555b6001600160a01b0382166105bb576002805482900390556105da565b6001600160a01b03821660009081526020819052604090208054820190555b816001600160a01b0316836001600160a01b03167fddf252ad1be2c89b69c2b068fc378daa952ba7f163c4a11628f55a4df523b3ef8360405161061f91815260200190565b60405180910390a3505050565b60006020808352835180602085015260005b8181101561065a5785810183015185820160400152820161063e565b506000604082860101526040601f19601f8301168501019250505092915050565b80356001600160a01b038116811461069257600080fd5b919050565b600080604083850312156106aa57600080fd5b6106b38361067b565b946020939093013593505050565b6000806000606084860312156106d657600080fd5b6106df8461067b565b92506106ed6020850161067b565b9150604084013590509250925092565b60006020828403121561070f57600080fd5b6107188261067b565b9392505050565b6000806040838503121561073257600080fd5b61073b8361067b565b91506107496020840161067b565b90509250929050565b600181811c9082168061076657607f821691505b60208210810361078657634e487b7160e01b600052602260045260246000fd5b50919050565b8082018082111561026e57634e487b7160e01b600052601160045260246000fdfea26469706673582212206b8b44da210be7472b831dcd4c003bd1f09c3d9dc7f9b1d50dafa1709f749a1564736f6c63430008180033",
        "nonce": "0x15",
        "chainId": "0x1e14"
      },
      "additionalContracts": [],
      "isFixedGasLimit": false
    },
    {
      "hash": "0xe87de7be445e2f89a6f9f1a21bb13dce7ff2f9560965bb6bfa78331237d831af",
      "transactionType": "CREATE",
      "contractName": "PublicMarket",
      "contractAddress": "0x4ed7c70f96b99c776995fb64377f0d4ab3b0e1c1",
      "function": null,
      "arguments": null,
      "transaction": {
        "from": "0xf39fd6e51aad88f6f4ce6ab8827279cfffb92266",
        "gas": "0x1f3f26",
        "value": "0x0",
        "input": "0x6080604052600160005534801561001557600080fd5b50611b23806100256000396000f3fe608060405234801561001057600080fd5b50600436106100a95760003560e01c8063714af34b11610071578063714af34b1461012f57806376f26ef8146101425780638a72ea6a14610163578063adb5198014610219578063c77e9a0214610244578063ef706adf1461025757600080fd5b8063082c3bc4146100ae5780630ff4c916146100d4578063119ff51d146100f457806351cff8d914610107578063658e48211461011c575b600080fd5b6100c16100bc3660046117d8565b61026a565b6040519081526020015b60405180910390f35b6100c16100e236600461181c565b60009081526002602052604090205490565b6100c16101023660046117d8565b61028a565b61011a610115366004611835565b61046a565b005b61011a61012a366004611850565b610477565b6100c161013d3660046118c5565b6104c1565b6101556101503660046118f8565b6104fd565b6040516100cb929190611970565b6101cd61017136600461181c565b6002602081905260009182526040909120805460018201549282015460039092015490926001600160601b038116926001600160a01b03600160601b9092048216929082169181169065ffffffffffff600160a01b9091041686565b604080519687526001600160601b0390951660208701526001600160a01b0393841694860194909452908216606085015216608083015265ffffffffffff1660a082015260c0016100cb565b6100c16102273660046118c5565b600160209081526000928352604080842090915290825290205481565b6100c161025236600461199e565b610664565b61011a61026536600461181c565b610685565b600061027f8585858565ffffffffffff6107b6565b90505b949350505050565b6000836000036102ad57604051631771cc0160e11b815260040160405180910390fd5b816000036102ce57604051631771cc0160e11b815260040160405180910390fd5b6001600160a01b0385166102f557604051631771cc0160e11b815260040160405180910390fd5b6001600160a01b03831661031c57604051631771cc0160e11b815260040160405180910390fd5b826001600160a01b0316856001600160a01b03160361034e57604051631771cc0160e11b815260040160405180910390fd5b600061035c86863330610988565b9050600061036a8483610a85565b905061271081101561038f576040516363c8f3fb60e01b815260040160405180910390fd5b60006040518060c001604052808381526020016103ab85610aa5565b6001600160601b031681526001600160a01b03808b16602083015288166040820152336060820152600060809091018190529091506103e982610abe565b905085810361040b57604051635876bf8160e01b815260040160405180910390fd5b6104153388610b5d565b801561045e573360009081526001602090815260408083206001600160a01b038d1684529091528120805483929061044e908490611a02565b9091555061045e9050338a610b5d565b98975050505050505050565b6104743382610b5d565b50565b8060005b818110156104bb576104b33385858481811061049957610499611a15565b90506020020160208101906104ae9190611835565b610b5d565b60010161047b565b50505050565b604080516001600160a01b0384811660208084019190915290841682840152825180830384018152606090920190925280519101205b92915050565b606080600061050c86866104c1565b60008181526003602052604090208054919250908086101561052b5750845b60008167ffffffffffffffff81111561054657610546611a2b565b60405190808252806020026020018201604052801561056f578160200160208202803683370190505b50905060008267ffffffffffffffff81111561058d5761058d611a2b565b6040519080825280602002602001820160405280156105b6578160200160208202803683370190505b5090506000805b84811015610651576105d186836001610bc2565b60008181526002602052604090206001015486519194506001600160601b0316915085908390811061060557610605611a15565b60200260200101818152505061062c60026000848152602001908152602001600020610c05565b83828151811061063e5761063e611a15565b60209081029190910101526001016105bd565b509196509450505050505b935093915050565b600061067b8686868661067687610c2f565b6107b6565b9695505050505050565b600081815260026020526040902060038101546001600160a01b031633146106c057604051630f1f82e960e31b815260040160405180910390fd5b600181015460028201546001600160a01b03600160601b9092048216916000916106ec918491166104c1565b600180850154336000908152602092835260408082206001600160a01b038816835290935291822080549394506001600160601b0390911692909190610733908490611a02565b9091555050600081815260036020526040902084906107529082610c52565b146107705760405163c5723b5160e01b815260040160405180910390fd5b600084815260026020819052604082208281556001810192909255810180546001600160a01b031916905560030180546001600160d01b03191690556104bb3383610b5d565b6000846000036107d957604051631771cc0160e11b815260040160405180910390fd5b826000036107fa57604051631771cc0160e11b815260040160405180910390fd5b6001600160a01b03861661082157604051631771cc0160e11b815260040160405180910390fd5b6001600160a01b03841661084857604051631771cc0160e11b815260040160405180910390fd5b836001600160a01b0316866001600160a01b03160361087a57604051631771cc0160e11b815260040160405180910390fd5b428265ffffffffffff16116108a257604051631771cc0160e11b815260040160405180910390fd5b60006108b087873330610988565b905060006108be8583610a85565b90506127108110156108e3576040516363c8f3fb60e01b815260040160405180910390fd5b60006040518060c001604052808381526020016108ff85610aa5565b6001600160601b031681526001600160a01b03808c1660208301528916604082015233606082015265ffffffffffff87166080909101529050600061094382610abe565b9050600081156109705761095682610aa5565b6001600160601b0316602084015261096d83610cec565b90505b61097a338a610b5d565b9a9950505050505050505050565b6040516370a0823160e01b81526001600160a01b03828116600483015260009182918716906370a0823190602401602060405180830381865afa1580156109d3573d6000803e3d6000fd5b505050506040513d601f19601f820116820180604052508101906109f79190611a41565b9050610a0e6001600160a01b038716858588610e87565b6040516370a0823160e01b81526001600160a01b0384811660048301528291908816906370a0823190602401602060405180830381865afa158015610a57573d6000803e3d6000fd5b505050506040513d601f19601f82011682018060405250810190610a7b9190611a41565b61067b9190611a5a565b6000610a9e836b033b2e3c9fd0803ce800000084610eee565b9392505050565b6000600160601b8210610aba57610aba610fb2565b5090565b600080610ad383604001518460600151610fc0565b60208401519091506001600160601b0316600060015b8015610b1057610b0484848860000151858a60400151610fcc565b90945092509050610ae9565b8115610b535733600090815260016020908152604080832060608a01516001600160a01b0316845290915281208054849290610b4d908490611a02565b90915550505b5090949350505050565b6001600160a01b038083166000908152600160209081526040808320938516835292905220548015610bbd576001600160a01b03808416600090815260016020908152604080832093861680845293909152812055610bbd908483611248565b505050565b600080610bcf8585611279565b610bde5750600090508061065c565b5050600082815260018481016020908152604080842085151585529091529091205461065c565b600181015481546000916104f791906001600160601b03166b033b2e3c9fd0803ce8000000610eee565b600066010000000000008210610c4757610c47610fb2565b5064ffffffffff1690565b6000811580610c685750610c668383611279565b155b15610c75575060006104f7565b600082815260018481016020908152604080842084805290915280832054828452922054610ca79286929091906112ee565b60008281526001848101602090815260408084208480529091528083208390558183528220829055845490918591610ce0908490611a5a565b90915550919392505050565b60808101516000906001600160a01b0316610d365760405162461bcd60e51b81526020600482015260056024820152640aad040ded60db1b60448201526064015b60405180910390fd5b6000805490819080610d4783611a6d565b909155505060008181526002602081815260408084208751815591870151908701516001600160a01b03808216600160601b026001600160601b03909316929092176001840155606088015193830180548584166001600160a01b031990911617905560808801516003909301805460a08a015165ffffffffffff16600160a01b026001600160d01b0319909116949093169390931791909117909155610ded916104c1565b6000818152600360205260408120865192935091610e0e9083903090611323565b9050610e1b8282866113f2565b610e3b57604051630e7afd5760e11b815260048101829052602401610d2d565b8551604080518681526020810186905280820192909252517f43118103466f8475c26ca895a4fb497bc81164e16090b6c5d8d29bff0b2a068c9181900360600190a15091949350505050565b6040516001600160a01b0384811660248301528381166044830152606482018390526104bb9186918216906323b872dd906084015b604051602081830303815290604052915060e01b6020820180516001600160e01b038381831617835250505050611401565b6000838302816000198587098281108382030391505080600003610f2557838281610f1b57610f1b611a86565b0492505050610a9e565b808411610f455760405163227bc15360e01b815260040160405180910390fd5b6000848688096000868103871696879004966002600389028118808a02820302808a02820302808a02820302808a02820302808a02820302808a02909103029181900381900460010186841190950394909402919094039290920491909117919091029150509392505050565b6335278d126000526004601cfd5b6000610a9e82846104c1565b6000858152600360205260408120819081908190610fec90826001610bc2565b9150508060000361100757600088879350935093505061123d565b600081815260026020526040902061102081838c611464565b6110355760018988945094509450505061123d565b8761103f826114a0565b10156110565760008988945094509450505061123d565b60008961106283610c05565b111561116957611072828b6114be565b6001830154909150611097906110929083906001600160601b0316611a5a565b610aa5565b6001830180546bffffffffffffffffffffffff19166001600160601b03929092169190911790556110c88189611a02565b60038301546001600160a01b039081166000908152600160209081526040808320938c1683529290529081208054929a508c92909190611109908490611a02565b90915550506003820154604080516001600160a01b03928316815291891660208301527f88f2b86ac62356711c096194cb8bcc4996fecfc20017ecedc832fa22522ffd64910160405180910390a16000808995509550955050505061123d565b61117282610c05565b600183015490915061118d906001600160601b031689611a02565b60038301546001600160a01b039081166000908152600160209081526040808320938c1683529290529081208054929a5083929091906111ce908490611a02565b90915550506003820154604080516001600160a01b03928316815291891660208301527f88f2b86ac62356711c096194cb8bcc4996fecfc20017ecedc832fa22522ffd64910160405180910390a16112268b846114dc565b6001611232828c611a5a565b899550955095505050505b955095509592505050565b6040516001600160a01b03838116602483015260448201839052610bbd91859182169063a9059cbb90606401610ebc565b600081815260018301602090815260408083208380529091528120541580156112bc57506000828152600180850160209081526040808420928452919052902054155b156112e65750600080805260018084016020908152604080842092845291905290205481146104f7565b5060016104f7565b600082815260019094016020818152604080872093158088529382528087208690559486529081528385209115855252912055565b600061132d845490565b60000361133c57506000610a9e565b600061134b8560006001610bc2565b9150505b80158015906113cb57506040516307fa648b60e11b8152600481018290526001906001600160a01b03861690630ff4c91690602401602060405180830381865afa1580156113a1573d6000803e3d6000fd5b505050506040513d601f19601f820116820180604052508101906113c59190611a41565b84111514155b1561028257600090815260018086016020908152604080842092845291905290205461134f565b60006102828484846000611533565b60006114166001600160a01b038416836115bc565b9050805160001415801561143b5750808060200190518101906114399190611a9c565b155b15610bbd57604051635274afe760e01b81526001600160a01b0384166004820152602401610d2d565b600383015460009042600160a01b90910465ffffffffffff1610156114965761148e8484846115ca565b506000610a9e565b5060019392505050565b80546000906104f7906b033b2e3c9fd0803ce8000000908190610eee565b8154600090610a9e9083906b033b2e3c9fd0803ce800000090610eee565b60008281526003602052604090206114f39061167a565b50600090815260026020819052604082208281556001810192909255810180546001600160a01b031916905560030180546001600160d01b031916905550565b600061153f8584611279565b15801561155157506115518585611279565b156115b157600084815260018601602090815260408083208515158452909152902054611580868686866112ee565b61158c868583866112ee565b60018660000160008282546115a19190611a02565b9091555060019250610282915050565b506000949350505050565b6060610a9e83836000611687565b60018084015460038501546001600160a01b03908116600090815260209384526040808220600160601b8504909316825291909352822080546001600160601b0390921692909161161c908490611a02565b909155505060008181526003602052604090206116399083610c52565b5050600090815260026020819052604082208281556001810192909255810180546001600160a01b031916905560030180546001600160d01b031916905550565b60006104f782600161171a565b6060814710156116ac5760405163cd78605960e01b8152306004820152602401610d2d565b600080856001600160a01b031684866040516116c89190611abe565b60006040518083038185875af1925050503d8060008114611705576040519150601f19603f3d011682016040523d82523d6000602084013e61170a565b606091505b509150915061067b868383611737565b60008061172984600085610bc2565b915061028290508482610c52565b60608261174c5761174782611793565b610a9e565b815115801561176357506001600160a01b0384163b155b1561178c57604051639996b31560e01b81526001600160a01b0385166004820152602401610d2d565b5080610a9e565b8051156117a35780518082602001fd5b604051630a12f52160e11b815260040160405180910390fd5b80356001600160a01b03811681146117d357600080fd5b919050565b600080600080608085870312156117ee57600080fd5b6117f7856117bc565b93506020850135925061180c604086016117bc565b9396929550929360600135925050565b60006020828403121561182e57600080fd5b5035919050565b60006020828403121561184757600080fd5b610a9e826117bc565b6000806020838503121561186357600080fd5b823567ffffffffffffffff8082111561187b57600080fd5b818501915085601f83011261188f57600080fd5b81358181111561189e57600080fd5b8660208260051b85010111156118b357600080fd5b60209290920196919550909350505050565b600080604083850312156118d857600080fd5b6118e1836117bc565b91506118ef602084016117bc565b90509250929050565b60008060006060848603121561190d57600080fd5b611916846117bc565b9250611924602085016117bc565b9150604084013590509250925092565b60008151808452602080850194506020840160005b8381101561196557815187529582019590820190600101611949565b509495945050505050565b6040815260006119836040830185611934565b82810360208401526119958185611934565b95945050505050565b600080600080600060a086880312156119b657600080fd5b6119bf866117bc565b9450602086013593506119d4604087016117bc565b94979396509394606081013594506080013592915050565b634e487b7160e01b600052601160045260246000fd5b808201808211156104f7576104f76119ec565b634e487b7160e01b600052603260045260246000fd5b634e487b7160e01b600052604160045260246000fd5b600060208284031215611a5357600080fd5b5051919050565b818103818111156104f7576104f76119ec565b600060018201611a7f57611a7f6119ec565b5060010190565b634e487b7160e01b600052601260045260246000fd5b600060208284031215611aae57600080fd5b81518015158114610a9e57600080fd5b6000825160005b81811015611adf5760208186018101518583015201611ac5565b50600092019182525091905056fea2646970667358221220920b3cfceb895d0b079847481f47ad6941c20ad5d6e4d3ae98131af5852e4ae564736f6c63430008180033",
        "nonce": "0x16",
        "chainId": "0x1e14"
      },
      "additionalContracts": [],
      "isFixedGasLimit": false
    },
    {
      "hash": "0x14ed3d8fab83b589db86c034d19a9719dfd51635716f020eb9c7b9a8f53e33e9",
      "transactionType": "CALL",
      "contractName": "ERC20Mock",
      "contractAddress": "0xc6e7df5e7b4f2a278906862b61205850344d4e7d",
      "function": "mint(address,uint256)",
      "arguments": [
        "0xf39Fd6e51aad88F6F4ce6aB8827279cffFb92266",
        "1000000000000000000000000"
      ],
      "transaction": {
        "from": "0xf39fd6e51aad88f6f4ce6ab8827279cfffb92266",
        "to": "0xc6e7df5e7b4f2a278906862b61205850344d4e7d",
        "gas": "0x186f3",
        "value": "0x0",
        "input": "0x40c10f19000000000000000000000000f39fd6e51aad88f6f4ce6ab8827279cfffb9226600000000000000000000000000000000000000000000d3c21bcecceda1000000",
        "nonce": "0x17",
        "chainId": "0x1e14"
      },
      "additionalContracts": [],
      "isFixedGasLimit": false
    },
    {
      "hash": "0x327eca42f9a481f68811a74f683d46acf6ddde27d7502744e86a5545c5109334",
      "transactionType": "CALL",
      "contractName": "ERC20Mock",
      "contractAddress": "0x59b670e9fa9d0a427751af201d676719a970857b",
      "function": "mint(address,uint256)",
      "arguments": [
        "0xf39Fd6e51aad88F6F4ce6aB8827279cffFb92266",
        "1000000000000000000000000"
      ],
      "transaction": {
        "from": "0xf39fd6e51aad88f6f4ce6ab8827279cfffb92266",
        "to": "0x59b670e9fa9d0a427751af201d676719a970857b",
        "gas": "0x186f3",
        "value": "0x0",
        "input": "0x40c10f19000000000000000000000000f39fd6e51aad88f6f4ce6ab8827279cfffb9226600000000000000000000000000000000000000000000d3c21bcecceda1000000",
        "nonce": "0x18",
        "chainId": "0x1e14"
      },
      "additionalContracts": [],
      "isFixedGasLimit": false
    },
    {
      "hash": "0xff783e73d222917dfa9b568ac8c224e87467830ef89229257a9fbc66f297cc66",
      "transactionType": "CALL",
      "contractName": null,
      "contractAddress": "0x826551890dc65655a0aceca109ab11abdbd7a07b",
      "function": null,
      "arguments": null,
      "transaction": {
        "from": "0xf39fd6e51aad88f6f4ce6ab8827279cfffb92266",
        "to": "0x826551890dc65655a0aceca109ab11abdbd7a07b",
        "gas": "0x100ac",
        "value": "0x1b1ae4d6e2ef5000000",
        "input": "0xd0e30db0",
        "nonce": "0x19",
        "chainId": "0x1e14"
      },
      "additionalContracts": [],
      "isFixedGasLimit": false
    },
    {
      "hash": "0x959cf4eb7d84057bf68e7489736d5be9cd58097ae4a79430e4b4069bda0f46a8",
      "transactionType": "CALL",
      "contractName": null,
      "contractAddress": "0x4e71a2e537b7f9d9413d3991d37958c0b5e1e503",
      "function": "approve(address,uint256)",
      "arguments": [
        "0x4ed7c70F96B99c776995fB64377f0d4aB3B0e1C1",
        "115792089237316195423570985008687907853269984665640564039457584007913129639935"
      ],
      "transaction": {
        "from": "0xf39fd6e51aad88f6f4ce6ab8827279cfffb92266",
        "to": "0x4e71a2e537b7f9d9413d3991d37958c0b5e1e503",
        "gas": "0xfb60",
        "value": "0x0",
        "input": "0x095ea7b30000000000000000000000004ed7c70f96b99c776995fb64377f0d4ab3b0e1c1ffffffffffffffffffffffffffffffffffffffffffffffffffffffffffffffff",
        "nonce": "0x1a",
        "chainId": "0x1e14"
      },
      "additionalContracts": [],
      "isFixedGasLimit": false
    },
    {
      "hash": "0x4dfa6fd3ab5c768b30e6a7b656429509dae96166945b1e088499ee5ed6df4719",
      "transactionType": "CALL",
      "contractName": null,
      "contractAddress": "0x826551890dc65655a0aceca109ab11abdbd7a07b",
      "function": "approve(address,uint256)",
      "arguments": [
        "0x4ed7c70F96B99c776995fB64377f0d4aB3B0e1C1",
        "115792089237316195423570985008687907853269984665640564039457584007913129639935"
      ],
      "transaction": {
        "from": "0xf39fd6e51aad88f6f4ce6ab8827279cfffb92266",
        "to": "0x826551890dc65655a0aceca109ab11abdbd7a07b",
        "gas": "0x11476",
        "value": "0x0",
        "input": "0x095ea7b30000000000000000000000004ed7c70f96b99c776995fb64377f0d4ab3b0e1c1ffffffffffffffffffffffffffffffffffffffffffffffffffffffffffffffff",
        "nonce": "0x1b",
        "chainId": "0x1e14"
      },
      "additionalContracts": [],
      "isFixedGasLimit": false
    },
    {
      "hash": "0x12c784eb5c7fe333a7f427a0d273a4d33aff084bf20d063c833f8ca635100d4f",
      "transactionType": "CALL",
      "contractName": "ERC20Mock",
      "contractAddress": "0xc6e7df5e7b4f2a278906862b61205850344d4e7d",
      "function": "approve(address,uint256)",
      "arguments": [
        "0x4ed7c70F96B99c776995fB64377f0d4aB3B0e1C1",
        "115792089237316195423570985008687907853269984665640564039457584007913129639935"
      ],
      "transaction": {
        "from": "0xf39fd6e51aad88f6f4ce6ab8827279cfffb92266",
        "to": "0xc6e7df5e7b4f2a278906862b61205850344d4e7d",
        "gas": "0x10ab1",
        "value": "0x0",
        "input": "0x095ea7b30000000000000000000000004ed7c70f96b99c776995fb64377f0d4ab3b0e1c1ffffffffffffffffffffffffffffffffffffffffffffffffffffffffffffffff",
        "nonce": "0x1c",
        "chainId": "0x1e14"
      },
      "additionalContracts": [],
      "isFixedGasLimit": false
    },
    {
      "hash": "0x0d3b7125848c31abbde5ca45bd8cf25e8e91afd301bbcb9984e10ec67a37eaa2",
      "transactionType": "CALL",
      "contractName": "ERC20Mock",
      "contractAddress": "0x59b670e9fa9d0a427751af201d676719a970857b",
      "function": "approve(address,uint256)",
      "arguments": [
        "0x4ed7c70F96B99c776995fB64377f0d4aB3B0e1C1",
        "115792089237316195423570985008687907853269984665640564039457584007913129639935"
      ],
      "transaction": {
        "from": "0xf39fd6e51aad88f6f4ce6ab8827279cfffb92266",
        "to": "0x59b670e9fa9d0a427751af201d676719a970857b",
        "gas": "0x10ab1",
        "value": "0x0",
        "input": "0x095ea7b30000000000000000000000004ed7c70f96b99c776995fb64377f0d4ab3b0e1c1ffffffffffffffffffffffffffffffffffffffffffffffffffffffffffffffff",
        "nonce": "0x1d",
        "chainId": "0x1e14"
      },
      "additionalContracts": [],
      "isFixedGasLimit": false
    },
    {
      "hash": "0xbd70f88c7fdd1311886cce14689253bbca4b02d8f0926769ba984318098f45f5",
      "transactionType": "CALL",
      "contractName": "PublicMarket",
      "contractAddress": "0x4ed7c70f96b99c776995fb64377f0d4ab3b0e1c1",
      "function": "makeOfferSimple(address,uint256,address,uint256)",
      "arguments": [
        "0xc6e7DF5E7b4f2A278906862b61205850344D4e7d",
        "5000000000000000000",
        "0x826551890Dc65655a0Aceca109aB11AbDbD7a07B",
        "20000000000000000000"
      ],
      "transaction": {
        "from": "0xf39fd6e51aad88f6f4ce6ab8827279cfffb92266",
        "to": "0x4ed7c70f96b99c776995fb64377f0d4ab3b0e1c1",
        "gas": "0x50cd5",
        "value": "0x0",
        "input": "0x082c3bc4000000000000000000000000c6e7df5e7b4f2a278906862b61205850344d4e7d0000000000000000000000000000000000000000000000004563918244f40000000000000000000000000000826551890dc65655a0aceca109ab11abdbd7a07b000000000000000000000000000000000000000000000001158e460913d00000",
        "nonce": "0x1e",
        "chainId": "0x1e14"
      },
      "additionalContracts": [],
      "isFixedGasLimit": false
    },
    {
      "hash": "0x4e44d5e1e6e2411ab3b05363d10605b4ec8d8fdc6460511d0ee827756820d933",
      "transactionType": "CALL",
      "contractName": "PublicMarket",
      "contractAddress": "0x4ed7c70f96b99c776995fb64377f0d4ab3b0e1c1",
      "function": "makeOfferSimple(address,uint256,address,uint256)",
      "arguments": [
        "0xc6e7DF5E7b4f2A278906862b61205850344D4e7d",
        "5480000000000000000",
        "0x826551890Dc65655a0Aceca109aB11AbDbD7a07B",
        "22000000000000000000"
      ],
      "transaction": {
        "from": "0xf39fd6e51aad88f6f4ce6ab8827279cfffb92266",
        "to": "0x4ed7c70f96b99c776995fb64377f0d4ab3b0e1c1",
        "gas": "0x48061",
        "value": "0x0",
        "input": "0x082c3bc4000000000000000000000000c6e7df5e7b4f2a278906862b61205850344d4e7d0000000000000000000000000000000000000000000000004c0cdef739240000000000000000000000000000826551890dc65655a0aceca109ab11abdbd7a07b000000000000000000000000000000000000000000000001314fb37062980000",
        "nonce": "0x1f",
        "chainId": "0x1e14"
      },
      "additionalContracts": [],
      "isFixedGasLimit": false
    },
    {
      "hash": "0x00b3024dfbab4e8eb8f568dcc7faa188f638a0d9ed5fc30d9cdeb6c9a226f2da",
      "transactionType": "CALL",
      "contractName": "PublicMarket",
      "contractAddress": "0x4ed7c70f96b99c776995fb64377f0d4ab3b0e1c1",
      "function": "makeOfferSimple(address,uint256,address,uint256)",
      "arguments": [
        "0xc6e7DF5E7b4f2A278906862b61205850344D4e7d",
        "4700000000000000000",
        "0x826551890Dc65655a0Aceca109aB11AbDbD7a07B",
        "21000000000000000000"
      ],
      "transaction": {
        "from": "0xf39fd6e51aad88f6f4ce6ab8827279cfffb92266",
        "to": "0x4ed7c70f96b99c776995fb64377f0d4ab3b0e1c1",
        "gas": "0x49c24",
        "value": "0x0",
        "input": "0x082c3bc4000000000000000000000000c6e7df5e7b4f2a278906862b61205850344d4e7d0000000000000000000000000000000000000000000000004139c1192c560000000000000000000000000000826551890dc65655a0aceca109ab11abdbd7a07b000000000000000000000000000000000000000000000001236efcbcbb340000",
        "nonce": "0x20",
        "chainId": "0x1e14"
      },
      "additionalContracts": [],
      "isFixedGasLimit": false
    },
    {
      "hash": "0xd2b6bd5dc1781d8332efb7125de18d31f3790421c324598269ea376f33cde392",
      "transactionType": "CALL",
      "contractName": "PublicMarket",
      "contractAddress": "0x4ed7c70f96b99c776995fb64377f0d4ab3b0e1c1",
      "function": "makeOfferSimple(address,uint256,address,uint256)",
      "arguments": [
        "0xc6e7DF5E7b4f2A278906862b61205850344D4e7d",
        "6000000000000000000",
        "0x826551890Dc65655a0Aceca109aB11AbDbD7a07B",
        "27000000000000000000"
      ],
      "transaction": {
        "from": "0xf39fd6e51aad88f6f4ce6ab8827279cfffb92266",
        "to": "0x4ed7c70f96b99c776995fb64377f0d4ab3b0e1c1",
        "gas": "0x4b7e7",
        "value": "0x0",
        "input": "0x082c3bc4000000000000000000000000c6e7df5e7b4f2a278906862b61205850344d4e7d00000000000000000000000000000000000000000000000053444835ec580000000000000000000000000000826551890dc65655a0aceca109ab11abdbd7a07b00000000000000000000000000000000000000000000000176b344f2a78c0000",
        "nonce": "0x21",
        "chainId": "0x1e14"
      },
      "additionalContracts": [],
      "isFixedGasLimit": false
    },
    {
      "hash": "0xe820f96333261417da90ea8b13803dcf42c47c3a0067b7f223ffc79e90c8d9f5",
      "transactionType": "CALL",
      "contractName": "PublicMarket",
      "contractAddress": "0x4ed7c70f96b99c776995fb64377f0d4ab3b0e1c1",
      "function": "makeOfferSimple(address,uint256,address,uint256)",
      "arguments": [
        "0xc6e7DF5E7b4f2A278906862b61205850344D4e7d",
        "6500000000000000000",
        "0x826551890Dc65655a0Aceca109aB11AbDbD7a07B",
        "29000000000000000000"
      ],
      "transaction": {
        "from": "0xf39fd6e51aad88f6f4ce6ab8827279cfffb92266",
        "to": "0x4ed7c70f96b99c776995fb64377f0d4ab3b0e1c1",
        "gas": "0x4c559",
        "value": "0x0",
        "input": "0x082c3bc4000000000000000000000000c6e7df5e7b4f2a278906862b61205850344d4e7d0000000000000000000000000000000000000000000000005a34a38fc00a0000000000000000000000000000826551890dc65655a0aceca109ab11abdbd7a07b0000000000000000000000000000000000000000000000019274b259f6540000",
        "nonce": "0x22",
        "chainId": "0x1e14"
      },
      "additionalContracts": [],
      "isFixedGasLimit": false
    },
    {
      "hash": "0xdc9ad90ad43eb2eb8345917a128b06a791d79149fb8351deedb805668c510e67",
      "transactionType": "CALL",
      "contractName": "PublicMarket",
      "contractAddress": "0x4ed7c70f96b99c776995fb64377f0d4ab3b0e1c1",
      "function": "makeOfferSimple(address,uint256,address,uint256)",
      "arguments": [
        "0x826551890Dc65655a0Aceca109aB11AbDbD7a07B",
        "20000000000000000000",
        "0xc6e7DF5E7b4f2A278906862b61205850344D4e7d",
        "5200000000000000000"
      ],
      "transaction": {
        "from": "0xf39fd6e51aad88f6f4ce6ab8827279cfffb92266",
        "to": "0x4ed7c70f96b99c776995fb64377f0d4ab3b0e1c1",
        "gas": "0x570ab",
        "value": "0x0",
        "input": "0x082c3bc4000000000000000000000000826551890dc65655a0aceca109ab11abdbd7a07b000000000000000000000000000000000000000000000001158e460913d00000000000000000000000000000c6e7df5e7b4f2a278906862b61205850344d4e7d000000000000000000000000000000000000000000000000482a1c7300080000",
        "nonce": "0x23",
        "chainId": "0x1e14"
      },
      "additionalContracts": [],
      "isFixedGasLimit": false
    },
    {
      "hash": "0xf1d90b45ba846476b41496ced462b1a18eb9da4df1290e9695bd3791bd188d16",
      "transactionType": "CALL",
      "contractName": "PublicMarket",
      "contractAddress": "0x4ed7c70f96b99c776995fb64377f0d4ab3b0e1c1",
      "function": "makeOfferSimple(address,uint256,address,uint256)",
      "arguments": [
        "0x826551890Dc65655a0Aceca109aB11AbDbD7a07B",
        "22000000000000000000",
        "0xc6e7DF5E7b4f2A278906862b61205850344D4e7d",
        "5800000000000000000"
      ],
      "transaction": {
        "from": "0xf39fd6e51aad88f6f4ce6ab8827279cfffb92266",
        "to": "0x4ed7c70f96b99c776995fb64377f0d4ab3b0e1c1",
        "gas": "0x496e7",
        "value": "0x0",
        "input": "0x082c3bc4000000000000000000000000826551890dc65655a0aceca109ab11abdbd7a07b000000000000000000000000000000000000000000000001314fb37062980000000000000000000000000000c6e7df5e7b4f2a278906862b61205850344d4e7d000000000000000000000000000000000000000000000000507dbd4531440000",
        "nonce": "0x24",
        "chainId": "0x1e14"
      },
      "additionalContracts": [],
      "isFixedGasLimit": false
    },
    {
      "hash": "0x8ca30b9c6e3d2572171fb7109e2e582327165aee12cef765fa4eb98cbacf0c7d",
      "transactionType": "CALL",
      "contractName": "PublicMarket",
      "contractAddress": "0x4ed7c70f96b99c776995fb64377f0d4ab3b0e1c1",
      "function": "makeOfferSimple(address,uint256,address,uint256)",
      "arguments": [
        "0x826551890Dc65655a0Aceca109aB11AbDbD7a07B",
        "21000000000000000000",
        "0xc6e7DF5E7b4f2A278906862b61205850344D4e7d",
        "5300000000000000000"
      ],
      "transaction": {
        "from": "0xf39fd6e51aad88f6f4ce6ab8827279cfffb92266",
        "to": "0x4ed7c70f96b99c776995fb64377f0d4ab3b0e1c1",
        "gas": "0x4e726",
        "value": "0x0",
        "input": "0x082c3bc4000000000000000000000000826551890dc65655a0aceca109ab11abdbd7a07b000000000000000000000000000000000000000000000001236efcbcbb340000000000000000000000000000c6e7df5e7b4f2a278906862b61205850344d4e7d000000000000000000000000000000000000000000000000498d61eb5d920000",
        "nonce": "0x25",
        "chainId": "0x1e14"
      },
      "additionalContracts": [],
      "isFixedGasLimit": false
    },
    {
      "hash": "0x7882e131da52ac3d4e31c22c30e9647d67d41e25537833086341562bf8140676",
      "transactionType": "CALL",
      "contractName": "PublicMarket",
      "contractAddress": "0x4ed7c70f96b99c776995fb64377f0d4ab3b0e1c1",
      "function": "makeOfferSimple(address,uint256,address,uint256)",
      "arguments": [
        "0x826551890Dc65655a0Aceca109aB11AbDbD7a07B",
        "25000000000000000000",
        "0xc6e7DF5E7b4f2A278906862b61205850344D4e7d",
        "6300000000000000000"
      ],
      "transaction": {
        "from": "0xf39fd6e51aad88f6f4ce6ab8827279cfffb92266",
        "to": "0x4ed7c70f96b99c776995fb64377f0d4ab3b0e1c1",
        "gas": "0x4e726",
        "value": "0x0",
        "input": "0x082c3bc4000000000000000000000000826551890dc65655a0aceca109ab11abdbd7a07b0000000000000000000000000000000000000000000000015af1d78b58c40000000000000000000000000000c6e7df5e7b4f2a278906862b61205850344d4e7d000000000000000000000000000000000000000000000000576e189f04f60000",
        "nonce": "0x26",
        "chainId": "0x1e14"
      },
      "additionalContracts": [],
      "isFixedGasLimit": false
    },
    {
      "hash": "0x9af3c4d5bfc5a6ec68f2b3055d8da91b4b929e09fe589b4f6aa03cc26c2b1bca",
      "transactionType": "CALL",
      "contractName": "PublicMarket",
      "contractAddress": "0x4ed7c70f96b99c776995fb64377f0d4ab3b0e1c1",
      "function": "makeOfferSimple(address,uint256,address,uint256)",
      "arguments": [
        "0x826551890Dc65655a0Aceca109aB11AbDbD7a07B",
        "29000000000000000000",
        "0xc6e7DF5E7b4f2A278906862b61205850344D4e7d",
        "7300000000000000000"
      ],
      "transaction": {
        "from": "0xf39fd6e51aad88f6f4ce6ab8827279cfffb92266",
        "to": "0x4ed7c70f96b99c776995fb64377f0d4ab3b0e1c1",
        "gas": "0x4e726",
        "value": "0x0",
        "input": "0x082c3bc4000000000000000000000000826551890dc65655a0aceca109ab11abdbd7a07b0000000000000000000000000000000000000000000000019274b259f6540000000000000000000000000000c6e7df5e7b4f2a278906862b61205850344d4e7d000000000000000000000000000000000000000000000000654ecf52ac5a0000",
        "nonce": "0x27",
        "chainId": "0x1e14"
      },
      "additionalContracts": [],
      "isFixedGasLimit": false
    }
  ],
  "receipts": [
    {
      "status": "0x1",
      "cumulativeGasUsed": "0x8432c",
      "logs": [],
      "logsBloom": "0x00000000000000000000000000000000000000000000000000000000000000000000000000000000000000000000000000000000000000000000000000000000000000000000000000000000000000000000000000000000000000000000000000000000000000000000000000000000000000000000000000000000000000000000000000000000000000000000000000000000000000000000000000000000000000000000000000000000000000000000000000000000000000000000000000000000000000000000000000000000000000000000000000000000000000000000000000000000000000000000000000000000000000000000000000000000",
      "type": "0x2",
      "transactionHash": "0x89647a75efd1234e009b176816c9dc3f33bb21b0376d015cdbc68fc832a1495c",
      "transactionIndex": "0x0",
      "blockHash": "0x91929ec424744fc362477bb63e1dcc79925d76e4e04df3936af67dd0040c6260",
      "blockNumber": "0x8fd388",
      "gasUsed": "0x8432c",
      "effectiveGasPrice": "0xd6ba79ea4",
      "from": "0xf39fd6e51aad88f6f4ce6ab8827279cfffb92266",
      "to": null,
      "contractAddress": "0xc6e7df5e7b4f2a278906862b61205850344d4e7d",
      "root": "0x0000000000000000000000000000000000000000000000000000000000000000"
    },
    {
      "status": "0x1",
      "cumulativeGasUsed": "0x8432c",
      "logs": [],
      "logsBloom": "0x00000000000000000000000000000000000000000000000000000000000000000000000000000000000000000000000000000000000000000000000000000000000000000000000000000000000000000000000000000000000000000000000000000000000000000000000000000000000000000000000000000000000000000000000000000000000000000000000000000000000000000000000000000000000000000000000000000000000000000000000000000000000000000000000000000000000000000000000000000000000000000000000000000000000000000000000000000000000000000000000000000000000000000000000000000000",
      "type": "0x2",
      "transactionHash": "0x56511ae2e172e25dce76144adfd2f4adf13104801ce1d10fb9cc559649c76876",
      "transactionIndex": "0x0",
      "blockHash": "0xc06f48579ec776ef354f8c2bb587bd0f45054a2b3a485a4480b58b0787bc3159",
      "blockNumber": "0x8fd389",
      "gasUsed": "0x8432c",
      "effectiveGasPrice": "0xc3072bad7",
      "from": "0xf39fd6e51aad88f6f4ce6ab8827279cfffb92266",
      "to": null,
      "contractAddress": "0x59b670e9fa9d0a427751af201d676719a970857b",
      "root": "0x0000000000000000000000000000000000000000000000000000000000000000"
    },
    {
      "status": "0x1",
      "cumulativeGasUsed": "0x204e13",
      "logs": [],
      "logsBloom": "0x00000000000000000000000000000000000000000000000000000000000000000000000000000000000000000000000000000000000000000000000000000000000000000000000000000000000000000000000000000000000000000000000000000000000000000000000000000000000000000000000000000000000000000000000000000000000000000000000000000000000000000000000000000000000000000000000000000000000000000000000000000000000000000000000000000000000000000000000000000000000000000000000000000000000000000000000000000000000000000000000000000000000000000000000000000000",
      "type": "0x2",
      "transactionHash": "0xe87de7be445e2f89a6f9f1a21bb13dce7ff2f9560965bb6bfa78331237d831af",
      "transactionIndex": "0x1",
      "blockHash": "0xc06f48579ec776ef354f8c2bb587bd0f45054a2b3a485a4480b58b0787bc3159",
      "blockNumber": "0x8fd389",
      "gasUsed": "0x180ae7",
      "effectiveGasPrice": "0xc3072bad7",
      "from": "0xf39fd6e51aad88f6f4ce6ab8827279cfffb92266",
      "to": null,
      "contractAddress": "0x4ed7c70f96b99c776995fb64377f0d4ab3b0e1c1",
      "root": "0x0000000000000000000000000000000000000000000000000000000000000000"
    },
    {
      "status": "0x1",
      "cumulativeGasUsed": "0x215964",
      "logs": [
        {
          "address": "0xc6e7df5e7b4f2a278906862b61205850344d4e7d",
          "topics": [
            "0xddf252ad1be2c89b69c2b068fc378daa952ba7f163c4a11628f55a4df523b3ef",
            "0x0000000000000000000000000000000000000000000000000000000000000000",
            "0x000000000000000000000000f39fd6e51aad88f6f4ce6ab8827279cfffb92266"
          ],
          "data": "0x00000000000000000000000000000000000000000000d3c21bcecceda1000000",
          "blockHash": "0xc06f48579ec776ef354f8c2bb587bd0f45054a2b3a485a4480b58b0787bc3159",
          "blockNumber": "0x8fd389",
          "blockTimestamp": "0x6632bbd5",
          "transactionHash": "0x14ed3d8fab83b589db86c034d19a9719dfd51635716f020eb9c7b9a8f53e33e9",
          "transactionIndex": "0x2",
          "logIndex": "0x0",
          "removed": false
        }
      ],
      "logsBloom": "0x00000000000000000000000000000000000000000000000000000000000000000000000000000000000000800000000000000000000000000000000000000000000000000000000000000008000000000000000000000000000000000000000000000000020000000000000100000800000000000000000000000010000000000000000000000000000000000000000000000000000000000000000000000000000000000000000000000000000000000000000000000000000000000000000000000002000000200000000000100000000000002000000000000000000020000000000000000000000000800000000000000000000000000000000000000000",
      "type": "0x2",
      "transactionHash": "0x14ed3d8fab83b589db86c034d19a9719dfd51635716f020eb9c7b9a8f53e33e9",
      "transactionIndex": "0x2",
      "blockHash": "0xc06f48579ec776ef354f8c2bb587bd0f45054a2b3a485a4480b58b0787bc3159",
      "blockNumber": "0x8fd389",
      "gasUsed": "0x10b51",
      "effectiveGasPrice": "0xc3072bad7",
      "from": "0xf39fd6e51aad88f6f4ce6ab8827279cfffb92266",
      "to": "0xc6e7df5e7b4f2a278906862b61205850344d4e7d",
      "contractAddress": null,
      "root": "0x0000000000000000000000000000000000000000000000000000000000000000"
    },
    {
      "status": "0x1",
      "cumulativeGasUsed": "0x2264b5",
      "logs": [
        {
          "address": "0x59b670e9fa9d0a427751af201d676719a970857b",
          "topics": [
            "0xddf252ad1be2c89b69c2b068fc378daa952ba7f163c4a11628f55a4df523b3ef",
            "0x0000000000000000000000000000000000000000000000000000000000000000",
            "0x000000000000000000000000f39fd6e51aad88f6f4ce6ab8827279cfffb92266"
          ],
          "data": "0x00000000000000000000000000000000000000000000d3c21bcecceda1000000",
          "blockHash": "0xc06f48579ec776ef354f8c2bb587bd0f45054a2b3a485a4480b58b0787bc3159",
          "blockNumber": "0x8fd389",
          "blockTimestamp": "0x6632bbd5",
          "transactionHash": "0x327eca42f9a481f68811a74f683d46acf6ddde27d7502744e86a5545c5109334",
          "transactionIndex": "0x3",
          "logIndex": "0x1",
          "removed": false
        }
      ],
      "logsBloom": "0x00000000000000000000000000000000000000000000000000000000000000000000000000000000000000000000000000000000000000000000000000000000000000000000000000000008000000000000000008000000000000000000000000000000020000000000000100000800000000000000000000000010000000000000000000000000000000000000000000000000000000000000000000000000000000000000000000000000000000080000000000000000000000000000000000000002000000200000000000020000000000002000000000000000000020000000000000000000000000000000000000000000000000000000000000000000",
      "type": "0x2",
      "transactionHash": "0x327eca42f9a481f68811a74f683d46acf6ddde27d7502744e86a5545c5109334",
      "transactionIndex": "0x3",
      "blockHash": "0xc06f48579ec776ef354f8c2bb587bd0f45054a2b3a485a4480b58b0787bc3159",
      "blockNumber": "0x8fd389",
      "gasUsed": "0x10b51",
      "effectiveGasPrice": "0xc3072bad7",
      "from": "0xf39fd6e51aad88f6f4ce6ab8827279cfffb92266",
      "to": "0x59b670e9fa9d0a427751af201d676719a970857b",
      "contractAddress": null,
      "root": "0x0000000000000000000000000000000000000000000000000000000000000000"
    },
    {
      "status": "0x1",
      "cumulativeGasUsed": "0x231436",
      "logs": [
        {
          "address": "0x826551890dc65655a0aceca109ab11abdbd7a07b",
          "topics": [
            "0xe1fffcc4923d04b559f4d29a8bfc6cda04eb5b0d3c460751c2402c5c5cc9109c",
            "0x000000000000000000000000f39fd6e51aad88f6f4ce6ab8827279cfffb92266"
          ],
          "data": "0x0000000000000000000000000000000000000000000001b1ae4d6e2ef5000000",
          "blockHash": "0xc06f48579ec776ef354f8c2bb587bd0f45054a2b3a485a4480b58b0787bc3159",
          "blockNumber": "0x8fd389",
          "blockTimestamp": "0x6632bbd5",
          "transactionHash": "0xff783e73d222917dfa9b568ac8c224e87467830ef89229257a9fbc66f297cc66",
          "transactionIndex": "0x4",
          "logIndex": "0x2",
          "removed": false
        }
      ],
      "logsBloom": "0x00000000000000000000000000000000000000000000000000000000000000000000000000000000000000000000000000000000000000800000000000000080000000000000000000000000000000000000000000000000000000008000000000000000000000000000000100000000000000000000000000000000000000000000000000000000000000000000000000000001000000000000000000000000000000000000000000000000000000000000000000000000008000000000000000000000000000200000000000000000000000002000000000000000000000000000000000000000000000000000000000000000000000400000000000000000",
      "type": "0x2",
      "transactionHash": "0xff783e73d222917dfa9b568ac8c224e87467830ef89229257a9fbc66f297cc66",
      "transactionIndex": "0x4",
      "blockHash": "0xc06f48579ec776ef354f8c2bb587bd0f45054a2b3a485a4480b58b0787bc3159",
      "blockNumber": "0x8fd389",
      "gasUsed": "0xaf81",
      "effectiveGasPrice": "0xc3072bad7",
      "from": "0xf39fd6e51aad88f6f4ce6ab8827279cfffb92266",
      "to": "0x826551890dc65655a0aceca109ab11abdbd7a07b",
      "contractAddress": null,
      "root": "0x0000000000000000000000000000000000000000000000000000000000000000"
    },
    {
      "status": "0x1",
      "cumulativeGasUsed": "0x23ca35",
      "logs": [
        {
          "address": "0x4e71a2e537b7f9d9413d3991d37958c0b5e1e503",
          "topics": [
            "0x8c5be1e5ebec7d5bd14f71427d1e84f3dd0314c0f7b2291e5b200ac8c7c3b925",
            "0x000000000000000000000000f39fd6e51aad88f6f4ce6ab8827279cfffb92266",
            "0x0000000000000000000000004ed7c70f96b99c776995fb64377f0d4ab3b0e1c1"
          ],
          "data": "0xffffffffffffffffffffffffffffffffffffffffffffffffffffffffffffffff",
          "blockHash": "0xc06f48579ec776ef354f8c2bb587bd0f45054a2b3a485a4480b58b0787bc3159",
          "blockNumber": "0x8fd389",
          "blockTimestamp": "0x6632bbd5",
          "transactionHash": "0x959cf4eb7d84057bf68e7489736d5be9cd58097ae4a79430e4b4069bda0f46a8",
          "transactionIndex": "0x5",
          "logIndex": "0x3",
          "removed": false
        }
      ],
      "logsBloom": "0x00000000000000000000000000000000000000000000000000000000000000000000000000000000000000000000000000000000000000000200000000200000008000000000000000000000000000000000000000000000000000000000000000000000000000000000000100000000000000000000000000000000000000000000000000000000000000000000000000000000080000000000000000000000020000000000000000000000000000000000000000000000000000000000000000000000000000200000000000000000000000002000000000000000400000000010000000000000000000000000000000000002002000000000000000000000",
      "type": "0x2",
      "transactionHash": "0x959cf4eb7d84057bf68e7489736d5be9cd58097ae4a79430e4b4069bda0f46a8",
      "transactionIndex": "0x5",
      "blockHash": "0xc06f48579ec776ef354f8c2bb587bd0f45054a2b3a485a4480b58b0787bc3159",
      "blockNumber": "0x8fd389",
      "gasUsed": "0xb5ff",
      "effectiveGasPrice": "0xc3072bad7",
      "from": "0xf39fd6e51aad88f6f4ce6ab8827279cfffb92266",
      "to": "0x4e71a2e537b7f9d9413d3991d37958c0b5e1e503",
      "contractAddress": null,
      "root": "0x0000000000000000000000000000000000000000000000000000000000000000"
    },
    {
      "status": "0x1",
      "cumulativeGasUsed": "0x24873e",
      "logs": [
        {
          "address": "0x826551890dc65655a0aceca109ab11abdbd7a07b",
          "topics": [
            "0x8c5be1e5ebec7d5bd14f71427d1e84f3dd0314c0f7b2291e5b200ac8c7c3b925",
            "0x000000000000000000000000f39fd6e51aad88f6f4ce6ab8827279cfffb92266",
            "0x0000000000000000000000004ed7c70f96b99c776995fb64377f0d4ab3b0e1c1"
          ],
          "data": "0xffffffffffffffffffffffffffffffffffffffffffffffffffffffffffffffff",
          "blockHash": "0xc06f48579ec776ef354f8c2bb587bd0f45054a2b3a485a4480b58b0787bc3159",
          "blockNumber": "0x8fd389",
          "blockTimestamp": "0x6632bbd5",
          "transactionHash": "0x4dfa6fd3ab5c768b30e6a7b656429509dae96166945b1e088499ee5ed6df4719",
          "transactionIndex": "0x6",
          "logIndex": "0x4",
          "removed": false
        },
        {
          "address": "0x826551890dc65655a0aceca109ab11abdbd7a07b",
          "topics": [
            "0x8c5be1e5ebec7d5bd14f71427d1e84f3dd0314c0f7b2291e5b200ac8c7c3b925",
            "0x000000000000000000000000f39fd6e51aad88f6f4ce6ab8827279cfffb92266",
            "0x0000000000000000000000004ed7c70f96b99c776995fb64377f0d4ab3b0e1c1"
          ],
          "data": "0xffffffffffffffffffffffffffffffffffffffffffffffffffffffffffffffff",
          "blockHash": "0xc06f48579ec776ef354f8c2bb587bd0f45054a2b3a485a4480b58b0787bc3159",
          "blockNumber": "0x8fd389",
          "blockTimestamp": "0x6632bbd5",
          "transactionHash": "0x4dfa6fd3ab5c768b30e6a7b656429509dae96166945b1e088499ee5ed6df4719",
          "transactionIndex": "0x6",
          "logIndex": "0x5",
          "removed": false
        }
      ],
      "logsBloom": "0x00000000000000000000000000000000000000000000000000000000000000000000000000000000000000000000000000000000000000800000000000200080000000000000000000000000000000000000000000000000000000000000000000000000000000000000000100000000000000000000000000000000000000000000000000000000000000000000000000000000080000000000000000000000020000000000000000000000000000000000000000000000008000000000000000000000000000200000000000000000000000002000000000000000400000000010000000000000000000000000000000000000002000000000000000000000",
      "type": "0x2",
      "transactionHash": "0x4dfa6fd3ab5c768b30e6a7b656429509dae96166945b1e088499ee5ed6df4719",
      "transactionIndex": "0x6",
      "blockHash": "0xc06f48579ec776ef354f8c2bb587bd0f45054a2b3a485a4480b58b0787bc3159",
      "blockNumber": "0x8fd389",
      "gasUsed": "0xbd09",
      "effectiveGasPrice": "0xc3072bad7",
      "from": "0xf39fd6e51aad88f6f4ce6ab8827279cfffb92266",
      "to": "0x826551890dc65655a0aceca109ab11abdbd7a07b",
      "contractAddress": null,
      "root": "0x0000000000000000000000000000000000000000000000000000000000000000"
    },
    {
      "status": "0x1",
      "cumulativeGasUsed": "0xb65b",
      "logs": [
        {
          "address": "0xc6e7df5e7b4f2a278906862b61205850344d4e7d",
          "topics": [
            "0x8c5be1e5ebec7d5bd14f71427d1e84f3dd0314c0f7b2291e5b200ac8c7c3b925",
            "0x000000000000000000000000f39fd6e51aad88f6f4ce6ab8827279cfffb92266",
            "0x0000000000000000000000004ed7c70f96b99c776995fb64377f0d4ab3b0e1c1"
          ],
          "data": "0xffffffffffffffffffffffffffffffffffffffffffffffffffffffffffffffff",
          "blockHash": "0xbca7415144a725bce9d1ddcb13478eda6f1d234943bd37029bd717cd173efe28",
          "blockNumber": "0x8fd38a",
          "blockTimestamp": "0x6632bbd6",
          "transactionHash": "0x12c784eb5c7fe333a7f427a0d273a4d33aff084bf20d063c833f8ca635100d4f",
          "transactionIndex": "0x0",
          "logIndex": "0x0",
          "removed": false
        }
      ],
      "logsBloom": "0x00000000000000000000000000000000000000000000000000000000000000000000000000000000000000800000000000000000000000000000000000200000000000000000000000000000000000000000000000000000000000000000000000000000000000000000000100000000000000000000000000000000000000000000000000000000000000000000000000000000080000000000000000000000020000000000000000000000000000000000000000000000000000000000000000000000000000200000000000100000000000002000000000000000400000000010000000000000000000800000000000000000002000000000000000000000",
      "type": "0x2",
      "transactionHash": "0x12c784eb5c7fe333a7f427a0d273a4d33aff084bf20d063c833f8ca635100d4f",
      "transactionIndex": "0x0",
      "blockHash": "0xbca7415144a725bce9d1ddcb13478eda6f1d234943bd37029bd717cd173efe28",
      "blockNumber": "0x8fd38a",
      "gasUsed": "0xb65b",
      "effectiveGasPrice": "0xb3ebd1b2a",
      "from": "0xf39fd6e51aad88f6f4ce6ab8827279cfffb92266",
      "to": "0xc6e7df5e7b4f2a278906862b61205850344d4e7d",
      "contractAddress": null,
      "root": "0x0000000000000000000000000000000000000000000000000000000000000000"
    },
    {
      "status": "0x1",
      "cumulativeGasUsed": "0x16cb6",
      "logs": [
        {
          "address": "0x59b670e9fa9d0a427751af201d676719a970857b",
          "topics": [
            "0x8c5be1e5ebec7d5bd14f71427d1e84f3dd0314c0f7b2291e5b200ac8c7c3b925",
            "0x000000000000000000000000f39fd6e51aad88f6f4ce6ab8827279cfffb92266",
            "0x0000000000000000000000004ed7c70f96b99c776995fb64377f0d4ab3b0e1c1"
          ],
          "data": "0xffffffffffffffffffffffffffffffffffffffffffffffffffffffffffffffff",
          "blockHash": "0xbca7415144a725bce9d1ddcb13478eda6f1d234943bd37029bd717cd173efe28",
          "blockNumber": "0x8fd38a",
          "blockTimestamp": "0x6632bbd6",
          "transactionHash": "0x0d3b7125848c31abbde5ca45bd8cf25e8e91afd301bbcb9984e10ec67a37eaa2",
          "transactionIndex": "0x1",
          "logIndex": "0x1",
          "removed": false
        }
      ],
      "logsBloom": "0x00000000000000000000000000000000000000000000000000000000000000000000000000000000000000000000000000000000000000000000000000200000000000000000000000000000000000000000000008000000000000000000000000000000000000000000000100000000000000000000000000000000000000000000000000000000000000000000000000000000080000000000000000000000020000000000000000000000000000080000000000000000000000000000000000000000000000200000000000020000000000002000000000000000400000000010000000000000000000000000000000000000002000000000000000000000",
      "type": "0x2",
      "transactionHash": "0x0d3b7125848c31abbde5ca45bd8cf25e8e91afd301bbcb9984e10ec67a37eaa2",
      "transactionIndex": "0x1",
      "blockHash": "0xbca7415144a725bce9d1ddcb13478eda6f1d234943bd37029bd717cd173efe28",
      "blockNumber": "0x8fd38a",
      "gasUsed": "0xb65b",
      "effectiveGasPrice": "0xb3ebd1b2a",
      "from": "0xf39fd6e51aad88f6f4ce6ab8827279cfffb92266",
      "to": "0x59b670e9fa9d0a427751af201d676719a970857b",
      "contractAddress": null,
      "root": "0x0000000000000000000000000000000000000000000000000000000000000000"
    },
    {
      "status": "0x1",
      "cumulativeGasUsed": "0x514b4",
      "logs": [
        {
          "address": "0xc6e7df5e7b4f2a278906862b61205850344d4e7d",
          "topics": [
            "0xddf252ad1be2c89b69c2b068fc378daa952ba7f163c4a11628f55a4df523b3ef",
            "0x000000000000000000000000f39fd6e51aad88f6f4ce6ab8827279cfffb92266",
            "0x0000000000000000000000004ed7c70f96b99c776995fb64377f0d4ab3b0e1c1"
          ],
          "data": "0x0000000000000000000000000000000000000000000000004563918244f40000",
          "blockHash": "0xbca7415144a725bce9d1ddcb13478eda6f1d234943bd37029bd717cd173efe28",
          "blockNumber": "0x8fd38a",
          "blockTimestamp": "0x6632bbd6",
          "transactionHash": "0xbd70f88c7fdd1311886cce14689253bbca4b02d8f0926769ba984318098f45f5",
          "transactionIndex": "0x2",
          "logIndex": "0x2",
          "removed": false
        },
        {
          "address": "0x4ed7c70f96b99c776995fb64377f0d4ab3b0e1c1",
          "topics": [
            "0x43118103466f8475c26ca895a4fb497bc81164e16090b6c5d8d29bff0b2a068c"
          ],
          "data": "0x0000000000000000000000000000000000000000000000000000000000000001eff581411eae03b5f8dcb2ff440cfab2833431ea72009104245509a136f40cd800000000000000000000000000000000000000000cecb8f27f4200f3a0000000",
          "blockHash": "0xbca7415144a725bce9d1ddcb13478eda6f1d234943bd37029bd717cd173efe28",
          "blockNumber": "0x8fd38a",
          "blockTimestamp": "0x6632bbd6",
          "transactionHash": "0xbd70f88c7fdd1311886cce14689253bbca4b02d8f0926769ba984318098f45f5",
          "transactionIndex": "0x2",
          "logIndex": "0x3",
          "removed": false
        }
      ],
      "logsBloom": "0x01000000000000000000000000000000000000000000000000000020000000000000000000000000000000800000000000000000000000000000000000000000000000010000000000000008000000000000000000000000000000000000000000000000000000000000000100000000008000000000000000000010000000000000000000000000000000000000000000000000080000000000000000000000000000000000000000000000000000200000000000000000000000001000000000000002000000200000000000100000000000002000000000000000400000000000000000000000000000800000000000000000002000000000000000000000",
      "type": "0x2",
      "transactionHash": "0xbd70f88c7fdd1311886cce14689253bbca4b02d8f0926769ba984318098f45f5",
      "transactionIndex": "0x2",
      "blockHash": "0xbca7415144a725bce9d1ddcb13478eda6f1d234943bd37029bd717cd173efe28",
      "blockNumber": "0x8fd38a",
      "gasUsed": "0x3a7fe",
      "effectiveGasPrice": "0xb3ebd1b2a",
      "from": "0xf39fd6e51aad88f6f4ce6ab8827279cfffb92266",
      "to": "0x4ed7c70f96b99c776995fb64377f0d4ab3b0e1c1",
      "contractAddress": null,
      "root": "0x0000000000000000000000000000000000000000000000000000000000000000"
    },
    {
      "status": "0x1",
      "cumulativeGasUsed": "0x85702",
      "logs": [
        {
          "address": "0xc6e7df5e7b4f2a278906862b61205850344d4e7d",
          "topics": [
            "0xddf252ad1be2c89b69c2b068fc378daa952ba7f163c4a11628f55a4df523b3ef",
            "0x000000000000000000000000f39fd6e51aad88f6f4ce6ab8827279cfffb92266",
            "0x0000000000000000000000004ed7c70f96b99c776995fb64377f0d4ab3b0e1c1"
          ],
          "data": "0x0000000000000000000000000000000000000000000000004c0cdef739240000",
          "blockHash": "0xbca7415144a725bce9d1ddcb13478eda6f1d234943bd37029bd717cd173efe28",
          "blockNumber": "0x8fd38a",
          "blockTimestamp": "0x6632bbd6",
          "transactionHash": "0x4e44d5e1e6e2411ab3b05363d10605b4ec8d8fdc6460511d0ee827756820d933",
          "transactionIndex": "0x3",
          "logIndex": "0x4",
          "removed": false
        },
        {
          "address": "0x4ed7c70f96b99c776995fb64377f0d4ab3b0e1c1",
          "topics": [
            "0x43118103466f8475c26ca895a4fb497bc81164e16090b6c5d8d29bff0b2a068c"
          ],
          "data": "0x0000000000000000000000000000000000000000000000000000000000000002eff581411eae03b5f8dcb2ff440cfab2833431ea72009104245509a136f40cd800000000000000000000000000000000000000000cf8cc4ef1b52a108b184abe",
          "blockHash": "0xbca7415144a725bce9d1ddcb13478eda6f1d234943bd37029bd717cd173efe28",
          "blockNumber": "0x8fd38a",
          "blockTimestamp": "0x6632bbd6",
          "transactionHash": "0x4e44d5e1e6e2411ab3b05363d10605b4ec8d8fdc6460511d0ee827756820d933",
          "transactionIndex": "0x3",
          "logIndex": "0x5",
          "removed": false
        }
      ],
      "logsBloom": "0x01000000000000000000000000000000000000000000000000000020000000000000000000000000000000800000000000000000000000000000000000000000000000010000000000000008000000000000000000000000000000000000000000000000000000000000000100000000008000000000000000000010000000000000000000000000000000000000000000000000080000000000000000000000000000000000000000000000000000200000000000000000000000001000000000000002000000200000000000100000000000002000000000000000400000000000000000000000000000800000000000000000002000000000000000000000",
      "type": "0x2",
      "transactionHash": "0x4e44d5e1e6e2411ab3b05363d10605b4ec8d8fdc6460511d0ee827756820d933",
      "transactionIndex": "0x3",
      "blockHash": "0xbca7415144a725bce9d1ddcb13478eda6f1d234943bd37029bd717cd173efe28",
      "blockNumber": "0x8fd38a",
      "gasUsed": "0x3424e",
      "effectiveGasPrice": "0xb3ebd1b2a",
      "from": "0xf39fd6e51aad88f6f4ce6ab8827279cfffb92266",
      "to": "0x4ed7c70f96b99c776995fb64377f0d4ab3b0e1c1",
      "contractAddress": null,
      "root": "0x0000000000000000000000000000000000000000000000000000000000000000"
    },
    {
      "status": "0x1",
      "cumulativeGasUsed": "0xbad69",
      "logs": [
        {
          "address": "0xc6e7df5e7b4f2a278906862b61205850344d4e7d",
          "topics": [
            "0xddf252ad1be2c89b69c2b068fc378daa952ba7f163c4a11628f55a4df523b3ef",
            "0x000000000000000000000000f39fd6e51aad88f6f4ce6ab8827279cfffb92266",
            "0x0000000000000000000000004ed7c70f96b99c776995fb64377f0d4ab3b0e1c1"
          ],
          "data": "0x0000000000000000000000000000000000000000000000004139c1192c560000",
          "blockHash": "0xbca7415144a725bce9d1ddcb13478eda6f1d234943bd37029bd717cd173efe28",
          "blockNumber": "0x8fd38a",
          "blockTimestamp": "0x6632bbd6",
          "transactionHash": "0x00b3024dfbab4e8eb8f568dcc7faa188f638a0d9ed5fc30d9cdeb6c9a226f2da",
          "transactionIndex": "0x4",
          "logIndex": "0x6",
          "removed": false
        },
        {
          "address": "0x4ed7c70f96b99c776995fb64377f0d4ab3b0e1c1",
          "topics": [
            "0x43118103466f8475c26ca895a4fb497bc81164e16090b6c5d8d29bff0b2a068c"
          ],
          "data": "0x0000000000000000000000000000000000000000000000000000000000000003eff581411eae03b5f8dcb2ff440cfab2833431ea72009104245509a136f40cd800000000000000000000000000000000000000000e6fe9d2f5a39992db931057",
          "blockHash": "0xbca7415144a725bce9d1ddcb13478eda6f1d234943bd37029bd717cd173efe28",
          "blockNumber": "0x8fd38a",
          "blockTimestamp": "0x6632bbd6",
          "transactionHash": "0x00b3024dfbab4e8eb8f568dcc7faa188f638a0d9ed5fc30d9cdeb6c9a226f2da",
          "transactionIndex": "0x4",
          "logIndex": "0x7",
          "removed": false
        }
      ],
      "logsBloom": "0x01000000000000000000000000000000000000000000000000000020000000000000000000000000000000800000000000000000000000000000000000000000000000010000000000000008000000000000000000000000000000000000000000000000000000000000000100000000008000000000000000000010000000000000000000000000000000000000000000000000080000000000000000000000000000000000000000000000000000200000000000000000000000001000000000000002000000200000000000100000000000002000000000000000400000000000000000000000000000800000000000000000002000000000000000000000",
      "type": "0x2",
      "transactionHash": "0x00b3024dfbab4e8eb8f568dcc7faa188f638a0d9ed5fc30d9cdeb6c9a226f2da",
      "transactionIndex": "0x4",
      "blockHash": "0xbca7415144a725bce9d1ddcb13478eda6f1d234943bd37029bd717cd173efe28",
      "blockNumber": "0x8fd38a",
      "gasUsed": "0x35667",
      "effectiveGasPrice": "0xb3ebd1b2a",
      "from": "0xf39fd6e51aad88f6f4ce6ab8827279cfffb92266",
      "to": "0x4ed7c70f96b99c776995fb64377f0d4ab3b0e1c1",
      "contractAddress": null,
      "root": "0x0000000000000000000000000000000000000000000000000000000000000000"
    },
    {
      "status": "0x1",
      "cumulativeGasUsed": "0xf17e9",
      "logs": [
        {
          "address": "0xc6e7df5e7b4f2a278906862b61205850344d4e7d",
          "topics": [
            "0xddf252ad1be2c89b69c2b068fc378daa952ba7f163c4a11628f55a4df523b3ef",
            "0x000000000000000000000000f39fd6e51aad88f6f4ce6ab8827279cfffb92266",
            "0x0000000000000000000000004ed7c70f96b99c776995fb64377f0d4ab3b0e1c1"
          ],
          "data": "0x00000000000000000000000000000000000000000000000053444835ec580000",
          "blockHash": "0xbca7415144a725bce9d1ddcb13478eda6f1d234943bd37029bd717cd173efe28",
          "blockNumber": "0x8fd38a",
          "blockTimestamp": "0x6632bbd6",
          "transactionHash": "0xd2b6bd5dc1781d8332efb7125de18d31f3790421c324598269ea376f33cde392",
          "transactionIndex": "0x5",
          "logIndex": "0x8",
          "removed": false
        },
        {
          "address": "0x4ed7c70f96b99c776995fb64377f0d4ab3b0e1c1",
          "topics": [
            "0x43118103466f8475c26ca895a4fb497bc81164e16090b6c5d8d29bff0b2a068c"
          ],
          "data": "0x0000000000000000000000000000000000000000000000000000000000000004eff581411eae03b5f8dcb2ff440cfab2833431ea72009104245509a136f40cd800000000000000000000000000000000000000000e8a5010cf2a411214000000",
          "blockHash": "0xbca7415144a725bce9d1ddcb13478eda6f1d234943bd37029bd717cd173efe28",
          "blockNumber": "0x8fd38a",
          "blockTimestamp": "0x6632bbd6",
          "transactionHash": "0xd2b6bd5dc1781d8332efb7125de18d31f3790421c324598269ea376f33cde392",
          "transactionIndex": "0x5",
          "logIndex": "0x9",
          "removed": false
        }
      ],
      "logsBloom": "0x01000000000000000000000000000000000000000000000000000020000000000000000000000000000000800000000000000000000000000000000000000000000000010000000000000008000000000000000000000000000000000000000000000000000000000000000100000000008000000000000000000010000000000000000000000000000000000000000000000000080000000000000000000000000000000000000000000000000000200000000000000000000000001000000000000002000000200000000000100000000000002000000000000000400000000000000000000000000000800000000000000000002000000000000000000000",
      "type": "0x2",
      "transactionHash": "0xd2b6bd5dc1781d8332efb7125de18d31f3790421c324598269ea376f33cde392",
      "transactionIndex": "0x5",
      "blockHash": "0xbca7415144a725bce9d1ddcb13478eda6f1d234943bd37029bd717cd173efe28",
      "blockNumber": "0x8fd38a",
      "gasUsed": "0x36a80",
      "effectiveGasPrice": "0xb3ebd1b2a",
      "from": "0xf39fd6e51aad88f6f4ce6ab8827279cfffb92266",
      "to": "0x4ed7c70f96b99c776995fb64377f0d4ab3b0e1c1",
      "contractAddress": null,
      "root": "0x0000000000000000000000000000000000000000000000000000000000000000"
    },
    {
      "status": "0x1",
      "cumulativeGasUsed": "0x128c26",
      "logs": [
        {
          "address": "0xc6e7df5e7b4f2a278906862b61205850344d4e7d",
          "topics": [
            "0xddf252ad1be2c89b69c2b068fc378daa952ba7f163c4a11628f55a4df523b3ef",
            "0x000000000000000000000000f39fd6e51aad88f6f4ce6ab8827279cfffb92266",
            "0x0000000000000000000000004ed7c70f96b99c776995fb64377f0d4ab3b0e1c1"
          ],
          "data": "0x0000000000000000000000000000000000000000000000005a34a38fc00a0000",
          "blockHash": "0xbca7415144a725bce9d1ddcb13478eda6f1d234943bd37029bd717cd173efe28",
          "blockNumber": "0x8fd38a",
          "blockTimestamp": "0x6632bbd6",
          "transactionHash": "0xe820f96333261417da90ea8b13803dcf42c47c3a0067b7f223ffc79e90c8d9f5",
          "transactionIndex": "0x6",
          "logIndex": "0xa",
          "removed": false
        },
        {
          "address": "0x4ed7c70f96b99c776995fb64377f0d4ab3b0e1c1",
          "topics": [
            "0x43118103466f8475c26ca895a4fb497bc81164e16090b6c5d8d29bff0b2a068c"
          ],
          "data": "0x0000000000000000000000000000000000000000000000000000000000000005eff581411eae03b5f8dcb2ff440cfab2833431ea72009104245509a136f40cd800000000000000000000000000000000000000000e6a7f84a1a23c236d89d89d",
          "blockHash": "0xbca7415144a725bce9d1ddcb13478eda6f1d234943bd37029bd717cd173efe28",
          "blockNumber": "0x8fd38a",
          "blockTimestamp": "0x6632bbd6",
          "transactionHash": "0xe820f96333261417da90ea8b13803dcf42c47c3a0067b7f223ffc79e90c8d9f5",
          "transactionIndex": "0x6",
          "logIndex": "0xb",
          "removed": false
        }
      ],
      "logsBloom": "0x01000000000000000000000000000000000000000000000000000020000000000000000000000000000000800000000000000000000000000000000000000000000000010000000000000008000000000000000000000000000000000000000000000000000000000000000100000000008000000000000000000010000000000000000000000000000000000000000000000000080000000000000000000000000000000000000000000000000000200000000000000000000000001000000000000002000000200000000000100000000000002000000000000000400000000000000000000000000000800000000000000000002000000000000000000000",
      "type": "0x2",
      "transactionHash": "0xe820f96333261417da90ea8b13803dcf42c47c3a0067b7f223ffc79e90c8d9f5",
      "transactionIndex": "0x6",
      "blockHash": "0xbca7415144a725bce9d1ddcb13478eda6f1d234943bd37029bd717cd173efe28",
      "blockNumber": "0x8fd38a",
      "gasUsed": "0x3743d",
      "effectiveGasPrice": "0xb3ebd1b2a",
      "from": "0xf39fd6e51aad88f6f4ce6ab8827279cfffb92266",
      "to": "0x4ed7c70f96b99c776995fb64377f0d4ab3b0e1c1",
      "contractAddress": null,
      "root": "0x0000000000000000000000000000000000000000000000000000000000000000"
    },
    {
      "status": "0x1",
      "cumulativeGasUsed": "0x3b841",
      "logs": [
        {
          "address": "0x826551890dc65655a0aceca109ab11abdbd7a07b",
          "topics": [
            "0xddf252ad1be2c89b69c2b068fc378daa952ba7f163c4a11628f55a4df523b3ef",
            "0x000000000000000000000000f39fd6e51aad88f6f4ce6ab8827279cfffb92266",
            "0x0000000000000000000000004ed7c70f96b99c776995fb64377f0d4ab3b0e1c1"
          ],
          "data": "0x000000000000000000000000000000000000000000000001158e460913d00000",
          "blockHash": "0x40bc950f31717d86a96e53a59801c6d20d03519d8d9948b98fba22876a960e91",
          "blockNumber": "0x8fd38b",
          "blockTimestamp": "0x6632bbd7",
          "transactionHash": "0xdc9ad90ad43eb2eb8345917a128b06a791d79149fb8351deedb805668c510e67",
          "transactionIndex": "0x0",
          "logIndex": "0x0",
          "removed": false
        },
        {
          "address": "0x4ed7c70f96b99c776995fb64377f0d4ab3b0e1c1",
          "topics": [
            "0x43118103466f8475c26ca895a4fb497bc81164e16090b6c5d8d29bff0b2a068c"
          ],
          "data": "0x00000000000000000000000000000000000000000000000000000000000000068dd430468436aa8fd5435828481157a6ff37e8c56f6127d5810a9b5c0ed56619000000000000000000000000000000000000000000d711243e08215784000000",
          "blockHash": "0x40bc950f31717d86a96e53a59801c6d20d03519d8d9948b98fba22876a960e91",
          "blockNumber": "0x8fd38b",
          "blockTimestamp": "0x6632bbd7",
          "transactionHash": "0xdc9ad90ad43eb2eb8345917a128b06a791d79149fb8351deedb805668c510e67",
          "transactionIndex": "0x0",
          "logIndex": "0x1",
          "removed": false
        }
      ],
      "logsBloom": "0x01000000000000000000000000000000000000000000000000000020000000000000000000000000000000000000000000000000000000800000000000000080000000010000000000000008000000000000000000000000000000000000000000000000000000000000000100000000008000000000000000000010000000000000000000000000000000000000000000000000080000000000000000000000000000000000000000000000000000200000000000000000008000001000000000000002000000200000000000000000000000002000000000000000400000000000000000000000000000000000000000000000002000000000000000000000",
      "type": "0x2",
      "transactionHash": "0xdc9ad90ad43eb2eb8345917a128b06a791d79149fb8351deedb805668c510e67",
      "transactionIndex": "0x0",
      "blockHash": "0x40bc950f31717d86a96e53a59801c6d20d03519d8d9948b98fba22876a960e91",
      "blockNumber": "0x8fd38b",
      "gasUsed": "0x3b841",
      "effectiveGasPrice": "0xa52333411",
      "from": "0xf39fd6e51aad88f6f4ce6ab8827279cfffb92266",
      "to": "0x4ed7c70f96b99c776995fb64377f0d4ab3b0e1c1",
      "contractAddress": null,
      "root": "0x0000000000000000000000000000000000000000000000000000000000000000"
    },
    {
      "status": "0x1",
      "cumulativeGasUsed": "0x3529d",
      "logs": [
        {
          "address": "0x826551890dc65655a0aceca109ab11abdbd7a07b",
          "topics": [
            "0xddf252ad1be2c89b69c2b068fc378daa952ba7f163c4a11628f55a4df523b3ef",
            "0x000000000000000000000000f39fd6e51aad88f6f4ce6ab8827279cfffb92266",
            "0x0000000000000000000000004ed7c70f96b99c776995fb64377f0d4ab3b0e1c1"
          ],
          "data": "0x000000000000000000000000000000000000000000000001314fb37062980000",
          "blockHash": "0xbddf562ec2648d0a00e1c97abb8860e5edae352ea9a2e5eeecd2c908655391a9",
          "blockNumber": "0x8fd38c",
          "blockTimestamp": "0x6632bbd8",
          "transactionHash": "0xf1d90b45ba846476b41496ced462b1a18eb9da4df1290e9695bd3791bd188d16",
          "transactionIndex": "0x0",
          "logIndex": "0x0",
          "removed": false
        },
        {
          "address": "0x4ed7c70f96b99c776995fb64377f0d4ab3b0e1c1",
          "topics": [
            "0x43118103466f8475c26ca895a4fb497bc81164e16090b6c5d8d29bff0b2a068c"
          ],
          "data": "0x00000000000000000000000000000000000000000000000000000000000000078dd430468436aa8fd5435828481157a6ff37e8c56f6127d5810a9b5c0ed56619000000000000000000000000000000000000000000da132be8f821cee4ba2e8b",
          "blockHash": "0xbddf562ec2648d0a00e1c97abb8860e5edae352ea9a2e5eeecd2c908655391a9",
          "blockNumber": "0x8fd38c",
          "blockTimestamp": "0x6632bbd8",
          "transactionHash": "0xf1d90b45ba846476b41496ced462b1a18eb9da4df1290e9695bd3791bd188d16",
          "transactionIndex": "0x0",
          "logIndex": "0x1",
          "removed": false
        }
      ],
      "logsBloom": "0x01000000000000000000000000000000000000000000000000000020000000000000000000000000000000000000000000000000000000800000000000000080000000010000000000000008000000000000000000000000000000000000000000000000000000000000000100000000008000000000000000000010000000000000000000000000000000000000000000000000080000000000000000000000000000000000000000000000000000200000000000000000008000001000000000000002000000200000000000000000000000002000000000000000400000000000000000000000000000000000000000000000002000000000000000000000",
      "type": "0x2",
      "transactionHash": "0xf1d90b45ba846476b41496ced462b1a18eb9da4df1290e9695bd3791bd188d16",
      "transactionIndex": "0x0",
      "blockHash": "0xbddf562ec2648d0a00e1c97abb8860e5edae352ea9a2e5eeecd2c908655391a9",
      "blockNumber": "0x8fd38c",
      "gasUsed": "0x3529d",
      "effectiveGasPrice": "0x97212b8f3",
      "from": "0xf39fd6e51aad88f6f4ce6ab8827279cfffb92266",
      "to": "0x4ed7c70f96b99c776995fb64377f0d4ab3b0e1c1",
      "contractAddress": null,
      "root": "0x0000000000000000000000000000000000000000000000000000000000000000"
    },
    {
      "status": "0x1",
      "cumulativeGasUsed": "0x6acd6",
      "logs": [
        {
          "address": "0x826551890dc65655a0aceca109ab11abdbd7a07b",
          "topics": [
            "0xddf252ad1be2c89b69c2b068fc378daa952ba7f163c4a11628f55a4df523b3ef",
            "0x000000000000000000000000f39fd6e51aad88f6f4ce6ab8827279cfffb92266",
            "0x0000000000000000000000004ed7c70f96b99c776995fb64377f0d4ab3b0e1c1"
          ],
          "data": "0x000000000000000000000000000000000000000000000001236efcbcbb340000",
          "blockHash": "0xbddf562ec2648d0a00e1c97abb8860e5edae352ea9a2e5eeecd2c908655391a9",
          "blockNumber": "0x8fd38c",
          "blockTimestamp": "0x6632bbd8",
          "transactionHash": "0x8ca30b9c6e3d2572171fb7109e2e582327165aee12cef765fa4eb98cbacf0c7d",
          "transactionIndex": "0x1",
          "logIndex": "0x2",
          "removed": false
        },
        {
          "address": "0x4ed7c70f96b99c776995fb64377f0d4ab3b0e1c1",
          "topics": [
            "0x43118103466f8475c26ca895a4fb497bc81164e16090b6c5d8d29bff0b2a068c"
          ],
          "data": "0x00000000000000000000000000000000000000000000000000000000000000088dd430468436aa8fd5435828481157a6ff37e8c56f6127d5810a9b5c0ed56619000000000000000000000000000000000000000000d0c3bed7e081e37c618618",
          "blockHash": "0xbddf562ec2648d0a00e1c97abb8860e5edae352ea9a2e5eeecd2c908655391a9",
          "blockNumber": "0x8fd38c",
          "blockTimestamp": "0x6632bbd8",
          "transactionHash": "0x8ca30b9c6e3d2572171fb7109e2e582327165aee12cef765fa4eb98cbacf0c7d",
          "transactionIndex": "0x1",
          "logIndex": "0x3",
          "removed": false
        }
      ],
      "logsBloom": "0x01000000000000000000000000000000000000000000000000000020000000000000000000000000000000000000000000000000000000800000000000000080000000010000000000000008000000000000000000000000000000000000000000000000000000000000000100000000008000000000000000000010000000000000000000000000000000000000000000000000080000000000000000000000000000000000000000000000000000200000000000000000008000001000000000000002000000200000000000000000000000002000000000000000400000000000000000000000000000000000000000000000002000000000000000000000",
      "type": "0x2",
      "transactionHash": "0x8ca30b9c6e3d2572171fb7109e2e582327165aee12cef765fa4eb98cbacf0c7d",
      "transactionIndex": "0x1",
      "blockHash": "0xbddf562ec2648d0a00e1c97abb8860e5edae352ea9a2e5eeecd2c908655391a9",
      "blockNumber": "0x8fd38c",
      "gasUsed": "0x35a39",
      "effectiveGasPrice": "0x97212b8f3",
      "from": "0xf39fd6e51aad88f6f4ce6ab8827279cfffb92266",
      "to": "0x4ed7c70f96b99c776995fb64377f0d4ab3b0e1c1",
      "contractAddress": null,
      "root": "0x0000000000000000000000000000000000000000000000000000000000000000"
    },
    {
      "status": "0x1",
      "cumulativeGasUsed": "0xa070f",
      "logs": [
        {
          "address": "0x826551890dc65655a0aceca109ab11abdbd7a07b",
          "topics": [
            "0xddf252ad1be2c89b69c2b068fc378daa952ba7f163c4a11628f55a4df523b3ef",
            "0x000000000000000000000000f39fd6e51aad88f6f4ce6ab8827279cfffb92266",
            "0x0000000000000000000000004ed7c70f96b99c776995fb64377f0d4ab3b0e1c1"
          ],
          "data": "0x0000000000000000000000000000000000000000000000015af1d78b58c40000",
          "blockHash": "0xbddf562ec2648d0a00e1c97abb8860e5edae352ea9a2e5eeecd2c908655391a9",
          "blockNumber": "0x8fd38c",
          "blockTimestamp": "0x6632bbd8",
          "transactionHash": "0x7882e131da52ac3d4e31c22c30e9647d67d41e25537833086341562bf8140676",
          "transactionIndex": "0x2",
          "logIndex": "0x4",
          "removed": false
        },
        {
          "address": "0x4ed7c70f96b99c776995fb64377f0d4ab3b0e1c1",
          "topics": [
            "0x43118103466f8475c26ca895a4fb497bc81164e16090b6c5d8d29bff0b2a068c"
          ],
          "data": "0x00000000000000000000000000000000000000000000000000000000000000098dd430468436aa8fd5435828481157a6ff37e8c56f6127d5810a9b5c0ed56619000000000000000000000000000000000000000000d073135f91b9ea7c000000",
          "blockHash": "0xbddf562ec2648d0a00e1c97abb8860e5edae352ea9a2e5eeecd2c908655391a9",
          "blockNumber": "0x8fd38c",
          "blockTimestamp": "0x6632bbd8",
          "transactionHash": "0x7882e131da52ac3d4e31c22c30e9647d67d41e25537833086341562bf8140676",
          "transactionIndex": "0x2",
          "logIndex": "0x5",
          "removed": false
        }
      ],
      "logsBloom": "0x01000000000000000000000000000000000000000000000000000020000000000000000000000000000000000000000000000000000000800000000000000080000000010000000000000008000000000000000000000000000000000000000000000000000000000000000100000000008000000000000000000010000000000000000000000000000000000000000000000000080000000000000000000000000000000000000000000000000000200000000000000000008000001000000000000002000000200000000000000000000000002000000000000000400000000000000000000000000000000000000000000000002000000000000000000000",
      "type": "0x2",
      "transactionHash": "0x7882e131da52ac3d4e31c22c30e9647d67d41e25537833086341562bf8140676",
      "transactionIndex": "0x2",
      "blockHash": "0xbddf562ec2648d0a00e1c97abb8860e5edae352ea9a2e5eeecd2c908655391a9",
      "blockNumber": "0x8fd38c",
      "gasUsed": "0x35a39",
      "effectiveGasPrice": "0x97212b8f3",
      "from": "0xf39fd6e51aad88f6f4ce6ab8827279cfffb92266",
      "to": "0x4ed7c70f96b99c776995fb64377f0d4ab3b0e1c1",
      "contractAddress": null,
      "root": "0x0000000000000000000000000000000000000000000000000000000000000000"
    },
    {
      "status": "0x1",
      "cumulativeGasUsed": "0xd6148",
      "logs": [
        {
          "address": "0x826551890dc65655a0aceca109ab11abdbd7a07b",
          "topics": [
            "0xddf252ad1be2c89b69c2b068fc378daa952ba7f163c4a11628f55a4df523b3ef",
            "0x000000000000000000000000f39fd6e51aad88f6f4ce6ab8827279cfffb92266",
            "0x0000000000000000000000004ed7c70f96b99c776995fb64377f0d4ab3b0e1c1"
          ],
          "data": "0x0000000000000000000000000000000000000000000000019274b259f6540000",
          "blockHash": "0xbddf562ec2648d0a00e1c97abb8860e5edae352ea9a2e5eeecd2c908655391a9",
          "blockNumber": "0x8fd38c",
          "blockTimestamp": "0x6632bbd8",
          "transactionHash": "0x9af3c4d5bfc5a6ec68f2b3055d8da91b4b929e09fe589b4f6aa03cc26c2b1bca",
          "transactionIndex": "0x3",
          "logIndex": "0x6",
          "removed": false
        },
        {
          "address": "0x4ed7c70f96b99c776995fb64377f0d4ab3b0e1c1",
          "topics": [
            "0x43118103466f8475c26ca895a4fb497bc81164e16090b6c5d8d29bff0b2a068c"
          ],
          "data": "0x000000000000000000000000000000000000000000000000000000000000000a8dd430468436aa8fd5435828481157a6ff37e8c56f6127d5810a9b5c0ed56619000000000000000000000000000000000000000000d038a8dc4fd9a8ee7b9611",
          "blockHash": "0xbddf562ec2648d0a00e1c97abb8860e5edae352ea9a2e5eeecd2c908655391a9",
          "blockNumber": "0x8fd38c",
          "blockTimestamp": "0x6632bbd8",
          "transactionHash": "0x9af3c4d5bfc5a6ec68f2b3055d8da91b4b929e09fe589b4f6aa03cc26c2b1bca",
          "transactionIndex": "0x3",
          "logIndex": "0x7",
          "removed": false
        }
      ],
      "logsBloom": "0x01000000000000000000000000000000000000000000000000000020000000000000000000000000000000000000000000000000000000800000000000000080000000010000000000000008000000000000000000000000000000000000000000000000000000000000000100000000008000000000000000000010000000000000000000000000000000000000000000000000080000000000000000000000000000000000000000000000000000200000000000000000008000001000000000000002000000200000000000000000000000002000000000000000400000000000000000000000000000000000000000000000002000000000000000000000",
      "type": "0x2",
      "transactionHash": "0x9af3c4d5bfc5a6ec68f2b3055d8da91b4b929e09fe589b4f6aa03cc26c2b1bca",
      "transactionIndex": "0x3",
      "blockHash": "0xbddf562ec2648d0a00e1c97abb8860e5edae352ea9a2e5eeecd2c908655391a9",
      "blockNumber": "0x8fd38c",
      "gasUsed": "0x35a39",
      "effectiveGasPrice": "0x97212b8f3",
      "from": "0xf39fd6e51aad88f6f4ce6ab8827279cfffb92266",
      "to": "0x4ed7c70f96b99c776995fb64377f0d4ab3b0e1c1",
      "contractAddress": null,
      "root": "0x0000000000000000000000000000000000000000000000000000000000000000"
    }
  ],
  "libraries": [],
  "pending": [],
  "returns": {},
  "timestamp": 1714808730,
  "chain": 7700,
  "commit": "23d0732"
}