{
  "transactions": [
    {
      "hash": "0xc301892a3020e241c769cbe49cafdf54351dbee0814c28f7850b04da7b14e0e4",
      "transactionType": "CREATE",
      "contractName": "ERC20Mock",
      "contractAddress": "0xc6e7df5e7b4f2a278906862b61205850344d4e7d",
      "function": null,
      "arguments": null,
      "transaction": {
        "from": "0xf39fd6e51aad88f6f4ce6ab8827279cfffb92266",
        "gas": "0xabbd8",
        "value": "0x0",
        "input": "0x608060405234801561001057600080fd5b506040518060400160405280600981526020016845524332304d6f636b60b81b815250604051806040016040528060048152602001634532304d60e01b815250816003908161005f9190610113565b50600461006c8282610113565b5050506101d2565b634e487b7160e01b600052604160045260246000fd5b600181811c9082168061009e57607f821691505b6020821081036100be57634e487b7160e01b600052602260045260246000fd5b50919050565b601f82111561010e57600081815260208120601f850160051c810160208610156100eb5750805b601f850160051c820191505b8181101561010a578281556001016100f7565b5050505b505050565b81516001600160401b0381111561012c5761012c610074565b6101408161013a845461008a565b846100c4565b602080601f831160018114610175576000841561015d5750858301515b600019600386901b1c1916600185901b17855561010a565b600085815260208120601f198616915b828110156101a457888601518255948401946001909101908401610185565b50858210156101c25787850151600019600388901b60f8161c191681555b5050505050600190811b01905550565b6107e2806101e16000396000f3fe608060405234801561001057600080fd5b50600436106100a95760003560e01c806340c10f191161007157806340c10f191461012357806370a082311461013857806395d89b41146101615780639dc29fac14610169578063a9059cbb1461017c578063dd62ed3e1461018f57600080fd5b806306fdde03146100ae578063095ea7b3146100cc57806318160ddd146100ef57806323b872dd14610101578063313ce56714610114575b600080fd5b6100b66101c8565b6040516100c3919061062c565b60405180910390f35b6100df6100da366004610696565b61025a565b60405190151581526020016100c3565b6002545b6040519081526020016100c3565b6100df61010f3660046106c0565b610274565b604051601281526020016100c3565b610136610131366004610696565b610298565b005b6100f36101463660046106fc565b6001600160a01b031660009081526020819052604090205490565b6100b66102a6565b610136610177366004610696565b6102b5565b6100df61018a366004610696565b6102bf565b6100f361019d36600461071e565b6001600160a01b03918216600090815260016020908152604080832093909416825291909152205490565b6060600380546101d790610751565b80601f016020809104026020016040519081016040528092919081815260200182805461020390610751565b80156102505780601f1061022557610100808354040283529160200191610250565b820191906000526020600020905b81548152906001019060200180831161023357829003601f168201915b5050505050905090565b6000336102688185856102cd565b60019150505b92915050565b6000336102828582856102df565b61028d858585610362565b506001949350505050565b6102a282826103c1565b5050565b6060600480546101d790610751565b6102a282826103f7565b600033610268818585610362565b6102da838383600161042d565b505050565b6001600160a01b03838116600090815260016020908152604080832093861683529290522054600019811461035c578181101561034d57604051637dc7a0d960e11b81526001600160a01b038416600482015260248101829052604481018390526064015b60405180910390fd5b61035c8484848403600061042d565b50505050565b6001600160a01b03831661038c57604051634b637e8f60e11b815260006004820152602401610344565b6001600160a01b0382166103b65760405163ec442f0560e01b815260006004820152602401610344565b6102da838383610502565b6001600160a01b0382166103eb5760405163ec442f0560e01b815260006004820152602401610344565b6102a260008383610502565b6001600160a01b03821661042157604051634b637e8f60e11b815260006004820152602401610344565b6102a282600083610502565b6001600160a01b0384166104575760405163e602df0560e01b815260006004820152602401610344565b6001600160a01b03831661048157604051634a1406b160e11b815260006004820152602401610344565b6001600160a01b038085166000908152600160209081526040808320938716835292905220829055801561035c57826001600160a01b0316846001600160a01b03167f8c5be1e5ebec7d5bd14f71427d1e84f3dd0314c0f7b2291e5b200ac8c7c3b925846040516104f491815260200190565b60405180910390a350505050565b6001600160a01b03831661052d578060026000828254610522919061078b565b9091555061059f9050565b6001600160a01b038316600090815260208190526040902054818110156105805760405163391434e360e21b81526001600160a01b03851660048201526024810182905260448101839052606401610344565b6001600160a01b03841660009081526020819052604090209082900390555b6001600160a01b0382166105bb576002805482900390556105da565b6001600160a01b03821660009081526020819052604090208054820190555b816001600160a01b0316836001600160a01b03167fddf252ad1be2c89b69c2b068fc378daa952ba7f163c4a11628f55a4df523b3ef8360405161061f91815260200190565b60405180910390a3505050565b600060208083528351808285015260005b818110156106595785810183015185820160400152820161063d565b506000604082860101526040601f19601f8301168501019250505092915050565b80356001600160a01b038116811461069157600080fd5b919050565b600080604083850312156106a957600080fd5b6106b28361067a565b946020939093013593505050565b6000806000606084860312156106d557600080fd5b6106de8461067a565b92506106ec6020850161067a565b9150604084013590509250925092565b60006020828403121561070e57600080fd5b6107178261067a565b9392505050565b6000806040838503121561073157600080fd5b61073a8361067a565b91506107486020840161067a565b90509250929050565b600181811c9082168061076557607f821691505b60208210810361078557634e487b7160e01b600052602260045260246000fd5b50919050565b8082018082111561026e57634e487b7160e01b600052601160045260246000fdfea2646970667358221220b0c36b23f702bd15a8cf9f92228e2a5c8471707cb182b9b7177ceb6bcafd5e6d64736f6c63430008140033",
        "nonce": "0x14",
        "chainId": "0x1e14"
      },
      "additionalContracts": [],
      "isFixedGasLimit": false
    },
    {
      "hash": "0x2d5706df9aaf1f09bd427c44f29400835fdcf91f32a72f7c132f6df9672f560d",
      "transactionType": "CREATE",
      "contractName": "ERC20Mock",
      "contractAddress": "0x59b670e9fa9d0a427751af201d676719a970857b",
      "function": null,
      "arguments": null,
      "transaction": {
        "from": "0xf39fd6e51aad88f6f4ce6ab8827279cfffb92266",
        "gas": "0xabbd8",
        "value": "0x0",
        "input": "0x608060405234801561001057600080fd5b506040518060400160405280600981526020016845524332304d6f636b60b81b815250604051806040016040528060048152602001634532304d60e01b815250816003908161005f9190610113565b50600461006c8282610113565b5050506101d2565b634e487b7160e01b600052604160045260246000fd5b600181811c9082168061009e57607f821691505b6020821081036100be57634e487b7160e01b600052602260045260246000fd5b50919050565b601f82111561010e57600081815260208120601f850160051c810160208610156100eb5750805b601f850160051c820191505b8181101561010a578281556001016100f7565b5050505b505050565b81516001600160401b0381111561012c5761012c610074565b6101408161013a845461008a565b846100c4565b602080601f831160018114610175576000841561015d5750858301515b600019600386901b1c1916600185901b17855561010a565b600085815260208120601f198616915b828110156101a457888601518255948401946001909101908401610185565b50858210156101c25787850151600019600388901b60f8161c191681555b5050505050600190811b01905550565b6107e2806101e16000396000f3fe608060405234801561001057600080fd5b50600436106100a95760003560e01c806340c10f191161007157806340c10f191461012357806370a082311461013857806395d89b41146101615780639dc29fac14610169578063a9059cbb1461017c578063dd62ed3e1461018f57600080fd5b806306fdde03146100ae578063095ea7b3146100cc57806318160ddd146100ef57806323b872dd14610101578063313ce56714610114575b600080fd5b6100b66101c8565b6040516100c3919061062c565b60405180910390f35b6100df6100da366004610696565b61025a565b60405190151581526020016100c3565b6002545b6040519081526020016100c3565b6100df61010f3660046106c0565b610274565b604051601281526020016100c3565b610136610131366004610696565b610298565b005b6100f36101463660046106fc565b6001600160a01b031660009081526020819052604090205490565b6100b66102a6565b610136610177366004610696565b6102b5565b6100df61018a366004610696565b6102bf565b6100f361019d36600461071e565b6001600160a01b03918216600090815260016020908152604080832093909416825291909152205490565b6060600380546101d790610751565b80601f016020809104026020016040519081016040528092919081815260200182805461020390610751565b80156102505780601f1061022557610100808354040283529160200191610250565b820191906000526020600020905b81548152906001019060200180831161023357829003601f168201915b5050505050905090565b6000336102688185856102cd565b60019150505b92915050565b6000336102828582856102df565b61028d858585610362565b506001949350505050565b6102a282826103c1565b5050565b6060600480546101d790610751565b6102a282826103f7565b600033610268818585610362565b6102da838383600161042d565b505050565b6001600160a01b03838116600090815260016020908152604080832093861683529290522054600019811461035c578181101561034d57604051637dc7a0d960e11b81526001600160a01b038416600482015260248101829052604481018390526064015b60405180910390fd5b61035c8484848403600061042d565b50505050565b6001600160a01b03831661038c57604051634b637e8f60e11b815260006004820152602401610344565b6001600160a01b0382166103b65760405163ec442f0560e01b815260006004820152602401610344565b6102da838383610502565b6001600160a01b0382166103eb5760405163ec442f0560e01b815260006004820152602401610344565b6102a260008383610502565b6001600160a01b03821661042157604051634b637e8f60e11b815260006004820152602401610344565b6102a282600083610502565b6001600160a01b0384166104575760405163e602df0560e01b815260006004820152602401610344565b6001600160a01b03831661048157604051634a1406b160e11b815260006004820152602401610344565b6001600160a01b038085166000908152600160209081526040808320938716835292905220829055801561035c57826001600160a01b0316846001600160a01b03167f8c5be1e5ebec7d5bd14f71427d1e84f3dd0314c0f7b2291e5b200ac8c7c3b925846040516104f491815260200190565b60405180910390a350505050565b6001600160a01b03831661052d578060026000828254610522919061078b565b9091555061059f9050565b6001600160a01b038316600090815260208190526040902054818110156105805760405163391434e360e21b81526001600160a01b03851660048201526024810182905260448101839052606401610344565b6001600160a01b03841660009081526020819052604090209082900390555b6001600160a01b0382166105bb576002805482900390556105da565b6001600160a01b03821660009081526020819052604090208054820190555b816001600160a01b0316836001600160a01b03167fddf252ad1be2c89b69c2b068fc378daa952ba7f163c4a11628f55a4df523b3ef8360405161061f91815260200190565b60405180910390a3505050565b600060208083528351808285015260005b818110156106595785810183015185820160400152820161063d565b506000604082860101526040601f19601f8301168501019250505092915050565b80356001600160a01b038116811461069157600080fd5b919050565b600080604083850312156106a957600080fd5b6106b28361067a565b946020939093013593505050565b6000806000606084860312156106d557600080fd5b6106de8461067a565b92506106ec6020850161067a565b9150604084013590509250925092565b60006020828403121561070e57600080fd5b6107178261067a565b9392505050565b6000806040838503121561073157600080fd5b61073a8361067a565b91506107486020840161067a565b90509250929050565b600181811c9082168061076557607f821691505b60208210810361078557634e487b7160e01b600052602260045260246000fd5b50919050565b8082018082111561026e57634e487b7160e01b600052601160045260246000fdfea2646970667358221220b0c36b23f702bd15a8cf9f92228e2a5c8471707cb182b9b7177ceb6bcafd5e6d64736f6c63430008140033",
        "nonce": "0x15",
        "chainId": "0x1e14"
      },
      "additionalContracts": [],
      "isFixedGasLimit": false
    },
    {
      "hash": "0x75077bc9fa441899f0d22674502cec5c7b68884383fc38d60f4c1931908982e2",
      "transactionType": "CREATE",
      "contractName": "PublicMarket",
      "contractAddress": "0x4ed7c70f96b99c776995fb64377f0d4ab3b0e1c1",
      "function": null,
      "arguments": null,
      "transaction": {
        "from": "0xf39fd6e51aad88f6f4ce6ab8827279cfffb92266",
        "gas": "0x1f8208",
        "value": "0x0",
        "input": "0x6080604052600160005534801561001557600080fd5b50611b60806100256000396000f3fe608060405234801561001057600080fd5b506004361061009e5760003560e01c8063714af34b11610066578063714af34b1461012457806376f26ef8146101375780638a72ea6a14610158578063adb519801461020e578063c77e9a021461023957600080fd5b8063082c3bc4146100a35780630ff4c916146100c9578063119ff51d146100e957806351cff8d9146100fc578063658e482114610111575b600080fd5b6100b66100b13660046117d2565b61024c565b6040519081526020015b60405180910390f35b6100b66100d7366004611816565b60009081526002602052604090205490565b6100b66100f73660046117d2565b61026c565b61010f61010a36600461182f565b61041d565b005b61010f61011f36600461184a565b61042a565b6100b66101323660046118bf565b61047c565b61014a6101453660046118f2565b6104b8565b6040516100c0929190611969565b6101c2610166366004611816565b6002602081905260009182526040909120805460018201549282015460039092015490926001600160601b038116926001600160a01b03600160601b9092048216929082169181169065ffffffffffff600160a01b9091041686565b604080519687526001600160601b0390951660208701526001600160a01b0393841694860194909452908216606085015216608083015265ffffffffffff1660a082015260c0016100c0565b6100b661021c3660046118bf565b600160209081526000928352604080842090915290825290205481565b6100b6610247366004611997565b610627565b60006102618585858565ffffffffffff610648565b90505b949350505050565b60008360000361028f57604051631771cc0160e11b815260040160405180910390fd5b816000036102b057604051631771cc0160e11b815260040160405180910390fd5b6001600160a01b0385166102d757604051631771cc0160e11b815260040160405180910390fd5b6001600160a01b0383166102fe57604051631771cc0160e11b815260040160405180910390fd5b826001600160a01b0316856001600160a01b03160361033057604051631771cc0160e11b815260040160405180910390fd5b600061033e86863330610853565b9050600061034c84836109b9565b9050612710811015610371576040516363c8f3fb60e01b815260040160405180910390fd5b60006040518060c0016040528083815260200161038d856109d9565b6001600160601b031681526001600160a01b03808b16602083015288166040820152336060820152600060809091018190529091506103cb826109f2565b90508581036103ed57604051635876bf8160e01b815260040160405180910390fd5b6103f78733610aef565b8015610411576104116001600160a01b038a163383610b54565b98975050505050505050565b6104278133610aef565b50565b8060005b818110156104765761046684848381811061044b5761044b6119e5565b9050602002016020810190610460919061182f565b33610aef565b61046f81611a11565b905061042e565b50505050565b604080516001600160a01b0384811660208084019190915290841682840152825180830384018152606090920190925280519101205b92915050565b60608060006104c7868661047c565b6000818152600360205260409020805491925090808610156104e65750845b60008167ffffffffffffffff81111561050157610501611a2a565b60405190808252806020026020018201604052801561052a578160200160208202803683370190505b50905060008267ffffffffffffffff81111561054857610548611a2a565b604051908082528060200260200182016040528015610571578160200160208202803683370190505b5090506000805b848110156106145761058c86836001610ba6565b60008181526002602052604090206001015486519194506001600160601b031691508590839081106105c0576105c06119e5565b6020026020010181815250506105e760026000848152602001908152602001600020610be9565b8382815181106105f9576105f96119e5565b602090810291909101015261060d81611a11565b9050610578565b509196509450505050505b935093915050565b600061063e8686868661063987610c13565b610648565b9695505050505050565b60008460000361066b57604051631771cc0160e11b815260040160405180910390fd5b8260000361068c57604051631771cc0160e11b815260040160405180910390fd5b6001600160a01b0386166106b357604051631771cc0160e11b815260040160405180910390fd5b6001600160a01b0384166106da57604051631771cc0160e11b815260040160405180910390fd5b836001600160a01b0316866001600160a01b03160361070c57604051631771cc0160e11b815260040160405180910390fd5b600061071a87873330610853565b9050600061072885836109b9565b90507f0648804ed7ab2cbe63bc5ce27949d9549c9b9576c9b9548b4130c5cc1be193a58160405161078391906040808252600d908201526c027b93232b910283934b1b29d1609d1b6060820152602081019190915260800190565b60405180910390a16127108110156107ae576040516363c8f3fb60e01b815260040160405180910390fd5b60006040518060c001604052808381526020016107ca856109d9565b6001600160601b031681526001600160a01b03808c1660208301528916604082015233606082015265ffffffffffff87166080909101529050600061080e826109f2565b90506000811561083b57610821826109d9565b6001600160601b0316602084015261083883610c36565b90505b6108458933610aef565b9a9950505050505050505050565b6040516370a0823160e01b81526001600160a01b03828116600483015260009182918716906370a0823190602401602060405180830381865afa15801561089e573d6000803e3d6000fd5b505050506040513d601f19601f820116820180604052508101906108c29190611a40565b6040516323b872dd60e01b81526001600160a01b038681166004830152858116602483015260448201889052919250908716906323b872dd906064016020604051808303816000875af115801561091d573d6000803e3d6000fd5b505050506040513d601f19601f820116820180604052508101906109419190611a59565b506040516370a0823160e01b81526001600160a01b0384811660048301528291908816906370a0823190602401602060405180830381865afa15801561098b573d6000803e3d6000fd5b505050506040513d601f19601f820116820180604052508101906109af9190611a40565b61063e9190611a7b565b60006109d2836b033b2e3c9fd0803ce800000084610ded565b9392505050565b6000600160601b82106109ee576109ee610eb1565b5090565b600080610a0783604001518460600151610ebf565b60208401519091506001600160601b0316600060015b8015610aa2577f0648804ed7ab2cbe63bc5ce27949d9549c9b9576c9b9548b4130c5cc1be193a55a604051610a7991906040808252600a9082015269023b0b9902632b33a1d160b51b6060820152602081019190915260800190565b60405180910390a1610a9684848860000151858a60400151610ecb565b90945092509050610a1d565b8115610ae55733600090815260016020908152604080832060608a01516001600160a01b0316845290915281208054849290610adf908490611a8e565b90915550505b5090949350505050565b6001600160a01b038082166000908152600160209081526040808320938616835292905220548015610b4f576001600160a01b03808316600090815260016020908152604080832093871680845293909152812055610b4f908383610b54565b505050565b604080516001600160a01b038416602482015260448082018490528251808303909101815260649091019091526020810180516001600160e01b031663a9059cbb60e01b179052610b4f908490611147565b600080610bb385856111aa565b610bc25750600090508061061f565b5050600082815260018481016020908152604080842085151585529091529091205461061f565b600181015481546000916104b291906001600160601b03166b033b2e3c9fd0803ce8000000610ded565b600066010000000000008210610c2b57610c2b610eb1565b5064ffffffffff1690565b60808101516000906001600160a01b0316610c805760405162461bcd60e51b81526020600482015260056024820152640aad040ded60db1b60448201526064015b60405180910390fd5b6000805490819080610c9183611a11565b909155505060008181526002602081815260408084208751815591870151908701516001600160a01b03808216600160601b026001600160601b03909316929092176001840155606088015193830180548584166001600160a01b031990911617905560808801516003909301805460a08a015165ffffffffffff16600160a01b026001600160d01b0319909116949093169390931791909117909155610d379161047c565b6000818152600360205260408120865192935091610d58908390309061121f565b9050610d658282866112ee565b610da15760405162461bcd60e51b815260206004820152600d60248201526c11985a5b195908125b9cd95c9d609a1b6044820152606401610c77565b8551604080518681526020810186905280820192909252517f43118103466f8475c26ca895a4fb497bc81164e16090b6c5d8d29bff0b2a068c9181900360600190a15091949350505050565b6000838302816000198587098281108382030391505080600003610e2457838281610e1a57610e1a611aa1565b04925050506109d2565b808411610e445760405163227bc15360e01b815260040160405180910390fd5b6000848688096000868103871696879004966002600389028118808a02820302808a02820302808a02820302808a02820302808a02820302808a02909103029181900381900460010186841190950394909402919094039290920491909117919091029150509392505050565b6335278d126000526004601cfd5b60006109d2828461047c565b6000858152600360205260408120819081908190610eeb90826001610ba6565b91505080600003610f0657600088879350935093505061113c565b6000818152600260205260409020610f1f81838c6112fd565b610f345760018988945094509450505061113c565b87610f3e82611339565b1015610f555760008988945094509450505061113c565b600089610f6183610be9565b111561106857610f71828b611357565b6001830154909150610f9690610f919083906001600160601b0316611a7b565b6109d9565b6001830180546bffffffffffffffffffffffff19166001600160601b0392909216919091179055610fc78189611a8e565b60038301546001600160a01b039081166000908152600160209081526040808320938c1683529290529081208054929a508c92909190611008908490611a8e565b90915550506003820154604080516001600160a01b03928316815291891660208301527f88f2b86ac62356711c096194cb8bcc4996fecfc20017ecedc832fa22522ffd64910160405180910390a16000808995509550955050505061113c565b61107182610be9565b600183015490915061108c906001600160601b031689611a8e565b60038301546001600160a01b039081166000908152600160209081526040808320938c1683529290529081208054929a5083929091906110cd908490611a8e565b90915550506003820154604080516001600160a01b03928316815291891660208301527f88f2b86ac62356711c096194cb8bcc4996fecfc20017ecedc832fa22522ffd64910160405180910390a16111258b84611375565b6001611131828c611a7b565b899550955095505050505b955095509592505050565b600061115c6001600160a01b038416836113cc565b9050805160001415801561118157508080602001905181019061117f9190611a59565b155b15610b4f57604051635274afe760e01b81526001600160a01b0384166004820152602401610c77565b600081815260018301602090815260408083208380529091528120541580156111ed57506000828152600180850160209081526040808420928452919052902054155b156112175750600080805260018084016020908152604080842092845291905290205481146104b2565b5060016104b2565b6000611229845490565b600003611238575060006109d2565b60006112478560006001610ba6565b9150505b80158015906112c757506040516307fa648b60e11b8152600481018290526001906001600160a01b03861690630ff4c91690602401602060405180830381865afa15801561129d573d6000803e3d6000fd5b505050506040513d601f19601f820116820180604052508101906112c19190611a40565b84111514155b1561026457600090815260018086016020908152604080842092845291905290205461124b565b600061026484848460006113da565b600383015460009042600160a01b90910465ffffffffffff16101561132f57611327848484611463565b5060006109d2565b5060019392505050565b80546000906104b2906b033b2e3c9fd0803ce8000000908190610ded565b81546000906109d29083906b033b2e3c9fd0803ce800000090610ded565b600082815260036020526040902061138c90611538565b50600090815260026020819052604082208281556001810192909255810180546001600160a01b031916905560030180546001600160d01b031916905550565b60606109d283836000611545565b60006113e685846111aa565b1580156113f857506113f885856111aa565b1561145857600084815260018601602090815260408083208515158452909152902054611427868686866115d8565b611433868583866115d8565b60018660000160008282546114489190611a8e565b9091555060019250610264915050565b506000949350505050565b6114886040518060400160405280600481526020016312d2531360e21b81525061160d565b60018084015460038501546001600160a01b03908116600090815260209384526040808220600160601b8504909316825291909352822080546001600160601b039092169290916114da908490611a8e565b909155505060008181526003602052604090206114f79083611650565b5050600090815260026020819052604082208281556001810192909255810180546001600160a01b031916905560030180546001600160d01b031916905550565b60006104b28260016116ea565b60608147101561156a5760405163cd78605960e01b8152306004820152602401610c77565b600080856001600160a01b031684866040516115869190611adb565b60006040518083038185875af1925050503d80600081146115c3576040519150601f19603f3d011682016040523d82523d6000602084013e6115c8565b606091505b509150915061063e868383611707565b600082815260019094016020818152604080872093158088529382528087208690559486529081528385209115855252912055565b610427816040516024016116219190611af7565b60408051601f198184030181529190526020810180516001600160e01b031663104c13eb60e21b179052611763565b6000811580611666575061166483836111aa565b155b15611673575060006104b2565b6000828152600184810160209081526040808420848052909152808320548284529220546116a59286929091906115d8565b600082815260018481016020908152604080842084805290915280832083905581835282208290558454909185916116de908490611a7b565b90915550919392505050565b6000806116f984600085610ba6565b915061026490508482611650565b60608261171c576117178261176c565b6109d2565b815115801561173357506001600160a01b0384163b155b1561175c57604051639996b31560e01b81526001600160a01b0385166004820152602401610c77565b50806109d2565b61042781611795565b80511561177c5780518082602001fd5b604051630a12f52160e11b815260040160405180910390fd5b80516a636f6e736f6c652e6c6f67602083016000808483855afa5050505050565b80356001600160a01b03811681146117cd57600080fd5b919050565b600080600080608085870312156117e857600080fd5b6117f1856117b6565b935060208501359250611806604086016117b6565b9396929550929360600135925050565b60006020828403121561182857600080fd5b5035919050565b60006020828403121561184157600080fd5b6109d2826117b6565b6000806020838503121561185d57600080fd5b823567ffffffffffffffff8082111561187557600080fd5b818501915085601f83011261188957600080fd5b81358181111561189857600080fd5b8660208260051b85010111156118ad57600080fd5b60209290920196919550909350505050565b600080604083850312156118d257600080fd5b6118db836117b6565b91506118e9602084016117b6565b90509250929050565b60008060006060848603121561190757600080fd5b611910846117b6565b925061191e602085016117b6565b9150604084013590509250925092565b600081518084526020808501945080840160005b8381101561195e57815187529582019590820190600101611942565b509495945050505050565b60408152600061197c604083018561192e565b828103602084015261198e818561192e565b95945050505050565b600080600080600060a086880312156119af57600080fd5b6119b8866117b6565b9450602086013593506119cd604087016117b6565b94979396509394606081013594506080013592915050565b634e487b7160e01b600052603260045260246000fd5b634e487b7160e01b600052601160045260246000fd5b600060018201611a2357611a236119fb565b5060010190565b634e487b7160e01b600052604160045260246000fd5b600060208284031215611a5257600080fd5b5051919050565b600060208284031215611a6b57600080fd5b815180151581146109d257600080fd5b818103818111156104b2576104b26119fb565b808201808211156104b2576104b26119fb565b634e487b7160e01b600052601260045260246000fd5b60005b83811015611ad2578181015183820152602001611aba565b50506000910152565b60008251611aed818460208701611ab7565b9190910192915050565b6020815260008251806020840152611b16816040850160208701611ab7565b601f01601f1916919091016040019291505056fea26469706673582212209f583cf96562ad917d2c360aac365e120c95775a86aaf842b1bf18521c76d0a864736f6c63430008140033",
        "nonce": "0x16",
        "chainId": "0x1e14"
      },
      "additionalContracts": [],
      "isFixedGasLimit": false
    },
    {
      "hash": "0x14ed3d8fab83b589db86c034d19a9719dfd51635716f020eb9c7b9a8f53e33e9",
      "transactionType": "CALL",
      "contractName": "ERC20Mock",
      "contractAddress": "0xc6e7df5e7b4f2a278906862b61205850344d4e7d",
      "function": "mint(address,uint256)",
      "arguments": [
        "0xf39Fd6e51aad88F6F4ce6aB8827279cffFb92266",
        "1000000000000000000000000"
      ],
      "transaction": {
        "from": "0xf39fd6e51aad88f6f4ce6ab8827279cfffb92266",
        "to": "0xc6e7df5e7b4f2a278906862b61205850344d4e7d",
        "gas": "0x186f3",
        "value": "0x0",
        "input": "0x40c10f19000000000000000000000000f39fd6e51aad88f6f4ce6ab8827279cfffb9226600000000000000000000000000000000000000000000d3c21bcecceda1000000",
        "nonce": "0x17",
        "chainId": "0x1e14"
      },
      "additionalContracts": [],
      "isFixedGasLimit": false
    },
    {
      "hash": "0x327eca42f9a481f68811a74f683d46acf6ddde27d7502744e86a5545c5109334",
      "transactionType": "CALL",
      "contractName": "ERC20Mock",
      "contractAddress": "0x59b670e9fa9d0a427751af201d676719a970857b",
      "function": "mint(address,uint256)",
      "arguments": [
        "0xf39Fd6e51aad88F6F4ce6aB8827279cffFb92266",
        "1000000000000000000000000"
      ],
      "transaction": {
        "from": "0xf39fd6e51aad88f6f4ce6ab8827279cfffb92266",
        "to": "0x59b670e9fa9d0a427751af201d676719a970857b",
        "gas": "0x186f3",
        "value": "0x0",
        "input": "0x40c10f19000000000000000000000000f39fd6e51aad88f6f4ce6ab8827279cfffb9226600000000000000000000000000000000000000000000d3c21bcecceda1000000",
        "nonce": "0x18",
        "chainId": "0x1e14"
      },
      "additionalContracts": [],
      "isFixedGasLimit": false
    },
    {
      "hash": "0xff783e73d222917dfa9b568ac8c224e87467830ef89229257a9fbc66f297cc66",
      "transactionType": "CALL",
      "contractName": null,
      "contractAddress": "0x826551890dc65655a0aceca109ab11abdbd7a07b",
      "function": null,
      "arguments": null,
      "transaction": {
        "from": "0xf39fd6e51aad88f6f4ce6ab8827279cfffb92266",
        "to": "0x826551890dc65655a0aceca109ab11abdbd7a07b",
        "gas": "0x100ac",
        "value": "0x1b1ae4d6e2ef5000000",
        "input": "0xd0e30db0",
        "nonce": "0x19",
        "chainId": "0x1e14"
      },
      "additionalContracts": [],
      "isFixedGasLimit": false
    },
    {
      "hash": "0x959cf4eb7d84057bf68e7489736d5be9cd58097ae4a79430e4b4069bda0f46a8",
      "transactionType": "CALL",
      "contractName": null,
      "contractAddress": "0x4e71a2e537b7f9d9413d3991d37958c0b5e1e503",
      "function": "approve(address,uint256)",
      "arguments": [
        "0x4ed7c70F96B99c776995fB64377f0d4aB3B0e1C1",
        "115792089237316195423570985008687907853269984665640564039457584007913129639935"
      ],
      "transaction": {
        "from": "0xf39fd6e51aad88f6f4ce6ab8827279cfffb92266",
        "to": "0x4e71a2e537b7f9d9413d3991d37958c0b5e1e503",
        "gas": "0xfb60",
        "value": "0x0",
        "input": "0x095ea7b30000000000000000000000004ed7c70f96b99c776995fb64377f0d4ab3b0e1c1ffffffffffffffffffffffffffffffffffffffffffffffffffffffffffffffff",
        "nonce": "0x1a",
        "chainId": "0x1e14"
      },
      "additionalContracts": [],
      "isFixedGasLimit": false
    },
    {
      "hash": "0x4dfa6fd3ab5c768b30e6a7b656429509dae96166945b1e088499ee5ed6df4719",
      "transactionType": "CALL",
      "contractName": null,
      "contractAddress": "0x826551890dc65655a0aceca109ab11abdbd7a07b",
      "function": "approve(address,uint256)",
      "arguments": [
        "0x4ed7c70F96B99c776995fB64377f0d4aB3B0e1C1",
        "115792089237316195423570985008687907853269984665640564039457584007913129639935"
      ],
      "transaction": {
        "from": "0xf39fd6e51aad88f6f4ce6ab8827279cfffb92266",
        "to": "0x826551890dc65655a0aceca109ab11abdbd7a07b",
        "gas": "0x11476",
        "value": "0x0",
        "input": "0x095ea7b30000000000000000000000004ed7c70f96b99c776995fb64377f0d4ab3b0e1c1ffffffffffffffffffffffffffffffffffffffffffffffffffffffffffffffff",
        "nonce": "0x1b",
        "chainId": "0x1e14"
      },
      "additionalContracts": [],
      "isFixedGasLimit": false
    },
    {
      "hash": "0x12c784eb5c7fe333a7f427a0d273a4d33aff084bf20d063c833f8ca635100d4f",
      "transactionType": "CALL",
      "contractName": "ERC20Mock",
      "contractAddress": "0xc6e7df5e7b4f2a278906862b61205850344d4e7d",
      "function": "approve(address,uint256)",
      "arguments": [
        "0x4ed7c70F96B99c776995fB64377f0d4aB3B0e1C1",
        "115792089237316195423570985008687907853269984665640564039457584007913129639935"
      ],
      "transaction": {
        "from": "0xf39fd6e51aad88f6f4ce6ab8827279cfffb92266",
        "to": "0xc6e7df5e7b4f2a278906862b61205850344d4e7d",
        "gas": "0x10ab1",
        "value": "0x0",
        "input": "0x095ea7b30000000000000000000000004ed7c70f96b99c776995fb64377f0d4ab3b0e1c1ffffffffffffffffffffffffffffffffffffffffffffffffffffffffffffffff",
        "nonce": "0x1c",
        "chainId": "0x1e14"
      },
      "additionalContracts": [],
      "isFixedGasLimit": false
    },
    {
      "hash": "0x0d3b7125848c31abbde5ca45bd8cf25e8e91afd301bbcb9984e10ec67a37eaa2",
      "transactionType": "CALL",
      "contractName": "ERC20Mock",
      "contractAddress": "0x59b670e9fa9d0a427751af201d676719a970857b",
      "function": "approve(address,uint256)",
      "arguments": [
        "0x4ed7c70F96B99c776995fB64377f0d4aB3B0e1C1",
        "115792089237316195423570985008687907853269984665640564039457584007913129639935"
      ],
      "transaction": {
        "from": "0xf39fd6e51aad88f6f4ce6ab8827279cfffb92266",
        "to": "0x59b670e9fa9d0a427751af201d676719a970857b",
        "gas": "0x10ab1",
        "value": "0x0",
        "input": "0x095ea7b30000000000000000000000004ed7c70f96b99c776995fb64377f0d4ab3b0e1c1ffffffffffffffffffffffffffffffffffffffffffffffffffffffffffffffff",
        "nonce": "0x1d",
        "chainId": "0x1e14"
      },
      "additionalContracts": [],
      "isFixedGasLimit": false
    },
    {
      "hash": "0x9fab5fbe92877775f57f0d2bbdf96f3323905f402c28bd35a013aad22c21e05c",
      "transactionType": "CALL",
      "contractName": "PublicMarket",
      "contractAddress": "0x4ed7c70f96b99c776995fb64377f0d4ab3b0e1c1",
      "function": "makeOfferSimple(address,uint256,address,uint256)",
      "arguments": [
        "0xc6e7DF5E7b4f2A278906862b61205850344D4e7d",
        "5000000000000000000",
        "0x59b670e9fA9D0A427751Af201D676719a970857b",
        "20000000000000000000"
      ],
      "transaction": {
        "from": "0xf39fd6e51aad88f6f4ce6ab8827279cfffb92266",
        "to": "0x4ed7c70f96b99c776995fb64377f0d4ab3b0e1c1",
        "gas": "0x51b8d",
        "value": "0x0",
        "input": "0x082c3bc4000000000000000000000000c6e7df5e7b4f2a278906862b61205850344d4e7d0000000000000000000000000000000000000000000000004563918244f4000000000000000000000000000059b670e9fa9d0a427751af201d676719a970857b000000000000000000000000000000000000000000000001158e460913d00000",
        "nonce": "0x1e",
        "chainId": "0x1e14"
      },
      "additionalContracts": [],
      "isFixedGasLimit": false
    },
    {
      "hash": "0x59f3822171c68062f6d56932776daf7f76536b18db706baf8fe69a0ac074a82d",
      "transactionType": "CALL",
      "contractName": "PublicMarket",
      "contractAddress": "0x4ed7c70f96b99c776995fb64377f0d4ab3b0e1c1",
      "function": "makeOfferSimple(address,uint256,address,uint256)",
      "arguments": [
        "0xc6e7DF5E7b4f2A278906862b61205850344D4e7d",
        "5480000000000000000",
        "0x59b670e9fA9D0A427751Af201D676719a970857b",
        "22000000000000000000"
      ],
      "transaction": {
        "from": "0xf39fd6e51aad88f6f4ce6ab8827279cfffb92266",
        "to": "0x4ed7c70f96b99c776995fb64377f0d4ab3b0e1c1",
        "gas": "0x48f19",
        "value": "0x0",
        "input": "0x082c3bc4000000000000000000000000c6e7df5e7b4f2a278906862b61205850344d4e7d0000000000000000000000000000000000000000000000004c0cdef73924000000000000000000000000000059b670e9fa9d0a427751af201d676719a970857b000000000000000000000000000000000000000000000001314fb37062980000",
        "nonce": "0x1f",
        "chainId": "0x1e14"
      },
      "additionalContracts": [],
      "isFixedGasLimit": false
    },
    {
      "hash": "0x3993b0f166a9bdec940134a772ce52b83a272b044d1efdbb11bb33e8930b2444",
      "transactionType": "CALL",
      "contractName": "PublicMarket",
      "contractAddress": "0x4ed7c70f96b99c776995fb64377f0d4ab3b0e1c1",
      "function": "makeOfferSimple(address,uint256,address,uint256)",
      "arguments": [
        "0xc6e7DF5E7b4f2A278906862b61205850344D4e7d",
        "4700000000000000000",
        "0x59b670e9fA9D0A427751Af201D676719a970857b",
        "21000000000000000000"
      ],
      "transaction": {
        "from": "0xf39fd6e51aad88f6f4ce6ab8827279cfffb92266",
        "to": "0x4ed7c70f96b99c776995fb64377f0d4ab3b0e1c1",
        "gas": "0x4aadb",
        "value": "0x0",
        "input": "0x082c3bc4000000000000000000000000c6e7df5e7b4f2a278906862b61205850344d4e7d0000000000000000000000000000000000000000000000004139c1192c56000000000000000000000000000059b670e9fa9d0a427751af201d676719a970857b000000000000000000000000000000000000000000000001236efcbcbb340000",
        "nonce": "0x20",
        "chainId": "0x1e14"
      },
      "additionalContracts": [],
      "isFixedGasLimit": false
    },
    {
      "hash": "0x32ffbde9ced651a3969b6f3b6f8add0173a36d9d4c030243a0c378ea1cd5d250",
      "transactionType": "CALL",
      "contractName": "PublicMarket",
      "contractAddress": "0x4ed7c70f96b99c776995fb64377f0d4ab3b0e1c1",
      "function": "makeOfferSimple(address,uint256,address,uint256)",
      "arguments": [
        "0xc6e7DF5E7b4f2A278906862b61205850344D4e7d",
        "6000000000000000000",
        "0x59b670e9fA9D0A427751Af201D676719a970857b",
        "27000000000000000000"
      ],
      "transaction": {
        "from": "0xf39fd6e51aad88f6f4ce6ab8827279cfffb92266",
        "to": "0x4ed7c70f96b99c776995fb64377f0d4ab3b0e1c1",
        "gas": "0x4c69e",
        "value": "0x0",
        "input": "0x082c3bc4000000000000000000000000c6e7df5e7b4f2a278906862b61205850344d4e7d00000000000000000000000000000000000000000000000053444835ec58000000000000000000000000000059b670e9fa9d0a427751af201d676719a970857b00000000000000000000000000000000000000000000000176b344f2a78c0000",
        "nonce": "0x21",
        "chainId": "0x1e14"
      },
      "additionalContracts": [],
      "isFixedGasLimit": false
    },
    {
      "hash": "0xc193671ff1b139864fffc20180af1deadec20842b84cb5905e90fb843875aa9c",
      "transactionType": "CALL",
      "contractName": "PublicMarket",
      "contractAddress": "0x4ed7c70f96b99c776995fb64377f0d4ab3b0e1c1",
      "function": "makeOfferSimple(address,uint256,address,uint256)",
      "arguments": [
        "0xc6e7DF5E7b4f2A278906862b61205850344D4e7d",
        "6500000000000000000",
        "0x59b670e9fA9D0A427751Af201D676719a970857b",
        "29000000000000000000"
      ],
      "transaction": {
        "from": "0xf39fd6e51aad88f6f4ce6ab8827279cfffb92266",
        "to": "0x4ed7c70f96b99c776995fb64377f0d4ab3b0e1c1",
        "gas": "0x4d412",
        "value": "0x0",
        "input": "0x082c3bc4000000000000000000000000c6e7df5e7b4f2a278906862b61205850344d4e7d0000000000000000000000000000000000000000000000005a34a38fc00a000000000000000000000000000059b670e9fa9d0a427751af201d676719a970857b0000000000000000000000000000000000000000000000019274b259f6540000",
        "nonce": "0x22",
        "chainId": "0x1e14"
      },
      "additionalContracts": [],
      "isFixedGasLimit": false
    }
  ],
  "receipts": [
    {
      "status": "0x1",
      "cumulativeGasUsed": "0x84258",
      "logs": [],
      "logsBloom": "0x00000000000000000000000000000000000000000000000000000000000000000000000000000000000000000000000000000000000000000000000000000000000000000000000000000000000000000000000000000000000000000000000000000000000000000000000000000000000000000000000000000000000000000000000000000000000000000000000000000000000000000000000000000000000000000000000000000000000000000000000000000000000000000000000000000000000000000000000000000000000000000000000000000000000000000000000000000000000000000000000000000000000000000000000000000000",
      "type": "0x2",
      "transactionHash": "0xc301892a3020e241c769cbe49cafdf54351dbee0814c28f7850b04da7b14e0e4",
      "transactionIndex": "0x0",
      "blockHash": "0x5162d2008e0c1f87e2cc5d8fc8bacb6d92401d7d983e23270190fcee6f08d2ce",
      "blockNumber": "0x8fd388",
      "gasUsed": "0x84258",
      "effectiveGasPrice": "0xd6ba79ea4",
      "from": "0xf39fd6e51aad88f6f4ce6ab8827279cfffb92266",
      "to": null,
      "contractAddress": "0xc6e7df5e7b4f2a278906862b61205850344d4e7d",
      "root": "0x0000000000000000000000000000000000000000000000000000000000000000"
    },
    {
      "status": "0x1",
      "cumulativeGasUsed": "0x84258",
      "logs": [],
      "logsBloom": "0x00000000000000000000000000000000000000000000000000000000000000000000000000000000000000000000000000000000000000000000000000000000000000000000000000000000000000000000000000000000000000000000000000000000000000000000000000000000000000000000000000000000000000000000000000000000000000000000000000000000000000000000000000000000000000000000000000000000000000000000000000000000000000000000000000000000000000000000000000000000000000000000000000000000000000000000000000000000000000000000000000000000000000000000000000000000",
      "type": "0x2",
      "transactionHash": "0x2d5706df9aaf1f09bd427c44f29400835fdcf91f32a72f7c132f6df9672f560d",
      "transactionIndex": "0x0",
      "blockHash": "0xff1c00ee8b40c1fabfc803445ad5af5bb99313b2ca655d3af85b5e224c7f0f6c",
      "blockNumber": "0x8fd389",
      "gasUsed": "0x84258",
      "effectiveGasPrice": "0xc30718bf3",
      "from": "0xf39fd6e51aad88f6f4ce6ab8827279cfffb92266",
      "to": null,
      "contractAddress": "0x59b670e9fa9d0a427751af201d676719a970857b",
      "root": "0x0000000000000000000000000000000000000000000000000000000000000000"
    },
    {
      "status": "0x1",
      "cumulativeGasUsed": "0x2080b6",
      "logs": [],
      "logsBloom": "0x00000000000000000000000000000000000000000000000000000000000000000000000000000000000000000000000000000000000000000000000000000000000000000000000000000000000000000000000000000000000000000000000000000000000000000000000000000000000000000000000000000000000000000000000000000000000000000000000000000000000000000000000000000000000000000000000000000000000000000000000000000000000000000000000000000000000000000000000000000000000000000000000000000000000000000000000000000000000000000000000000000000000000000000000000000000",
      "type": "0x2",
      "transactionHash": "0x75077bc9fa441899f0d22674502cec5c7b68884383fc38d60f4c1931908982e2",
      "transactionIndex": "0x1",
      "blockHash": "0xff1c00ee8b40c1fabfc803445ad5af5bb99313b2ca655d3af85b5e224c7f0f6c",
      "blockNumber": "0x8fd389",
      "gasUsed": "0x183e5e",
      "effectiveGasPrice": "0xc30718bf3",
      "from": "0xf39fd6e51aad88f6f4ce6ab8827279cfffb92266",
      "to": null,
      "contractAddress": "0x4ed7c70f96b99c776995fb64377f0d4ab3b0e1c1",
      "root": "0x0000000000000000000000000000000000000000000000000000000000000000"
    },
    {
      "status": "0x1",
      "cumulativeGasUsed": "0x218c07",
      "logs": [
        {
          "address": "0xc6e7df5e7b4f2a278906862b61205850344d4e7d",
          "topics": [
            "0xddf252ad1be2c89b69c2b068fc378daa952ba7f163c4a11628f55a4df523b3ef",
            "0x0000000000000000000000000000000000000000000000000000000000000000",
            "0x000000000000000000000000f39fd6e51aad88f6f4ce6ab8827279cfffb92266"
          ],
          "data": "0x00000000000000000000000000000000000000000000d3c21bcecceda1000000",
          "blockHash": "0xff1c00ee8b40c1fabfc803445ad5af5bb99313b2ca655d3af85b5e224c7f0f6c",
          "blockNumber": "0x8fd389",
          "blockTimestamp": "0x6632bbee",
          "transactionHash": "0x14ed3d8fab83b589db86c034d19a9719dfd51635716f020eb9c7b9a8f53e33e9",
          "transactionIndex": "0x2",
          "logIndex": "0x0",
          "removed": false
        }
      ],
      "logsBloom": "0x00000000000000000000000000000000000000000000000000000000000000000000000000000000000000800000000000000000000000000000000000000000000000000000000000000008000000000000000000000000000000000000000000000000020000000000000100000800000000000000000000000010000000000000000000000000000000000000000000000000000000000000000000000000000000000000000000000000000000000000000000000000000000000000000000000002000000200000000000100000000000002000000000000000000020000000000000000000000000800000000000000000000000000000000000000000",
      "type": "0x2",
      "transactionHash": "0x14ed3d8fab83b589db86c034d19a9719dfd51635716f020eb9c7b9a8f53e33e9",
      "transactionIndex": "0x2",
      "blockHash": "0xff1c00ee8b40c1fabfc803445ad5af5bb99313b2ca655d3af85b5e224c7f0f6c",
      "blockNumber": "0x8fd389",
      "gasUsed": "0x10b51",
      "effectiveGasPrice": "0xc30718bf3",
      "from": "0xf39fd6e51aad88f6f4ce6ab8827279cfffb92266",
      "to": "0xc6e7df5e7b4f2a278906862b61205850344d4e7d",
      "contractAddress": null,
      "root": "0x0000000000000000000000000000000000000000000000000000000000000000"
    },
    {
      "status": "0x1",
      "cumulativeGasUsed": "0x229758",
      "logs": [
        {
          "address": "0x59b670e9fa9d0a427751af201d676719a970857b",
          "topics": [
            "0xddf252ad1be2c89b69c2b068fc378daa952ba7f163c4a11628f55a4df523b3ef",
            "0x0000000000000000000000000000000000000000000000000000000000000000",
            "0x000000000000000000000000f39fd6e51aad88f6f4ce6ab8827279cfffb92266"
          ],
          "data": "0x00000000000000000000000000000000000000000000d3c21bcecceda1000000",
          "blockHash": "0xff1c00ee8b40c1fabfc803445ad5af5bb99313b2ca655d3af85b5e224c7f0f6c",
          "blockNumber": "0x8fd389",
          "blockTimestamp": "0x6632bbee",
          "transactionHash": "0x327eca42f9a481f68811a74f683d46acf6ddde27d7502744e86a5545c5109334",
          "transactionIndex": "0x3",
          "logIndex": "0x1",
          "removed": false
        }
      ],
      "logsBloom": "0x00000000000000000000000000000000000000000000000000000000000000000000000000000000000000000000000000000000000000000000000000000000000000000000000000000008000000000000000008000000000000000000000000000000020000000000000100000800000000000000000000000010000000000000000000000000000000000000000000000000000000000000000000000000000000000000000000000000000000080000000000000000000000000000000000000002000000200000000000020000000000002000000000000000000020000000000000000000000000000000000000000000000000000000000000000000",
      "type": "0x2",
      "transactionHash": "0x327eca42f9a481f68811a74f683d46acf6ddde27d7502744e86a5545c5109334",
      "transactionIndex": "0x3",
      "blockHash": "0xff1c00ee8b40c1fabfc803445ad5af5bb99313b2ca655d3af85b5e224c7f0f6c",
      "blockNumber": "0x8fd389",
      "gasUsed": "0x10b51",
      "effectiveGasPrice": "0xc30718bf3",
      "from": "0xf39fd6e51aad88f6f4ce6ab8827279cfffb92266",
      "to": "0x59b670e9fa9d0a427751af201d676719a970857b",
      "contractAddress": null,
      "root": "0x0000000000000000000000000000000000000000000000000000000000000000"
    },
    {
      "status": "0x1",
      "cumulativeGasUsed": "0x2346d9",
      "logs": [
        {
          "address": "0x826551890dc65655a0aceca109ab11abdbd7a07b",
          "topics": [
            "0xe1fffcc4923d04b559f4d29a8bfc6cda04eb5b0d3c460751c2402c5c5cc9109c",
            "0x000000000000000000000000f39fd6e51aad88f6f4ce6ab8827279cfffb92266"
          ],
          "data": "0x0000000000000000000000000000000000000000000001b1ae4d6e2ef5000000",
          "blockHash": "0xff1c00ee8b40c1fabfc803445ad5af5bb99313b2ca655d3af85b5e224c7f0f6c",
          "blockNumber": "0x8fd389",
          "blockTimestamp": "0x6632bbee",
          "transactionHash": "0xff783e73d222917dfa9b568ac8c224e87467830ef89229257a9fbc66f297cc66",
          "transactionIndex": "0x4",
          "logIndex": "0x2",
          "removed": false
        }
      ],
      "logsBloom": "0x00000000000000000000000000000000000000000000000000000000000000000000000000000000000000000000000000000000000000800000000000000080000000000000000000000000000000000000000000000000000000008000000000000000000000000000000100000000000000000000000000000000000000000000000000000000000000000000000000000001000000000000000000000000000000000000000000000000000000000000000000000000008000000000000000000000000000200000000000000000000000002000000000000000000000000000000000000000000000000000000000000000000000400000000000000000",
      "type": "0x2",
      "transactionHash": "0xff783e73d222917dfa9b568ac8c224e87467830ef89229257a9fbc66f297cc66",
      "transactionIndex": "0x4",
      "blockHash": "0xff1c00ee8b40c1fabfc803445ad5af5bb99313b2ca655d3af85b5e224c7f0f6c",
      "blockNumber": "0x8fd389",
      "gasUsed": "0xaf81",
      "effectiveGasPrice": "0xc30718bf3",
      "from": "0xf39fd6e51aad88f6f4ce6ab8827279cfffb92266",
      "to": "0x826551890dc65655a0aceca109ab11abdbd7a07b",
      "contractAddress": null,
      "root": "0x0000000000000000000000000000000000000000000000000000000000000000"
    },
    {
      "status": "0x1",
      "cumulativeGasUsed": "0x23fcd8",
      "logs": [
        {
          "address": "0x4e71a2e537b7f9d9413d3991d37958c0b5e1e503",
          "topics": [
            "0x8c5be1e5ebec7d5bd14f71427d1e84f3dd0314c0f7b2291e5b200ac8c7c3b925",
            "0x000000000000000000000000f39fd6e51aad88f6f4ce6ab8827279cfffb92266",
            "0x0000000000000000000000004ed7c70f96b99c776995fb64377f0d4ab3b0e1c1"
          ],
          "data": "0xffffffffffffffffffffffffffffffffffffffffffffffffffffffffffffffff",
          "blockHash": "0xff1c00ee8b40c1fabfc803445ad5af5bb99313b2ca655d3af85b5e224c7f0f6c",
          "blockNumber": "0x8fd389",
          "blockTimestamp": "0x6632bbee",
          "transactionHash": "0x959cf4eb7d84057bf68e7489736d5be9cd58097ae4a79430e4b4069bda0f46a8",
          "transactionIndex": "0x5",
          "logIndex": "0x3",
          "removed": false
        }
      ],
      "logsBloom": "0x00000000000000000000000000000000000000000000000000000000000000000000000000000000000000000000000000000000000000000200000000200000008000000000000000000000000000000000000000000000000000000000000000000000000000000000000100000000000000000000000000000000000000000000000000000000000000000000000000000000080000000000000000000000020000000000000000000000000000000000000000000000000000000000000000000000000000200000000000000000000000002000000000000000400000000010000000000000000000000000000000000002002000000000000000000000",
      "type": "0x2",
      "transactionHash": "0x959cf4eb7d84057bf68e7489736d5be9cd58097ae4a79430e4b4069bda0f46a8",
      "transactionIndex": "0x5",
      "blockHash": "0xff1c00ee8b40c1fabfc803445ad5af5bb99313b2ca655d3af85b5e224c7f0f6c",
      "blockNumber": "0x8fd389",
      "gasUsed": "0xb5ff",
      "effectiveGasPrice": "0xc30718bf3",
      "from": "0xf39fd6e51aad88f6f4ce6ab8827279cfffb92266",
      "to": "0x4e71a2e537b7f9d9413d3991d37958c0b5e1e503",
      "contractAddress": null,
      "root": "0x0000000000000000000000000000000000000000000000000000000000000000"
    },
    {
      "status": "0x1",
      "cumulativeGasUsed": "0x24b9e1",
      "logs": [
        {
          "address": "0x826551890dc65655a0aceca109ab11abdbd7a07b",
          "topics": [
            "0x8c5be1e5ebec7d5bd14f71427d1e84f3dd0314c0f7b2291e5b200ac8c7c3b925",
            "0x000000000000000000000000f39fd6e51aad88f6f4ce6ab8827279cfffb92266",
            "0x0000000000000000000000004ed7c70f96b99c776995fb64377f0d4ab3b0e1c1"
          ],
          "data": "0xffffffffffffffffffffffffffffffffffffffffffffffffffffffffffffffff",
          "blockHash": "0xff1c00ee8b40c1fabfc803445ad5af5bb99313b2ca655d3af85b5e224c7f0f6c",
          "blockNumber": "0x8fd389",
          "blockTimestamp": "0x6632bbee",
          "transactionHash": "0x4dfa6fd3ab5c768b30e6a7b656429509dae96166945b1e088499ee5ed6df4719",
          "transactionIndex": "0x6",
          "logIndex": "0x4",
          "removed": false
        },
        {
          "address": "0x826551890dc65655a0aceca109ab11abdbd7a07b",
          "topics": [
            "0x8c5be1e5ebec7d5bd14f71427d1e84f3dd0314c0f7b2291e5b200ac8c7c3b925",
            "0x000000000000000000000000f39fd6e51aad88f6f4ce6ab8827279cfffb92266",
            "0x0000000000000000000000004ed7c70f96b99c776995fb64377f0d4ab3b0e1c1"
          ],
          "data": "0xffffffffffffffffffffffffffffffffffffffffffffffffffffffffffffffff",
          "blockHash": "0xff1c00ee8b40c1fabfc803445ad5af5bb99313b2ca655d3af85b5e224c7f0f6c",
          "blockNumber": "0x8fd389",
          "blockTimestamp": "0x6632bbee",
          "transactionHash": "0x4dfa6fd3ab5c768b30e6a7b656429509dae96166945b1e088499ee5ed6df4719",
          "transactionIndex": "0x6",
          "logIndex": "0x5",
          "removed": false
        }
      ],
      "logsBloom": "0x00000000000000000000000000000000000000000000000000000000000000000000000000000000000000000000000000000000000000800000000000200080000000000000000000000000000000000000000000000000000000000000000000000000000000000000000100000000000000000000000000000000000000000000000000000000000000000000000000000000080000000000000000000000020000000000000000000000000000000000000000000000008000000000000000000000000000200000000000000000000000002000000000000000400000000010000000000000000000000000000000000000002000000000000000000000",
      "type": "0x2",
      "transactionHash": "0x4dfa6fd3ab5c768b30e6a7b656429509dae96166945b1e088499ee5ed6df4719",
      "transactionIndex": "0x6",
      "blockHash": "0xff1c00ee8b40c1fabfc803445ad5af5bb99313b2ca655d3af85b5e224c7f0f6c",
      "blockNumber": "0x8fd389",
      "gasUsed": "0xbd09",
      "effectiveGasPrice": "0xc30718bf3",
      "from": "0xf39fd6e51aad88f6f4ce6ab8827279cfffb92266",
      "to": "0x826551890dc65655a0aceca109ab11abdbd7a07b",
      "contractAddress": null,
      "root": "0x0000000000000000000000000000000000000000000000000000000000000000"
    },
    {
      "status": "0x1",
      "cumulativeGasUsed": "0xb65b",
      "logs": [
        {
          "address": "0xc6e7df5e7b4f2a278906862b61205850344d4e7d",
          "topics": [
            "0x8c5be1e5ebec7d5bd14f71427d1e84f3dd0314c0f7b2291e5b200ac8c7c3b925",
            "0x000000000000000000000000f39fd6e51aad88f6f4ce6ab8827279cfffb92266",
            "0x0000000000000000000000004ed7c70f96b99c776995fb64377f0d4ab3b0e1c1"
          ],
          "data": "0xffffffffffffffffffffffffffffffffffffffffffffffffffffffffffffffff",
          "blockHash": "0xce5087b9ee08c3040e8024c246d5bdd57008636b96ca0228df24801c1ae965de",
          "blockNumber": "0x8fd38a",
          "blockTimestamp": "0x6632bbef",
          "transactionHash": "0x12c784eb5c7fe333a7f427a0d273a4d33aff084bf20d063c833f8ca635100d4f",
          "transactionIndex": "0x0",
          "logIndex": "0x0",
          "removed": false
        }
      ],
      "logsBloom": "0x00000000000000000000000000000000000000000000000000000000000000000000000000000000000000800000000000000000000000000000000000200000000000000000000000000000000000000000000000000000000000000000000000000000000000000000000100000000000000000000000000000000000000000000000000000000000000000000000000000000080000000000000000000000020000000000000000000000000000000000000000000000000000000000000000000000000000200000000000100000000000002000000000000000400000000010000000000000000000800000000000000000002000000000000000000000",
      "type": "0x2",
      "transactionHash": "0x12c784eb5c7fe333a7f427a0d273a4d33aff084bf20d063c833f8ca635100d4f",
      "transactionIndex": "0x0",
      "blockHash": "0xce5087b9ee08c3040e8024c246d5bdd57008636b96ca0228df24801c1ae965de",
      "blockNumber": "0x8fd38a",
      "gasUsed": "0xb65b",
      "effectiveGasPrice": "0xb3efbad3b",
      "from": "0xf39fd6e51aad88f6f4ce6ab8827279cfffb92266",
      "to": "0xc6e7df5e7b4f2a278906862b61205850344d4e7d",
      "contractAddress": null,
      "root": "0x0000000000000000000000000000000000000000000000000000000000000000"
    },
    {
      "status": "0x1",
      "cumulativeGasUsed": "0x16cb6",
      "logs": [
        {
          "address": "0x59b670e9fa9d0a427751af201d676719a970857b",
          "topics": [
            "0x8c5be1e5ebec7d5bd14f71427d1e84f3dd0314c0f7b2291e5b200ac8c7c3b925",
            "0x000000000000000000000000f39fd6e51aad88f6f4ce6ab8827279cfffb92266",
            "0x0000000000000000000000004ed7c70f96b99c776995fb64377f0d4ab3b0e1c1"
          ],
          "data": "0xffffffffffffffffffffffffffffffffffffffffffffffffffffffffffffffff",
          "blockHash": "0xce5087b9ee08c3040e8024c246d5bdd57008636b96ca0228df24801c1ae965de",
          "blockNumber": "0x8fd38a",
          "blockTimestamp": "0x6632bbef",
          "transactionHash": "0x0d3b7125848c31abbde5ca45bd8cf25e8e91afd301bbcb9984e10ec67a37eaa2",
          "transactionIndex": "0x1",
          "logIndex": "0x1",
          "removed": false
        }
      ],
      "logsBloom": "0x00000000000000000000000000000000000000000000000000000000000000000000000000000000000000000000000000000000000000000000000000200000000000000000000000000000000000000000000008000000000000000000000000000000000000000000000100000000000000000000000000000000000000000000000000000000000000000000000000000000080000000000000000000000020000000000000000000000000000080000000000000000000000000000000000000000000000200000000000020000000000002000000000000000400000000010000000000000000000000000000000000000002000000000000000000000",
      "type": "0x2",
      "transactionHash": "0x0d3b7125848c31abbde5ca45bd8cf25e8e91afd301bbcb9984e10ec67a37eaa2",
      "transactionIndex": "0x1",
      "blockHash": "0xce5087b9ee08c3040e8024c246d5bdd57008636b96ca0228df24801c1ae965de",
      "blockNumber": "0x8fd38a",
      "gasUsed": "0xb65b",
      "effectiveGasPrice": "0xb3efbad3b",
      "from": "0xf39fd6e51aad88f6f4ce6ab8827279cfffb92266",
      "to": "0x59b670e9fa9d0a427751af201d676719a970857b",
      "contractAddress": null,
      "root": "0x0000000000000000000000000000000000000000000000000000000000000000"
    },
    {
      "status": "0x1",
      "cumulativeGasUsed": "0x51f5b",
      "logs": [
        {
          "address": "0xc6e7df5e7b4f2a278906862b61205850344d4e7d",
          "topics": [
            "0xddf252ad1be2c89b69c2b068fc378daa952ba7f163c4a11628f55a4df523b3ef",
            "0x000000000000000000000000f39fd6e51aad88f6f4ce6ab8827279cfffb92266",
            "0x0000000000000000000000004ed7c70f96b99c776995fb64377f0d4ab3b0e1c1"
          ],
          "data": "0x0000000000000000000000000000000000000000000000004563918244f40000",
          "blockHash": "0xce5087b9ee08c3040e8024c246d5bdd57008636b96ca0228df24801c1ae965de",
          "blockNumber": "0x8fd38a",
          "blockTimestamp": "0x6632bbef",
          "transactionHash": "0x9fab5fbe92877775f57f0d2bbdf96f3323905f402c28bd35a013aad22c21e05c",
          "transactionIndex": "0x2",
          "logIndex": "0x2",
          "removed": false
        },
        {
          "address": "0x4ed7c70f96b99c776995fb64377f0d4ab3b0e1c1",
          "topics": [
            "0x0648804ed7ab2cbe63bc5ce27949d9549c9b9576c9b9548b4130c5cc1be193a5"
          ],
          "data": "0x000000000000000000000000000000000000000000000000000000000000004000000000000000000000000000000000000000000cecb8f27f4200f3a0000000000000000000000000000000000000000000000000000000000000000000000d4f726465722050726963653a2000000000000000000000000000000000000000",
          "blockHash": "0xce5087b9ee08c3040e8024c246d5bdd57008636b96ca0228df24801c1ae965de",
          "blockNumber": "0x8fd38a",
          "blockTimestamp": "0x6632bbef",
          "transactionHash": "0x9fab5fbe92877775f57f0d2bbdf96f3323905f402c28bd35a013aad22c21e05c",
          "transactionIndex": "0x2",
          "logIndex": "0x3",
          "removed": false
        },
        {
          "address": "0x4ed7c70f96b99c776995fb64377f0d4ab3b0e1c1",
          "topics": [
            "0x0648804ed7ab2cbe63bc5ce27949d9549c9b9576c9b9548b4130c5cc1be193a5"
          ],
          "data": "0x00000000000000000000000000000000000000000000000000000000000000400000000000000000000000000000000000000000000000000000000000042540000000000000000000000000000000000000000000000000000000000000000a476173204c6566743a2000000000000000000000000000000000000000000000",
          "blockHash": "0xce5087b9ee08c3040e8024c246d5bdd57008636b96ca0228df24801c1ae965de",
          "blockNumber": "0x8fd38a",
          "blockTimestamp": "0x6632bbef",
          "transactionHash": "0x9fab5fbe92877775f57f0d2bbdf96f3323905f402c28bd35a013aad22c21e05c",
          "transactionIndex": "0x2",
          "logIndex": "0x4",
          "removed": false
        },
        {
          "address": "0x4ed7c70f96b99c776995fb64377f0d4ab3b0e1c1",
          "topics": [
            "0x43118103466f8475c26ca895a4fb497bc81164e16090b6c5d8d29bff0b2a068c"
          ],
          "data": "0x00000000000000000000000000000000000000000000000000000000000000013340df27d091e562ec09a44bfb4f0ae3a95353431ff83a7e9968e68580ccf8b000000000000000000000000000000000000000000cecb8f27f4200f3a0000000",
          "blockHash": "0xce5087b9ee08c3040e8024c246d5bdd57008636b96ca0228df24801c1ae965de",
          "blockNumber": "0x8fd38a",
          "blockTimestamp": "0x6632bbef",
          "transactionHash": "0x9fab5fbe92877775f57f0d2bbdf96f3323905f402c28bd35a013aad22c21e05c",
          "transactionIndex": "0x2",
          "logIndex": "0x5",
          "removed": false
        }
      ],
      "logsBloom": "0x01000000000000000000000000000000000000000000000000000020000008000000000040000000000000800000000000000000000000000000000000000000000000010000000000000008000000000000000000000000000000000000000000000000000000000000000100000000008000000000000000000010000000000000000000000000000000000000000000000000080000000000000000000000400000000000000000000000000000200000000000000000000000001000000000000002000000200000000000100000000000002000000000000000400000000000000000000000000000800000000000000000002000000000000000000000",
      "type": "0x2",
      "transactionHash": "0x9fab5fbe92877775f57f0d2bbdf96f3323905f402c28bd35a013aad22c21e05c",
      "transactionIndex": "0x2",
      "blockHash": "0xce5087b9ee08c3040e8024c246d5bdd57008636b96ca0228df24801c1ae965de",
      "blockNumber": "0x8fd38a",
      "gasUsed": "0x3b2a5",
      "effectiveGasPrice": "0xb3efbad3b",
      "from": "0xf39fd6e51aad88f6f4ce6ab8827279cfffb92266",
      "to": "0x4ed7c70f96b99c776995fb64377f0d4ab3b0e1c1",
      "contractAddress": null,
      "root": "0x0000000000000000000000000000000000000000000000000000000000000000"
    },
    {
      "status": "0x1",
      "cumulativeGasUsed": "0x86c51",
      "logs": [
        {
          "address": "0xc6e7df5e7b4f2a278906862b61205850344d4e7d",
          "topics": [
            "0xddf252ad1be2c89b69c2b068fc378daa952ba7f163c4a11628f55a4df523b3ef",
            "0x000000000000000000000000f39fd6e51aad88f6f4ce6ab8827279cfffb92266",
            "0x0000000000000000000000004ed7c70f96b99c776995fb64377f0d4ab3b0e1c1"
          ],
          "data": "0x0000000000000000000000000000000000000000000000004c0cdef739240000",
          "blockHash": "0xce5087b9ee08c3040e8024c246d5bdd57008636b96ca0228df24801c1ae965de",
          "blockNumber": "0x8fd38a",
          "blockTimestamp": "0x6632bbef",
          "transactionHash": "0x59f3822171c68062f6d56932776daf7f76536b18db706baf8fe69a0ac074a82d",
          "transactionIndex": "0x3",
          "logIndex": "0x6",
          "removed": false
        },
        {
          "address": "0x4ed7c70f96b99c776995fb64377f0d4ab3b0e1c1",
          "topics": [
            "0x0648804ed7ab2cbe63bc5ce27949d9549c9b9576c9b9548b4130c5cc1be193a5"
          ],
          "data": "0x000000000000000000000000000000000000000000000000000000000000004000000000000000000000000000000000000000000cf8cc4ef1b52a108b184abe000000000000000000000000000000000000000000000000000000000000000d4f726465722050726963653a2000000000000000000000000000000000000000",
          "blockHash": "0xce5087b9ee08c3040e8024c246d5bdd57008636b96ca0228df24801c1ae965de",
          "blockNumber": "0x8fd38a",
          "blockTimestamp": "0x6632bbef",
          "transactionHash": "0x59f3822171c68062f6d56932776daf7f76536b18db706baf8fe69a0ac074a82d",
          "transactionIndex": "0x3",
          "logIndex": "0x7",
          "removed": false
        },
        {
          "address": "0x4ed7c70f96b99c776995fb64377f0d4ab3b0e1c1",
          "topics": [
            "0x0648804ed7ab2cbe63bc5ce27949d9549c9b9576c9b9548b4130c5cc1be193a5"
          ],
          "data": "0x0000000000000000000000000000000000000000000000000000000000000040000000000000000000000000000000000000000000000000000000000003db98000000000000000000000000000000000000000000000000000000000000000a476173204c6566743a2000000000000000000000000000000000000000000000",
          "blockHash": "0xce5087b9ee08c3040e8024c246d5bdd57008636b96ca0228df24801c1ae965de",
          "blockNumber": "0x8fd38a",
          "blockTimestamp": "0x6632bbef",
          "transactionHash": "0x59f3822171c68062f6d56932776daf7f76536b18db706baf8fe69a0ac074a82d",
          "transactionIndex": "0x3",
          "logIndex": "0x8",
          "removed": false
        },
        {
          "address": "0x4ed7c70f96b99c776995fb64377f0d4ab3b0e1c1",
          "topics": [
            "0x43118103466f8475c26ca895a4fb497bc81164e16090b6c5d8d29bff0b2a068c"
          ],
          "data": "0x00000000000000000000000000000000000000000000000000000000000000023340df27d091e562ec09a44bfb4f0ae3a95353431ff83a7e9968e68580ccf8b000000000000000000000000000000000000000000cf8cc4ef1b52a108b184abe",
          "blockHash": "0xce5087b9ee08c3040e8024c246d5bdd57008636b96ca0228df24801c1ae965de",
          "blockNumber": "0x8fd38a",
          "blockTimestamp": "0x6632bbef",
          "transactionHash": "0x59f3822171c68062f6d56932776daf7f76536b18db706baf8fe69a0ac074a82d",
          "transactionIndex": "0x3",
          "logIndex": "0x9",
          "removed": false
        }
      ],
      "logsBloom": "0x01000000000000000000000000000000000000000000000000000020000008000000000040000000000000800000000000000000000000000000000000000000000000010000000000000008000000000000000000000000000000000000000000000000000000000000000100000000008000000000000000000010000000000000000000000000000000000000000000000000080000000000000000000000400000000000000000000000000000200000000000000000000000001000000000000002000000200000000000100000000000002000000000000000400000000000000000000000000000800000000000000000002000000000000000000000",
      "type": "0x2",
      "transactionHash": "0x59f3822171c68062f6d56932776daf7f76536b18db706baf8fe69a0ac074a82d",
      "transactionIndex": "0x3",
      "blockHash": "0xce5087b9ee08c3040e8024c246d5bdd57008636b96ca0228df24801c1ae965de",
      "blockNumber": "0x8fd38a",
      "gasUsed": "0x34cf6",
      "effectiveGasPrice": "0xb3efbad3b",
      "from": "0xf39fd6e51aad88f6f4ce6ab8827279cfffb92266",
      "to": "0x4ed7c70f96b99c776995fb64377f0d4ab3b0e1c1",
      "contractAddress": null,
      "root": "0x0000000000000000000000000000000000000000000000000000000000000000"
    },
    {
      "status": "0x1",
      "cumulativeGasUsed": "0xbcd60",
      "logs": [
        {
          "address": "0xc6e7df5e7b4f2a278906862b61205850344d4e7d",
          "topics": [
            "0xddf252ad1be2c89b69c2b068fc378daa952ba7f163c4a11628f55a4df523b3ef",
            "0x000000000000000000000000f39fd6e51aad88f6f4ce6ab8827279cfffb92266",
            "0x0000000000000000000000004ed7c70f96b99c776995fb64377f0d4ab3b0e1c1"
          ],
          "data": "0x0000000000000000000000000000000000000000000000004139c1192c560000",
          "blockHash": "0xce5087b9ee08c3040e8024c246d5bdd57008636b96ca0228df24801c1ae965de",
          "blockNumber": "0x8fd38a",
          "blockTimestamp": "0x6632bbef",
          "transactionHash": "0x3993b0f166a9bdec940134a772ce52b83a272b044d1efdbb11bb33e8930b2444",
          "transactionIndex": "0x4",
          "logIndex": "0xa",
          "removed": false
        },
        {
          "address": "0x4ed7c70f96b99c776995fb64377f0d4ab3b0e1c1",
          "topics": [
            "0x0648804ed7ab2cbe63bc5ce27949d9549c9b9576c9b9548b4130c5cc1be193a5"
          ],
          "data": "0x000000000000000000000000000000000000000000000000000000000000004000000000000000000000000000000000000000000e6fe9d2f5a39992db931057000000000000000000000000000000000000000000000000000000000000000d4f726465722050726963653a2000000000000000000000000000000000000000",
          "blockHash": "0xce5087b9ee08c3040e8024c246d5bdd57008636b96ca0228df24801c1ae965de",
          "blockNumber": "0x8fd38a",
          "blockTimestamp": "0x6632bbef",
          "transactionHash": "0x3993b0f166a9bdec940134a772ce52b83a272b044d1efdbb11bb33e8930b2444",
          "transactionIndex": "0x4",
          "logIndex": "0xb",
          "removed": false
        },
        {
          "address": "0x4ed7c70f96b99c776995fb64377f0d4ab3b0e1c1",
          "topics": [
            "0x0648804ed7ab2cbe63bc5ce27949d9549c9b9576c9b9548b4130c5cc1be193a5"
          ],
          "data": "0x0000000000000000000000000000000000000000000000000000000000000040000000000000000000000000000000000000000000000000000000000003f75a000000000000000000000000000000000000000000000000000000000000000a476173204c6566743a2000000000000000000000000000000000000000000000",
          "blockHash": "0xce5087b9ee08c3040e8024c246d5bdd57008636b96ca0228df24801c1ae965de",
          "blockNumber": "0x8fd38a",
          "blockTimestamp": "0x6632bbef",
          "transactionHash": "0x3993b0f166a9bdec940134a772ce52b83a272b044d1efdbb11bb33e8930b2444",
          "transactionIndex": "0x4",
          "logIndex": "0xc",
          "removed": false
        },
        {
          "address": "0x4ed7c70f96b99c776995fb64377f0d4ab3b0e1c1",
          "topics": [
            "0x43118103466f8475c26ca895a4fb497bc81164e16090b6c5d8d29bff0b2a068c"
          ],
          "data": "0x00000000000000000000000000000000000000000000000000000000000000033340df27d091e562ec09a44bfb4f0ae3a95353431ff83a7e9968e68580ccf8b000000000000000000000000000000000000000000e6fe9d2f5a39992db931057",
          "blockHash": "0xce5087b9ee08c3040e8024c246d5bdd57008636b96ca0228df24801c1ae965de",
          "blockNumber": "0x8fd38a",
          "blockTimestamp": "0x6632bbef",
          "transactionHash": "0x3993b0f166a9bdec940134a772ce52b83a272b044d1efdbb11bb33e8930b2444",
          "transactionIndex": "0x4",
          "logIndex": "0xd",
          "removed": false
        }
      ],
      "logsBloom": "0x01000000000000000000000000000000000000000000000000000020000008000000000040000000000000800000000000000000000000000000000000000000000000010000000000000008000000000000000000000000000000000000000000000000000000000000000100000000008000000000000000000010000000000000000000000000000000000000000000000000080000000000000000000000400000000000000000000000000000200000000000000000000000001000000000000002000000200000000000100000000000002000000000000000400000000000000000000000000000800000000000000000002000000000000000000000",
      "type": "0x2",
      "transactionHash": "0x3993b0f166a9bdec940134a772ce52b83a272b044d1efdbb11bb33e8930b2444",
      "transactionIndex": "0x4",
      "blockHash": "0xce5087b9ee08c3040e8024c246d5bdd57008636b96ca0228df24801c1ae965de",
      "blockNumber": "0x8fd38a",
      "gasUsed": "0x3610f",
      "effectiveGasPrice": "0xb3efbad3b",
      "from": "0xf39fd6e51aad88f6f4ce6ab8827279cfffb92266",
      "to": "0x4ed7c70f96b99c776995fb64377f0d4ab3b0e1c1",
      "contractAddress": null,
      "root": "0x0000000000000000000000000000000000000000000000000000000000000000"
    },
    {
      "status": "0x1",
      "cumulativeGasUsed": "0xf4288",
      "logs": [
        {
          "address": "0xc6e7df5e7b4f2a278906862b61205850344d4e7d",
          "topics": [
            "0xddf252ad1be2c89b69c2b068fc378daa952ba7f163c4a11628f55a4df523b3ef",
            "0x000000000000000000000000f39fd6e51aad88f6f4ce6ab8827279cfffb92266",
            "0x0000000000000000000000004ed7c70f96b99c776995fb64377f0d4ab3b0e1c1"
          ],
          "data": "0x00000000000000000000000000000000000000000000000053444835ec580000",
          "blockHash": "0xce5087b9ee08c3040e8024c246d5bdd57008636b96ca0228df24801c1ae965de",
          "blockNumber": "0x8fd38a",
          "blockTimestamp": "0x6632bbef",
          "transactionHash": "0x32ffbde9ced651a3969b6f3b6f8add0173a36d9d4c030243a0c378ea1cd5d250",
          "transactionIndex": "0x5",
          "logIndex": "0xe",
          "removed": false
        },
        {
          "address": "0x4ed7c70f96b99c776995fb64377f0d4ab3b0e1c1",
          "topics": [
            "0x0648804ed7ab2cbe63bc5ce27949d9549c9b9576c9b9548b4130c5cc1be193a5"
          ],
          "data": "0x000000000000000000000000000000000000000000000000000000000000004000000000000000000000000000000000000000000e8a5010cf2a411214000000000000000000000000000000000000000000000000000000000000000000000d4f726465722050726963653a2000000000000000000000000000000000000000",
          "blockHash": "0xce5087b9ee08c3040e8024c246d5bdd57008636b96ca0228df24801c1ae965de",
          "blockNumber": "0x8fd38a",
          "blockTimestamp": "0x6632bbef",
          "transactionHash": "0x32ffbde9ced651a3969b6f3b6f8add0173a36d9d4c030243a0c378ea1cd5d250",
          "transactionIndex": "0x5",
          "logIndex": "0xf",
          "removed": false
        },
        {
          "address": "0x4ed7c70f96b99c776995fb64377f0d4ab3b0e1c1",
          "topics": [
            "0x0648804ed7ab2cbe63bc5ce27949d9549c9b9576c9b9548b4130c5cc1be193a5"
          ],
          "data": "0x0000000000000000000000000000000000000000000000000000000000000040000000000000000000000000000000000000000000000000000000000004131d000000000000000000000000000000000000000000000000000000000000000a476173204c6566743a2000000000000000000000000000000000000000000000",
          "blockHash": "0xce5087b9ee08c3040e8024c246d5bdd57008636b96ca0228df24801c1ae965de",
          "blockNumber": "0x8fd38a",
          "blockTimestamp": "0x6632bbef",
          "transactionHash": "0x32ffbde9ced651a3969b6f3b6f8add0173a36d9d4c030243a0c378ea1cd5d250",
          "transactionIndex": "0x5",
          "logIndex": "0x10",
          "removed": false
        },
        {
          "address": "0x4ed7c70f96b99c776995fb64377f0d4ab3b0e1c1",
          "topics": [
            "0x43118103466f8475c26ca895a4fb497bc81164e16090b6c5d8d29bff0b2a068c"
          ],
          "data": "0x00000000000000000000000000000000000000000000000000000000000000043340df27d091e562ec09a44bfb4f0ae3a95353431ff83a7e9968e68580ccf8b000000000000000000000000000000000000000000e8a5010cf2a411214000000",
          "blockHash": "0xce5087b9ee08c3040e8024c246d5bdd57008636b96ca0228df24801c1ae965de",
          "blockNumber": "0x8fd38a",
          "blockTimestamp": "0x6632bbef",
          "transactionHash": "0x32ffbde9ced651a3969b6f3b6f8add0173a36d9d4c030243a0c378ea1cd5d250",
          "transactionIndex": "0x5",
          "logIndex": "0x11",
          "removed": false
        }
      ],
      "logsBloom": "0x01000000000000000000000000000000000000000000000000000020000008000000000040000000000000800000000000000000000000000000000000000000000000010000000000000008000000000000000000000000000000000000000000000000000000000000000100000000008000000000000000000010000000000000000000000000000000000000000000000000080000000000000000000000400000000000000000000000000000200000000000000000000000001000000000000002000000200000000000100000000000002000000000000000400000000000000000000000000000800000000000000000002000000000000000000000",
      "type": "0x2",
      "transactionHash": "0x32ffbde9ced651a3969b6f3b6f8add0173a36d9d4c030243a0c378ea1cd5d250",
      "transactionIndex": "0x5",
      "blockHash": "0xce5087b9ee08c3040e8024c246d5bdd57008636b96ca0228df24801c1ae965de",
      "blockNumber": "0x8fd38a",
      "gasUsed": "0x37528",
      "effectiveGasPrice": "0xb3efbad3b",
      "from": "0xf39fd6e51aad88f6f4ce6ab8827279cfffb92266",
      "to": "0x4ed7c70f96b99c776995fb64377f0d4ab3b0e1c1",
      "contractAddress": null,
      "root": "0x0000000000000000000000000000000000000000000000000000000000000000"
    },
    {
      "status": "0x1",
      "cumulativeGasUsed": "0x37ee5",
      "logs": [
        {
          "address": "0xc6e7df5e7b4f2a278906862b61205850344d4e7d",
          "topics": [
            "0xddf252ad1be2c89b69c2b068fc378daa952ba7f163c4a11628f55a4df523b3ef",
            "0x000000000000000000000000f39fd6e51aad88f6f4ce6ab8827279cfffb92266",
            "0x0000000000000000000000004ed7c70f96b99c776995fb64377f0d4ab3b0e1c1"
          ],
          "data": "0x0000000000000000000000000000000000000000000000005a34a38fc00a0000",
          "blockHash": "0x6b6a34326560cfb5031448a7498561641c26e5d31c71172fc07d50b3bb83a14c",
          "blockNumber": "0x8fd38b",
          "blockTimestamp": "0x6632bbf0",
          "transactionHash": "0xc193671ff1b139864fffc20180af1deadec20842b84cb5905e90fb843875aa9c",
          "transactionIndex": "0x0",
          "logIndex": "0x0",
          "removed": false
        },
        {
          "address": "0x4ed7c70f96b99c776995fb64377f0d4ab3b0e1c1",
          "topics": [
            "0x0648804ed7ab2cbe63bc5ce27949d9549c9b9576c9b9548b4130c5cc1be193a5"
          ],
          "data": "0x000000000000000000000000000000000000000000000000000000000000004000000000000000000000000000000000000000000e6a7f84a1a23c236d89d89d000000000000000000000000000000000000000000000000000000000000000d4f726465722050726963653a2000000000000000000000000000000000000000",
          "blockHash": "0x6b6a34326560cfb5031448a7498561641c26e5d31c71172fc07d50b3bb83a14c",
          "blockNumber": "0x8fd38b",
          "blockTimestamp": "0x6632bbf0",
          "transactionHash": "0xc193671ff1b139864fffc20180af1deadec20842b84cb5905e90fb843875aa9c",
          "transactionIndex": "0x0",
          "logIndex": "0x1",
          "removed": false
        },
        {
          "address": "0x4ed7c70f96b99c776995fb64377f0d4ab3b0e1c1",
          "topics": [
            "0x0648804ed7ab2cbe63bc5ce27949d9549c9b9576c9b9548b4130c5cc1be193a5"
          ],
          "data": "0x00000000000000000000000000000000000000000000000000000000000000400000000000000000000000000000000000000000000000000000000000042091000000000000000000000000000000000000000000000000000000000000000a476173204c6566743a2000000000000000000000000000000000000000000000",
          "blockHash": "0x6b6a34326560cfb5031448a7498561641c26e5d31c71172fc07d50b3bb83a14c",
          "blockNumber": "0x8fd38b",
          "blockTimestamp": "0x6632bbf0",
          "transactionHash": "0xc193671ff1b139864fffc20180af1deadec20842b84cb5905e90fb843875aa9c",
          "transactionIndex": "0x0",
          "logIndex": "0x2",
          "removed": false
        },
        {
          "address": "0x4ed7c70f96b99c776995fb64377f0d4ab3b0e1c1",
          "topics": [
            "0x43118103466f8475c26ca895a4fb497bc81164e16090b6c5d8d29bff0b2a068c"
          ],
          "data": "0x00000000000000000000000000000000000000000000000000000000000000053340df27d091e562ec09a44bfb4f0ae3a95353431ff83a7e9968e68580ccf8b000000000000000000000000000000000000000000e6a7f84a1a23c236d89d89d",
          "blockHash": "0x6b6a34326560cfb5031448a7498561641c26e5d31c71172fc07d50b3bb83a14c",
          "blockNumber": "0x8fd38b",
          "blockTimestamp": "0x6632bbf0",
          "transactionHash": "0xc193671ff1b139864fffc20180af1deadec20842b84cb5905e90fb843875aa9c",
          "transactionIndex": "0x0",
          "logIndex": "0x3",
          "removed": false
        }
      ],
      "logsBloom": "0x01000000000000000000000000000000000000000000000000000020000008000000000040000000000000800000000000000000000000000000000000000000000000010000000000000008000000000000000000000000000000000000000000000000000000000000000100000000008000000000000000000010000000000000000000000000000000000000000000000000080000000000000000000000400000000000000000000000000000200000000000000000000000001000000000000002000000200000000000100000000000002000000000000000400000000000000000000000000000800000000000000000002000000000000000000000",
      "type": "0x2",
      "transactionHash": "0xc193671ff1b139864fffc20180af1deadec20842b84cb5905e90fb843875aa9c",
      "transactionIndex": "0x0",
      "blockHash": "0x6b6a34326560cfb5031448a7498561641c26e5d31c71172fc07d50b3bb83a14c",
      "blockNumber": "0x8fd38b",
      "gasUsed": "0x37ee5",
      "effectiveGasPrice": "0xa4eb8013e",
      "from": "0xf39fd6e51aad88f6f4ce6ab8827279cfffb92266",
      "to": "0x4ed7c70f96b99c776995fb64377f0d4ab3b0e1c1",
      "contractAddress": null,
      "root": "0x0000000000000000000000000000000000000000000000000000000000000000"
    }
  ],
  "libraries": [],
  "pending": [],
  "returns": {},
  "timestamp": 1714607625,
  "chain": 7700,
  "commit": "1e415e5"
}