{
  "transactions": [
    {
      "hash": "0x2d2fff2dbdcd9432e87504df45f314c7b304ea2701b8096d87f03340e576d01c",
      "transactionType": "CREATE",
      "contractName": "PublicMarket",
      "contractAddress": "0xc6e7df5e7b4f2a278906862b61205850344d4e7d",
      "function": null,
      "arguments": null,
      "transaction": {
        "from": "0xf39fd6e51aad88f6f4ce6ab8827279cfffb92266",
        "gas": "0x1f8208",
        "value": "0x0",
        "input": "0x6080604052600160005534801561001557600080fd5b50611b60806100256000396000f3fe608060405234801561001057600080fd5b506004361061009e5760003560e01c8063714af34b11610066578063714af34b1461012457806376f26ef8146101375780638a72ea6a14610158578063adb519801461020e578063c77e9a021461023957600080fd5b8063082c3bc4146100a35780630ff4c916146100c9578063119ff51d146100e957806351cff8d9146100fc578063658e482114610111575b600080fd5b6100b66100b13660046117d2565b61024c565b6040519081526020015b60405180910390f35b6100b66100d7366004611816565b60009081526002602052604090205490565b6100b66100f73660046117d2565b61026c565b61010f61010a36600461182f565b61041d565b005b61010f61011f36600461184a565b61042a565b6100b66101323660046118bf565b61047c565b61014a6101453660046118f2565b6104b8565b6040516100c0929190611969565b6101c2610166366004611816565b6002602081905260009182526040909120805460018201549282015460039092015490926001600160601b038116926001600160a01b03600160601b9092048216929082169181169065ffffffffffff600160a01b9091041686565b604080519687526001600160601b0390951660208701526001600160a01b0393841694860194909452908216606085015216608083015265ffffffffffff1660a082015260c0016100c0565b6100b661021c3660046118bf565b600160209081526000928352604080842090915290825290205481565b6100b6610247366004611997565b610627565b60006102618585858565ffffffffffff610648565b90505b949350505050565b60008360000361028f57604051631771cc0160e11b815260040160405180910390fd5b816000036102b057604051631771cc0160e11b815260040160405180910390fd5b6001600160a01b0385166102d757604051631771cc0160e11b815260040160405180910390fd5b6001600160a01b0383166102fe57604051631771cc0160e11b815260040160405180910390fd5b826001600160a01b0316856001600160a01b03160361033057604051631771cc0160e11b815260040160405180910390fd5b600061033e86863330610853565b9050600061034c84836109b9565b9050612710811015610371576040516363c8f3fb60e01b815260040160405180910390fd5b60006040518060c0016040528083815260200161038d856109d9565b6001600160601b031681526001600160a01b03808b16602083015288166040820152336060820152600060809091018190529091506103cb826109f2565b90508581036103ed57604051635876bf8160e01b815260040160405180910390fd5b6103f78733610aef565b8015610411576104116001600160a01b038a163383610b54565b98975050505050505050565b6104278133610aef565b50565b8060005b818110156104765761046684848381811061044b5761044b6119e5565b9050602002016020810190610460919061182f565b33610aef565b61046f81611a11565b905061042e565b50505050565b604080516001600160a01b0384811660208084019190915290841682840152825180830384018152606090920190925280519101205b92915050565b60608060006104c7868661047c565b6000818152600360205260409020805491925090808610156104e65750845b60008167ffffffffffffffff81111561050157610501611a2a565b60405190808252806020026020018201604052801561052a578160200160208202803683370190505b50905060008267ffffffffffffffff81111561054857610548611a2a565b604051908082528060200260200182016040528015610571578160200160208202803683370190505b5090506000805b848110156106145761058c86836001610ba6565b60008181526002602052604090206001015486519194506001600160601b031691508590839081106105c0576105c06119e5565b6020026020010181815250506105e760026000848152602001908152602001600020610be9565b8382815181106105f9576105f96119e5565b602090810291909101015261060d81611a11565b9050610578565b509196509450505050505b935093915050565b600061063e8686868661063987610c13565b610648565b9695505050505050565b60008460000361066b57604051631771cc0160e11b815260040160405180910390fd5b8260000361068c57604051631771cc0160e11b815260040160405180910390fd5b6001600160a01b0386166106b357604051631771cc0160e11b815260040160405180910390fd5b6001600160a01b0384166106da57604051631771cc0160e11b815260040160405180910390fd5b836001600160a01b0316866001600160a01b03160361070c57604051631771cc0160e11b815260040160405180910390fd5b600061071a87873330610853565b9050600061072885836109b9565b90507f0648804ed7ab2cbe63bc5ce27949d9549c9b9576c9b9548b4130c5cc1be193a58160405161078391906040808252600d908201526c027b93232b910283934b1b29d1609d1b6060820152602081019190915260800190565b60405180910390a16127108110156107ae576040516363c8f3fb60e01b815260040160405180910390fd5b60006040518060c001604052808381526020016107ca856109d9565b6001600160601b031681526001600160a01b03808c1660208301528916604082015233606082015265ffffffffffff87166080909101529050600061080e826109f2565b90506000811561083b57610821826109d9565b6001600160601b0316602084015261083883610c36565b90505b6108458933610aef565b9a9950505050505050505050565b6040516370a0823160e01b81526001600160a01b03828116600483015260009182918716906370a0823190602401602060405180830381865afa15801561089e573d6000803e3d6000fd5b505050506040513d601f19601f820116820180604052508101906108c29190611a40565b6040516323b872dd60e01b81526001600160a01b038681166004830152858116602483015260448201889052919250908716906323b872dd906064016020604051808303816000875af115801561091d573d6000803e3d6000fd5b505050506040513d601f19601f820116820180604052508101906109419190611a59565b506040516370a0823160e01b81526001600160a01b0384811660048301528291908816906370a0823190602401602060405180830381865afa15801561098b573d6000803e3d6000fd5b505050506040513d601f19601f820116820180604052508101906109af9190611a40565b61063e9190611a7b565b60006109d2836b033b2e3c9fd0803ce800000084610ded565b9392505050565b6000600160601b82106109ee576109ee610eb1565b5090565b600080610a0783604001518460600151610ebf565b60208401519091506001600160601b0316600060015b8015610aa2577f0648804ed7ab2cbe63bc5ce27949d9549c9b9576c9b9548b4130c5cc1be193a55a604051610a7991906040808252600a9082015269023b0b9902632b33a1d160b51b6060820152602081019190915260800190565b60405180910390a1610a9684848860000151858a60400151610ecb565b90945092509050610a1d565b8115610ae55733600090815260016020908152604080832060608a01516001600160a01b0316845290915281208054849290610adf908490611a8e565b90915550505b5090949350505050565b6001600160a01b038082166000908152600160209081526040808320938616835292905220548015610b4f576001600160a01b03808316600090815260016020908152604080832093871680845293909152812055610b4f908383610b54565b505050565b604080516001600160a01b038416602482015260448082018490528251808303909101815260649091019091526020810180516001600160e01b031663a9059cbb60e01b179052610b4f908490611147565b600080610bb385856111aa565b610bc25750600090508061061f565b5050600082815260018481016020908152604080842085151585529091529091205461061f565b600181015481546000916104b291906001600160601b03166b033b2e3c9fd0803ce8000000610ded565b600066010000000000008210610c2b57610c2b610eb1565b5064ffffffffff1690565b60808101516000906001600160a01b0316610c805760405162461bcd60e51b81526020600482015260056024820152640aad040ded60db1b60448201526064015b60405180910390fd5b6000805490819080610c9183611a11565b909155505060008181526002602081815260408084208751815591870151908701516001600160a01b03808216600160601b026001600160601b03909316929092176001840155606088015193830180548584166001600160a01b031990911617905560808801516003909301805460a08a015165ffffffffffff16600160a01b026001600160d01b0319909116949093169390931791909117909155610d379161047c565b6000818152600360205260408120865192935091610d58908390309061121f565b9050610d658282866112ee565b610da15760405162461bcd60e51b815260206004820152600d60248201526c11985a5b195908125b9cd95c9d609a1b6044820152606401610c77565b8551604080518681526020810186905280820192909252517f43118103466f8475c26ca895a4fb497bc81164e16090b6c5d8d29bff0b2a068c9181900360600190a15091949350505050565b6000838302816000198587098281108382030391505080600003610e2457838281610e1a57610e1a611aa1565b04925050506109d2565b808411610e445760405163227bc15360e01b815260040160405180910390fd5b6000848688096000868103871696879004966002600389028118808a02820302808a02820302808a02820302808a02820302808a02820302808a02909103029181900381900460010186841190950394909402919094039290920491909117919091029150509392505050565b6335278d126000526004601cfd5b60006109d2828461047c565b6000858152600360205260408120819081908190610eeb90826001610ba6565b91505080600003610f0657600088879350935093505061113c565b6000818152600260205260409020610f1f81838c6112fd565b610f345760018988945094509450505061113c565b87610f3e82611339565b1015610f555760008988945094509450505061113c565b600089610f6183610be9565b111561106857610f71828b611357565b6001830154909150610f9690610f919083906001600160601b0316611a7b565b6109d9565b6001830180546bffffffffffffffffffffffff19166001600160601b0392909216919091179055610fc78189611a8e565b60038301546001600160a01b039081166000908152600160209081526040808320938c1683529290529081208054929a508c92909190611008908490611a8e565b90915550506003820154604080516001600160a01b03928316815291891660208301527f88f2b86ac62356711c096194cb8bcc4996fecfc20017ecedc832fa22522ffd64910160405180910390a16000808995509550955050505061113c565b61107182610be9565b600183015490915061108c906001600160601b031689611a8e565b60038301546001600160a01b039081166000908152600160209081526040808320938c1683529290529081208054929a5083929091906110cd908490611a8e565b90915550506003820154604080516001600160a01b03928316815291891660208301527f88f2b86ac62356711c096194cb8bcc4996fecfc20017ecedc832fa22522ffd64910160405180910390a16111258b84611375565b6001611131828c611a7b565b899550955095505050505b955095509592505050565b600061115c6001600160a01b038416836113cc565b9050805160001415801561118157508080602001905181019061117f9190611a59565b155b15610b4f57604051635274afe760e01b81526001600160a01b0384166004820152602401610c77565b600081815260018301602090815260408083208380529091528120541580156111ed57506000828152600180850160209081526040808420928452919052902054155b156112175750600080805260018084016020908152604080842092845291905290205481146104b2565b5060016104b2565b6000611229845490565b600003611238575060006109d2565b60006112478560006001610ba6565b9150505b80158015906112c757506040516307fa648b60e11b8152600481018290526001906001600160a01b03861690630ff4c91690602401602060405180830381865afa15801561129d573d6000803e3d6000fd5b505050506040513d601f19601f820116820180604052508101906112c19190611a40565b84111514155b1561026457600090815260018086016020908152604080842092845291905290205461124b565b600061026484848460006113da565b600383015460009042600160a01b90910465ffffffffffff16101561132f57611327848484611463565b5060006109d2565b5060019392505050565b80546000906104b2906b033b2e3c9fd0803ce8000000908190610ded565b81546000906109d29083906b033b2e3c9fd0803ce800000090610ded565b600082815260036020526040902061138c90611538565b50600090815260026020819052604082208281556001810192909255810180546001600160a01b031916905560030180546001600160d01b031916905550565b60606109d283836000611545565b60006113e685846111aa565b1580156113f857506113f885856111aa565b1561145857600084815260018601602090815260408083208515158452909152902054611427868686866115d8565b611433868583866115d8565b60018660000160008282546114489190611a8e565b9091555060019250610264915050565b506000949350505050565b6114886040518060400160405280600481526020016312d2531360e21b81525061160d565b60018084015460038501546001600160a01b03908116600090815260209384526040808220600160601b8504909316825291909352822080546001600160601b039092169290916114da908490611a8e565b909155505060008181526003602052604090206114f79083611650565b5050600090815260026020819052604082208281556001810192909255810180546001600160a01b031916905560030180546001600160d01b031916905550565b60006104b28260016116ea565b60608147101561156a5760405163cd78605960e01b8152306004820152602401610c77565b600080856001600160a01b031684866040516115869190611adb565b60006040518083038185875af1925050503d80600081146115c3576040519150601f19603f3d011682016040523d82523d6000602084013e6115c8565b606091505b509150915061063e868383611707565b600082815260019094016020818152604080872093158088529382528087208690559486529081528385209115855252912055565b610427816040516024016116219190611af7565b60408051601f198184030181529190526020810180516001600160e01b031663104c13eb60e21b179052611763565b6000811580611666575061166483836111aa565b155b15611673575060006104b2565b6000828152600184810160209081526040808420848052909152808320548284529220546116a59286929091906115d8565b600082815260018481016020908152604080842084805290915280832083905581835282208290558454909185916116de908490611a7b565b90915550919392505050565b6000806116f984600085610ba6565b915061026490508482611650565b60608261171c576117178261176c565b6109d2565b815115801561173357506001600160a01b0384163b155b1561175c57604051639996b31560e01b81526001600160a01b0385166004820152602401610c77565b50806109d2565b61042781611795565b80511561177c5780518082602001fd5b604051630a12f52160e11b815260040160405180910390fd5b80516a636f6e736f6c652e6c6f67602083016000808483855afa5050505050565b80356001600160a01b03811681146117cd57600080fd5b919050565b600080600080608085870312156117e857600080fd5b6117f1856117b6565b935060208501359250611806604086016117b6565b9396929550929360600135925050565b60006020828403121561182857600080fd5b5035919050565b60006020828403121561184157600080fd5b6109d2826117b6565b6000806020838503121561185d57600080fd5b823567ffffffffffffffff8082111561187557600080fd5b818501915085601f83011261188957600080fd5b81358181111561189857600080fd5b8660208260051b85010111156118ad57600080fd5b60209290920196919550909350505050565b600080604083850312156118d257600080fd5b6118db836117b6565b91506118e9602084016117b6565b90509250929050565b60008060006060848603121561190757600080fd5b611910846117b6565b925061191e602085016117b6565b9150604084013590509250925092565b600081518084526020808501945080840160005b8381101561195e57815187529582019590820190600101611942565b509495945050505050565b60408152600061197c604083018561192e565b828103602084015261198e818561192e565b95945050505050565b600080600080600060a086880312156119af57600080fd5b6119b8866117b6565b9450602086013593506119cd604087016117b6565b94979396509394606081013594506080013592915050565b634e487b7160e01b600052603260045260246000fd5b634e487b7160e01b600052601160045260246000fd5b600060018201611a2357611a236119fb565b5060010190565b634e487b7160e01b600052604160045260246000fd5b600060208284031215611a5257600080fd5b5051919050565b600060208284031215611a6b57600080fd5b815180151581146109d257600080fd5b818103818111156104b2576104b26119fb565b808201808211156104b2576104b26119fb565b634e487b7160e01b600052601260045260246000fd5b60005b83811015611ad2578181015183820152602001611aba565b50506000910152565b60008251611aed818460208701611ab7565b9190910192915050565b6020815260008251806020840152611b16816040850160208701611ab7565b601f01601f1916919091016040019291505056fea26469706673582212209f583cf96562ad917d2c360aac365e120c95775a86aaf842b1bf18521c76d0a864736f6c63430008140033",
        "nonce": "0x14",
        "chainId": "0x1e14"
      },
      "additionalContracts": [],
      "isFixedGasLimit": false
    },
    {
      "hash": "0xfea0a3bc3b16ccb9979e91f55f38bca130116c5f9567c8e5767ec64064cbb2a8",
      "transactionType": "CALL",
      "contractName": "ERC20Mock",
      "contractAddress": "0xc7f2cf4845c6db0e1a1e91ed41bcd0fcc1b0e141",
      "function": "mint(address,uint256)",
      "arguments": [
        "0xf39Fd6e51aad88F6F4ce6aB8827279cffFb92266",
        "1000000000000000000000000"
      ],
      "transaction": {
        "from": "0xf39fd6e51aad88f6f4ce6ab8827279cfffb92266",
        "to": "0xc7f2cf4845c6db0e1a1e91ed41bcd0fcc1b0e141",
        "gas": "0x74c6",
        "value": "0x0",
        "input": "0x40c10f19000000000000000000000000f39fd6e51aad88f6f4ce6ab8827279cfffb9226600000000000000000000000000000000000000000000d3c21bcecceda1000000",
        "nonce": "0x15",
        "chainId": "0x1e14"
      },
      "additionalContracts": [],
      "isFixedGasLimit": false
    },
    {
      "hash": "0xf50bdfa8404b2cc0ae27f346234981ee155363ba409d54651e8f2396b559c2bf",
      "transactionType": "CALL",
      "contractName": "ERC20Mock",
      "contractAddress": "0xdae97900d4b184c5d2012dcdb658c008966466dd",
      "function": "mint(address,uint256)",
      "arguments": [
        "0xf39Fd6e51aad88F6F4ce6aB8827279cffFb92266",
        "1000000000000000000000000"
      ],
      "transaction": {
        "from": "0xf39fd6e51aad88f6f4ce6ab8827279cfffb92266",
        "to": "0xdae97900d4b184c5d2012dcdb658c008966466dd",
        "gas": "0x74c6",
        "value": "0x0",
        "input": "0x40c10f19000000000000000000000000f39fd6e51aad88f6f4ce6ab8827279cfffb9226600000000000000000000000000000000000000000000d3c21bcecceda1000000",
        "nonce": "0x16",
        "chainId": "0x1e14"
      },
      "additionalContracts": [],
      "isFixedGasLimit": false
    },
    {
      "hash": "0x37942e5b8cedff88185548d1ae7ad26cee89f5836c7a703b9fa37d4f041cc437",
      "transactionType": "CALL",
      "contractName": null,
      "contractAddress": "0x826551890dc65655a0aceca109ab11abdbd7a07b",
      "function": null,
      "arguments": null,
      "transaction": {
        "from": "0xf39fd6e51aad88f6f4ce6ab8827279cfffb92266",
        "to": "0x826551890dc65655a0aceca109ab11abdbd7a07b",
        "gas": "0x100ac",
        "value": "0x1b1ae4d6e2ef5000000",
        "input": "0xd0e30db0",
        "nonce": "0x17",
        "chainId": "0x1e14"
      },
      "additionalContracts": [],
      "isFixedGasLimit": false
    },
    {
      "hash": "0x780d00c6b8728b5c19575a071596bb9d255113d65c3eb1631603914ab1bafb39",
      "transactionType": "CALL",
      "contractName": null,
      "contractAddress": "0x4e71a2e537b7f9d9413d3991d37958c0b5e1e503",
      "function": "approve(address,uint256)",
      "arguments": [
        "0xc6e7DF5E7b4f2A278906862b61205850344D4e7d",
        "115792089237316195423570985008687907853269984665640564039457584007913129639935"
      ],
      "transaction": {
        "from": "0xf39fd6e51aad88f6f4ce6ab8827279cfffb92266",
        "to": "0x4e71a2e537b7f9d9413d3991d37958c0b5e1e503",
        "gas": "0xfb60",
        "value": "0x0",
        "input": "0x095ea7b3000000000000000000000000c6e7df5e7b4f2a278906862b61205850344d4e7dffffffffffffffffffffffffffffffffffffffffffffffffffffffffffffffff",
        "nonce": "0x18",
        "chainId": "0x1e14"
      },
      "additionalContracts": [],
      "isFixedGasLimit": false
    },
    {
      "hash": "0xcda20863a2f0be0f0a0c323b939a8261f02400498b79e235d3e31a4d3a791eef",
      "transactionType": "CALL",
      "contractName": null,
      "contractAddress": "0x826551890dc65655a0aceca109ab11abdbd7a07b",
      "function": "approve(address,uint256)",
      "arguments": [
        "0xc6e7DF5E7b4f2A278906862b61205850344D4e7d",
        "115792089237316195423570985008687907853269984665640564039457584007913129639935"
      ],
      "transaction": {
        "from": "0xf39fd6e51aad88f6f4ce6ab8827279cfffb92266",
        "to": "0x826551890dc65655a0aceca109ab11abdbd7a07b",
        "gas": "0x11476",
        "value": "0x0",
        "input": "0x095ea7b3000000000000000000000000c6e7df5e7b4f2a278906862b61205850344d4e7dffffffffffffffffffffffffffffffffffffffffffffffffffffffffffffffff",
        "nonce": "0x19",
        "chainId": "0x1e14"
      },
      "additionalContracts": [],
      "isFixedGasLimit": false
    },
    {
      "hash": "0x5cb22adf31499049b0bbb44dfc770340ba505d18b2cd34f8cf2b7096dd93b434",
      "transactionType": "CALL",
      "contractName": "ERC20Mock",
      "contractAddress": "0xc7f2cf4845c6db0e1a1e91ed41bcd0fcc1b0e141",
      "function": "approve(address,uint256)",
      "arguments": [
        "0xc6e7DF5E7b4f2A278906862b61205850344D4e7d",
        "115792089237316195423570985008687907853269984665640564039457584007913129639935"
      ],
      "transaction": {
        "from": "0xf39fd6e51aad88f6f4ce6ab8827279cfffb92266",
        "to": "0xc7f2cf4845c6db0e1a1e91ed41bcd0fcc1b0e141",
        "gas": "0x7665",
        "value": "0x0",
        "input": "0x095ea7b3000000000000000000000000c6e7df5e7b4f2a278906862b61205850344d4e7dffffffffffffffffffffffffffffffffffffffffffffffffffffffffffffffff",
        "nonce": "0x1a",
        "chainId": "0x1e14"
      },
      "additionalContracts": [],
      "isFixedGasLimit": false
    },
    {
      "hash": "0x4ffafce18f7be14b55ee2fdceaa919f15522cf9f3a4ecd638b93b9fb4715e429",
      "transactionType": "CALL",
      "contractName": "ERC20Mock",
      "contractAddress": "0xdae97900d4b184c5d2012dcdb658c008966466dd",
      "function": "approve(address,uint256)",
      "arguments": [
        "0xc6e7DF5E7b4f2A278906862b61205850344D4e7d",
        "115792089237316195423570985008687907853269984665640564039457584007913129639935"
      ],
      "transaction": {
        "from": "0xf39fd6e51aad88f6f4ce6ab8827279cfffb92266",
        "to": "0xdae97900d4b184c5d2012dcdb658c008966466dd",
        "gas": "0x7665",
        "value": "0x0",
        "input": "0x095ea7b3000000000000000000000000c6e7df5e7b4f2a278906862b61205850344d4e7dffffffffffffffffffffffffffffffffffffffffffffffffffffffffffffffff",
        "nonce": "0x1b",
        "chainId": "0x1e14"
      },
      "additionalContracts": [],
      "isFixedGasLimit": false
    },
    {
      "hash": "0x947658a00253d7e2c103121671ab3c9872bcb5b6378261962573307911b5d2e4",
      "transactionType": "CALL",
      "contractName": "PublicMarket",
      "contractAddress": "0xc6e7df5e7b4f2a278906862b61205850344d4e7d",
      "function": "makeOfferSimple(address,uint256,address,uint256)",
      "arguments": [
        "0x826551890Dc65655a0Aceca109aB11AbDbD7a07B",
        "5000000000000000000",
        "0xdaE97900D4B184c5D2012dcdB658c008966466DD",
        "20000000000000000000"
      ],
      "transaction": {
        "from": "0xf39fd6e51aad88f6f4ce6ab8827279cfffb92266",
        "to": "0xc6e7df5e7b4f2a278906862b61205850344d4e7d",
        "gas": "0x51ba3",
        "value": "0x0",
        "input": "0x082c3bc4000000000000000000000000826551890dc65655a0aceca109ab11abdbd7a07b0000000000000000000000000000000000000000000000004563918244f40000000000000000000000000000dae97900d4b184c5d2012dcdb658c008966466dd000000000000000000000000000000000000000000000001158e460913d00000",
        "nonce": "0x1c",
        "chainId": "0x1e14"
      },
      "additionalContracts": [],
      "isFixedGasLimit": false
    },
    {
      "hash": "0xaeb607936731250ea45b9d063117ff217d13fd71464ce36b539f4ada12356043",
      "transactionType": "CALL",
      "contractName": "PublicMarket",
      "contractAddress": "0xc6e7df5e7b4f2a278906862b61205850344d4e7d",
      "function": "makeOfferSimple(address,uint256,address,uint256)",
      "arguments": [
        "0x826551890Dc65655a0Aceca109aB11AbDbD7a07B",
        "5480000000000000000",
        "0xdaE97900D4B184c5D2012dcdB658c008966466DD",
        "22000000000000000000"
      ],
      "transaction": {
        "from": "0xf39fd6e51aad88f6f4ce6ab8827279cfffb92266",
        "to": "0xc6e7df5e7b4f2a278906862b61205850344d4e7d",
        "gas": "0x48f2f",
        "value": "0x0",
        "input": "0x082c3bc4000000000000000000000000826551890dc65655a0aceca109ab11abdbd7a07b0000000000000000000000000000000000000000000000004c0cdef739240000000000000000000000000000dae97900d4b184c5d2012dcdb658c008966466dd000000000000000000000000000000000000000000000001314fb37062980000",
        "nonce": "0x1d",
        "chainId": "0x1e14"
      },
      "additionalContracts": [],
      "isFixedGasLimit": false
    },
    {
      "hash": "0xc23bf99285d38996159416ef3b2f37f1ba5afae34046a8f175b293adbac96155",
      "transactionType": "CALL",
      "contractName": "PublicMarket",
      "contractAddress": "0xc6e7df5e7b4f2a278906862b61205850344d4e7d",
      "function": "makeOfferSimple(address,uint256,address,uint256)",
      "arguments": [
        "0x826551890Dc65655a0Aceca109aB11AbDbD7a07B",
        "4700000000000000000",
        "0xdaE97900D4B184c5D2012dcdB658c008966466DD",
        "21000000000000000000"
      ],
      "transaction": {
        "from": "0xf39fd6e51aad88f6f4ce6ab8827279cfffb92266",
        "to": "0xc6e7df5e7b4f2a278906862b61205850344d4e7d",
        "gas": "0x4aaf1",
        "value": "0x0",
        "input": "0x082c3bc4000000000000000000000000826551890dc65655a0aceca109ab11abdbd7a07b0000000000000000000000000000000000000000000000004139c1192c560000000000000000000000000000dae97900d4b184c5d2012dcdb658c008966466dd000000000000000000000000000000000000000000000001236efcbcbb340000",
        "nonce": "0x1e",
        "chainId": "0x1e14"
      },
      "additionalContracts": [],
      "isFixedGasLimit": false
    },
    {
      "hash": "0x84ae38ed9c3872182c31b9e9529e78e762061bd01f6d23a130665b0974e8177c",
      "transactionType": "CALL",
      "contractName": "PublicMarket",
      "contractAddress": "0xc6e7df5e7b4f2a278906862b61205850344d4e7d",
      "function": "makeOfferSimple(address,uint256,address,uint256)",
      "arguments": [
        "0x826551890Dc65655a0Aceca109aB11AbDbD7a07B",
        "6000000000000000000",
        "0xdaE97900D4B184c5D2012dcdB658c008966466DD",
        "27000000000000000000"
      ],
      "transaction": {
        "from": "0xf39fd6e51aad88f6f4ce6ab8827279cfffb92266",
        "to": "0xc6e7df5e7b4f2a278906862b61205850344d4e7d",
        "gas": "0x4c6b4",
        "value": "0x0",
        "input": "0x082c3bc4000000000000000000000000826551890dc65655a0aceca109ab11abdbd7a07b00000000000000000000000000000000000000000000000053444835ec580000000000000000000000000000dae97900d4b184c5d2012dcdb658c008966466dd00000000000000000000000000000000000000000000000176b344f2a78c0000",
        "nonce": "0x1f",
        "chainId": "0x1e14"
      },
      "additionalContracts": [],
      "isFixedGasLimit": false
    },
    {
      "hash": "0xb820f48812d224fb5cfa908776d9ba0b3b7460bc7222295352ac991344543100",
      "transactionType": "CALL",
      "contractName": "PublicMarket",
      "contractAddress": "0xc6e7df5e7b4f2a278906862b61205850344d4e7d",
      "function": "makeOfferSimple(address,uint256,address,uint256)",
      "arguments": [
        "0x826551890Dc65655a0Aceca109aB11AbDbD7a07B",
        "6500000000000000000",
        "0xdaE97900D4B184c5D2012dcdB658c008966466DD",
        "29000000000000000000"
      ],
      "transaction": {
        "from": "0xf39fd6e51aad88f6f4ce6ab8827279cfffb92266",
        "to": "0xc6e7df5e7b4f2a278906862b61205850344d4e7d",
        "gas": "0x4d428",
        "value": "0x0",
        "input": "0x082c3bc4000000000000000000000000826551890dc65655a0aceca109ab11abdbd7a07b0000000000000000000000000000000000000000000000005a34a38fc00a0000000000000000000000000000dae97900d4b184c5d2012dcdb658c008966466dd0000000000000000000000000000000000000000000000019274b259f6540000",
        "nonce": "0x20",
        "chainId": "0x1e14"
      },
      "additionalContracts": [],
      "isFixedGasLimit": false
    }
  ],
  "receipts": [
    {
      "status": "0x1",
      "cumulativeGasUsed": "0x183e5e",
      "logs": [],
      "logsBloom": "0x00000000000000000000000000000000000000000000000000000000000000000000000000000000000000000000000000000000000000000000000000000000000000000000000000000000000000000000000000000000000000000000000000000000000000000000000000000000000000000000000000000000000000000000000000000000000000000000000000000000000000000000000000000000000000000000000000000000000000000000000000000000000000000000000000000000000000000000000000000000000000000000000000000000000000000000000000000000000000000000000000000000000000000000000000000000",
      "type": "0x2",
      "transactionHash": "0x2d2fff2dbdcd9432e87504df45f314c7b304ea2701b8096d87f03340e576d01c",
      "transactionIndex": "0x0",
      "blockHash": "0x5cbcabeecf92230cd543c65299a4cfec2330ad5cca727242fd18fd707973e802",
      "blockNumber": "0x8fd388",
      "gasUsed": "0x183e5e",
      "effectiveGasPrice": "0xd6ba79ea4",
      "from": "0xf39fd6e51aad88f6f4ce6ab8827279cfffb92266",
      "to": null,
      "contractAddress": "0xc6e7df5e7b4f2a278906862b61205850344d4e7d",
      "root": "0x0000000000000000000000000000000000000000000000000000000000000000"
    },
    {
      "status": "0x1",
      "cumulativeGasUsed": "0x548c",
      "logs": [],
      "logsBloom": "0x00000000000000000000000000000000000000000000000000000000000000000000000000000000000000000000000000000000000000000000000000000000000000000000000000000000000000000000000000000000000000000000000000000000000000000000000000000000000000000000000000000000000000000000000000000000000000000000000000000000000000000000000000000000000000000000000000000000000000000000000000000000000000000000000000000000000000000000000000000000000000000000000000000000000000000000000000000000000000000000000000000000000000000000000000000000",
      "type": "0x2",
      "transactionHash": "0xfea0a3bc3b16ccb9979e91f55f38bca130116c5f9567c8e5767ec64064cbb2a8",
      "transactionIndex": "0x0",
      "blockHash": "0x0a2520b8cc12359c82ebd838cda1f4fe2c4e56beca2e24601e51be7f33791c71",
      "blockNumber": "0x8fd389",
      "gasUsed": "0x548c",
      "effectiveGasPrice": "0xc4747f625",
      "from": "0xf39fd6e51aad88f6f4ce6ab8827279cfffb92266",
      "to": "0xc7f2cf4845c6db0e1a1e91ed41bcd0fcc1b0e141",
      "contractAddress": null,
      "root": "0x0000000000000000000000000000000000000000000000000000000000000000"
    },
    {
      "status": "0x1",
      "cumulativeGasUsed": "0x548c",
      "logs": [],
      "logsBloom": "0x00000000000000000000000000000000000000000000000000000000000000000000000000000000000000000000000000000000000000000000000000000000000000000000000000000000000000000000000000000000000000000000000000000000000000000000000000000000000000000000000000000000000000000000000000000000000000000000000000000000000000000000000000000000000000000000000000000000000000000000000000000000000000000000000000000000000000000000000000000000000000000000000000000000000000000000000000000000000000000000000000000000000000000000000000000000",
      "type": "0x2",
      "transactionHash": "0xf50bdfa8404b2cc0ae27f346234981ee155363ba409d54651e8f2396b559c2bf",
      "transactionIndex": "0x0",
      "blockHash": "0xad2f38f63ac9b1a13cfe4685fdb7d7c130fcd650ad6db7f5d8d5a805c272a2ae",
      "blockNumber": "0x8fd38a",
      "gasUsed": "0x548c",
      "effectiveGasPrice": "0xb253c4e17",
      "from": "0xf39fd6e51aad88f6f4ce6ab8827279cfffb92266",
      "to": "0xdae97900d4b184c5d2012dcdb658c008966466dd",
      "contractAddress": null,
      "root": "0x0000000000000000000000000000000000000000000000000000000000000000"
    },
    {
      "status": "0x1",
      "cumulativeGasUsed": "0xaf81",
      "logs": [
        {
          "address": "0x826551890dc65655a0aceca109ab11abdbd7a07b",
          "topics": [
            "0xe1fffcc4923d04b559f4d29a8bfc6cda04eb5b0d3c460751c2402c5c5cc9109c",
            "0x000000000000000000000000f39fd6e51aad88f6f4ce6ab8827279cfffb92266"
          ],
          "data": "0x0000000000000000000000000000000000000000000001b1ae4d6e2ef5000000",
          "blockHash": "0xe8ab0210714202f6850d4cd51bb31c41f0909a2fc5fe57e4d0263b42d5c66a18",
          "blockNumber": "0x8fd38b",
          "blockTimestamp": "0x6632bbdd",
          "transactionHash": "0x37942e5b8cedff88185548d1ae7ad26cee89f5836c7a703b9fa37d4f041cc437",
          "transactionIndex": "0x0",
          "logIndex": "0x0",
          "removed": false
        }
      ],
      "logsBloom": "0x00000000000000000000000000000000000000000000000000000000000000000000000000000000000000000000000000000000000000800000000000000080000000000000000000000000000000000000000000000000000000008000000000000000000000000000000100000000000000000000000000000000000000000000000000000000000000000000000000000001000000000000000000000000000000000000000000000000000000000000000000000000008000000000000000000000000000200000000000000000000000002000000000000000000000000000000000000000000000000000000000000000000000400000000000000000",
      "type": "0x2",
      "transactionHash": "0x37942e5b8cedff88185548d1ae7ad26cee89f5836c7a703b9fa37d4f041cc437",
      "transactionIndex": "0x0",
      "blockHash": "0xe8ab0210714202f6850d4cd51bb31c41f0909a2fc5fe57e4d0263b42d5c66a18",
      "blockNumber": "0x8fd38b",
      "gasUsed": "0xaf81",
      "effectiveGasPrice": "0xa2764b68e",
      "from": "0xf39fd6e51aad88f6f4ce6ab8827279cfffb92266",
      "to": "0x826551890dc65655a0aceca109ab11abdbd7a07b",
      "contractAddress": null,
      "root": "0x0000000000000000000000000000000000000000000000000000000000000000"
    },
    {
      "status": "0x1",
      "cumulativeGasUsed": "0x16580",
      "logs": [
        {
          "address": "0x4e71a2e537b7f9d9413d3991d37958c0b5e1e503",
          "topics": [
            "0x8c5be1e5ebec7d5bd14f71427d1e84f3dd0314c0f7b2291e5b200ac8c7c3b925",
            "0x000000000000000000000000f39fd6e51aad88f6f4ce6ab8827279cfffb92266",
            "0x000000000000000000000000c6e7df5e7b4f2a278906862b61205850344d4e7d"
          ],
          "data": "0xffffffffffffffffffffffffffffffffffffffffffffffffffffffffffffffff",
          "blockHash": "0xe8ab0210714202f6850d4cd51bb31c41f0909a2fc5fe57e4d0263b42d5c66a18",
          "blockNumber": "0x8fd38b",
          "blockTimestamp": "0x6632bbdd",
          "transactionHash": "0x780d00c6b8728b5c19575a071596bb9d255113d65c3eb1631603914ab1bafb39",
          "transactionIndex": "0x1",
          "logIndex": "0x1",
          "removed": false
        }
      ],
      "logsBloom": "0x00000000000000000000000000000000000000000000000000000000000000000000000000000000000000000000000000000000000400000200000000200000008000000000000000000000000000000000000000000000000000000010000000000000000000000000000100000000000000000000000000000000000000000000000000000000000000000000000000000000000000000000000000000000020000000000000000000000000000000000000000000000000000000000000000000000000000200000000000000000000000002000400000000000000000000010000000000000000000000000000000000002000000000000000000000000",
      "type": "0x2",
      "transactionHash": "0x780d00c6b8728b5c19575a071596bb9d255113d65c3eb1631603914ab1bafb39",
      "transactionIndex": "0x1",
      "blockHash": "0xe8ab0210714202f6850d4cd51bb31c41f0909a2fc5fe57e4d0263b42d5c66a18",
      "blockNumber": "0x8fd38b",
      "gasUsed": "0xb5ff",
      "effectiveGasPrice": "0xa2764b68e",
      "from": "0xf39fd6e51aad88f6f4ce6ab8827279cfffb92266",
      "to": "0x4e71a2e537b7f9d9413d3991d37958c0b5e1e503",
      "contractAddress": null,
      "root": "0x0000000000000000000000000000000000000000000000000000000000000000"
    },
    {
      "status": "0x1",
      "cumulativeGasUsed": "0x22289",
      "logs": [
        {
          "address": "0x826551890dc65655a0aceca109ab11abdbd7a07b",
          "topics": [
            "0x8c5be1e5ebec7d5bd14f71427d1e84f3dd0314c0f7b2291e5b200ac8c7c3b925",
            "0x000000000000000000000000f39fd6e51aad88f6f4ce6ab8827279cfffb92266",
            "0x000000000000000000000000c6e7df5e7b4f2a278906862b61205850344d4e7d"
          ],
          "data": "0xffffffffffffffffffffffffffffffffffffffffffffffffffffffffffffffff",
          "blockHash": "0xe8ab0210714202f6850d4cd51bb31c41f0909a2fc5fe57e4d0263b42d5c66a18",
          "blockNumber": "0x8fd38b",
          "blockTimestamp": "0x6632bbdd",
          "transactionHash": "0xcda20863a2f0be0f0a0c323b939a8261f02400498b79e235d3e31a4d3a791eef",
          "transactionIndex": "0x2",
          "logIndex": "0x2",
          "removed": false
        },
        {
          "address": "0x826551890dc65655a0aceca109ab11abdbd7a07b",
          "topics": [
            "0x8c5be1e5ebec7d5bd14f71427d1e84f3dd0314c0f7b2291e5b200ac8c7c3b925",
            "0x000000000000000000000000f39fd6e51aad88f6f4ce6ab8827279cfffb92266",
            "0x000000000000000000000000c6e7df5e7b4f2a278906862b61205850344d4e7d"
          ],
          "data": "0xffffffffffffffffffffffffffffffffffffffffffffffffffffffffffffffff",
          "blockHash": "0xe8ab0210714202f6850d4cd51bb31c41f0909a2fc5fe57e4d0263b42d5c66a18",
          "blockNumber": "0x8fd38b",
          "blockTimestamp": "0x6632bbdd",
          "transactionHash": "0xcda20863a2f0be0f0a0c323b939a8261f02400498b79e235d3e31a4d3a791eef",
          "transactionIndex": "0x2",
          "logIndex": "0x3",
          "removed": false
        }
      ],
      "logsBloom": "0x00000000000000000000000000000000000000000000000000000000000000000000000000000000000000000000000000000000000400800000000000200080000000000000000000000000000000000000000000000000000000000010000000000000000000000000000100000000000000000000000000000000000000000000000000000000000000000000000000000000000000000000000000000000020000000000000000000000000000000000000000000000008000000000000000000000000000200000000000000000000000002000400000000000000000000010000000000000000000000000000000000000000000000000000000000000",
      "type": "0x2",
      "transactionHash": "0xcda20863a2f0be0f0a0c323b939a8261f02400498b79e235d3e31a4d3a791eef",
      "transactionIndex": "0x2",
      "blockHash": "0xe8ab0210714202f6850d4cd51bb31c41f0909a2fc5fe57e4d0263b42d5c66a18",
      "blockNumber": "0x8fd38b",
      "gasUsed": "0xbd09",
      "effectiveGasPrice": "0xa2764b68e",
      "from": "0xf39fd6e51aad88f6f4ce6ab8827279cfffb92266",
      "to": "0x826551890dc65655a0aceca109ab11abdbd7a07b",
      "contractAddress": null,
      "root": "0x0000000000000000000000000000000000000000000000000000000000000000"
    },
    {
      "status": "0x1",
      "cumulativeGasUsed": "0x27841",
      "logs": [],
      "logsBloom": "0x00000000000000000000000000000000000000000000000000000000000000000000000000000000000000000000000000000000000000000000000000000000000000000000000000000000000000000000000000000000000000000000000000000000000000000000000000000000000000000000000000000000000000000000000000000000000000000000000000000000000000000000000000000000000000000000000000000000000000000000000000000000000000000000000000000000000000000000000000000000000000000000000000000000000000000000000000000000000000000000000000000000000000000000000000000000",
      "type": "0x2",
      "transactionHash": "0x5cb22adf31499049b0bbb44dfc770340ba505d18b2cd34f8cf2b7096dd93b434",
      "transactionIndex": "0x3",
      "blockHash": "0xe8ab0210714202f6850d4cd51bb31c41f0909a2fc5fe57e4d0263b42d5c66a18",
      "blockNumber": "0x8fd38b",
      "gasUsed": "0x55b8",
      "effectiveGasPrice": "0xa2764b68e",
      "from": "0xf39fd6e51aad88f6f4ce6ab8827279cfffb92266",
      "to": "0xc7f2cf4845c6db0e1a1e91ed41bcd0fcc1b0e141",
      "contractAddress": null,
      "root": "0x0000000000000000000000000000000000000000000000000000000000000000"
    },
    {
      "status": "0x1",
      "cumulativeGasUsed": "0x2cdf9",
      "logs": [],
      "logsBloom": "0x00000000000000000000000000000000000000000000000000000000000000000000000000000000000000000000000000000000000000000000000000000000000000000000000000000000000000000000000000000000000000000000000000000000000000000000000000000000000000000000000000000000000000000000000000000000000000000000000000000000000000000000000000000000000000000000000000000000000000000000000000000000000000000000000000000000000000000000000000000000000000000000000000000000000000000000000000000000000000000000000000000000000000000000000000000000",
      "type": "0x2",
      "transactionHash": "0x4ffafce18f7be14b55ee2fdceaa919f15522cf9f3a4ecd638b93b9fb4715e429",
      "transactionIndex": "0x4",
      "blockHash": "0xe8ab0210714202f6850d4cd51bb31c41f0909a2fc5fe57e4d0263b42d5c66a18",
      "blockNumber": "0x8fd38b",
      "gasUsed": "0x55b8",
      "effectiveGasPrice": "0xa2764b68e",
      "from": "0xf39fd6e51aad88f6f4ce6ab8827279cfffb92266",
      "to": "0xdae97900d4b184c5d2012dcdb658c008966466dd",
      "contractAddress": null,
      "root": "0x0000000000000000000000000000000000000000000000000000000000000000"
    },
    {
      "status": "0x1",
      "cumulativeGasUsed": "0x680ae",
      "logs": [
        {
          "address": "0x826551890dc65655a0aceca109ab11abdbd7a07b",
          "topics": [
            "0xddf252ad1be2c89b69c2b068fc378daa952ba7f163c4a11628f55a4df523b3ef",
            "0x000000000000000000000000f39fd6e51aad88f6f4ce6ab8827279cfffb92266",
            "0x000000000000000000000000c6e7df5e7b4f2a278906862b61205850344d4e7d"
          ],
          "data": "0x0000000000000000000000000000000000000000000000004563918244f40000",
          "blockHash": "0xe8ab0210714202f6850d4cd51bb31c41f0909a2fc5fe57e4d0263b42d5c66a18",
          "blockNumber": "0x8fd38b",
          "blockTimestamp": "0x6632bbdd",
          "transactionHash": "0x947658a00253d7e2c103121671ab3c9872bcb5b6378261962573307911b5d2e4",
          "transactionIndex": "0x5",
          "logIndex": "0x4",
          "removed": false
        },
        {
          "address": "0xc6e7df5e7b4f2a278906862b61205850344d4e7d",
          "topics": [
            "0x0648804ed7ab2cbe63bc5ce27949d9549c9b9576c9b9548b4130c5cc1be193a5"
          ],
          "data": "0x000000000000000000000000000000000000000000000000000000000000004000000000000000000000000000000000000000000cecb8f27f4200f3a0000000000000000000000000000000000000000000000000000000000000000000000d4f726465722050726963653a2000000000000000000000000000000000000000",
          "blockHash": "0xe8ab0210714202f6850d4cd51bb31c41f0909a2fc5fe57e4d0263b42d5c66a18",
          "blockNumber": "0x8fd38b",
          "blockTimestamp": "0x6632bbdd",
          "transactionHash": "0x947658a00253d7e2c103121671ab3c9872bcb5b6378261962573307911b5d2e4",
          "transactionIndex": "0x5",
          "logIndex": "0x5",
          "removed": false
        },
        {
          "address": "0xc6e7df5e7b4f2a278906862b61205850344d4e7d",
          "topics": [
            "0x0648804ed7ab2cbe63bc5ce27949d9549c9b9576c9b9548b4130c5cc1be193a5"
          ],
          "data": "0x00000000000000000000000000000000000000000000000000000000000000400000000000000000000000000000000000000000000000000000000000042546000000000000000000000000000000000000000000000000000000000000000a476173204c6566743a2000000000000000000000000000000000000000000000",
          "blockHash": "0xe8ab0210714202f6850d4cd51bb31c41f0909a2fc5fe57e4d0263b42d5c66a18",
          "blockNumber": "0x8fd38b",
          "blockTimestamp": "0x6632bbdd",
          "transactionHash": "0x947658a00253d7e2c103121671ab3c9872bcb5b6378261962573307911b5d2e4",
          "transactionIndex": "0x5",
          "logIndex": "0x6",
          "removed": false
        },
        {
          "address": "0xc6e7df5e7b4f2a278906862b61205850344d4e7d",
          "topics": [
            "0x43118103466f8475c26ca895a4fb497bc81164e16090b6c5d8d29bff0b2a068c"
          ],
          "data": "0x00000000000000000000000000000000000000000000000000000000000000016db31ea0421bc6b9e2221f4a9aae1d39c75aed4b7a6588517471a10aff1ddb0800000000000000000000000000000000000000000cecb8f27f4200f3a0000000",
          "blockHash": "0xe8ab0210714202f6850d4cd51bb31c41f0909a2fc5fe57e4d0263b42d5c66a18",
          "blockNumber": "0x8fd38b",
          "blockTimestamp": "0x6632bbdd",
          "transactionHash": "0x947658a00253d7e2c103121671ab3c9872bcb5b6378261962573307911b5d2e4",
          "transactionIndex": "0x5",
          "logIndex": "0x7",
          "removed": false
        }
      ],
      "logsBloom": "0x01000000000000000000000000000000000000000000000000000000000008000000000040000000000000800000000000000000000400800000000000000080000000000000000000000008000000000000000000000000000000000010000000000000000000000000000100000000008000000000000000000010000000000000000000000000000000000000000000000000000000000000000000000000400000000000000000000000000000200000000000000000008000000000000000000002000000200000000000100000000000002000400000000000000000000000000000000000000000800000000000000000000000000000000000000000",
      "type": "0x2",
      "transactionHash": "0x947658a00253d7e2c103121671ab3c9872bcb5b6378261962573307911b5d2e4",
      "transactionIndex": "0x5",
      "blockHash": "0xe8ab0210714202f6850d4cd51bb31c41f0909a2fc5fe57e4d0263b42d5c66a18",
      "blockNumber": "0x8fd38b",
      "gasUsed": "0x3b2b5",
      "effectiveGasPrice": "0xa2764b68e",
      "from": "0xf39fd6e51aad88f6f4ce6ab8827279cfffb92266",
      "to": "0xc6e7df5e7b4f2a278906862b61205850344d4e7d",
      "contractAddress": null,
      "root": "0x0000000000000000000000000000000000000000000000000000000000000000"
    },
    {
      "status": "0x1",
      "cumulativeGasUsed": "0x9cdb4",
      "logs": [
        {
          "address": "0x826551890dc65655a0aceca109ab11abdbd7a07b",
          "topics": [
            "0xddf252ad1be2c89b69c2b068fc378daa952ba7f163c4a11628f55a4df523b3ef",
            "0x000000000000000000000000f39fd6e51aad88f6f4ce6ab8827279cfffb92266",
            "0x000000000000000000000000c6e7df5e7b4f2a278906862b61205850344d4e7d"
          ],
          "data": "0x0000000000000000000000000000000000000000000000004c0cdef739240000",
          "blockHash": "0xe8ab0210714202f6850d4cd51bb31c41f0909a2fc5fe57e4d0263b42d5c66a18",
          "blockNumber": "0x8fd38b",
          "blockTimestamp": "0x6632bbdd",
          "transactionHash": "0xaeb607936731250ea45b9d063117ff217d13fd71464ce36b539f4ada12356043",
          "transactionIndex": "0x6",
          "logIndex": "0x8",
          "removed": false
        },
        {
          "address": "0xc6e7df5e7b4f2a278906862b61205850344d4e7d",
          "topics": [
            "0x0648804ed7ab2cbe63bc5ce27949d9549c9b9576c9b9548b4130c5cc1be193a5"
          ],
          "data": "0x000000000000000000000000000000000000000000000000000000000000004000000000000000000000000000000000000000000cf8cc4ef1b52a108b184abe000000000000000000000000000000000000000000000000000000000000000d4f726465722050726963653a2000000000000000000000000000000000000000",
          "blockHash": "0xe8ab0210714202f6850d4cd51bb31c41f0909a2fc5fe57e4d0263b42d5c66a18",
          "blockNumber": "0x8fd38b",
          "blockTimestamp": "0x6632bbdd",
          "transactionHash": "0xaeb607936731250ea45b9d063117ff217d13fd71464ce36b539f4ada12356043",
          "transactionIndex": "0x6",
          "logIndex": "0x9",
          "removed": false
        },
        {
          "address": "0xc6e7df5e7b4f2a278906862b61205850344d4e7d",
          "topics": [
            "0x0648804ed7ab2cbe63bc5ce27949d9549c9b9576c9b9548b4130c5cc1be193a5"
          ],
          "data": "0x0000000000000000000000000000000000000000000000000000000000000040000000000000000000000000000000000000000000000000000000000003db9e000000000000000000000000000000000000000000000000000000000000000a476173204c6566743a2000000000000000000000000000000000000000000000",
          "blockHash": "0xe8ab0210714202f6850d4cd51bb31c41f0909a2fc5fe57e4d0263b42d5c66a18",
          "blockNumber": "0x8fd38b",
          "blockTimestamp": "0x6632bbdd",
          "transactionHash": "0xaeb607936731250ea45b9d063117ff217d13fd71464ce36b539f4ada12356043",
          "transactionIndex": "0x6",
          "logIndex": "0xa",
          "removed": false
        },
        {
          "address": "0xc6e7df5e7b4f2a278906862b61205850344d4e7d",
          "topics": [
            "0x43118103466f8475c26ca895a4fb497bc81164e16090b6c5d8d29bff0b2a068c"
          ],
          "data": "0x00000000000000000000000000000000000000000000000000000000000000026db31ea0421bc6b9e2221f4a9aae1d39c75aed4b7a6588517471a10aff1ddb0800000000000000000000000000000000000000000cf8cc4ef1b52a108b184abe",
          "blockHash": "0xe8ab0210714202f6850d4cd51bb31c41f0909a2fc5fe57e4d0263b42d5c66a18",
          "blockNumber": "0x8fd38b",
          "blockTimestamp": "0x6632bbdd",
          "transactionHash": "0xaeb607936731250ea45b9d063117ff217d13fd71464ce36b539f4ada12356043",
          "transactionIndex": "0x6",
          "logIndex": "0xb",
          "removed": false
        }
      ],
      "logsBloom": "0x01000000000000000000000000000000000000000000000000000000000008000000000040000000000000800000000000000000000400800000000000000080000000000000000000000008000000000000000000000000000000000010000000000000000000000000000100000000008000000000000000000010000000000000000000000000000000000000000000000000000000000000000000000000400000000000000000000000000000200000000000000000008000000000000000000002000000200000000000100000000000002000400000000000000000000000000000000000000000800000000000000000000000000000000000000000",
      "type": "0x2",
      "transactionHash": "0xaeb607936731250ea45b9d063117ff217d13fd71464ce36b539f4ada12356043",
      "transactionIndex": "0x6",
      "blockHash": "0xe8ab0210714202f6850d4cd51bb31c41f0909a2fc5fe57e4d0263b42d5c66a18",
      "blockNumber": "0x8fd38b",
      "gasUsed": "0x34d06",
      "effectiveGasPrice": "0xa2764b68e",
      "from": "0xf39fd6e51aad88f6f4ce6ab8827279cfffb92266",
      "to": "0xc6e7df5e7b4f2a278906862b61205850344d4e7d",
      "contractAddress": null,
      "root": "0x0000000000000000000000000000000000000000000000000000000000000000"
    },
    {
      "status": "0x1",
      "cumulativeGasUsed": "0x3611f",
      "logs": [
        {
          "address": "0x826551890dc65655a0aceca109ab11abdbd7a07b",
          "topics": [
            "0xddf252ad1be2c89b69c2b068fc378daa952ba7f163c4a11628f55a4df523b3ef",
            "0x000000000000000000000000f39fd6e51aad88f6f4ce6ab8827279cfffb92266",
            "0x000000000000000000000000c6e7df5e7b4f2a278906862b61205850344d4e7d"
          ],
          "data": "0x0000000000000000000000000000000000000000000000004139c1192c560000",
          "blockHash": "0x925db548745d759e7c519a21122b4dfce2dbf524f186f01d508cfbc9ea604af3",
          "blockNumber": "0x8fd38c",
          "blockTimestamp": "0x6632bbde",
          "transactionHash": "0xc23bf99285d38996159416ef3b2f37f1ba5afae34046a8f175b293adbac96155",
          "transactionIndex": "0x0",
          "logIndex": "0x0",
          "removed": false
        },
        {
          "address": "0xc6e7df5e7b4f2a278906862b61205850344d4e7d",
          "topics": [
            "0x0648804ed7ab2cbe63bc5ce27949d9549c9b9576c9b9548b4130c5cc1be193a5"
          ],
          "data": "0x000000000000000000000000000000000000000000000000000000000000004000000000000000000000000000000000000000000e6fe9d2f5a39992db931057000000000000000000000000000000000000000000000000000000000000000d4f726465722050726963653a2000000000000000000000000000000000000000",
          "blockHash": "0x925db548745d759e7c519a21122b4dfce2dbf524f186f01d508cfbc9ea604af3",
          "blockNumber": "0x8fd38c",
          "blockTimestamp": "0x6632bbde",
          "transactionHash": "0xc23bf99285d38996159416ef3b2f37f1ba5afae34046a8f175b293adbac96155",
          "transactionIndex": "0x0",
          "logIndex": "0x1",
          "removed": false
        },
        {
          "address": "0xc6e7df5e7b4f2a278906862b61205850344d4e7d",
          "topics": [
            "0x0648804ed7ab2cbe63bc5ce27949d9549c9b9576c9b9548b4130c5cc1be193a5"
          ],
          "data": "0x0000000000000000000000000000000000000000000000000000000000000040000000000000000000000000000000000000000000000000000000000003f760000000000000000000000000000000000000000000000000000000000000000a476173204c6566743a2000000000000000000000000000000000000000000000",
          "blockHash": "0x925db548745d759e7c519a21122b4dfce2dbf524f186f01d508cfbc9ea604af3",
          "blockNumber": "0x8fd38c",
          "blockTimestamp": "0x6632bbde",
          "transactionHash": "0xc23bf99285d38996159416ef3b2f37f1ba5afae34046a8f175b293adbac96155",
          "transactionIndex": "0x0",
          "logIndex": "0x2",
          "removed": false
        },
        {
          "address": "0xc6e7df5e7b4f2a278906862b61205850344d4e7d",
          "topics": [
            "0x43118103466f8475c26ca895a4fb497bc81164e16090b6c5d8d29bff0b2a068c"
          ],
          "data": "0x00000000000000000000000000000000000000000000000000000000000000036db31ea0421bc6b9e2221f4a9aae1d39c75aed4b7a6588517471a10aff1ddb0800000000000000000000000000000000000000000e6fe9d2f5a39992db931057",
          "blockHash": "0x925db548745d759e7c519a21122b4dfce2dbf524f186f01d508cfbc9ea604af3",
          "blockNumber": "0x8fd38c",
          "blockTimestamp": "0x6632bbde",
          "transactionHash": "0xc23bf99285d38996159416ef3b2f37f1ba5afae34046a8f175b293adbac96155",
          "transactionIndex": "0x0",
          "logIndex": "0x3",
          "removed": false
        }
      ],
      "logsBloom": "0x01000000000000000000000000000000000000000000000000000000000008000000000040000000000000800000000000000000000400800000000000000080000000000000000000000008000000000000000000000000000000000010000000000000000000000000000100000000008000000000000000000010000000000000000000000000000000000000000000000000000000000000000000000000400000000000000000000000000000200000000000000000008000000000000000000002000000200000000000100000000000002000400000000000000000000000000000000000000000800000000000000000000000000000000000000000",
      "type": "0x2",
      "transactionHash": "0xc23bf99285d38996159416ef3b2f37f1ba5afae34046a8f175b293adbac96155",
      "transactionIndex": "0x0",
      "blockHash": "0x925db548745d759e7c519a21122b4dfce2dbf524f186f01d508cfbc9ea604af3",
      "blockNumber": "0x8fd38c",
      "gasUsed": "0x3611f",
      "effectiveGasPrice": "0x95271a8f3",
      "from": "0xf39fd6e51aad88f6f4ce6ab8827279cfffb92266",
      "to": "0xc6e7df5e7b4f2a278906862b61205850344d4e7d",
      "contractAddress": null,
      "root": "0x0000000000000000000000000000000000000000000000000000000000000000"
    },
    {
      "status": "0x1",
      "cumulativeGasUsed": "0x6d657",
      "logs": [
        {
          "address": "0x826551890dc65655a0aceca109ab11abdbd7a07b",
          "topics": [
            "0xddf252ad1be2c89b69c2b068fc378daa952ba7f163c4a11628f55a4df523b3ef",
            "0x000000000000000000000000f39fd6e51aad88f6f4ce6ab8827279cfffb92266",
            "0x000000000000000000000000c6e7df5e7b4f2a278906862b61205850344d4e7d"
          ],
          "data": "0x00000000000000000000000000000000000000000000000053444835ec580000",
          "blockHash": "0x925db548745d759e7c519a21122b4dfce2dbf524f186f01d508cfbc9ea604af3",
          "blockNumber": "0x8fd38c",
          "blockTimestamp": "0x6632bbde",
          "transactionHash": "0x84ae38ed9c3872182c31b9e9529e78e762061bd01f6d23a130665b0974e8177c",
          "transactionIndex": "0x1",
          "logIndex": "0x4",
          "removed": false
        },
        {
          "address": "0xc6e7df5e7b4f2a278906862b61205850344d4e7d",
          "topics": [
            "0x0648804ed7ab2cbe63bc5ce27949d9549c9b9576c9b9548b4130c5cc1be193a5"
          ],
          "data": "0x000000000000000000000000000000000000000000000000000000000000004000000000000000000000000000000000000000000e8a5010cf2a411214000000000000000000000000000000000000000000000000000000000000000000000d4f726465722050726963653a2000000000000000000000000000000000000000",
          "blockHash": "0x925db548745d759e7c519a21122b4dfce2dbf524f186f01d508cfbc9ea604af3",
          "blockNumber": "0x8fd38c",
          "blockTimestamp": "0x6632bbde",
          "transactionHash": "0x84ae38ed9c3872182c31b9e9529e78e762061bd01f6d23a130665b0974e8177c",
          "transactionIndex": "0x1",
          "logIndex": "0x5",
          "removed": false
        },
        {
          "address": "0xc6e7df5e7b4f2a278906862b61205850344d4e7d",
          "topics": [
            "0x0648804ed7ab2cbe63bc5ce27949d9549c9b9576c9b9548b4130c5cc1be193a5"
          ],
          "data": "0x00000000000000000000000000000000000000000000000000000000000000400000000000000000000000000000000000000000000000000000000000041323000000000000000000000000000000000000000000000000000000000000000a476173204c6566743a2000000000000000000000000000000000000000000000",
          "blockHash": "0x925db548745d759e7c519a21122b4dfce2dbf524f186f01d508cfbc9ea604af3",
          "blockNumber": "0x8fd38c",
          "blockTimestamp": "0x6632bbde",
          "transactionHash": "0x84ae38ed9c3872182c31b9e9529e78e762061bd01f6d23a130665b0974e8177c",
          "transactionIndex": "0x1",
          "logIndex": "0x6",
          "removed": false
        },
        {
          "address": "0xc6e7df5e7b4f2a278906862b61205850344d4e7d",
          "topics": [
            "0x43118103466f8475c26ca895a4fb497bc81164e16090b6c5d8d29bff0b2a068c"
          ],
          "data": "0x00000000000000000000000000000000000000000000000000000000000000046db31ea0421bc6b9e2221f4a9aae1d39c75aed4b7a6588517471a10aff1ddb0800000000000000000000000000000000000000000e8a5010cf2a411214000000",
          "blockHash": "0x925db548745d759e7c519a21122b4dfce2dbf524f186f01d508cfbc9ea604af3",
          "blockNumber": "0x8fd38c",
          "blockTimestamp": "0x6632bbde",
          "transactionHash": "0x84ae38ed9c3872182c31b9e9529e78e762061bd01f6d23a130665b0974e8177c",
          "transactionIndex": "0x1",
          "logIndex": "0x7",
          "removed": false
        }
      ],
      "logsBloom": "0x01000000000000000000000000000000000000000000000000000000000008000000000040000000000000800000000000000000000400800000000000000080000000000000000000000008000000000000000000000000000000000010000000000000000000000000000100000000008000000000000000000010000000000000000000000000000000000000000000000000000000000000000000000000400000000000000000000000000000200000000000000000008000000000000000000002000000200000000000100000000000002000400000000000000000000000000000000000000000800000000000000000000000000000000000000000",
      "type": "0x2",
      "transactionHash": "0x84ae38ed9c3872182c31b9e9529e78e762061bd01f6d23a130665b0974e8177c",
      "transactionIndex": "0x1",
      "blockHash": "0x925db548745d759e7c519a21122b4dfce2dbf524f186f01d508cfbc9ea604af3",
      "blockNumber": "0x8fd38c",
      "gasUsed": "0x37538",
      "effectiveGasPrice": "0x95271a8f3",
      "from": "0xf39fd6e51aad88f6f4ce6ab8827279cfffb92266",
      "to": "0xc6e7df5e7b4f2a278906862b61205850344d4e7d",
      "contractAddress": null,
      "root": "0x0000000000000000000000000000000000000000000000000000000000000000"
    },
    {
      "status": "0x1",
      "cumulativeGasUsed": "0xa554c",
      "logs": [
        {
          "address": "0x826551890dc65655a0aceca109ab11abdbd7a07b",
          "topics": [
            "0xddf252ad1be2c89b69c2b068fc378daa952ba7f163c4a11628f55a4df523b3ef",
            "0x000000000000000000000000f39fd6e51aad88f6f4ce6ab8827279cfffb92266",
            "0x000000000000000000000000c6e7df5e7b4f2a278906862b61205850344d4e7d"
          ],
          "data": "0x0000000000000000000000000000000000000000000000005a34a38fc00a0000",
          "blockHash": "0x925db548745d759e7c519a21122b4dfce2dbf524f186f01d508cfbc9ea604af3",
          "blockNumber": "0x8fd38c",
          "blockTimestamp": "0x6632bbde",
          "transactionHash": "0xb820f48812d224fb5cfa908776d9ba0b3b7460bc7222295352ac991344543100",
          "transactionIndex": "0x2",
          "logIndex": "0x8",
          "removed": false
        },
        {
          "address": "0xc6e7df5e7b4f2a278906862b61205850344d4e7d",
          "topics": [
            "0x0648804ed7ab2cbe63bc5ce27949d9549c9b9576c9b9548b4130c5cc1be193a5"
          ],
          "data": "0x000000000000000000000000000000000000000000000000000000000000004000000000000000000000000000000000000000000e6a7f84a1a23c236d89d89d000000000000000000000000000000000000000000000000000000000000000d4f726465722050726963653a2000000000000000000000000000000000000000",
          "blockHash": "0x925db548745d759e7c519a21122b4dfce2dbf524f186f01d508cfbc9ea604af3",
          "blockNumber": "0x8fd38c",
          "blockTimestamp": "0x6632bbde",
          "transactionHash": "0xb820f48812d224fb5cfa908776d9ba0b3b7460bc7222295352ac991344543100",
          "transactionIndex": "0x2",
          "logIndex": "0x9",
          "removed": false
        },
        {
          "address": "0xc6e7df5e7b4f2a278906862b61205850344d4e7d",
          "topics": [
            "0x0648804ed7ab2cbe63bc5ce27949d9549c9b9576c9b9548b4130c5cc1be193a5"
          ],
          "data": "0x00000000000000000000000000000000000000000000000000000000000000400000000000000000000000000000000000000000000000000000000000042097000000000000000000000000000000000000000000000000000000000000000a476173204c6566743a2000000000000000000000000000000000000000000000",
          "blockHash": "0x925db548745d759e7c519a21122b4dfce2dbf524f186f01d508cfbc9ea604af3",
          "blockNumber": "0x8fd38c",
          "blockTimestamp": "0x6632bbde",
          "transactionHash": "0xb820f48812d224fb5cfa908776d9ba0b3b7460bc7222295352ac991344543100",
          "transactionIndex": "0x2",
          "logIndex": "0xa",
          "removed": false
        },
        {
          "address": "0xc6e7df5e7b4f2a278906862b61205850344d4e7d",
          "topics": [
            "0x43118103466f8475c26ca895a4fb497bc81164e16090b6c5d8d29bff0b2a068c"
          ],
          "data": "0x00000000000000000000000000000000000000000000000000000000000000056db31ea0421bc6b9e2221f4a9aae1d39c75aed4b7a6588517471a10aff1ddb0800000000000000000000000000000000000000000e6a7f84a1a23c236d89d89d",
          "blockHash": "0x925db548745d759e7c519a21122b4dfce2dbf524f186f01d508cfbc9ea604af3",
          "blockNumber": "0x8fd38c",
          "blockTimestamp": "0x6632bbde",
          "transactionHash": "0xb820f48812d224fb5cfa908776d9ba0b3b7460bc7222295352ac991344543100",
          "transactionIndex": "0x2",
          "logIndex": "0xb",
          "removed": false
        }
      ],
      "logsBloom": "0x01000000000000000000000000000000000000000000000000000000000008000000000040000000000000800000000000000000000400800000000000000080000000000000000000000008000000000000000000000000000000000010000000000000000000000000000100000000008000000000000000000010000000000000000000000000000000000000000000000000000000000000000000000000400000000000000000000000000000200000000000000000008000000000000000000002000000200000000000100000000000002000400000000000000000000000000000000000000000800000000000000000000000000000000000000000",
      "type": "0x2",
      "transactionHash": "0xb820f48812d224fb5cfa908776d9ba0b3b7460bc7222295352ac991344543100",
      "transactionIndex": "0x2",
      "blockHash": "0x925db548745d759e7c519a21122b4dfce2dbf524f186f01d508cfbc9ea604af3",
      "blockNumber": "0x8fd38c",
      "gasUsed": "0x37ef5",
      "effectiveGasPrice": "0x95271a8f3",
      "from": "0xf39fd6e51aad88f6f4ce6ab8827279cfffb92266",
      "to": "0xc6e7df5e7b4f2a278906862b61205850344d4e7d",
      "contractAddress": null,
      "root": "0x0000000000000000000000000000000000000000000000000000000000000000"
    }
  ],
  "libraries": [],
  "pending": [],
  "returns": {},
  "timestamp": 1714607417,
  "chain": 7700,
  "commit": "1e415e5"
}