{
  "transactions": [
    {
      "hash": "0x89647a75efd1234e009b176816c9dc3f33bb21b0376d015cdbc68fc832a1495c",
      "transactionType": "CREATE",
      "contractName": "ERC20Mock",
      "contractAddress": "0xc6e7df5e7b4f2a278906862b61205850344d4e7d",
      "function": null,
      "arguments": null,
      "transaction": {
        "from": "0xf39fd6e51aad88f6f4ce6ab8827279cfffb92266",
        "gas": "0xabceb",
        "value": "0x0",
        "input": "0x608060405234801561001057600080fd5b506040518060400160405280600981526020016845524332304d6f636b60b81b815250604051806040016040528060048152602001634532304d60e01b815250816003908161005f9190610115565b50600461006c8282610115565b5050506101d4565b634e487b7160e01b600052604160045260246000fd5b600181811c9082168061009e57607f821691505b6020821081036100be57634e487b7160e01b600052602260045260246000fd5b50919050565b601f821115610110576000816000526020600020601f850160051c810160208610156100ed5750805b601f850160051c820191505b8181101561010c578281556001016100f9565b5050505b505050565b81516001600160401b0381111561012e5761012e610074565b6101428161013c845461008a565b846100c4565b602080601f831160018114610177576000841561015f5750858301515b600019600386901b1c1916600185901b17855561010c565b600085815260208120601f198616915b828110156101a657888601518255948401946001909101908401610187565b50858210156101c45787850151600019600388901b60f8161c191681555b5050505050600190811b01905550565b6107e3806101e36000396000f3fe608060405234801561001057600080fd5b50600436106100a95760003560e01c806340c10f191161007157806340c10f191461012357806370a082311461013857806395d89b41146101615780639dc29fac14610169578063a9059cbb1461017c578063dd62ed3e1461018f57600080fd5b806306fdde03146100ae578063095ea7b3146100cc57806318160ddd146100ef57806323b872dd14610101578063313ce56714610114575b600080fd5b6100b66101c8565b6040516100c3919061062c565b60405180910390f35b6100df6100da366004610697565b61025a565b60405190151581526020016100c3565b6002545b6040519081526020016100c3565b6100df61010f3660046106c1565b610274565b604051601281526020016100c3565b610136610131366004610697565b610298565b005b6100f36101463660046106fd565b6001600160a01b031660009081526020819052604090205490565b6100b66102a6565b610136610177366004610697565b6102b5565b6100df61018a366004610697565b6102bf565b6100f361019d36600461071f565b6001600160a01b03918216600090815260016020908152604080832093909416825291909152205490565b6060600380546101d790610752565b80601f016020809104026020016040519081016040528092919081815260200182805461020390610752565b80156102505780601f1061022557610100808354040283529160200191610250565b820191906000526020600020905b81548152906001019060200180831161023357829003601f168201915b5050505050905090565b6000336102688185856102cd565b60019150505b92915050565b6000336102828582856102df565b61028d858585610362565b506001949350505050565b6102a282826103c1565b5050565b6060600480546101d790610752565b6102a282826103f7565b600033610268818585610362565b6102da838383600161042d565b505050565b6001600160a01b03838116600090815260016020908152604080832093861683529290522054600019811461035c578181101561034d57604051637dc7a0d960e11b81526001600160a01b038416600482015260248101829052604481018390526064015b60405180910390fd5b61035c8484848403600061042d565b50505050565b6001600160a01b03831661038c57604051634b637e8f60e11b815260006004820152602401610344565b6001600160a01b0382166103b65760405163ec442f0560e01b815260006004820152602401610344565b6102da838383610502565b6001600160a01b0382166103eb5760405163ec442f0560e01b815260006004820152602401610344565b6102a260008383610502565b6001600160a01b03821661042157604051634b637e8f60e11b815260006004820152602401610344565b6102a282600083610502565b6001600160a01b0384166104575760405163e602df0560e01b815260006004820152602401610344565b6001600160a01b03831661048157604051634a1406b160e11b815260006004820152602401610344565b6001600160a01b038085166000908152600160209081526040808320938716835292905220829055801561035c57826001600160a01b0316846001600160a01b03167f8c5be1e5ebec7d5bd14f71427d1e84f3dd0314c0f7b2291e5b200ac8c7c3b925846040516104f491815260200190565b60405180910390a350505050565b6001600160a01b03831661052d578060026000828254610522919061078c565b9091555061059f9050565b6001600160a01b038316600090815260208190526040902054818110156105805760405163391434e360e21b81526001600160a01b03851660048201526024810182905260448101839052606401610344565b6001600160a01b03841660009081526020819052604090209082900390555b6001600160a01b0382166105bb576002805482900390556105da565b6001600160a01b03821660009081526020819052604090208054820190555b816001600160a01b0316836001600160a01b03167fddf252ad1be2c89b69c2b068fc378daa952ba7f163c4a11628f55a4df523b3ef8360405161061f91815260200190565b60405180910390a3505050565b60006020808352835180602085015260005b8181101561065a5785810183015185820160400152820161063e565b506000604082860101526040601f19601f8301168501019250505092915050565b80356001600160a01b038116811461069257600080fd5b919050565b600080604083850312156106aa57600080fd5b6106b38361067b565b946020939093013593505050565b6000806000606084860312156106d657600080fd5b6106df8461067b565b92506106ed6020850161067b565b9150604084013590509250925092565b60006020828403121561070f57600080fd5b6107188261067b565b9392505050565b6000806040838503121561073257600080fd5b61073b8361067b565b91506107496020840161067b565b90509250929050565b600181811c9082168061076657607f821691505b60208210810361078657634e487b7160e01b600052602260045260246000fd5b50919050565b8082018082111561026e57634e487b7160e01b600052601160045260246000fdfea26469706673582212206b8b44da210be7472b831dcd4c003bd1f09c3d9dc7f9b1d50dafa1709f749a1564736f6c63430008180033",
        "nonce": "0x14",
        "chainId": "0x1e14"
      },
      "additionalContracts": [],
      "isFixedGasLimit": false
    },
    {
      "hash": "0x56511ae2e172e25dce76144adfd2f4adf13104801ce1d10fb9cc559649c76876",
      "transactionType": "CREATE",
      "contractName": "ERC20Mock",
      "contractAddress": "0x59b670e9fa9d0a427751af201d676719a970857b",
      "function": null,
      "arguments": null,
      "transaction": {
        "from": "0xf39fd6e51aad88f6f4ce6ab8827279cfffb92266",
        "gas": "0xabceb",
        "value": "0x0",
        "input": "0x608060405234801561001057600080fd5b506040518060400160405280600981526020016845524332304d6f636b60b81b815250604051806040016040528060048152602001634532304d60e01b815250816003908161005f9190610115565b50600461006c8282610115565b5050506101d4565b634e487b7160e01b600052604160045260246000fd5b600181811c9082168061009e57607f821691505b6020821081036100be57634e487b7160e01b600052602260045260246000fd5b50919050565b601f821115610110576000816000526020600020601f850160051c810160208610156100ed5750805b601f850160051c820191505b8181101561010c578281556001016100f9565b5050505b505050565b81516001600160401b0381111561012e5761012e610074565b6101428161013c845461008a565b846100c4565b602080601f831160018114610177576000841561015f5750858301515b600019600386901b1c1916600185901b17855561010c565b600085815260208120601f198616915b828110156101a657888601518255948401946001909101908401610187565b50858210156101c45787850151600019600388901b60f8161c191681555b5050505050600190811b01905550565b6107e3806101e36000396000f3fe608060405234801561001057600080fd5b50600436106100a95760003560e01c806340c10f191161007157806340c10f191461012357806370a082311461013857806395d89b41146101615780639dc29fac14610169578063a9059cbb1461017c578063dd62ed3e1461018f57600080fd5b806306fdde03146100ae578063095ea7b3146100cc57806318160ddd146100ef57806323b872dd14610101578063313ce56714610114575b600080fd5b6100b66101c8565b6040516100c3919061062c565b60405180910390f35b6100df6100da366004610697565b61025a565b60405190151581526020016100c3565b6002545b6040519081526020016100c3565b6100df61010f3660046106c1565b610274565b604051601281526020016100c3565b610136610131366004610697565b610298565b005b6100f36101463660046106fd565b6001600160a01b031660009081526020819052604090205490565b6100b66102a6565b610136610177366004610697565b6102b5565b6100df61018a366004610697565b6102bf565b6100f361019d36600461071f565b6001600160a01b03918216600090815260016020908152604080832093909416825291909152205490565b6060600380546101d790610752565b80601f016020809104026020016040519081016040528092919081815260200182805461020390610752565b80156102505780601f1061022557610100808354040283529160200191610250565b820191906000526020600020905b81548152906001019060200180831161023357829003601f168201915b5050505050905090565b6000336102688185856102cd565b60019150505b92915050565b6000336102828582856102df565b61028d858585610362565b506001949350505050565b6102a282826103c1565b5050565b6060600480546101d790610752565b6102a282826103f7565b600033610268818585610362565b6102da838383600161042d565b505050565b6001600160a01b03838116600090815260016020908152604080832093861683529290522054600019811461035c578181101561034d57604051637dc7a0d960e11b81526001600160a01b038416600482015260248101829052604481018390526064015b60405180910390fd5b61035c8484848403600061042d565b50505050565b6001600160a01b03831661038c57604051634b637e8f60e11b815260006004820152602401610344565b6001600160a01b0382166103b65760405163ec442f0560e01b815260006004820152602401610344565b6102da838383610502565b6001600160a01b0382166103eb5760405163ec442f0560e01b815260006004820152602401610344565b6102a260008383610502565b6001600160a01b03821661042157604051634b637e8f60e11b815260006004820152602401610344565b6102a282600083610502565b6001600160a01b0384166104575760405163e602df0560e01b815260006004820152602401610344565b6001600160a01b03831661048157604051634a1406b160e11b815260006004820152602401610344565b6001600160a01b038085166000908152600160209081526040808320938716835292905220829055801561035c57826001600160a01b0316846001600160a01b03167f8c5be1e5ebec7d5bd14f71427d1e84f3dd0314c0f7b2291e5b200ac8c7c3b925846040516104f491815260200190565b60405180910390a350505050565b6001600160a01b03831661052d578060026000828254610522919061078c565b9091555061059f9050565b6001600160a01b038316600090815260208190526040902054818110156105805760405163391434e360e21b81526001600160a01b03851660048201526024810182905260448101839052606401610344565b6001600160a01b03841660009081526020819052604090209082900390555b6001600160a01b0382166105bb576002805482900390556105da565b6001600160a01b03821660009081526020819052604090208054820190555b816001600160a01b0316836001600160a01b03167fddf252ad1be2c89b69c2b068fc378daa952ba7f163c4a11628f55a4df523b3ef8360405161061f91815260200190565b60405180910390a3505050565b60006020808352835180602085015260005b8181101561065a5785810183015185820160400152820161063e565b506000604082860101526040601f19601f8301168501019250505092915050565b80356001600160a01b038116811461069257600080fd5b919050565b600080604083850312156106aa57600080fd5b6106b38361067b565b946020939093013593505050565b6000806000606084860312156106d657600080fd5b6106df8461067b565b92506106ed6020850161067b565b9150604084013590509250925092565b60006020828403121561070f57600080fd5b6107188261067b565b9392505050565b6000806040838503121561073257600080fd5b61073b8361067b565b91506107496020840161067b565b90509250929050565b600181811c9082168061076657607f821691505b60208210810361078657634e487b7160e01b600052602260045260246000fd5b50919050565b8082018082111561026e57634e487b7160e01b600052601160045260246000fdfea26469706673582212206b8b44da210be7472b831dcd4c003bd1f09c3d9dc7f9b1d50dafa1709f749a1564736f6c63430008180033",
        "nonce": "0x15",
        "chainId": "0x1e14"
      },
      "additionalContracts": [],
      "isFixedGasLimit": false
    },
    {
      "hash": "0xe2b4e016f8e678356c51d7133743e7a918b8e337e7e9fafb9cd4026f8118c2b0",
      "transactionType": "CREATE",
      "contractName": "PublicMarket",
      "contractAddress": "0x4ed7c70f96b99c776995fb64377f0d4ab3b0e1c1",
      "function": null,
      "arguments": null,
      "transaction": {
        "from": "0xf39fd6e51aad88f6f4ce6ab8827279cfffb92266",
        "gas": "0x1db503",
        "value": "0x0",
        "input": "0x6080604052600160005534801561001557600080fd5b506119bc806100256000396000f3fe608060405234801561001057600080fd5b506004361061009e5760003560e01c8063714af34b11610066578063714af34b1461012457806376f26ef8146101375780638a72ea6a14610158578063adb519801461020e578063c77e9a021461023957600080fd5b8063082c3bc4146100a35780630ff4c916146100c9578063119ff51d146100e957806351cff8d9146100fc578063658e482114610111575b600080fd5b6100b66100b1366004611671565b61024c565b6040519081526020015b60405180910390f35b6100b66100d73660046116b5565b60009081526002602052604090205490565b6100b66100f7366004611671565b61026c565b61010f61010a3660046116ce565b61041d565b005b61010f61011f3660046116e9565b61042a565b6100b661013236600461175e565b610474565b61014a610145366004611791565b6104b0565b6040516100c0929190611809565b6101c26101663660046116b5565b6002602081905260009182526040909120805460018201549282015460039092015490926001600160601b038116926001600160a01b03600160601b9092048216929082169181169065ffffffffffff600160a01b9091041686565b604080519687526001600160601b0390951660208701526001600160a01b0393841694860194909452908216606085015216608083015265ffffffffffff1660a082015260c0016100c0565b6100b661021c36600461175e565b600160209081526000928352604080842090915290825290205481565b6100b6610247366004611837565b610617565b60006102618585858565ffffffffffff610638565b90505b949350505050565b60008360000361028f57604051631771cc0160e11b815260040160405180910390fd5b816000036102b057604051631771cc0160e11b815260040160405180910390fd5b6001600160a01b0385166102d757604051631771cc0160e11b815260040160405180910390fd5b6001600160a01b0383166102fe57604051631771cc0160e11b815260040160405180910390fd5b826001600160a01b0316856001600160a01b03160361033057604051631771cc0160e11b815260040160405180910390fd5b600061033e868633306107e2565b9050600061034c8483610948565b9050612710811015610371576040516363c8f3fb60e01b815260040160405180910390fd5b60006040518060c0016040528083815260200161038d85610968565b6001600160601b031681526001600160a01b03808b16602083015288166040820152336060820152600060809091018190529091506103cb82610981565b90508581036103ed57604051635876bf8160e01b815260040160405180910390fd5b6103f78733610a20565b8015610411576104116001600160a01b038a163383610a85565b98975050505050505050565b6104278133610a20565b50565b8060005b8181101561046e5761046684848381811061044b5761044b611885565b905060200201602081019061046091906116ce565b33610a20565b60010161042e565b50505050565b604080516001600160a01b0384811660208084019190915290841682840152825180830384018152606090920190925280519101205b92915050565b60608060006104bf8686610474565b6000818152600360205260409020805491925090808610156104de5750845b60008167ffffffffffffffff8111156104f9576104f961189b565b604051908082528060200260200182016040528015610522578160200160208202803683370190505b50905060008267ffffffffffffffff8111156105405761054061189b565b604051908082528060200260200182016040528015610569578160200160208202803683370190505b5090506000805b848110156106045761058486836001610ad7565b60008181526002602052604090206001015486519194506001600160601b031691508590839081106105b8576105b8611885565b6020026020010181815250506105df60026000848152602001908152602001600020610b1a565b8382815181106105f1576105f1611885565b6020908102919091010152600101610570565b509196509450505050505b935093915050565b600061062e8686868661062987610b44565b610638565b9695505050505050565b60008460000361065b57604051631771cc0160e11b815260040160405180910390fd5b8260000361067c57604051631771cc0160e11b815260040160405180910390fd5b6001600160a01b0386166106a357604051631771cc0160e11b815260040160405180910390fd5b6001600160a01b0384166106ca57604051631771cc0160e11b815260040160405180910390fd5b836001600160a01b0316866001600160a01b0316036106fc57604051631771cc0160e11b815260040160405180910390fd5b600061070a878733306107e2565b905060006107188583610948565b905061271081101561073d576040516363c8f3fb60e01b815260040160405180910390fd5b60006040518060c0016040528083815260200161075985610968565b6001600160601b031681526001600160a01b03808c1660208301528916604082015233606082015265ffffffffffff87166080909101529050600061079d82610981565b9050600081156107ca576107b082610968565b6001600160601b031660208401526107c783610b67565b90505b6107d48933610a20565b9a9950505050505050505050565b6040516370a0823160e01b81526001600160a01b03828116600483015260009182918716906370a0823190602401602060405180830381865afa15801561082d573d6000803e3d6000fd5b505050506040513d601f19601f8201168201806040525081019061085191906118b1565b6040516323b872dd60e01b81526001600160a01b038681166004830152858116602483015260448201889052919250908716906323b872dd906064016020604051808303816000875af11580156108ac573d6000803e3d6000fd5b505050506040513d601f19601f820116820180604052508101906108d091906118ca565b506040516370a0823160e01b81526001600160a01b0384811660048301528291908816906370a0823190602401602060405180830381865afa15801561091a573d6000803e3d6000fd5b505050506040513d601f19601f8201168201806040525081019061093e91906118b1565b61062e9190611902565b6000610961836b033b2e3c9fd0803ce800000084610d1e565b9392505050565b6000600160601b821061097d5761097d610de2565b5090565b60008061099683604001518460600151610df0565b60208401519091506001600160601b0316600060015b80156109d3576109c784848860000151858a60400151610dfc565b909450925090506109ac565b8115610a165733600090815260016020908152604080832060608a01516001600160a01b0316845290915281208054849290610a10908490611915565b90915550505b5090949350505050565b6001600160a01b038082166000908152600160209081526040808320938616835292905220548015610a80576001600160a01b03808316600090815260016020908152604080832093871680845293909152812055610a80908383610a85565b505050565b604080516001600160a01b038416602482015260448082018490528251808303909101815260649091019091526020810180516001600160e01b031663a9059cbb60e01b179052610a80908490611078565b600080610ae485856110db565b610af35750600090508061060f565b5050600082815260018481016020908152604080842085151585529091529091205461060f565b600181015481546000916104aa91906001600160601b03166b033b2e3c9fd0803ce8000000610d1e565b600066010000000000008210610b5c57610b5c610de2565b5064ffffffffff1690565b60808101516000906001600160a01b0316610bb15760405162461bcd60e51b81526020600482015260056024820152640aad040ded60db1b60448201526064015b60405180910390fd5b6000805490819080610bc283611928565b909155505060008181526002602081815260408084208751815591870151908701516001600160a01b03808216600160601b026001600160601b03909316929092176001840155606088015193830180548584166001600160a01b031990911617905560808801516003909301805460a08a015165ffffffffffff16600160a01b026001600160d01b0319909116949093169390931791909117909155610c6891610474565b6000818152600360205260408120865192935091610c899083903090611150565b9050610c9682828661121f565b610cd25760405162461bcd60e51b815260206004820152600d60248201526c11985a5b195908125b9cd95c9d609a1b6044820152606401610ba8565b8551604080518681526020810186905280820192909252517f43118103466f8475c26ca895a4fb497bc81164e16090b6c5d8d29bff0b2a068c9181900360600190a15091949350505050565b6000838302816000198587098281108382030391505080600003610d5557838281610d4b57610d4b611941565b0492505050610961565b808411610d755760405163227bc15360e01b815260040160405180910390fd5b6000848688096000868103871696879004966002600389028118808a02820302808a02820302808a02820302808a02820302808a02820302808a02909103029181900381900460010186841190950394909402919094039290920491909117919091029150509392505050565b6335278d126000526004601cfd5b60006109618284610474565b6000858152600360205260408120819081908190610e1c90826001610ad7565b91505080600003610e3757600088879350935093505061106d565b6000818152600260205260409020610e5081838c61122e565b610e655760018988945094509450505061106d565b87610e6f8261126a565b1015610e865760008988945094509450505061106d565b600089610e9283610b1a565b1115610f9957610ea2828b611288565b6001830154909150610ec790610ec29083906001600160601b0316611902565b610968565b6001830180546bffffffffffffffffffffffff19166001600160601b0392909216919091179055610ef88189611915565b60038301546001600160a01b039081166000908152600160209081526040808320938c1683529290529081208054929a508c92909190610f39908490611915565b90915550506003820154604080516001600160a01b03928316815291891660208301527f88f2b86ac62356711c096194cb8bcc4996fecfc20017ecedc832fa22522ffd64910160405180910390a16000808995509550955050505061106d565b610fa282610b1a565b6001830154909150610fbd906001600160601b031689611915565b60038301546001600160a01b039081166000908152600160209081526040808320938c1683529290529081208054929a508392909190610ffe908490611915565b90915550506003820154604080516001600160a01b03928316815291891660208301527f88f2b86ac62356711c096194cb8bcc4996fecfc20017ecedc832fa22522ffd64910160405180910390a16110568b846112a6565b6001611062828c611902565b899550955095505050505b955095509592505050565b600061108d6001600160a01b038416836112fd565b905080516000141580156110b25750808060200190518101906110b091906118ca565b155b15610a8057604051635274afe760e01b81526001600160a01b0384166004820152602401610ba8565b6000818152600183016020908152604080832083805290915281205415801561111e57506000828152600180850160209081526040808420928452919052902054155b156111485750600080805260018084016020908152604080842092845291905290205481146104aa565b5060016104aa565b600061115a845490565b60000361116957506000610961565b60006111788560006001610ad7565b9150505b80158015906111f857506040516307fa648b60e11b8152600481018290526001906001600160a01b03861690630ff4c91690602401602060405180830381865afa1580156111ce573d6000803e3d6000fd5b505050506040513d601f19601f820116820180604052508101906111f291906118b1565b84111514155b1561026457600090815260018086016020908152604080842092845291905290205461117c565b6000610264848484600061130b565b600383015460009042600160a01b90910465ffffffffffff16101561126057611258848484611394565b506000610961565b5060019392505050565b80546000906104aa906b033b2e3c9fd0803ce8000000908190610d1e565b81546000906109619083906b033b2e3c9fd0803ce800000090610d1e565b60008281526003602052604090206112bd90611444565b50600090815260026020819052604082208281556001810192909255810180546001600160a01b031916905560030180546001600160d01b031916905550565b606061096183836000611451565b600061131785846110db565b158015611329575061132985856110db565b1561138957600084815260018601602090815260408083208515158452909152902054611358868686866114e4565b611364868583866114e4565b60018660000160008282546113799190611915565b9091555060019250610264915050565b506000949350505050565b60018084015460038501546001600160a01b03908116600090815260209384526040808220600160601b8504909316825291909352822080546001600160601b039092169290916113e6908490611915565b909155505060008181526003602052604090206114039083611519565b5050600090815260026020819052604082208281556001810192909255810180546001600160a01b031916905560030180546001600160d01b031916905550565b60006104aa8260016115b3565b6060814710156114765760405163cd78605960e01b8152306004820152602401610ba8565b600080856001600160a01b031684866040516114929190611957565b60006040518083038185875af1925050503d80600081146114cf576040519150601f19603f3d011682016040523d82523d6000602084013e6114d4565b606091505b509150915061062e8683836115d0565b600082815260019094016020818152604080872093158088529382528087208690559486529081528385209115855252912055565b600081158061152f575061152d83836110db565b155b1561153c575060006104aa565b60008281526001848101602090815260408084208480529091528083205482845292205461156e9286929091906114e4565b600082815260018481016020908152604080842084805290915280832083905581835282208290558454909185916115a7908490611902565b90915550919392505050565b6000806115c284600085610ad7565b915061026490508482611519565b6060826115e5576115e08261162c565b610961565b81511580156115fc57506001600160a01b0384163b155b1561162557604051639996b31560e01b81526001600160a01b0385166004820152602401610ba8565b5080610961565b80511561163c5780518082602001fd5b604051630a12f52160e11b815260040160405180910390fd5b80356001600160a01b038116811461166c57600080fd5b919050565b6000806000806080858703121561168757600080fd5b61169085611655565b9350602085013592506116a560408601611655565b9396929550929360600135925050565b6000602082840312156116c757600080fd5b5035919050565b6000602082840312156116e057600080fd5b61096182611655565b600080602083850312156116fc57600080fd5b823567ffffffffffffffff8082111561171457600080fd5b818501915085601f83011261172857600080fd5b81358181111561173757600080fd5b8660208260051b850101111561174c57600080fd5b60209290920196919550909350505050565b6000806040838503121561177157600080fd5b61177a83611655565b915061178860208401611655565b90509250929050565b6000806000606084860312156117a657600080fd5b6117af84611655565b92506117bd60208501611655565b9150604084013590509250925092565b60008151808452602080850194506020840160005b838110156117fe578151875295820195908201906001016117e2565b509495945050505050565b60408152600061181c60408301856117cd565b828103602084015261182e81856117cd565b95945050505050565b600080600080600060a0868803121561184f57600080fd5b61185886611655565b94506020860135935061186d60408701611655565b94979396509394606081013594506080013592915050565b634e487b7160e01b600052603260045260246000fd5b634e487b7160e01b600052604160045260246000fd5b6000602082840312156118c357600080fd5b5051919050565b6000602082840312156118dc57600080fd5b8151801515811461096157600080fd5b634e487b7160e01b600052601160045260246000fd5b818103818111156104aa576104aa6118ec565b808201808211156104aa576104aa6118ec565b60006001820161193a5761193a6118ec565b5060010190565b634e487b7160e01b600052601260045260246000fd5b6000825160005b81811015611978576020818601810151858301520161195e565b50600092019182525091905056fea264697066735822122031a31a9121c1b8b3956d0fa16bf4954ac78f3b627ec592824d923ca0ac82188064736f6c63430008180033",
        "nonce": "0x16",
        "chainId": "0x1e14"
      },
      "additionalContracts": [],
      "isFixedGasLimit": false
    },
    {
      "hash": "0x14ed3d8fab83b589db86c034d19a9719dfd51635716f020eb9c7b9a8f53e33e9",
      "transactionType": "CALL",
      "contractName": "ERC20Mock",
      "contractAddress": "0xc6e7df5e7b4f2a278906862b61205850344d4e7d",
      "function": "mint(address,uint256)",
      "arguments": [
        "0xf39Fd6e51aad88F6F4ce6aB8827279cffFb92266",
        "1000000000000000000000000"
      ],
      "transaction": {
        "from": "0xf39fd6e51aad88f6f4ce6ab8827279cfffb92266",
        "to": "0xc6e7df5e7b4f2a278906862b61205850344d4e7d",
        "gas": "0x186f3",
        "value": "0x0",
        "input": "0x40c10f19000000000000000000000000f39fd6e51aad88f6f4ce6ab8827279cfffb9226600000000000000000000000000000000000000000000d3c21bcecceda1000000",
        "nonce": "0x17",
        "chainId": "0x1e14"
      },
      "additionalContracts": [],
      "isFixedGasLimit": false
    },
    {
      "hash": "0x327eca42f9a481f68811a74f683d46acf6ddde27d7502744e86a5545c5109334",
      "transactionType": "CALL",
      "contractName": "ERC20Mock",
      "contractAddress": "0x59b670e9fa9d0a427751af201d676719a970857b",
      "function": "mint(address,uint256)",
      "arguments": [
        "0xf39Fd6e51aad88F6F4ce6aB8827279cffFb92266",
        "1000000000000000000000000"
      ],
      "transaction": {
        "from": "0xf39fd6e51aad88f6f4ce6ab8827279cfffb92266",
        "to": "0x59b670e9fa9d0a427751af201d676719a970857b",
        "gas": "0x186f3",
        "value": "0x0",
        "input": "0x40c10f19000000000000000000000000f39fd6e51aad88f6f4ce6ab8827279cfffb9226600000000000000000000000000000000000000000000d3c21bcecceda1000000",
        "nonce": "0x18",
        "chainId": "0x1e14"
      },
      "additionalContracts": [],
      "isFixedGasLimit": false
    },
    {
      "hash": "0xff783e73d222917dfa9b568ac8c224e87467830ef89229257a9fbc66f297cc66",
      "transactionType": "CALL",
      "contractName": null,
      "contractAddress": "0x826551890dc65655a0aceca109ab11abdbd7a07b",
      "function": null,
      "arguments": null,
      "transaction": {
        "from": "0xf39fd6e51aad88f6f4ce6ab8827279cfffb92266",
        "to": "0x826551890dc65655a0aceca109ab11abdbd7a07b",
        "gas": "0x100ac",
        "value": "0x1b1ae4d6e2ef5000000",
        "input": "0xd0e30db0",
        "nonce": "0x19",
        "chainId": "0x1e14"
      },
      "additionalContracts": [],
      "isFixedGasLimit": false
    },
    {
      "hash": "0x959cf4eb7d84057bf68e7489736d5be9cd58097ae4a79430e4b4069bda0f46a8",
      "transactionType": "CALL",
      "contractName": null,
      "contractAddress": "0x4e71a2e537b7f9d9413d3991d37958c0b5e1e503",
      "function": "approve(address,uint256)",
      "arguments": [
        "0x4ed7c70F96B99c776995fB64377f0d4aB3B0e1C1",
        "115792089237316195423570985008687907853269984665640564039457584007913129639935"
      ],
      "transaction": {
        "from": "0xf39fd6e51aad88f6f4ce6ab8827279cfffb92266",
        "to": "0x4e71a2e537b7f9d9413d3991d37958c0b5e1e503",
        "gas": "0xfb60",
        "value": "0x0",
        "input": "0x095ea7b30000000000000000000000004ed7c70f96b99c776995fb64377f0d4ab3b0e1c1ffffffffffffffffffffffffffffffffffffffffffffffffffffffffffffffff",
        "nonce": "0x1a",
        "chainId": "0x1e14"
      },
      "additionalContracts": [],
      "isFixedGasLimit": false
    },
    {
      "hash": "0x4dfa6fd3ab5c768b30e6a7b656429509dae96166945b1e088499ee5ed6df4719",
      "transactionType": "CALL",
      "contractName": null,
      "contractAddress": "0x826551890dc65655a0aceca109ab11abdbd7a07b",
      "function": "approve(address,uint256)",
      "arguments": [
        "0x4ed7c70F96B99c776995fB64377f0d4aB3B0e1C1",
        "115792089237316195423570985008687907853269984665640564039457584007913129639935"
      ],
      "transaction": {
        "from": "0xf39fd6e51aad88f6f4ce6ab8827279cfffb92266",
        "to": "0x826551890dc65655a0aceca109ab11abdbd7a07b",
        "gas": "0x11476",
        "value": "0x0",
        "input": "0x095ea7b30000000000000000000000004ed7c70f96b99c776995fb64377f0d4ab3b0e1c1ffffffffffffffffffffffffffffffffffffffffffffffffffffffffffffffff",
        "nonce": "0x1b",
        "chainId": "0x1e14"
      },
      "additionalContracts": [],
      "isFixedGasLimit": false
    },
    {
      "hash": "0x12c784eb5c7fe333a7f427a0d273a4d33aff084bf20d063c833f8ca635100d4f",
      "transactionType": "CALL",
      "contractName": "ERC20Mock",
      "contractAddress": "0xc6e7df5e7b4f2a278906862b61205850344d4e7d",
      "function": "approve(address,uint256)",
      "arguments": [
        "0x4ed7c70F96B99c776995fB64377f0d4aB3B0e1C1",
        "115792089237316195423570985008687907853269984665640564039457584007913129639935"
      ],
      "transaction": {
        "from": "0xf39fd6e51aad88f6f4ce6ab8827279cfffb92266",
        "to": "0xc6e7df5e7b4f2a278906862b61205850344d4e7d",
        "gas": "0x10ab1",
        "value": "0x0",
        "input": "0x095ea7b30000000000000000000000004ed7c70f96b99c776995fb64377f0d4ab3b0e1c1ffffffffffffffffffffffffffffffffffffffffffffffffffffffffffffffff",
        "nonce": "0x1c",
        "chainId": "0x1e14"
      },
      "additionalContracts": [],
      "isFixedGasLimit": false
    },
    {
      "hash": "0x0d3b7125848c31abbde5ca45bd8cf25e8e91afd301bbcb9984e10ec67a37eaa2",
      "transactionType": "CALL",
      "contractName": "ERC20Mock",
      "contractAddress": "0x59b670e9fa9d0a427751af201d676719a970857b",
      "function": "approve(address,uint256)",
      "arguments": [
        "0x4ed7c70F96B99c776995fB64377f0d4aB3B0e1C1",
        "115792089237316195423570985008687907853269984665640564039457584007913129639935"
      ],
      "transaction": {
        "from": "0xf39fd6e51aad88f6f4ce6ab8827279cfffb92266",
        "to": "0x59b670e9fa9d0a427751af201d676719a970857b",
        "gas": "0x10ab1",
        "value": "0x0",
        "input": "0x095ea7b30000000000000000000000004ed7c70f96b99c776995fb64377f0d4ab3b0e1c1ffffffffffffffffffffffffffffffffffffffffffffffffffffffffffffffff",
        "nonce": "0x1d",
        "chainId": "0x1e14"
      },
      "additionalContracts": [],
      "isFixedGasLimit": false
    },
    {
      "hash": "0x6b4a4ea02a5ca77b51ba5be3745d04ace20ae166b1ed48447fc747a96ad21625",
      "transactionType": "CALL",
      "contractName": "PublicMarket",
      "contractAddress": "0x4ed7c70f96b99c776995fb64377f0d4ab3b0e1c1",
      "function": "makeOfferSimple(address,uint256,address,uint256)",
      "arguments": [
        "0xc6e7DF5E7b4f2A278906862b61205850344D4e7d",
        "5000000000000000000",
        "0x59b670e9fA9D0A427751Af201D676719a970857b",
        "20000000000000000000"
      ],
      "transaction": {
        "from": "0xf39fd6e51aad88f6f4ce6ab8827279cfffb92266",
        "to": "0x4ed7c70f96b99c776995fb64377f0d4ab3b0e1c1",
        "gas": "0x5070d",
        "value": "0x0",
        "input": "0x082c3bc4000000000000000000000000c6e7df5e7b4f2a278906862b61205850344d4e7d0000000000000000000000000000000000000000000000004563918244f4000000000000000000000000000059b670e9fa9d0a427751af201d676719a970857b000000000000000000000000000000000000000000000001158e460913d00000",
        "nonce": "0x1e",
        "chainId": "0x1e14"
      },
      "additionalContracts": [],
      "isFixedGasLimit": false
    },
    {
      "hash": "0x201fb9d0f21ea392bd0f2434b2cc14afc77d036f968eb118c2218bf503aff767",
      "transactionType": "CALL",
      "contractName": "PublicMarket",
      "contractAddress": "0x4ed7c70f96b99c776995fb64377f0d4ab3b0e1c1",
      "function": "makeOfferSimple(address,uint256,address,uint256)",
      "arguments": [
        "0xc6e7DF5E7b4f2A278906862b61205850344D4e7d",
        "5480000000000000000",
        "0x59b670e9fA9D0A427751Af201D676719a970857b",
        "22000000000000000000"
      ],
      "transaction": {
        "from": "0xf39fd6e51aad88f6f4ce6ab8827279cfffb92266",
        "to": "0x4ed7c70f96b99c776995fb64377f0d4ab3b0e1c1",
        "gas": "0x47a99",
        "value": "0x0",
        "input": "0x082c3bc4000000000000000000000000c6e7df5e7b4f2a278906862b61205850344d4e7d0000000000000000000000000000000000000000000000004c0cdef73924000000000000000000000000000059b670e9fa9d0a427751af201d676719a970857b000000000000000000000000000000000000000000000001314fb37062980000",
        "nonce": "0x1f",
        "chainId": "0x1e14"
      },
      "additionalContracts": [],
      "isFixedGasLimit": false
    },
    {
      "hash": "0x7a6e71924cac8702c14a983663c213838c9cd99c669feb4416aad31b848e5464",
      "transactionType": "CALL",
      "contractName": "PublicMarket",
      "contractAddress": "0x4ed7c70f96b99c776995fb64377f0d4ab3b0e1c1",
      "function": "makeOfferSimple(address,uint256,address,uint256)",
      "arguments": [
        "0xc6e7DF5E7b4f2A278906862b61205850344D4e7d",
        "4700000000000000000",
        "0x59b670e9fA9D0A427751Af201D676719a970857b",
        "21000000000000000000"
      ],
      "transaction": {
        "from": "0xf39fd6e51aad88f6f4ce6ab8827279cfffb92266",
        "to": "0x4ed7c70f96b99c776995fb64377f0d4ab3b0e1c1",
        "gas": "0x4965c",
        "value": "0x0",
        "input": "0x082c3bc4000000000000000000000000c6e7df5e7b4f2a278906862b61205850344d4e7d0000000000000000000000000000000000000000000000004139c1192c56000000000000000000000000000059b670e9fa9d0a427751af201d676719a970857b000000000000000000000000000000000000000000000001236efcbcbb340000",
        "nonce": "0x20",
        "chainId": "0x1e14"
      },
      "additionalContracts": [],
      "isFixedGasLimit": false
    },
    {
      "hash": "0x69f922e66c9a779602fa7218b5268db6f994d4bcb2bc48cc4ef32be82de11faf",
      "transactionType": "CALL",
      "contractName": "PublicMarket",
      "contractAddress": "0x4ed7c70f96b99c776995fb64377f0d4ab3b0e1c1",
      "function": "makeOfferSimple(address,uint256,address,uint256)",
      "arguments": [
        "0xc6e7DF5E7b4f2A278906862b61205850344D4e7d",
        "6000000000000000000",
        "0x59b670e9fA9D0A427751Af201D676719a970857b",
        "27000000000000000000"
      ],
      "transaction": {
        "from": "0xf39fd6e51aad88f6f4ce6ab8827279cfffb92266",
        "to": "0x4ed7c70f96b99c776995fb64377f0d4ab3b0e1c1",
        "gas": "0x4f8d6",
        "value": "0x0",
        "input": "0x082c3bc4000000000000000000000000c6e7df5e7b4f2a278906862b61205850344d4e7d00000000000000000000000000000000000000000000000053444835ec58000000000000000000000000000059b670e9fa9d0a427751af201d676719a970857b00000000000000000000000000000000000000000000000176b344f2a78c0000",
        "nonce": "0x21",
        "chainId": "0x1e14"
      },
      "additionalContracts": [],
      "isFixedGasLimit": false
    },
    {
      "hash": "0xbaf9ed853260863745ecc4452a2f42c520d9ce8a33c21c5433f5dae3f0743c32",
      "transactionType": "CALL",
      "contractName": "PublicMarket",
      "contractAddress": "0x4ed7c70f96b99c776995fb64377f0d4ab3b0e1c1",
      "function": "makeOfferSimple(address,uint256,address,uint256)",
      "arguments": [
        "0xc6e7DF5E7b4f2A278906862b61205850344D4e7d",
        "6500000000000000000",
        "0x59b670e9fA9D0A427751Af201D676719a970857b",
        "29000000000000000000"
      ],
      "transaction": {
        "from": "0xf39fd6e51aad88f6f4ce6ab8827279cfffb92266",
        "to": "0x4ed7c70f96b99c776995fb64377f0d4ab3b0e1c1",
        "gas": "0x4bf92",
        "value": "0x0",
        "input": "0x082c3bc4000000000000000000000000c6e7df5e7b4f2a278906862b61205850344d4e7d0000000000000000000000000000000000000000000000005a34a38fc00a000000000000000000000000000059b670e9fa9d0a427751af201d676719a970857b0000000000000000000000000000000000000000000000019274b259f6540000",
        "nonce": "0x22",
        "chainId": "0x1e14"
      },
      "additionalContracts": [],
      "isFixedGasLimit": false
    },
    {
      "hash": "0xb522583a63fc5ad9e711f593437ca0cc216bb84a79c3333ce034466017558611",
      "transactionType": "CALL",
      "contractName": "PublicMarket",
      "contractAddress": "0x4ed7c70f96b99c776995fb64377f0d4ab3b0e1c1",
      "function": "makeOfferSimple(address,uint256,address,uint256)",
      "arguments": [
        "0x59b670e9fA9D0A427751Af201D676719a970857b",
        "20000000000000000000",
        "0xc6e7DF5E7b4f2A278906862b61205850344D4e7d",
        "5200000000000000000"
      ],
      "transaction": {
        "from": "0xf39fd6e51aad88f6f4ce6ab8827279cfffb92266",
        "to": "0x4ed7c70f96b99c776995fb64377f0d4ab3b0e1c1",
        "gas": "0x51d5d",
        "value": "0x0",
        "input": "0x082c3bc400000000000000000000000059b670e9fa9d0a427751af201d676719a970857b000000000000000000000000000000000000000000000001158e460913d00000000000000000000000000000c6e7df5e7b4f2a278906862b61205850344d4e7d000000000000000000000000000000000000000000000000482a1c7300080000",
        "nonce": "0x23",
        "chainId": "0x1e14"
      },
      "additionalContracts": [],
      "isFixedGasLimit": false
    },
    {
      "hash": "0x4d9091b589112e68e30726ebbde85544ece2681babc2b8571b51525f231ae519",
      "transactionType": "CALL",
      "contractName": "PublicMarket",
      "contractAddress": "0x4ed7c70f96b99c776995fb64377f0d4ab3b0e1c1",
      "function": "makeOfferSimple(address,uint256,address,uint256)",
      "arguments": [
        "0x59b670e9fA9D0A427751Af201D676719a970857b",
        "22000000000000000000",
        "0xc6e7DF5E7b4f2A278906862b61205850344D4e7d",
        "5800000000000000000"
      ],
      "transaction": {
        "from": "0xf39fd6e51aad88f6f4ce6ab8827279cfffb92266",
        "to": "0x4ed7c70f96b99c776995fb64377f0d4ab3b0e1c1",
        "gas": "0x4d5be",
        "value": "0x0",
        "input": "0x082c3bc400000000000000000000000059b670e9fa9d0a427751af201d676719a970857b000000000000000000000000000000000000000000000001314fb37062980000000000000000000000000000c6e7df5e7b4f2a278906862b61205850344d4e7d000000000000000000000000000000000000000000000000507dbd4531440000",
        "nonce": "0x24",
        "chainId": "0x1e14"
      },
      "additionalContracts": [],
      "isFixedGasLimit": false
    },
    {
      "hash": "0x931489b32a69d9cd04470185c9097cdd02d548d7aeba96a0d24c31e7c309920a",
      "transactionType": "CALL",
      "contractName": "PublicMarket",
      "contractAddress": "0x4ed7c70f96b99c776995fb64377f0d4ab3b0e1c1",
      "function": "makeOfferSimple(address,uint256,address,uint256)",
      "arguments": [
        "0x59b670e9fA9D0A427751Af201D676719a970857b",
        "21000000000000000000",
        "0xc6e7DF5E7b4f2A278906862b61205850344D4e7d",
        "5300000000000000000"
      ],
      "transaction": {
        "from": "0xf39fd6e51aad88f6f4ce6ab8827279cfffb92266",
        "to": "0x4ed7c70f96b99c776995fb64377f0d4ab3b0e1c1",
        "gas": "0x49b7c",
        "value": "0x0",
        "input": "0x082c3bc400000000000000000000000059b670e9fa9d0a427751af201d676719a970857b000000000000000000000000000000000000000000000001236efcbcbb340000000000000000000000000000c6e7df5e7b4f2a278906862b61205850344d4e7d000000000000000000000000000000000000000000000000498d61eb5d920000",
        "nonce": "0x25",
        "chainId": "0x1e14"
      },
      "additionalContracts": [],
      "isFixedGasLimit": false
    },
    {
      "hash": "0xd11b320a38eef2e34411670e19a2b3a1935d54324346140907771f768dcf602e",
      "transactionType": "CALL",
      "contractName": "PublicMarket",
      "contractAddress": "0x4ed7c70f96b99c776995fb64377f0d4ab3b0e1c1",
      "function": "makeOfferSimple(address,uint256,address,uint256)",
      "arguments": [
        "0x59b670e9fA9D0A427751Af201D676719a970857b",
        "25000000000000000000",
        "0xc6e7DF5E7b4f2A278906862b61205850344D4e7d",
        "6300000000000000000"
      ],
      "transaction": {
        "from": "0xf39fd6e51aad88f6f4ce6ab8827279cfffb92266",
        "to": "0x4ed7c70f96b99c776995fb64377f0d4ab3b0e1c1",
        "gas": "0x49b7c",
        "value": "0x0",
        "input": "0x082c3bc400000000000000000000000059b670e9fa9d0a427751af201d676719a970857b0000000000000000000000000000000000000000000000015af1d78b58c40000000000000000000000000000c6e7df5e7b4f2a278906862b61205850344d4e7d000000000000000000000000000000000000000000000000576e189f04f60000",
        "nonce": "0x26",
        "chainId": "0x1e14"
      },
      "additionalContracts": [],
      "isFixedGasLimit": false
    },
    {
      "hash": "0x3e7406408993e83419415296f6190913b87760f547804708e94e19c46b7d2d5e",
      "transactionType": "CALL",
      "contractName": "PublicMarket",
      "contractAddress": "0x4ed7c70f96b99c776995fb64377f0d4ab3b0e1c1",
      "function": "makeOfferSimple(address,uint256,address,uint256)",
      "arguments": [
        "0x59b670e9fA9D0A427751Af201D676719a970857b",
        "29000000000000000000",
        "0xc6e7DF5E7b4f2A278906862b61205850344D4e7d",
        "7300000000000000000"
      ],
      "transaction": {
        "from": "0xf39fd6e51aad88f6f4ce6ab8827279cfffb92266",
        "to": "0x4ed7c70f96b99c776995fb64377f0d4ab3b0e1c1",
        "gas": "0x49b7c",
        "value": "0x0",
        "input": "0x082c3bc400000000000000000000000059b670e9fa9d0a427751af201d676719a970857b0000000000000000000000000000000000000000000000019274b259f6540000000000000000000000000000c6e7df5e7b4f2a278906862b61205850344d4e7d000000000000000000000000000000000000000000000000654ecf52ac5a0000",
        "nonce": "0x27",
        "chainId": "0x1e14"
      },
      "additionalContracts": [],
      "isFixedGasLimit": false
    }
  ],
  "receipts": [
    {
      "status": "0x1",
      "cumulativeGasUsed": "0x8432c",
      "logs": [],
      "logsBloom": "0x00000000000000000000000000000000000000000000000000000000000000000000000000000000000000000000000000000000000000000000000000000000000000000000000000000000000000000000000000000000000000000000000000000000000000000000000000000000000000000000000000000000000000000000000000000000000000000000000000000000000000000000000000000000000000000000000000000000000000000000000000000000000000000000000000000000000000000000000000000000000000000000000000000000000000000000000000000000000000000000000000000000000000000000000000000000",
      "type": "0x2",
      "transactionHash": "0x89647a75efd1234e009b176816c9dc3f33bb21b0376d015cdbc68fc832a1495c",
      "transactionIndex": "0x0",
      "blockHash": "0x0450d3ef8a6ee37d548463b03c5778b7eb2452bb24c116b048ab98f0fd55ee6a",
      "blockNumber": "0x8fd388",
      "gasUsed": "0x8432c",
      "effectiveGasPrice": "0xd6ba79ea4",
      "from": "0xf39fd6e51aad88f6f4ce6ab8827279cfffb92266",
      "to": null,
      "contractAddress": "0xc6e7df5e7b4f2a278906862b61205850344d4e7d",
      "root": "0x0000000000000000000000000000000000000000000000000000000000000000"
    },
    {
      "status": "0x1",
      "cumulativeGasUsed": "0x8432c",
      "logs": [],
      "logsBloom": "0x00000000000000000000000000000000000000000000000000000000000000000000000000000000000000000000000000000000000000000000000000000000000000000000000000000000000000000000000000000000000000000000000000000000000000000000000000000000000000000000000000000000000000000000000000000000000000000000000000000000000000000000000000000000000000000000000000000000000000000000000000000000000000000000000000000000000000000000000000000000000000000000000000000000000000000000000000000000000000000000000000000000000000000000000000000000",
      "type": "0x2",
      "transactionHash": "0x56511ae2e172e25dce76144adfd2f4adf13104801ce1d10fb9cc559649c76876",
      "transactionIndex": "0x0",
      "blockHash": "0x35b73c350930b3cee995e3a21dfa756b08b14e47041298adb37e4f9b3776cfc3",
      "blockNumber": "0x8fd389",
      "gasUsed": "0x8432c",
      "effectiveGasPrice": "0xc3072bad7",
      "from": "0xf39fd6e51aad88f6f4ce6ab8827279cfffb92266",
      "to": null,
      "contractAddress": "0x59b670e9fa9d0a427751af201d676719a970857b",
      "root": "0x0000000000000000000000000000000000000000000000000000000000000000"
    },
    {
      "status": "0x1",
      "cumulativeGasUsed": "0x1f1ecf",
      "logs": [],
      "logsBloom": "0x00000000000000000000000000000000000000000000000000000000000000000000000000000000000000000000000000000000000000000000000000000000000000000000000000000000000000000000000000000000000000000000000000000000000000000000000000000000000000000000000000000000000000000000000000000000000000000000000000000000000000000000000000000000000000000000000000000000000000000000000000000000000000000000000000000000000000000000000000000000000000000000000000000000000000000000000000000000000000000000000000000000000000000000000000000000",
      "type": "0x2",
      "transactionHash": "0xe2b4e016f8e678356c51d7133743e7a918b8e337e7e9fafb9cd4026f8118c2b0",
      "transactionIndex": "0x1",
      "blockHash": "0x35b73c350930b3cee995e3a21dfa756b08b14e47041298adb37e4f9b3776cfc3",
      "blockNumber": "0x8fd389",
      "gasUsed": "0x16dba3",
      "effectiveGasPrice": "0xc3072bad7",
      "from": "0xf39fd6e51aad88f6f4ce6ab8827279cfffb92266",
      "to": null,
      "contractAddress": "0x4ed7c70f96b99c776995fb64377f0d4ab3b0e1c1",
      "root": "0x0000000000000000000000000000000000000000000000000000000000000000"
    },
    {
      "status": "0x1",
      "cumulativeGasUsed": "0x10b51",
      "logs": [
        {
          "address": "0xc6e7df5e7b4f2a278906862b61205850344d4e7d",
          "topics": [
            "0xddf252ad1be2c89b69c2b068fc378daa952ba7f163c4a11628f55a4df523b3ef",
            "0x0000000000000000000000000000000000000000000000000000000000000000",
            "0x000000000000000000000000f39fd6e51aad88f6f4ce6ab8827279cfffb92266"
          ],
          "data": "0x00000000000000000000000000000000000000000000d3c21bcecceda1000000",
          "blockHash": "0xa4afa103c25c0bb57c19a735da1aaac2152a6a81e32f7e79e1e8065b07b65907",
          "blockNumber": "0x8fd38a",
          "blockTimestamp": "0x6632bbe1",
          "transactionHash": "0x14ed3d8fab83b589db86c034d19a9719dfd51635716f020eb9c7b9a8f53e33e9",
          "transactionIndex": "0x0",
          "logIndex": "0x0",
          "removed": false
        }
      ],
      "logsBloom": "0x00000000000000000000000000000000000000000000000000000000000000000000000000000000000000800000000000000000000000000000000000000000000000000000000000000008000000000000000000000000000000000000000000000000020000000000000100000800000000000000000000000010000000000000000000000000000000000000000000000000000000000000000000000000000000000000000000000000000000000000000000000000000000000000000000000002000000200000000000100000000000002000000000000000000020000000000000000000000000800000000000000000000000000000000000000000",
      "type": "0x2",
      "transactionHash": "0x14ed3d8fab83b589db86c034d19a9719dfd51635716f020eb9c7b9a8f53e33e9",
      "transactionIndex": "0x0",
      "blockHash": "0xa4afa103c25c0bb57c19a735da1aaac2152a6a81e32f7e79e1e8065b07b65907",
      "blockNumber": "0x8fd38a",
      "gasUsed": "0x10b51",
      "effectiveGasPrice": "0xb37f170f5",
      "from": "0xf39fd6e51aad88f6f4ce6ab8827279cfffb92266",
      "to": "0xc6e7df5e7b4f2a278906862b61205850344d4e7d",
      "contractAddress": null,
      "root": "0x0000000000000000000000000000000000000000000000000000000000000000"
    },
    {
      "status": "0x1",
      "cumulativeGasUsed": "0x216a2",
      "logs": [
        {
          "address": "0x59b670e9fa9d0a427751af201d676719a970857b",
          "topics": [
            "0xddf252ad1be2c89b69c2b068fc378daa952ba7f163c4a11628f55a4df523b3ef",
            "0x0000000000000000000000000000000000000000000000000000000000000000",
            "0x000000000000000000000000f39fd6e51aad88f6f4ce6ab8827279cfffb92266"
          ],
          "data": "0x00000000000000000000000000000000000000000000d3c21bcecceda1000000",
          "blockHash": "0xa4afa103c25c0bb57c19a735da1aaac2152a6a81e32f7e79e1e8065b07b65907",
          "blockNumber": "0x8fd38a",
          "blockTimestamp": "0x6632bbe1",
          "transactionHash": "0x327eca42f9a481f68811a74f683d46acf6ddde27d7502744e86a5545c5109334",
          "transactionIndex": "0x1",
          "logIndex": "0x1",
          "removed": false
        }
      ],
      "logsBloom": "0x00000000000000000000000000000000000000000000000000000000000000000000000000000000000000000000000000000000000000000000000000000000000000000000000000000008000000000000000008000000000000000000000000000000020000000000000100000800000000000000000000000010000000000000000000000000000000000000000000000000000000000000000000000000000000000000000000000000000000080000000000000000000000000000000000000002000000200000000000020000000000002000000000000000000020000000000000000000000000000000000000000000000000000000000000000000",
      "type": "0x2",
      "transactionHash": "0x327eca42f9a481f68811a74f683d46acf6ddde27d7502744e86a5545c5109334",
      "transactionIndex": "0x1",
      "blockHash": "0xa4afa103c25c0bb57c19a735da1aaac2152a6a81e32f7e79e1e8065b07b65907",
      "blockNumber": "0x8fd38a",
      "gasUsed": "0x10b51",
      "effectiveGasPrice": "0xb37f170f5",
      "from": "0xf39fd6e51aad88f6f4ce6ab8827279cfffb92266",
      "to": "0x59b670e9fa9d0a427751af201d676719a970857b",
      "contractAddress": null,
      "root": "0x0000000000000000000000000000000000000000000000000000000000000000"
    },
    {
      "status": "0x1",
      "cumulativeGasUsed": "0x2c623",
      "logs": [
        {
          "address": "0x826551890dc65655a0aceca109ab11abdbd7a07b",
          "topics": [
            "0xe1fffcc4923d04b559f4d29a8bfc6cda04eb5b0d3c460751c2402c5c5cc9109c",
            "0x000000000000000000000000f39fd6e51aad88f6f4ce6ab8827279cfffb92266"
          ],
          "data": "0x0000000000000000000000000000000000000000000001b1ae4d6e2ef5000000",
          "blockHash": "0xa4afa103c25c0bb57c19a735da1aaac2152a6a81e32f7e79e1e8065b07b65907",
          "blockNumber": "0x8fd38a",
          "blockTimestamp": "0x6632bbe1",
          "transactionHash": "0xff783e73d222917dfa9b568ac8c224e87467830ef89229257a9fbc66f297cc66",
          "transactionIndex": "0x2",
          "logIndex": "0x2",
          "removed": false
        }
      ],
      "logsBloom": "0x00000000000000000000000000000000000000000000000000000000000000000000000000000000000000000000000000000000000000800000000000000080000000000000000000000000000000000000000000000000000000008000000000000000000000000000000100000000000000000000000000000000000000000000000000000000000000000000000000000001000000000000000000000000000000000000000000000000000000000000000000000000008000000000000000000000000000200000000000000000000000002000000000000000000000000000000000000000000000000000000000000000000000400000000000000000",
      "type": "0x2",
      "transactionHash": "0xff783e73d222917dfa9b568ac8c224e87467830ef89229257a9fbc66f297cc66",
      "transactionIndex": "0x2",
      "blockHash": "0xa4afa103c25c0bb57c19a735da1aaac2152a6a81e32f7e79e1e8065b07b65907",
      "blockNumber": "0x8fd38a",
      "gasUsed": "0xaf81",
      "effectiveGasPrice": "0xb37f170f5",
      "from": "0xf39fd6e51aad88f6f4ce6ab8827279cfffb92266",
      "to": "0x826551890dc65655a0aceca109ab11abdbd7a07b",
      "contractAddress": null,
      "root": "0x0000000000000000000000000000000000000000000000000000000000000000"
    },
    {
      "status": "0x1",
      "cumulativeGasUsed": "0x37c22",
      "logs": [
        {
          "address": "0x4e71a2e537b7f9d9413d3991d37958c0b5e1e503",
          "topics": [
            "0x8c5be1e5ebec7d5bd14f71427d1e84f3dd0314c0f7b2291e5b200ac8c7c3b925",
            "0x000000000000000000000000f39fd6e51aad88f6f4ce6ab8827279cfffb92266",
            "0x0000000000000000000000004ed7c70f96b99c776995fb64377f0d4ab3b0e1c1"
          ],
          "data": "0xffffffffffffffffffffffffffffffffffffffffffffffffffffffffffffffff",
          "blockHash": "0xa4afa103c25c0bb57c19a735da1aaac2152a6a81e32f7e79e1e8065b07b65907",
          "blockNumber": "0x8fd38a",
          "blockTimestamp": "0x6632bbe1",
          "transactionHash": "0x959cf4eb7d84057bf68e7489736d5be9cd58097ae4a79430e4b4069bda0f46a8",
          "transactionIndex": "0x3",
          "logIndex": "0x3",
          "removed": false
        }
      ],
      "logsBloom": "0x00000000000000000000000000000000000000000000000000000000000000000000000000000000000000000000000000000000000000000200000000200000008000000000000000000000000000000000000000000000000000000000000000000000000000000000000100000000000000000000000000000000000000000000000000000000000000000000000000000000080000000000000000000000020000000000000000000000000000000000000000000000000000000000000000000000000000200000000000000000000000002000000000000000400000000010000000000000000000000000000000000002002000000000000000000000",
      "type": "0x2",
      "transactionHash": "0x959cf4eb7d84057bf68e7489736d5be9cd58097ae4a79430e4b4069bda0f46a8",
      "transactionIndex": "0x3",
      "blockHash": "0xa4afa103c25c0bb57c19a735da1aaac2152a6a81e32f7e79e1e8065b07b65907",
      "blockNumber": "0x8fd38a",
      "gasUsed": "0xb5ff",
      "effectiveGasPrice": "0xb37f170f5",
      "from": "0xf39fd6e51aad88f6f4ce6ab8827279cfffb92266",
      "to": "0x4e71a2e537b7f9d9413d3991d37958c0b5e1e503",
      "contractAddress": null,
      "root": "0x0000000000000000000000000000000000000000000000000000000000000000"
    },
    {
      "status": "0x1",
      "cumulativeGasUsed": "0x4392b",
      "logs": [
        {
          "address": "0x826551890dc65655a0aceca109ab11abdbd7a07b",
          "topics": [
            "0x8c5be1e5ebec7d5bd14f71427d1e84f3dd0314c0f7b2291e5b200ac8c7c3b925",
            "0x000000000000000000000000f39fd6e51aad88f6f4ce6ab8827279cfffb92266",
            "0x0000000000000000000000004ed7c70f96b99c776995fb64377f0d4ab3b0e1c1"
          ],
          "data": "0xffffffffffffffffffffffffffffffffffffffffffffffffffffffffffffffff",
          "blockHash": "0xa4afa103c25c0bb57c19a735da1aaac2152a6a81e32f7e79e1e8065b07b65907",
          "blockNumber": "0x8fd38a",
          "blockTimestamp": "0x6632bbe1",
          "transactionHash": "0x4dfa6fd3ab5c768b30e6a7b656429509dae96166945b1e088499ee5ed6df4719",
          "transactionIndex": "0x4",
          "logIndex": "0x4",
          "removed": false
        },
        {
          "address": "0x826551890dc65655a0aceca109ab11abdbd7a07b",
          "topics": [
            "0x8c5be1e5ebec7d5bd14f71427d1e84f3dd0314c0f7b2291e5b200ac8c7c3b925",
            "0x000000000000000000000000f39fd6e51aad88f6f4ce6ab8827279cfffb92266",
            "0x0000000000000000000000004ed7c70f96b99c776995fb64377f0d4ab3b0e1c1"
          ],
          "data": "0xffffffffffffffffffffffffffffffffffffffffffffffffffffffffffffffff",
          "blockHash": "0xa4afa103c25c0bb57c19a735da1aaac2152a6a81e32f7e79e1e8065b07b65907",
          "blockNumber": "0x8fd38a",
          "blockTimestamp": "0x6632bbe1",
          "transactionHash": "0x4dfa6fd3ab5c768b30e6a7b656429509dae96166945b1e088499ee5ed6df4719",
          "transactionIndex": "0x4",
          "logIndex": "0x5",
          "removed": false
        }
      ],
      "logsBloom": "0x00000000000000000000000000000000000000000000000000000000000000000000000000000000000000000000000000000000000000800000000000200080000000000000000000000000000000000000000000000000000000000000000000000000000000000000000100000000000000000000000000000000000000000000000000000000000000000000000000000000080000000000000000000000020000000000000000000000000000000000000000000000008000000000000000000000000000200000000000000000000000002000000000000000400000000010000000000000000000000000000000000000002000000000000000000000",
      "type": "0x2",
      "transactionHash": "0x4dfa6fd3ab5c768b30e6a7b656429509dae96166945b1e088499ee5ed6df4719",
      "transactionIndex": "0x4",
      "blockHash": "0xa4afa103c25c0bb57c19a735da1aaac2152a6a81e32f7e79e1e8065b07b65907",
      "blockNumber": "0x8fd38a",
      "gasUsed": "0xbd09",
      "effectiveGasPrice": "0xb37f170f5",
      "from": "0xf39fd6e51aad88f6f4ce6ab8827279cfffb92266",
      "to": "0x826551890dc65655a0aceca109ab11abdbd7a07b",
      "contractAddress": null,
      "root": "0x0000000000000000000000000000000000000000000000000000000000000000"
    },
    {
      "status": "0x1",
      "cumulativeGasUsed": "0xb65b",
      "logs": [
        {
          "address": "0xc6e7df5e7b4f2a278906862b61205850344d4e7d",
          "topics": [
            "0x8c5be1e5ebec7d5bd14f71427d1e84f3dd0314c0f7b2291e5b200ac8c7c3b925",
            "0x000000000000000000000000f39fd6e51aad88f6f4ce6ab8827279cfffb92266",
            "0x0000000000000000000000004ed7c70f96b99c776995fb64377f0d4ab3b0e1c1"
          ],
          "data": "0xffffffffffffffffffffffffffffffffffffffffffffffffffffffffffffffff",
          "blockHash": "0xf85da12b75fa8f3cfd2a023a695b16a77ad924a183ad81cf60a387d22e51b6c0",
          "blockNumber": "0x8fd38b",
          "blockTimestamp": "0x6632bbe2",
          "transactionHash": "0x12c784eb5c7fe333a7f427a0d273a4d33aff084bf20d063c833f8ca635100d4f",
          "transactionIndex": "0x0",
          "logIndex": "0x0",
          "removed": false
        }
      ],
      "logsBloom": "0x00000000000000000000000000000000000000000000000000000000000000000000000000000000000000800000000000000000000000000000000000200000000000000000000000000000000000000000000000000000000000000000000000000000000000000000000100000000000000000000000000000000000000000000000000000000000000000000000000000000080000000000000000000000020000000000000000000000000000000000000000000000000000000000000000000000000000200000000000100000000000002000000000000000400000000010000000000000000000800000000000000000002000000000000000000000",
      "type": "0x2",
      "transactionHash": "0x12c784eb5c7fe333a7f427a0d273a4d33aff084bf20d063c833f8ca635100d4f",
      "transactionIndex": "0x0",
      "blockHash": "0xf85da12b75fa8f3cfd2a023a695b16a77ad924a183ad81cf60a387d22e51b6c0",
      "blockNumber": "0x8fd38b",
      "gasUsed": "0xb65b",
      "effectiveGasPrice": "0xa3c21280f",
      "from": "0xf39fd6e51aad88f6f4ce6ab8827279cfffb92266",
      "to": "0xc6e7df5e7b4f2a278906862b61205850344d4e7d",
      "contractAddress": null,
      "root": "0x0000000000000000000000000000000000000000000000000000000000000000"
    },
    {
      "status": "0x1",
      "cumulativeGasUsed": "0x16cb6",
      "logs": [
        {
          "address": "0x59b670e9fa9d0a427751af201d676719a970857b",
          "topics": [
            "0x8c5be1e5ebec7d5bd14f71427d1e84f3dd0314c0f7b2291e5b200ac8c7c3b925",
            "0x000000000000000000000000f39fd6e51aad88f6f4ce6ab8827279cfffb92266",
            "0x0000000000000000000000004ed7c70f96b99c776995fb64377f0d4ab3b0e1c1"
          ],
          "data": "0xffffffffffffffffffffffffffffffffffffffffffffffffffffffffffffffff",
          "blockHash": "0xf85da12b75fa8f3cfd2a023a695b16a77ad924a183ad81cf60a387d22e51b6c0",
          "blockNumber": "0x8fd38b",
          "blockTimestamp": "0x6632bbe2",
          "transactionHash": "0x0d3b7125848c31abbde5ca45bd8cf25e8e91afd301bbcb9984e10ec67a37eaa2",
          "transactionIndex": "0x1",
          "logIndex": "0x1",
          "removed": false
        }
      ],
      "logsBloom": "0x00000000000000000000000000000000000000000000000000000000000000000000000000000000000000000000000000000000000000000000000000200000000000000000000000000000000000000000000008000000000000000000000000000000000000000000000100000000000000000000000000000000000000000000000000000000000000000000000000000000080000000000000000000000020000000000000000000000000000080000000000000000000000000000000000000000000000200000000000020000000000002000000000000000400000000010000000000000000000000000000000000000002000000000000000000000",
      "type": "0x2",
      "transactionHash": "0x0d3b7125848c31abbde5ca45bd8cf25e8e91afd301bbcb9984e10ec67a37eaa2",
      "transactionIndex": "0x1",
      "blockHash": "0xf85da12b75fa8f3cfd2a023a695b16a77ad924a183ad81cf60a387d22e51b6c0",
      "blockNumber": "0x8fd38b",
      "gasUsed": "0xb65b",
      "effectiveGasPrice": "0xa3c21280f",
      "from": "0xf39fd6e51aad88f6f4ce6ab8827279cfffb92266",
      "to": "0x59b670e9fa9d0a427751af201d676719a970857b",
      "contractAddress": null,
      "root": "0x0000000000000000000000000000000000000000000000000000000000000000"
    },
    {
      "status": "0x1",
      "cumulativeGasUsed": "0x51084",
      "logs": [
        {
          "address": "0xc6e7df5e7b4f2a278906862b61205850344d4e7d",
          "topics": [
            "0xddf252ad1be2c89b69c2b068fc378daa952ba7f163c4a11628f55a4df523b3ef",
            "0x000000000000000000000000f39fd6e51aad88f6f4ce6ab8827279cfffb92266",
            "0x0000000000000000000000004ed7c70f96b99c776995fb64377f0d4ab3b0e1c1"
          ],
          "data": "0x0000000000000000000000000000000000000000000000004563918244f40000",
          "blockHash": "0xf85da12b75fa8f3cfd2a023a695b16a77ad924a183ad81cf60a387d22e51b6c0",
          "blockNumber": "0x8fd38b",
          "blockTimestamp": "0x6632bbe2",
          "transactionHash": "0x6b4a4ea02a5ca77b51ba5be3745d04ace20ae166b1ed48447fc747a96ad21625",
          "transactionIndex": "0x2",
          "logIndex": "0x2",
          "removed": false
        },
        {
          "address": "0x4ed7c70f96b99c776995fb64377f0d4ab3b0e1c1",
          "topics": [
            "0x43118103466f8475c26ca895a4fb497bc81164e16090b6c5d8d29bff0b2a068c"
          ],
          "data": "0x00000000000000000000000000000000000000000000000000000000000000013340df27d091e562ec09a44bfb4f0ae3a95353431ff83a7e9968e68580ccf8b000000000000000000000000000000000000000000cecb8f27f4200f3a0000000",
          "blockHash": "0xf85da12b75fa8f3cfd2a023a695b16a77ad924a183ad81cf60a387d22e51b6c0",
          "blockNumber": "0x8fd38b",
          "blockTimestamp": "0x6632bbe2",
          "transactionHash": "0x6b4a4ea02a5ca77b51ba5be3745d04ace20ae166b1ed48447fc747a96ad21625",
          "transactionIndex": "0x2",
          "logIndex": "0x3",
          "removed": false
        }
      ],
      "logsBloom": "0x01000000000000000000000000000000000000000000000000000020000000000000000000000000000000800000000000000000000000000000000000000000000000010000000000000008000000000000000000000000000000000000000000000000000000000000000100000000008000000000000000000010000000000000000000000000000000000000000000000000080000000000000000000000000000000000000000000000000000200000000000000000000000001000000000000002000000200000000000100000000000002000000000000000400000000000000000000000000000800000000000000000002000000000000000000000",
      "type": "0x2",
      "transactionHash": "0x6b4a4ea02a5ca77b51ba5be3745d04ace20ae166b1ed48447fc747a96ad21625",
      "transactionIndex": "0x2",
      "blockHash": "0xf85da12b75fa8f3cfd2a023a695b16a77ad924a183ad81cf60a387d22e51b6c0",
      "blockNumber": "0x8fd38b",
      "gasUsed": "0x3a3ce",
      "effectiveGasPrice": "0xa3c21280f",
      "from": "0xf39fd6e51aad88f6f4ce6ab8827279cfffb92266",
      "to": "0x4ed7c70f96b99c776995fb64377f0d4ab3b0e1c1",
      "contractAddress": null,
      "root": "0x0000000000000000000000000000000000000000000000000000000000000000"
    },
    {
      "status": "0x1",
      "cumulativeGasUsed": "0x84ea3",
      "logs": [
        {
          "address": "0xc6e7df5e7b4f2a278906862b61205850344d4e7d",
          "topics": [
            "0xddf252ad1be2c89b69c2b068fc378daa952ba7f163c4a11628f55a4df523b3ef",
            "0x000000000000000000000000f39fd6e51aad88f6f4ce6ab8827279cfffb92266",
            "0x0000000000000000000000004ed7c70f96b99c776995fb64377f0d4ab3b0e1c1"
          ],
          "data": "0x0000000000000000000000000000000000000000000000004c0cdef739240000",
          "blockHash": "0xf85da12b75fa8f3cfd2a023a695b16a77ad924a183ad81cf60a387d22e51b6c0",
          "blockNumber": "0x8fd38b",
          "blockTimestamp": "0x6632bbe2",
          "transactionHash": "0x201fb9d0f21ea392bd0f2434b2cc14afc77d036f968eb118c2218bf503aff767",
          "transactionIndex": "0x3",
          "logIndex": "0x4",
          "removed": false
        },
        {
          "address": "0x4ed7c70f96b99c776995fb64377f0d4ab3b0e1c1",
          "topics": [
            "0x43118103466f8475c26ca895a4fb497bc81164e16090b6c5d8d29bff0b2a068c"
          ],
          "data": "0x00000000000000000000000000000000000000000000000000000000000000023340df27d091e562ec09a44bfb4f0ae3a95353431ff83a7e9968e68580ccf8b000000000000000000000000000000000000000000cf8cc4ef1b52a108b184abe",
          "blockHash": "0xf85da12b75fa8f3cfd2a023a695b16a77ad924a183ad81cf60a387d22e51b6c0",
          "blockNumber": "0x8fd38b",
          "blockTimestamp": "0x6632bbe2",
          "transactionHash": "0x201fb9d0f21ea392bd0f2434b2cc14afc77d036f968eb118c2218bf503aff767",
          "transactionIndex": "0x3",
          "logIndex": "0x5",
          "removed": false
        }
      ],
      "logsBloom": "0x01000000000000000000000000000000000000000000000000000020000000000000000000000000000000800000000000000000000000000000000000000000000000010000000000000008000000000000000000000000000000000000000000000000000000000000000100000000008000000000000000000010000000000000000000000000000000000000000000000000080000000000000000000000000000000000000000000000000000200000000000000000000000001000000000000002000000200000000000100000000000002000000000000000400000000000000000000000000000800000000000000000002000000000000000000000",
      "type": "0x2",
      "transactionHash": "0x201fb9d0f21ea392bd0f2434b2cc14afc77d036f968eb118c2218bf503aff767",
      "transactionIndex": "0x3",
      "blockHash": "0xf85da12b75fa8f3cfd2a023a695b16a77ad924a183ad81cf60a387d22e51b6c0",
      "blockNumber": "0x8fd38b",
      "gasUsed": "0x33e1f",
      "effectiveGasPrice": "0xa3c21280f",
      "from": "0xf39fd6e51aad88f6f4ce6ab8827279cfffb92266",
      "to": "0x4ed7c70f96b99c776995fb64377f0d4ab3b0e1c1",
      "contractAddress": null,
      "root": "0x0000000000000000000000000000000000000000000000000000000000000000"
    },
    {
      "status": "0x1",
      "cumulativeGasUsed": "0xba0db",
      "logs": [
        {
          "address": "0xc6e7df5e7b4f2a278906862b61205850344d4e7d",
          "topics": [
            "0xddf252ad1be2c89b69c2b068fc378daa952ba7f163c4a11628f55a4df523b3ef",
            "0x000000000000000000000000f39fd6e51aad88f6f4ce6ab8827279cfffb92266",
            "0x0000000000000000000000004ed7c70f96b99c776995fb64377f0d4ab3b0e1c1"
          ],
          "data": "0x0000000000000000000000000000000000000000000000004139c1192c560000",
          "blockHash": "0xf85da12b75fa8f3cfd2a023a695b16a77ad924a183ad81cf60a387d22e51b6c0",
          "blockNumber": "0x8fd38b",
          "blockTimestamp": "0x6632bbe2",
          "transactionHash": "0x7a6e71924cac8702c14a983663c213838c9cd99c669feb4416aad31b848e5464",
          "transactionIndex": "0x4",
          "logIndex": "0x6",
          "removed": false
        },
        {
          "address": "0x4ed7c70f96b99c776995fb64377f0d4ab3b0e1c1",
          "topics": [
            "0x43118103466f8475c26ca895a4fb497bc81164e16090b6c5d8d29bff0b2a068c"
          ],
          "data": "0x00000000000000000000000000000000000000000000000000000000000000033340df27d091e562ec09a44bfb4f0ae3a95353431ff83a7e9968e68580ccf8b000000000000000000000000000000000000000000e6fe9d2f5a39992db931057",
          "blockHash": "0xf85da12b75fa8f3cfd2a023a695b16a77ad924a183ad81cf60a387d22e51b6c0",
          "blockNumber": "0x8fd38b",
          "blockTimestamp": "0x6632bbe2",
          "transactionHash": "0x7a6e71924cac8702c14a983663c213838c9cd99c669feb4416aad31b848e5464",
          "transactionIndex": "0x4",
          "logIndex": "0x7",
          "removed": false
        }
      ],
      "logsBloom": "0x01000000000000000000000000000000000000000000000000000020000000000000000000000000000000800000000000000000000000000000000000000000000000010000000000000008000000000000000000000000000000000000000000000000000000000000000100000000008000000000000000000010000000000000000000000000000000000000000000000000080000000000000000000000000000000000000000000000000000200000000000000000000000001000000000000002000000200000000000100000000000002000000000000000400000000000000000000000000000800000000000000000002000000000000000000000",
      "type": "0x2",
      "transactionHash": "0x7a6e71924cac8702c14a983663c213838c9cd99c669feb4416aad31b848e5464",
      "transactionIndex": "0x4",
      "blockHash": "0xf85da12b75fa8f3cfd2a023a695b16a77ad924a183ad81cf60a387d22e51b6c0",
      "blockNumber": "0x8fd38b",
      "gasUsed": "0x35238",
      "effectiveGasPrice": "0xa3c21280f",
      "from": "0xf39fd6e51aad88f6f4ce6ab8827279cfffb92266",
      "to": "0x4ed7c70f96b99c776995fb64377f0d4ab3b0e1c1",
      "contractAddress": null,
      "root": "0x0000000000000000000000000000000000000000000000000000000000000000"
    },
    {
      "status": "0x1",
      "cumulativeGasUsed": "0xf072c",
      "logs": [
        {
          "address": "0xc6e7df5e7b4f2a278906862b61205850344d4e7d",
          "topics": [
            "0xddf252ad1be2c89b69c2b068fc378daa952ba7f163c4a11628f55a4df523b3ef",
            "0x000000000000000000000000f39fd6e51aad88f6f4ce6ab8827279cfffb92266",
            "0x0000000000000000000000004ed7c70f96b99c776995fb64377f0d4ab3b0e1c1"
          ],
          "data": "0x00000000000000000000000000000000000000000000000053444835ec580000",
          "blockHash": "0xf85da12b75fa8f3cfd2a023a695b16a77ad924a183ad81cf60a387d22e51b6c0",
          "blockNumber": "0x8fd38b",
          "blockTimestamp": "0x6632bbe2",
          "transactionHash": "0x69f922e66c9a779602fa7218b5268db6f994d4bcb2bc48cc4ef32be82de11faf",
          "transactionIndex": "0x5",
          "logIndex": "0x8",
          "removed": false
        },
        {
          "address": "0x4ed7c70f96b99c776995fb64377f0d4ab3b0e1c1",
          "topics": [
            "0x43118103466f8475c26ca895a4fb497bc81164e16090b6c5d8d29bff0b2a068c"
          ],
          "data": "0x00000000000000000000000000000000000000000000000000000000000000043340df27d091e562ec09a44bfb4f0ae3a95353431ff83a7e9968e68580ccf8b000000000000000000000000000000000000000000e8a5010cf2a411214000000",
          "blockHash": "0xf85da12b75fa8f3cfd2a023a695b16a77ad924a183ad81cf60a387d22e51b6c0",
          "blockNumber": "0x8fd38b",
          "blockTimestamp": "0x6632bbe2",
          "transactionHash": "0x69f922e66c9a779602fa7218b5268db6f994d4bcb2bc48cc4ef32be82de11faf",
          "transactionIndex": "0x5",
          "logIndex": "0x9",
          "removed": false
        }
      ],
      "logsBloom": "0x01000000000000000000000000000000000000000000000000000020000000000000000000000000000000800000000000000000000000000000000000000000000000010000000000000008000000000000000000000000000000000000000000000000000000000000000100000000008000000000000000000010000000000000000000000000000000000000000000000000080000000000000000000000000000000000000000000000000000200000000000000000000000001000000000000002000000200000000000100000000000002000000000000000400000000000000000000000000000800000000000000000002000000000000000000000",
      "type": "0x2",
      "transactionHash": "0x69f922e66c9a779602fa7218b5268db6f994d4bcb2bc48cc4ef32be82de11faf",
      "transactionIndex": "0x5",
      "blockHash": "0xf85da12b75fa8f3cfd2a023a695b16a77ad924a183ad81cf60a387d22e51b6c0",
      "blockNumber": "0x8fd38b",
      "gasUsed": "0x36651",
      "effectiveGasPrice": "0xa3c21280f",
      "from": "0xf39fd6e51aad88f6f4ce6ab8827279cfffb92266",
      "to": "0x4ed7c70f96b99c776995fb64377f0d4ab3b0e1c1",
      "contractAddress": null,
      "root": "0x0000000000000000000000000000000000000000000000000000000000000000"
    },
    {
      "status": "0x1",
      "cumulativeGasUsed": "0x12773a",
      "logs": [
        {
          "address": "0xc6e7df5e7b4f2a278906862b61205850344d4e7d",
          "topics": [
            "0xddf252ad1be2c89b69c2b068fc378daa952ba7f163c4a11628f55a4df523b3ef",
            "0x000000000000000000000000f39fd6e51aad88f6f4ce6ab8827279cfffb92266",
            "0x0000000000000000000000004ed7c70f96b99c776995fb64377f0d4ab3b0e1c1"
          ],
          "data": "0x0000000000000000000000000000000000000000000000005a34a38fc00a0000",
          "blockHash": "0xf85da12b75fa8f3cfd2a023a695b16a77ad924a183ad81cf60a387d22e51b6c0",
          "blockNumber": "0x8fd38b",
          "blockTimestamp": "0x6632bbe2",
          "transactionHash": "0xbaf9ed853260863745ecc4452a2f42c520d9ce8a33c21c5433f5dae3f0743c32",
          "transactionIndex": "0x6",
          "logIndex": "0xa",
          "removed": false
        },
        {
          "address": "0x4ed7c70f96b99c776995fb64377f0d4ab3b0e1c1",
          "topics": [
            "0x43118103466f8475c26ca895a4fb497bc81164e16090b6c5d8d29bff0b2a068c"
          ],
          "data": "0x00000000000000000000000000000000000000000000000000000000000000053340df27d091e562ec09a44bfb4f0ae3a95353431ff83a7e9968e68580ccf8b000000000000000000000000000000000000000000e6a7f84a1a23c236d89d89d",
          "blockHash": "0xf85da12b75fa8f3cfd2a023a695b16a77ad924a183ad81cf60a387d22e51b6c0",
          "blockNumber": "0x8fd38b",
          "blockTimestamp": "0x6632bbe2",
          "transactionHash": "0xbaf9ed853260863745ecc4452a2f42c520d9ce8a33c21c5433f5dae3f0743c32",
          "transactionIndex": "0x6",
          "logIndex": "0xb",
          "removed": false
        }
      ],
      "logsBloom": "0x01000000000000000000000000000000000000000000000000000020000000000000000000000000000000800000000000000000000000000000000000000000000000010000000000000008000000000000000000000000000000000000000000000000000000000000000100000000008000000000000000000010000000000000000000000000000000000000000000000000080000000000000000000000000000000000000000000000000000200000000000000000000000001000000000000002000000200000000000100000000000002000000000000000400000000000000000000000000000800000000000000000002000000000000000000000",
      "type": "0x2",
      "transactionHash": "0xbaf9ed853260863745ecc4452a2f42c520d9ce8a33c21c5433f5dae3f0743c32",
      "transactionIndex": "0x6",
      "blockHash": "0xf85da12b75fa8f3cfd2a023a695b16a77ad924a183ad81cf60a387d22e51b6c0",
      "blockNumber": "0x8fd38b",
      "gasUsed": "0x3700e",
      "effectiveGasPrice": "0xa3c21280f",
      "from": "0xf39fd6e51aad88f6f4ce6ab8827279cfffb92266",
      "to": "0x4ed7c70f96b99c776995fb64377f0d4ab3b0e1c1",
      "contractAddress": null,
      "root": "0x0000000000000000000000000000000000000000000000000000000000000000"
    },
    {
      "status": "0x1",
      "cumulativeGasUsed": "0x3b3f5",
      "logs": [
        {
          "address": "0x59b670e9fa9d0a427751af201d676719a970857b",
          "topics": [
            "0xddf252ad1be2c89b69c2b068fc378daa952ba7f163c4a11628f55a4df523b3ef",
            "0x000000000000000000000000f39fd6e51aad88f6f4ce6ab8827279cfffb92266",
            "0x0000000000000000000000004ed7c70f96b99c776995fb64377f0d4ab3b0e1c1"
          ],
          "data": "0x000000000000000000000000000000000000000000000001158e460913d00000",
          "blockHash": "0xf0b39467693de217ea02b8ed9013f1140cdb6f53b3c9b3a71a9765b8bbeed284",
          "blockNumber": "0x8fd38c",
          "blockTimestamp": "0x6632bbe3",
          "transactionHash": "0xb522583a63fc5ad9e711f593437ca0cc216bb84a79c3333ce034466017558611",
          "transactionIndex": "0x0",
          "logIndex": "0x0",
          "removed": false
        },
        {
          "address": "0x4ed7c70f96b99c776995fb64377f0d4ab3b0e1c1",
          "topics": [
            "0x43118103466f8475c26ca895a4fb497bc81164e16090b6c5d8d29bff0b2a068c"
          ],
          "data": "0x0000000000000000000000000000000000000000000000000000000000000006e320641bfc27b3722758d408b80001192b8e6368db7bad74184dac6f88073592000000000000000000000000000000000000000000d711243e08215784000000",
          "blockHash": "0xf0b39467693de217ea02b8ed9013f1140cdb6f53b3c9b3a71a9765b8bbeed284",
          "blockNumber": "0x8fd38c",
          "blockTimestamp": "0x6632bbe3",
          "transactionHash": "0xb522583a63fc5ad9e711f593437ca0cc216bb84a79c3333ce034466017558611",
          "transactionIndex": "0x0",
          "logIndex": "0x1",
          "removed": false
        }
      ],
      "logsBloom": "0x01000000000000000000000000000000000000000000000000000020000000000000000000000000000000000000000000000000000000000000000000000000000000010000000000000008000000000000000008000000000000000000000000000000000000000000000100000000008000000000000000000010000000000000000000000000000000000000000000000000080000000000000000000000000000000000000000000000000000280000000000000000000000001000000000000002000000200000000000020000000000002000000000000000400000000000000000000000000000000000000000000000002000000000000000000000",
      "type": "0x2",
      "transactionHash": "0xb522583a63fc5ad9e711f593437ca0cc216bb84a79c3333ce034466017558611",
      "transactionIndex": "0x0",
      "blockHash": "0xf0b39467693de217ea02b8ed9013f1140cdb6f53b3c9b3a71a9765b8bbeed284",
      "blockNumber": "0x8fd38c",
      "gasUsed": "0x3b3f5",
      "effectiveGasPrice": "0x96d37919b",
      "from": "0xf39fd6e51aad88f6f4ce6ab8827279cfffb92266",
      "to": "0x4ed7c70f96b99c776995fb64377f0d4ab3b0e1c1",
      "contractAddress": null,
      "root": "0x0000000000000000000000000000000000000000000000000000000000000000"
    },
    {
      "status": "0x1",
      "cumulativeGasUsed": "0x70247",
      "logs": [
        {
          "address": "0x59b670e9fa9d0a427751af201d676719a970857b",
          "topics": [
            "0xddf252ad1be2c89b69c2b068fc378daa952ba7f163c4a11628f55a4df523b3ef",
            "0x000000000000000000000000f39fd6e51aad88f6f4ce6ab8827279cfffb92266",
            "0x0000000000000000000000004ed7c70f96b99c776995fb64377f0d4ab3b0e1c1"
          ],
          "data": "0x000000000000000000000000000000000000000000000001314fb37062980000",
          "blockHash": "0xf0b39467693de217ea02b8ed9013f1140cdb6f53b3c9b3a71a9765b8bbeed284",
          "blockNumber": "0x8fd38c",
          "blockTimestamp": "0x6632bbe3",
          "transactionHash": "0x4d9091b589112e68e30726ebbde85544ece2681babc2b8571b51525f231ae519",
          "transactionIndex": "0x1",
          "logIndex": "0x2",
          "removed": false
        },
        {
          "address": "0x4ed7c70f96b99c776995fb64377f0d4ab3b0e1c1",
          "topics": [
            "0x43118103466f8475c26ca895a4fb497bc81164e16090b6c5d8d29bff0b2a068c"
          ],
          "data": "0x0000000000000000000000000000000000000000000000000000000000000007e320641bfc27b3722758d408b80001192b8e6368db7bad74184dac6f88073592000000000000000000000000000000000000000000da132be8f821cee4ba2e8b",
          "blockHash": "0xf0b39467693de217ea02b8ed9013f1140cdb6f53b3c9b3a71a9765b8bbeed284",
          "blockNumber": "0x8fd38c",
          "blockTimestamp": "0x6632bbe3",
          "transactionHash": "0x4d9091b589112e68e30726ebbde85544ece2681babc2b8571b51525f231ae519",
          "transactionIndex": "0x1",
          "logIndex": "0x3",
          "removed": false
        }
      ],
      "logsBloom": "0x01000000000000000000000000000000000000000000000000000020000000000000000000000000000000000000000000000000000000000000000000000000000000010000000000000008000000000000000008000000000000000000000000000000000000000000000100000000008000000000000000000010000000000000000000000000000000000000000000000000080000000000000000000000000000000000000000000000000000280000000000000000000000001000000000000002000000200000000000020000000000002000000000000000400000000000000000000000000000000000000000000000002000000000000000000000",
      "type": "0x2",
      "transactionHash": "0x4d9091b589112e68e30726ebbde85544ece2681babc2b8571b51525f231ae519",
      "transactionIndex": "0x1",
      "blockHash": "0xf0b39467693de217ea02b8ed9013f1140cdb6f53b3c9b3a71a9765b8bbeed284",
      "blockNumber": "0x8fd38c",
      "gasUsed": "0x34e52",
      "effectiveGasPrice": "0x96d37919b",
      "from": "0xf39fd6e51aad88f6f4ce6ab8827279cfffb92266",
      "to": "0x4ed7c70f96b99c776995fb64377f0d4ab3b0e1c1",
      "contractAddress": null,
      "root": "0x0000000000000000000000000000000000000000000000000000000000000000"
    },
    {
      "status": "0x1",
      "cumulativeGasUsed": "0xa5835",
      "logs": [
        {
          "address": "0x59b670e9fa9d0a427751af201d676719a970857b",
          "topics": [
            "0xddf252ad1be2c89b69c2b068fc378daa952ba7f163c4a11628f55a4df523b3ef",
            "0x000000000000000000000000f39fd6e51aad88f6f4ce6ab8827279cfffb92266",
            "0x0000000000000000000000004ed7c70f96b99c776995fb64377f0d4ab3b0e1c1"
          ],
          "data": "0x000000000000000000000000000000000000000000000001236efcbcbb340000",
          "blockHash": "0xf0b39467693de217ea02b8ed9013f1140cdb6f53b3c9b3a71a9765b8bbeed284",
          "blockNumber": "0x8fd38c",
          "blockTimestamp": "0x6632bbe3",
          "transactionHash": "0x931489b32a69d9cd04470185c9097cdd02d548d7aeba96a0d24c31e7c309920a",
          "transactionIndex": "0x2",
          "logIndex": "0x4",
          "removed": false
        },
        {
          "address": "0x4ed7c70f96b99c776995fb64377f0d4ab3b0e1c1",
          "topics": [
            "0x43118103466f8475c26ca895a4fb497bc81164e16090b6c5d8d29bff0b2a068c"
          ],
          "data": "0x0000000000000000000000000000000000000000000000000000000000000008e320641bfc27b3722758d408b80001192b8e6368db7bad74184dac6f88073592000000000000000000000000000000000000000000d0c3bed7e081e37c618618",
          "blockHash": "0xf0b39467693de217ea02b8ed9013f1140cdb6f53b3c9b3a71a9765b8bbeed284",
          "blockNumber": "0x8fd38c",
          "blockTimestamp": "0x6632bbe3",
          "transactionHash": "0x931489b32a69d9cd04470185c9097cdd02d548d7aeba96a0d24c31e7c309920a",
          "transactionIndex": "0x2",
          "logIndex": "0x5",
          "removed": false
        }
      ],
      "logsBloom": "0x01000000000000000000000000000000000000000000000000000020000000000000000000000000000000000000000000000000000000000000000000000000000000010000000000000008000000000000000008000000000000000000000000000000000000000000000100000000008000000000000000000010000000000000000000000000000000000000000000000000080000000000000000000000000000000000000000000000000000280000000000000000000000001000000000000002000000200000000000020000000000002000000000000000400000000000000000000000000000000000000000000000002000000000000000000000",
      "type": "0x2",
      "transactionHash": "0x931489b32a69d9cd04470185c9097cdd02d548d7aeba96a0d24c31e7c309920a",
      "transactionIndex": "0x2",
      "blockHash": "0xf0b39467693de217ea02b8ed9013f1140cdb6f53b3c9b3a71a9765b8bbeed284",
      "blockNumber": "0x8fd38c",
      "gasUsed": "0x355ee",
      "effectiveGasPrice": "0x96d37919b",
      "from": "0xf39fd6e51aad88f6f4ce6ab8827279cfffb92266",
      "to": "0x4ed7c70f96b99c776995fb64377f0d4ab3b0e1c1",
      "contractAddress": null,
      "root": "0x0000000000000000000000000000000000000000000000000000000000000000"
    },
    {
      "status": "0x1",
      "cumulativeGasUsed": "0xdae23",
      "logs": [
        {
          "address": "0x59b670e9fa9d0a427751af201d676719a970857b",
          "topics": [
            "0xddf252ad1be2c89b69c2b068fc378daa952ba7f163c4a11628f55a4df523b3ef",
            "0x000000000000000000000000f39fd6e51aad88f6f4ce6ab8827279cfffb92266",
            "0x0000000000000000000000004ed7c70f96b99c776995fb64377f0d4ab3b0e1c1"
          ],
          "data": "0x0000000000000000000000000000000000000000000000015af1d78b58c40000",
          "blockHash": "0xf0b39467693de217ea02b8ed9013f1140cdb6f53b3c9b3a71a9765b8bbeed284",
          "blockNumber": "0x8fd38c",
          "blockTimestamp": "0x6632bbe3",
          "transactionHash": "0xd11b320a38eef2e34411670e19a2b3a1935d54324346140907771f768dcf602e",
          "transactionIndex": "0x3",
          "logIndex": "0x6",
          "removed": false
        },
        {
          "address": "0x4ed7c70f96b99c776995fb64377f0d4ab3b0e1c1",
          "topics": [
            "0x43118103466f8475c26ca895a4fb497bc81164e16090b6c5d8d29bff0b2a068c"
          ],
          "data": "0x0000000000000000000000000000000000000000000000000000000000000009e320641bfc27b3722758d408b80001192b8e6368db7bad74184dac6f88073592000000000000000000000000000000000000000000d073135f91b9ea7c000000",
          "blockHash": "0xf0b39467693de217ea02b8ed9013f1140cdb6f53b3c9b3a71a9765b8bbeed284",
          "blockNumber": "0x8fd38c",
          "blockTimestamp": "0x6632bbe3",
          "transactionHash": "0xd11b320a38eef2e34411670e19a2b3a1935d54324346140907771f768dcf602e",
          "transactionIndex": "0x3",
          "logIndex": "0x7",
          "removed": false
        }
      ],
      "logsBloom": "0x01000000000000000000000000000000000000000000000000000020000000000000000000000000000000000000000000000000000000000000000000000000000000010000000000000008000000000000000008000000000000000000000000000000000000000000000100000000008000000000000000000010000000000000000000000000000000000000000000000000080000000000000000000000000000000000000000000000000000280000000000000000000000001000000000000002000000200000000000020000000000002000000000000000400000000000000000000000000000000000000000000000002000000000000000000000",
      "type": "0x2",
      "transactionHash": "0xd11b320a38eef2e34411670e19a2b3a1935d54324346140907771f768dcf602e",
      "transactionIndex": "0x3",
      "blockHash": "0xf0b39467693de217ea02b8ed9013f1140cdb6f53b3c9b3a71a9765b8bbeed284",
      "blockNumber": "0x8fd38c",
      "gasUsed": "0x355ee",
      "effectiveGasPrice": "0x96d37919b",
      "from": "0xf39fd6e51aad88f6f4ce6ab8827279cfffb92266",
      "to": "0x4ed7c70f96b99c776995fb64377f0d4ab3b0e1c1",
      "contractAddress": null,
      "root": "0x0000000000000000000000000000000000000000000000000000000000000000"
    },
    {
      "status": "0x1",
      "cumulativeGasUsed": "0x110411",
      "logs": [
        {
          "address": "0x59b670e9fa9d0a427751af201d676719a970857b",
          "topics": [
            "0xddf252ad1be2c89b69c2b068fc378daa952ba7f163c4a11628f55a4df523b3ef",
            "0x000000000000000000000000f39fd6e51aad88f6f4ce6ab8827279cfffb92266",
            "0x0000000000000000000000004ed7c70f96b99c776995fb64377f0d4ab3b0e1c1"
          ],
          "data": "0x0000000000000000000000000000000000000000000000019274b259f6540000",
          "blockHash": "0xf0b39467693de217ea02b8ed9013f1140cdb6f53b3c9b3a71a9765b8bbeed284",
          "blockNumber": "0x8fd38c",
          "blockTimestamp": "0x6632bbe3",
          "transactionHash": "0x3e7406408993e83419415296f6190913b87760f547804708e94e19c46b7d2d5e",
          "transactionIndex": "0x4",
          "logIndex": "0x8",
          "removed": false
        },
        {
          "address": "0x4ed7c70f96b99c776995fb64377f0d4ab3b0e1c1",
          "topics": [
            "0x43118103466f8475c26ca895a4fb497bc81164e16090b6c5d8d29bff0b2a068c"
          ],
          "data": "0x000000000000000000000000000000000000000000000000000000000000000ae320641bfc27b3722758d408b80001192b8e6368db7bad74184dac6f88073592000000000000000000000000000000000000000000d038a8dc4fd9a8ee7b9611",
          "blockHash": "0xf0b39467693de217ea02b8ed9013f1140cdb6f53b3c9b3a71a9765b8bbeed284",
          "blockNumber": "0x8fd38c",
          "blockTimestamp": "0x6632bbe3",
          "transactionHash": "0x3e7406408993e83419415296f6190913b87760f547804708e94e19c46b7d2d5e",
          "transactionIndex": "0x4",
          "logIndex": "0x9",
          "removed": false
        }
      ],
      "logsBloom": "0x01000000000000000000000000000000000000000000000000000020000000000000000000000000000000000000000000000000000000000000000000000000000000010000000000000008000000000000000008000000000000000000000000000000000000000000000100000000008000000000000000000010000000000000000000000000000000000000000000000000080000000000000000000000000000000000000000000000000000280000000000000000000000001000000000000002000000200000000000020000000000002000000000000000400000000000000000000000000000000000000000000000002000000000000000000000",
      "type": "0x2",
      "transactionHash": "0x3e7406408993e83419415296f6190913b87760f547804708e94e19c46b7d2d5e",
      "transactionIndex": "0x4",
      "blockHash": "0xf0b39467693de217ea02b8ed9013f1140cdb6f53b3c9b3a71a9765b8bbeed284",
      "blockNumber": "0x8fd38c",
      "gasUsed": "0x355ee",
      "effectiveGasPrice": "0x96d37919b",
      "from": "0xf39fd6e51aad88f6f4ce6ab8827279cfffb92266",
      "to": "0x4ed7c70f96b99c776995fb64377f0d4ab3b0e1c1",
      "contractAddress": null,
      "root": "0x0000000000000000000000000000000000000000000000000000000000000000"
    }
  ],
  "libraries": [],
  "pending": [],
  "returns": {},
  "timestamp": 1714694818,
  "chain": 7700,
  "commit": "1e415e5"
}