{
  "transactions": [
    {
      "hash": "0x89647a75efd1234e009b176816c9dc3f33bb21b0376d015cdbc68fc832a1495c",
      "transactionType": "CREATE",
      "contractName": "ERC20Mock",
      "contractAddress": "0xc6e7df5e7b4f2a278906862b61205850344d4e7d",
      "function": null,
      "arguments": null,
      "transaction": {
        "from": "0xf39fd6e51aad88f6f4ce6ab8827279cfffb92266",
        "gas": "0xabceb",
        "value": "0x0",
        "input": "0x608060405234801561001057600080fd5b506040518060400160405280600981526020016845524332304d6f636b60b81b815250604051806040016040528060048152602001634532304d60e01b815250816003908161005f9190610115565b50600461006c8282610115565b5050506101d4565b634e487b7160e01b600052604160045260246000fd5b600181811c9082168061009e57607f821691505b6020821081036100be57634e487b7160e01b600052602260045260246000fd5b50919050565b601f821115610110576000816000526020600020601f850160051c810160208610156100ed5750805b601f850160051c820191505b8181101561010c578281556001016100f9565b5050505b505050565b81516001600160401b0381111561012e5761012e610074565b6101428161013c845461008a565b846100c4565b602080601f831160018114610177576000841561015f5750858301515b600019600386901b1c1916600185901b17855561010c565b600085815260208120601f198616915b828110156101a657888601518255948401946001909101908401610187565b50858210156101c45787850151600019600388901b60f8161c191681555b5050505050600190811b01905550565b6107e3806101e36000396000f3fe608060405234801561001057600080fd5b50600436106100a95760003560e01c806340c10f191161007157806340c10f191461012357806370a082311461013857806395d89b41146101615780639dc29fac14610169578063a9059cbb1461017c578063dd62ed3e1461018f57600080fd5b806306fdde03146100ae578063095ea7b3146100cc57806318160ddd146100ef57806323b872dd14610101578063313ce56714610114575b600080fd5b6100b66101c8565b6040516100c3919061062c565b60405180910390f35b6100df6100da366004610697565b61025a565b60405190151581526020016100c3565b6002545b6040519081526020016100c3565b6100df61010f3660046106c1565b610274565b604051601281526020016100c3565b610136610131366004610697565b610298565b005b6100f36101463660046106fd565b6001600160a01b031660009081526020819052604090205490565b6100b66102a6565b610136610177366004610697565b6102b5565b6100df61018a366004610697565b6102bf565b6100f361019d36600461071f565b6001600160a01b03918216600090815260016020908152604080832093909416825291909152205490565b6060600380546101d790610752565b80601f016020809104026020016040519081016040528092919081815260200182805461020390610752565b80156102505780601f1061022557610100808354040283529160200191610250565b820191906000526020600020905b81548152906001019060200180831161023357829003601f168201915b5050505050905090565b6000336102688185856102cd565b60019150505b92915050565b6000336102828582856102df565b61028d858585610362565b506001949350505050565b6102a282826103c1565b5050565b6060600480546101d790610752565b6102a282826103f7565b600033610268818585610362565b6102da838383600161042d565b505050565b6001600160a01b03838116600090815260016020908152604080832093861683529290522054600019811461035c578181101561034d57604051637dc7a0d960e11b81526001600160a01b038416600482015260248101829052604481018390526064015b60405180910390fd5b61035c8484848403600061042d565b50505050565b6001600160a01b03831661038c57604051634b637e8f60e11b815260006004820152602401610344565b6001600160a01b0382166103b65760405163ec442f0560e01b815260006004820152602401610344565b6102da838383610502565b6001600160a01b0382166103eb5760405163ec442f0560e01b815260006004820152602401610344565b6102a260008383610502565b6001600160a01b03821661042157604051634b637e8f60e11b815260006004820152602401610344565b6102a282600083610502565b6001600160a01b0384166104575760405163e602df0560e01b815260006004820152602401610344565b6001600160a01b03831661048157604051634a1406b160e11b815260006004820152602401610344565b6001600160a01b038085166000908152600160209081526040808320938716835292905220829055801561035c57826001600160a01b0316846001600160a01b03167f8c5be1e5ebec7d5bd14f71427d1e84f3dd0314c0f7b2291e5b200ac8c7c3b925846040516104f491815260200190565b60405180910390a350505050565b6001600160a01b03831661052d578060026000828254610522919061078c565b9091555061059f9050565b6001600160a01b038316600090815260208190526040902054818110156105805760405163391434e360e21b81526001600160a01b03851660048201526024810182905260448101839052606401610344565b6001600160a01b03841660009081526020819052604090209082900390555b6001600160a01b0382166105bb576002805482900390556105da565b6001600160a01b03821660009081526020819052604090208054820190555b816001600160a01b0316836001600160a01b03167fddf252ad1be2c89b69c2b068fc378daa952ba7f163c4a11628f55a4df523b3ef8360405161061f91815260200190565b60405180910390a3505050565b60006020808352835180602085015260005b8181101561065a5785810183015185820160400152820161063e565b506000604082860101526040601f19601f8301168501019250505092915050565b80356001600160a01b038116811461069257600080fd5b919050565b600080604083850312156106aa57600080fd5b6106b38361067b565b946020939093013593505050565b6000806000606084860312156106d657600080fd5b6106df8461067b565b92506106ed6020850161067b565b9150604084013590509250925092565b60006020828403121561070f57600080fd5b6107188261067b565b9392505050565b6000806040838503121561073257600080fd5b61073b8361067b565b91506107496020840161067b565b90509250929050565b600181811c9082168061076657607f821691505b60208210810361078657634e487b7160e01b600052602260045260246000fd5b50919050565b8082018082111561026e57634e487b7160e01b600052601160045260246000fdfea26469706673582212206b8b44da210be7472b831dcd4c003bd1f09c3d9dc7f9b1d50dafa1709f749a1564736f6c63430008180033",
        "nonce": "0x14",
        "chainId": "0x1e14"
      },
      "additionalContracts": [],
      "isFixedGasLimit": false
    },
    {
      "hash": "0x56511ae2e172e25dce76144adfd2f4adf13104801ce1d10fb9cc559649c76876",
      "transactionType": "CREATE",
      "contractName": "ERC20Mock",
      "contractAddress": "0x59b670e9fa9d0a427751af201d676719a970857b",
      "function": null,
      "arguments": null,
      "transaction": {
        "from": "0xf39fd6e51aad88f6f4ce6ab8827279cfffb92266",
        "gas": "0xabceb",
        "value": "0x0",
        "input": "0x608060405234801561001057600080fd5b506040518060400160405280600981526020016845524332304d6f636b60b81b815250604051806040016040528060048152602001634532304d60e01b815250816003908161005f9190610115565b50600461006c8282610115565b5050506101d4565b634e487b7160e01b600052604160045260246000fd5b600181811c9082168061009e57607f821691505b6020821081036100be57634e487b7160e01b600052602260045260246000fd5b50919050565b601f821115610110576000816000526020600020601f850160051c810160208610156100ed5750805b601f850160051c820191505b8181101561010c578281556001016100f9565b5050505b505050565b81516001600160401b0381111561012e5761012e610074565b6101428161013c845461008a565b846100c4565b602080601f831160018114610177576000841561015f5750858301515b600019600386901b1c1916600185901b17855561010c565b600085815260208120601f198616915b828110156101a657888601518255948401946001909101908401610187565b50858210156101c45787850151600019600388901b60f8161c191681555b5050505050600190811b01905550565b6107e3806101e36000396000f3fe608060405234801561001057600080fd5b50600436106100a95760003560e01c806340c10f191161007157806340c10f191461012357806370a082311461013857806395d89b41146101615780639dc29fac14610169578063a9059cbb1461017c578063dd62ed3e1461018f57600080fd5b806306fdde03146100ae578063095ea7b3146100cc57806318160ddd146100ef57806323b872dd14610101578063313ce56714610114575b600080fd5b6100b66101c8565b6040516100c3919061062c565b60405180910390f35b6100df6100da366004610697565b61025a565b60405190151581526020016100c3565b6002545b6040519081526020016100c3565b6100df61010f3660046106c1565b610274565b604051601281526020016100c3565b610136610131366004610697565b610298565b005b6100f36101463660046106fd565b6001600160a01b031660009081526020819052604090205490565b6100b66102a6565b610136610177366004610697565b6102b5565b6100df61018a366004610697565b6102bf565b6100f361019d36600461071f565b6001600160a01b03918216600090815260016020908152604080832093909416825291909152205490565b6060600380546101d790610752565b80601f016020809104026020016040519081016040528092919081815260200182805461020390610752565b80156102505780601f1061022557610100808354040283529160200191610250565b820191906000526020600020905b81548152906001019060200180831161023357829003601f168201915b5050505050905090565b6000336102688185856102cd565b60019150505b92915050565b6000336102828582856102df565b61028d858585610362565b506001949350505050565b6102a282826103c1565b5050565b6060600480546101d790610752565b6102a282826103f7565b600033610268818585610362565b6102da838383600161042d565b505050565b6001600160a01b03838116600090815260016020908152604080832093861683529290522054600019811461035c578181101561034d57604051637dc7a0d960e11b81526001600160a01b038416600482015260248101829052604481018390526064015b60405180910390fd5b61035c8484848403600061042d565b50505050565b6001600160a01b03831661038c57604051634b637e8f60e11b815260006004820152602401610344565b6001600160a01b0382166103b65760405163ec442f0560e01b815260006004820152602401610344565b6102da838383610502565b6001600160a01b0382166103eb5760405163ec442f0560e01b815260006004820152602401610344565b6102a260008383610502565b6001600160a01b03821661042157604051634b637e8f60e11b815260006004820152602401610344565b6102a282600083610502565b6001600160a01b0384166104575760405163e602df0560e01b815260006004820152602401610344565b6001600160a01b03831661048157604051634a1406b160e11b815260006004820152602401610344565b6001600160a01b038085166000908152600160209081526040808320938716835292905220829055801561035c57826001600160a01b0316846001600160a01b03167f8c5be1e5ebec7d5bd14f71427d1e84f3dd0314c0f7b2291e5b200ac8c7c3b925846040516104f491815260200190565b60405180910390a350505050565b6001600160a01b03831661052d578060026000828254610522919061078c565b9091555061059f9050565b6001600160a01b038316600090815260208190526040902054818110156105805760405163391434e360e21b81526001600160a01b03851660048201526024810182905260448101839052606401610344565b6001600160a01b03841660009081526020819052604090209082900390555b6001600160a01b0382166105bb576002805482900390556105da565b6001600160a01b03821660009081526020819052604090208054820190555b816001600160a01b0316836001600160a01b03167fddf252ad1be2c89b69c2b068fc378daa952ba7f163c4a11628f55a4df523b3ef8360405161061f91815260200190565b60405180910390a3505050565b60006020808352835180602085015260005b8181101561065a5785810183015185820160400152820161063e565b506000604082860101526040601f19601f8301168501019250505092915050565b80356001600160a01b038116811461069257600080fd5b919050565b600080604083850312156106aa57600080fd5b6106b38361067b565b946020939093013593505050565b6000806000606084860312156106d657600080fd5b6106df8461067b565b92506106ed6020850161067b565b9150604084013590509250925092565b60006020828403121561070f57600080fd5b6107188261067b565b9392505050565b6000806040838503121561073257600080fd5b61073b8361067b565b91506107496020840161067b565b90509250929050565b600181811c9082168061076657607f821691505b60208210810361078657634e487b7160e01b600052602260045260246000fd5b50919050565b8082018082111561026e57634e487b7160e01b600052601160045260246000fdfea26469706673582212206b8b44da210be7472b831dcd4c003bd1f09c3d9dc7f9b1d50dafa1709f749a1564736f6c63430008180033",
        "nonce": "0x15",
        "chainId": "0x1e14"
      },
      "additionalContracts": [],
      "isFixedGasLimit": false
    },
    {
      "hash": "0x91121ffd7a3a69eced14efc33b225eef759b1b694789e8438bd627558be9e34b",
      "transactionType": "CREATE",
      "contractName": "PublicMarket",
      "contractAddress": "0x4ed7c70f96b99c776995fb64377f0d4ab3b0e1c1",
      "function": null,
      "arguments": null,
      "transaction": {
        "from": "0xf39fd6e51aad88f6f4ce6ab8827279cfffb92266",
        "gas": "0x1f4270",
        "value": "0x0",
        "input": "0x6080604052600160005534801561001557600080fd5b50611b26806100256000396000f3fe608060405234801561001057600080fd5b50600436106100a95760003560e01c8063714af34b11610071578063714af34b1461012f57806376f26ef8146101425780638a72ea6a14610163578063adb5198014610219578063c77e9a0214610244578063ef706adf1461025757600080fd5b8063082c3bc4146100ae5780630ff4c916146100d4578063119ff51d146100f457806351cff8d914610107578063658e48211461011c575b600080fd5b6100c16100bc3660046117db565b61026a565b6040519081526020015b60405180910390f35b6100c16100e236600461181f565b60009081526002602052604090205490565b6100c16101023660046117db565b61028a565b61011a610115366004611838565b610469565b005b61011a61012a366004611853565b610476565b6100c161013d3660046118c8565b6104c0565b6101556101503660046118fb565b6104fc565b6040516100cb929190611973565b6101cd61017136600461181f565b6002602081905260009182526040909120805460018201549282015460039092015490926001600160601b038116926001600160a01b03600160601b9092048216929082169181169065ffffffffffff600160a01b9091041686565b604080519687526001600160601b0390951660208701526001600160a01b0393841694860194909452908216606085015216608083015265ffffffffffff1660a082015260c0016100cb565b6100c16102273660046118c8565b600160209081526000928352604080842090915290825290205481565b6100c16102523660046119a1565b610663565b61011a61026536600461181f565b610684565b600061027f8585858565ffffffffffff6107b5565b90505b949350505050565b6000836000036102ad57604051631771cc0160e11b815260040160405180910390fd5b816000036102ce57604051631771cc0160e11b815260040160405180910390fd5b6001600160a01b0385166102f557604051631771cc0160e11b815260040160405180910390fd5b6001600160a01b03831661031c57604051631771cc0160e11b815260040160405180910390fd5b826001600160a01b0316856001600160a01b03160361034e57604051631771cc0160e11b815260040160405180910390fd5b600061035b868633610986565b905060006103698483610a8f565b905061271081101561038e576040516363c8f3fb60e01b815260040160405180910390fd5b60006040518060c001604052808381526020016103aa85610aa8565b6001600160601b031681526001600160a01b03808b16602083015288166040820152336060820152600060809091018190529091506103e882610ac1565b905085810361040a57604051635876bf8160e01b815260040160405180910390fd5b6104143388610b60565b801561045d573360009081526001602090815260408083206001600160a01b038d1684529091528120805483929061044d908490611a05565b9091555061045d9050338a610b60565b98975050505050505050565b6104733382610b60565b50565b8060005b818110156104ba576104b23385858481811061049857610498611a18565b90506020020160208101906104ad9190611838565b610b60565b60010161047a565b50505050565b604080516001600160a01b0384811660208084019190915290841682840152825180830384018152606090920190925280519101205b92915050565b606080600061050b86866104c0565b60008181526003602052604090208054919250908086101561052a5750845b60008167ffffffffffffffff81111561054557610545611a2e565b60405190808252806020026020018201604052801561056e578160200160208202803683370190505b50905060008267ffffffffffffffff81111561058c5761058c611a2e565b6040519080825280602002602001820160405280156105b5578160200160208202803683370190505b5090506000805b84811015610650576105d086836001610bc5565b60008181526002602052604090206001015486519194506001600160601b0316915085908390811061060457610604611a18565b60200260200101818152505061062b60026000848152602001908152602001600020610c08565b83828151811061063d5761063d611a18565b60209081029190910101526001016105bc565b509196509450505050505b935093915050565b600061067a8686868661067587610c32565b6107b5565b9695505050505050565b600081815260026020526040902060038101546001600160a01b031633146106bf57604051630f1f82e960e31b815260040160405180910390fd5b600181015460028201546001600160a01b03600160601b9092048216916000916106eb918491166104c0565b600180850154336000908152602092835260408082206001600160a01b038816835290935291822080549394506001600160601b0390911692909190610732908490611a05565b9091555050600081815260036020526040902084906107519082610c55565b1461076f5760405163c5723b5160e01b815260040160405180910390fd5b600084815260026020819052604082208281556001810192909255810180546001600160a01b031916905560030180546001600160d01b03191690556104ba3383610b60565b6000846000036107d857604051631771cc0160e11b815260040160405180910390fd5b826000036107f957604051631771cc0160e11b815260040160405180910390fd5b6001600160a01b03861661082057604051631771cc0160e11b815260040160405180910390fd5b6001600160a01b03841661084757604051631771cc0160e11b815260040160405180910390fd5b836001600160a01b0316866001600160a01b03160361087957604051631771cc0160e11b815260040160405180910390fd5b428265ffffffffffff16116108a157604051631771cc0160e11b815260040160405180910390fd5b60006108ae878733610986565b905060006108bc8583610a8f565b90506127108110156108e1576040516363c8f3fb60e01b815260040160405180910390fd5b60006040518060c001604052808381526020016108fd85610aa8565b6001600160601b031681526001600160a01b03808c1660208301528916604082015233606082015265ffffffffffff87166080909101529050600061094182610ac1565b90506000811561096e5761095482610aa8565b6001600160601b0316602084015261096b83610cef565b90505b610978338a610b60565b9a9950505050505050505050565b6040516370a0823160e01b8152306004820181905260009182906001600160a01b038716906370a0823190602401602060405180830381865afa1580156109d1573d6000803e3d6000fd5b505050506040513d601f19601f820116820180604052508101906109f59190611a44565b9050610a0c6001600160a01b038716858488610e8a565b6040516370a0823160e01b81526001600160a01b0383811660048301528291908816906370a0823190602401602060405180830381865afa158015610a55573d6000803e3d6000fd5b505050506040513d601f19601f82011682018060405250810190610a799190611a44565b610a839190611a5d565b925050505b9392505050565b6000610a88836b033b2e3c9fd0803ce800000084610ef1565b6000600160601b8210610abd57610abd610fb5565b5090565b600080610ad683604001518460600151610fc3565b60208401519091506001600160601b0316600060015b8015610b1357610b0784848860000151858a60400151610fcf565b90945092509050610aec565b8115610b565733600090815260016020908152604080832060608a01516001600160a01b0316845290915281208054849290610b50908490611a05565b90915550505b5090949350505050565b6001600160a01b038083166000908152600160209081526040808320938516835292905220548015610bc0576001600160a01b03808416600090815260016020908152604080832093861680845293909152812055610bc090848361124b565b505050565b600080610bd2858561127c565b610be15750600090508061065b565b5050600082815260018481016020908152604080842085151585529091529091205461065b565b600181015481546000916104f691906001600160601b03166b033b2e3c9fd0803ce8000000610ef1565b600066010000000000008210610c4a57610c4a610fb5565b5064ffffffffff1690565b6000811580610c6b5750610c69838361127c565b155b15610c78575060006104f6565b600082815260018481016020908152604080842084805290915280832054828452922054610caa9286929091906112f1565b60008281526001848101602090815260408084208480529091528083208390558183528220829055845490918591610ce3908490611a5d565b90915550919392505050565b60808101516000906001600160a01b0316610d395760405162461bcd60e51b81526020600482015260056024820152640aad040ded60db1b60448201526064015b60405180910390fd5b6000805490819080610d4a83611a70565b909155505060008181526002602081815260408084208751815591870151908701516001600160a01b03808216600160601b026001600160601b03909316929092176001840155606088015193830180548584166001600160a01b031990911617905560808801516003909301805460a08a015165ffffffffffff16600160a01b026001600160d01b0319909116949093169390931791909117909155610df0916104c0565b6000818152600360205260408120865192935091610e119083903090611326565b9050610e1e8282866113f5565b610e3e57604051630e7afd5760e11b815260048101829052602401610d30565b8551604080518681526020810186905280820192909252517f43118103466f8475c26ca895a4fb497bc81164e16090b6c5d8d29bff0b2a068c9181900360600190a15091949350505050565b6040516001600160a01b0384811660248301528381166044830152606482018390526104ba9186918216906323b872dd906084015b604051602081830303815290604052915060e01b6020820180516001600160e01b038381831617835250505050611404565b6000838302816000198587098281108382030391505080600003610f2857838281610f1e57610f1e611a89565b0492505050610a88565b808411610f485760405163227bc15360e01b815260040160405180910390fd5b6000848688096000868103871696879004966002600389028118808a02820302808a02820302808a02820302808a02820302808a02820302808a02909103029181900381900460010186841190950394909402919094039290920491909117919091029150509392505050565b6335278d126000526004601cfd5b6000610a8882846104c0565b6000858152600360205260408120819081908190610fef90826001610bc5565b9150508060000361100a576000888793509350935050611240565b600081815260026020526040902061102381838c611467565b61103857600189889450945094505050611240565b87611042826114a3565b101561105957600089889450945094505050611240565b60008961106583610c08565b111561116c57611075828b6114c1565b600183015490915061109a906110959083906001600160601b0316611a5d565b610aa8565b6001830180546bffffffffffffffffffffffff19166001600160601b03929092169190911790556110cb8189611a05565b60038301546001600160a01b039081166000908152600160209081526040808320938c1683529290529081208054929a508c9290919061110c908490611a05565b90915550506003820154604080516001600160a01b03928316815291891660208301527f88f2b86ac62356711c096194cb8bcc4996fecfc20017ecedc832fa22522ffd64910160405180910390a160008089955095509550505050611240565b61117582610c08565b6001830154909150611190906001600160601b031689611a05565b60038301546001600160a01b039081166000908152600160209081526040808320938c1683529290529081208054929a5083929091906111d1908490611a05565b90915550506003820154604080516001600160a01b03928316815291891660208301527f88f2b86ac62356711c096194cb8bcc4996fecfc20017ecedc832fa22522ffd64910160405180910390a16112298b846114df565b6001611235828c611a5d565b899550955095505050505b955095509592505050565b6040516001600160a01b03838116602483015260448201839052610bc091859182169063a9059cbb90606401610ebf565b600081815260018301602090815260408083208380529091528120541580156112bf57506000828152600180850160209081526040808420928452919052902054155b156112e95750600080805260018084016020908152604080842092845291905290205481146104f6565b5060016104f6565b600082815260019094016020818152604080872093158088529382528087208690559486529081528385209115855252912055565b6000611330845490565b60000361133f57506000610a88565b600061134e8560006001610bc5565b9150505b80158015906113ce57506040516307fa648b60e11b8152600481018290526001906001600160a01b03861690630ff4c91690602401602060405180830381865afa1580156113a4573d6000803e3d6000fd5b505050506040513d601f19601f820116820180604052508101906113c89190611a44565b84111514155b15610282576000908152600180860160209081526040808420928452919052902054611352565b60006102828484846000611536565b60006114196001600160a01b038416836115bf565b9050805160001415801561143e57508080602001905181019061143c9190611a9f565b155b15610bc057604051635274afe760e01b81526001600160a01b0384166004820152602401610d30565b600383015460009042600160a01b90910465ffffffffffff161015611499576114918484846115cd565b506000610a88565b5060019392505050565b80546000906104f6906b033b2e3c9fd0803ce8000000908190610ef1565b8154600090610a889083906b033b2e3c9fd0803ce800000090610ef1565b60008281526003602052604090206114f69061167d565b50600090815260026020819052604082208281556001810192909255810180546001600160a01b031916905560030180546001600160d01b031916905550565b6000611542858461127c565b1580156115545750611554858561127c565b156115b457600084815260018601602090815260408083208515158452909152902054611583868686866112f1565b61158f868583866112f1565b60018660000160008282546115a49190611a05565b9091555060019250610282915050565b506000949350505050565b6060610a888383600061168a565b60018084015460038501546001600160a01b03908116600090815260209384526040808220600160601b8504909316825291909352822080546001600160601b0390921692909161161f908490611a05565b9091555050600081815260036020526040902061163c9083610c55565b5050600090815260026020819052604082208281556001810192909255810180546001600160a01b031916905560030180546001600160d01b031916905550565b60006104f682600161171d565b6060814710156116af5760405163cd78605960e01b8152306004820152602401610d30565b600080856001600160a01b031684866040516116cb9190611ac1565b60006040518083038185875af1925050503d8060008114611708576040519150601f19603f3d011682016040523d82523d6000602084013e61170d565b606091505b5091509150610a8386838361173a565b60008061172c84600085610bc5565b915061028290508482610c55565b60608261174f5761174a82611796565b610a88565b815115801561176657506001600160a01b0384163b155b1561178f57604051639996b31560e01b81526001600160a01b0385166004820152602401610d30565b5080610a88565b8051156117a65780518082602001fd5b604051630a12f52160e11b815260040160405180910390fd5b80356001600160a01b03811681146117d657600080fd5b919050565b600080600080608085870312156117f157600080fd5b6117fa856117bf565b93506020850135925061180f604086016117bf565b9396929550929360600135925050565b60006020828403121561183157600080fd5b5035919050565b60006020828403121561184a57600080fd5b610a88826117bf565b6000806020838503121561186657600080fd5b823567ffffffffffffffff8082111561187e57600080fd5b818501915085601f83011261189257600080fd5b8135818111156118a157600080fd5b8660208260051b85010111156118b657600080fd5b60209290920196919550909350505050565b600080604083850312156118db57600080fd5b6118e4836117bf565b91506118f2602084016117bf565b90509250929050565b60008060006060848603121561191057600080fd5b611919846117bf565b9250611927602085016117bf565b9150604084013590509250925092565b60008151808452602080850194506020840160005b838110156119685781518752958201959082019060010161194c565b509495945050505050565b6040815260006119866040830185611937565b82810360208401526119988185611937565b95945050505050565b600080600080600060a086880312156119b957600080fd5b6119c2866117bf565b9450602086013593506119d7604087016117bf565b94979396509394606081013594506080013592915050565b634e487b7160e01b600052601160045260246000fd5b808201808211156104f6576104f66119ef565b634e487b7160e01b600052603260045260246000fd5b634e487b7160e01b600052604160045260246000fd5b600060208284031215611a5657600080fd5b5051919050565b818103818111156104f6576104f66119ef565b600060018201611a8257611a826119ef565b5060010190565b634e487b7160e01b600052601260045260246000fd5b600060208284031215611ab157600080fd5b81518015158114610a8857600080fd5b6000825160005b81811015611ae25760208186018101518583015201611ac8565b50600092019182525091905056fea26469706673582212209cb8a5c9207f1e5c61e813fedc061e9827a94cf90233ec57641dde96add58c4f64736f6c63430008180033",
        "nonce": "0x16",
        "chainId": "0x1e14"
      },
      "additionalContracts": [],
      "isFixedGasLimit": false
    },
    {
      "hash": "0x14ed3d8fab83b589db86c034d19a9719dfd51635716f020eb9c7b9a8f53e33e9",
      "transactionType": "CALL",
      "contractName": "ERC20Mock",
      "contractAddress": "0xc6e7df5e7b4f2a278906862b61205850344d4e7d",
      "function": "mint(address,uint256)",
      "arguments": [
        "0xf39Fd6e51aad88F6F4ce6aB8827279cffFb92266",
        "1000000000000000000000000"
      ],
      "transaction": {
        "from": "0xf39fd6e51aad88f6f4ce6ab8827279cfffb92266",
        "to": "0xc6e7df5e7b4f2a278906862b61205850344d4e7d",
        "gas": "0x186f3",
        "value": "0x0",
        "input": "0x40c10f19000000000000000000000000f39fd6e51aad88f6f4ce6ab8827279cfffb9226600000000000000000000000000000000000000000000d3c21bcecceda1000000",
        "nonce": "0x17",
        "chainId": "0x1e14"
      },
      "additionalContracts": [],
      "isFixedGasLimit": false
    },
    {
      "hash": "0x327eca42f9a481f68811a74f683d46acf6ddde27d7502744e86a5545c5109334",
      "transactionType": "CALL",
      "contractName": "ERC20Mock",
      "contractAddress": "0x59b670e9fa9d0a427751af201d676719a970857b",
      "function": "mint(address,uint256)",
      "arguments": [
        "0xf39Fd6e51aad88F6F4ce6aB8827279cffFb92266",
        "1000000000000000000000000"
      ],
      "transaction": {
        "from": "0xf39fd6e51aad88f6f4ce6ab8827279cfffb92266",
        "to": "0x59b670e9fa9d0a427751af201d676719a970857b",
        "gas": "0x186f3",
        "value": "0x0",
        "input": "0x40c10f19000000000000000000000000f39fd6e51aad88f6f4ce6ab8827279cfffb9226600000000000000000000000000000000000000000000d3c21bcecceda1000000",
        "nonce": "0x18",
        "chainId": "0x1e14"
      },
      "additionalContracts": [],
      "isFixedGasLimit": false
    },
    {
      "hash": "0xff783e73d222917dfa9b568ac8c224e87467830ef89229257a9fbc66f297cc66",
      "transactionType": "CALL",
      "contractName": null,
      "contractAddress": "0x826551890dc65655a0aceca109ab11abdbd7a07b",
      "function": null,
      "arguments": null,
      "transaction": {
        "from": "0xf39fd6e51aad88f6f4ce6ab8827279cfffb92266",
        "to": "0x826551890dc65655a0aceca109ab11abdbd7a07b",
        "gas": "0x100ac",
        "value": "0x1b1ae4d6e2ef5000000",
        "input": "0xd0e30db0",
        "nonce": "0x19",
        "chainId": "0x1e14"
      },
      "additionalContracts": [],
      "isFixedGasLimit": false
    },
    {
      "hash": "0x959cf4eb7d84057bf68e7489736d5be9cd58097ae4a79430e4b4069bda0f46a8",
      "transactionType": "CALL",
      "contractName": null,
      "contractAddress": "0x4e71a2e537b7f9d9413d3991d37958c0b5e1e503",
      "function": "approve(address,uint256)",
      "arguments": [
        "0x4ed7c70F96B99c776995fB64377f0d4aB3B0e1C1",
        "115792089237316195423570985008687907853269984665640564039457584007913129639935"
      ],
      "transaction": {
        "from": "0xf39fd6e51aad88f6f4ce6ab8827279cfffb92266",
        "to": "0x4e71a2e537b7f9d9413d3991d37958c0b5e1e503",
        "gas": "0xfb60",
        "value": "0x0",
        "input": "0x095ea7b30000000000000000000000004ed7c70f96b99c776995fb64377f0d4ab3b0e1c1ffffffffffffffffffffffffffffffffffffffffffffffffffffffffffffffff",
        "nonce": "0x1a",
        "chainId": "0x1e14"
      },
      "additionalContracts": [],
      "isFixedGasLimit": false
    },
    {
      "hash": "0x4dfa6fd3ab5c768b30e6a7b656429509dae96166945b1e088499ee5ed6df4719",
      "transactionType": "CALL",
      "contractName": null,
      "contractAddress": "0x826551890dc65655a0aceca109ab11abdbd7a07b",
      "function": "approve(address,uint256)",
      "arguments": [
        "0x4ed7c70F96B99c776995fB64377f0d4aB3B0e1C1",
        "115792089237316195423570985008687907853269984665640564039457584007913129639935"
      ],
      "transaction": {
        "from": "0xf39fd6e51aad88f6f4ce6ab8827279cfffb92266",
        "to": "0x826551890dc65655a0aceca109ab11abdbd7a07b",
        "gas": "0x11476",
        "value": "0x0",
        "input": "0x095ea7b30000000000000000000000004ed7c70f96b99c776995fb64377f0d4ab3b0e1c1ffffffffffffffffffffffffffffffffffffffffffffffffffffffffffffffff",
        "nonce": "0x1b",
        "chainId": "0x1e14"
      },
      "additionalContracts": [],
      "isFixedGasLimit": false
    },
    {
      "hash": "0x12c784eb5c7fe333a7f427a0d273a4d33aff084bf20d063c833f8ca635100d4f",
      "transactionType": "CALL",
      "contractName": "ERC20Mock",
      "contractAddress": "0xc6e7df5e7b4f2a278906862b61205850344d4e7d",
      "function": "approve(address,uint256)",
      "arguments": [
        "0x4ed7c70F96B99c776995fB64377f0d4aB3B0e1C1",
        "115792089237316195423570985008687907853269984665640564039457584007913129639935"
      ],
      "transaction": {
        "from": "0xf39fd6e51aad88f6f4ce6ab8827279cfffb92266",
        "to": "0xc6e7df5e7b4f2a278906862b61205850344d4e7d",
        "gas": "0x10ab1",
        "value": "0x0",
        "input": "0x095ea7b30000000000000000000000004ed7c70f96b99c776995fb64377f0d4ab3b0e1c1ffffffffffffffffffffffffffffffffffffffffffffffffffffffffffffffff",
        "nonce": "0x1c",
        "chainId": "0x1e14"
      },
      "additionalContracts": [],
      "isFixedGasLimit": false
    },
    {
      "hash": "0x0d3b7125848c31abbde5ca45bd8cf25e8e91afd301bbcb9984e10ec67a37eaa2",
      "transactionType": "CALL",
      "contractName": "ERC20Mock",
      "contractAddress": "0x59b670e9fa9d0a427751af201d676719a970857b",
      "function": "approve(address,uint256)",
      "arguments": [
        "0x4ed7c70F96B99c776995fB64377f0d4aB3B0e1C1",
        "115792089237316195423570985008687907853269984665640564039457584007913129639935"
      ],
      "transaction": {
        "from": "0xf39fd6e51aad88f6f4ce6ab8827279cfffb92266",
        "to": "0x59b670e9fa9d0a427751af201d676719a970857b",
        "gas": "0x10ab1",
        "value": "0x0",
        "input": "0x095ea7b30000000000000000000000004ed7c70f96b99c776995fb64377f0d4ab3b0e1c1ffffffffffffffffffffffffffffffffffffffffffffffffffffffffffffffff",
        "nonce": "0x1d",
        "chainId": "0x1e14"
      },
      "additionalContracts": [],
      "isFixedGasLimit": false
    },
    {
      "hash": "0x2b92552d7ae8dd247572e07095ec753aeb8b904317b9090901d6895c2b114fe9",
      "transactionType": "CALL",
      "contractName": "PublicMarket",
      "contractAddress": "0x4ed7c70f96b99c776995fb64377f0d4ab3b0e1c1",
      "function": "makeOfferSimple(address,uint256,address,uint256)",
      "arguments": [
        "0xc6e7DF5E7b4f2A278906862b61205850344D4e7d",
        "5000000000000000000",
        "0x826551890Dc65655a0Aceca109aB11AbDbD7a07B",
        "20000000000000000000"
      ],
      "transaction": {
        "from": "0xf39fd6e51aad88f6f4ce6ab8827279cfffb92266",
        "to": "0x4ed7c70f96b99c776995fb64377f0d4ab3b0e1c1",
        "gas": "0x558ea",
        "value": "0x0",
        "input": "0x082c3bc4000000000000000000000000c6e7df5e7b4f2a278906862b61205850344d4e7d0000000000000000000000000000000000000000000000004563918244f40000000000000000000000000000826551890dc65655a0aceca109ab11abdbd7a07b000000000000000000000000000000000000000000000001158e460913d00000",
        "nonce": "0x1e",
        "chainId": "0x1e14"
      },
      "additionalContracts": [],
      "isFixedGasLimit": false
    },
    {
      "hash": "0x74e7878cbdb9c7190cf3d0ec63fea8229037b860395e66b49b04be4185c654f6",
      "transactionType": "CALL",
      "contractName": "PublicMarket",
      "contractAddress": "0x4ed7c70f96b99c776995fb64377f0d4ab3b0e1c1",
      "function": "makeOfferSimple(address,uint256,address,uint256)",
      "arguments": [
        "0xc6e7DF5E7b4f2A278906862b61205850344D4e7d",
        "5480000000000000000",
        "0x826551890Dc65655a0Aceca109aB11AbDbD7a07B",
        "22000000000000000000"
      ],
      "transaction": {
        "from": "0xf39fd6e51aad88f6f4ce6ab8827279cfffb92266",
        "to": "0x4ed7c70f96b99c776995fb64377f0d4ab3b0e1c1",
        "gas": "0x4c432",
        "value": "0x0",
        "input": "0x082c3bc4000000000000000000000000c6e7df5e7b4f2a278906862b61205850344d4e7d0000000000000000000000000000000000000000000000004c0cdef739240000000000000000000000000000826551890dc65655a0aceca109ab11abdbd7a07b000000000000000000000000000000000000000000000001314fb37062980000",
        "nonce": "0x1f",
        "chainId": "0x1e14"
      },
      "additionalContracts": [],
      "isFixedGasLimit": false
    },
    {
      "hash": "0xd0fccb1d71dbec1054ab7ad39984adcd91bd6055d13d1f95f784678f52a523a8",
      "transactionType": "CALL",
      "contractName": "PublicMarket",
      "contractAddress": "0x4ed7c70f96b99c776995fb64377f0d4ab3b0e1c1",
      "function": "makeOfferSimple(address,uint256,address,uint256)",
      "arguments": [
        "0xc6e7DF5E7b4f2A278906862b61205850344D4e7d",
        "4700000000000000000",
        "0x826551890Dc65655a0Aceca109aB11AbDbD7a07B",
        "21000000000000000000"
      ],
      "transaction": {
        "from": "0xf39fd6e51aad88f6f4ce6ab8827279cfffb92266",
        "to": "0x4ed7c70f96b99c776995fb64377f0d4ab3b0e1c1",
        "gas": "0x49c2a",
        "value": "0x0",
        "input": "0x082c3bc4000000000000000000000000c6e7df5e7b4f2a278906862b61205850344d4e7d0000000000000000000000000000000000000000000000004139c1192c560000000000000000000000000000826551890dc65655a0aceca109ab11abdbd7a07b000000000000000000000000000000000000000000000001236efcbcbb340000",
        "nonce": "0x20",
        "chainId": "0x1e14"
      },
      "additionalContracts": [],
      "isFixedGasLimit": false
    },
    {
      "hash": "0x6e3be5c99a9d0760929fa6c699a994cb81365d52827488cc67c7b2921c682f6a",
      "transactionType": "CALL",
      "contractName": "PublicMarket",
      "contractAddress": "0x4ed7c70f96b99c776995fb64377f0d4ab3b0e1c1",
      "function": "makeOfferSimple(address,uint256,address,uint256)",
      "arguments": [
        "0xc6e7DF5E7b4f2A278906862b61205850344D4e7d",
        "6000000000000000000",
        "0x826551890Dc65655a0Aceca109aB11AbDbD7a07B",
        "27000000000000000000"
      ],
      "transaction": {
        "from": "0xf39fd6e51aad88f6f4ce6ab8827279cfffb92266",
        "to": "0x4ed7c70f96b99c776995fb64377f0d4ab3b0e1c1",
        "gas": "0x4b7ed",
        "value": "0x0",
        "input": "0x082c3bc4000000000000000000000000c6e7df5e7b4f2a278906862b61205850344d4e7d00000000000000000000000000000000000000000000000053444835ec580000000000000000000000000000826551890dc65655a0aceca109ab11abdbd7a07b00000000000000000000000000000000000000000000000176b344f2a78c0000",
        "nonce": "0x21",
        "chainId": "0x1e14"
      },
      "additionalContracts": [],
      "isFixedGasLimit": false
    },
    {
      "hash": "0xc755a275d4397febf61f40d5f9d93657fd1620c08f3b1fb1ed2a500aeee44f7a",
      "transactionType": "CALL",
      "contractName": "PublicMarket",
      "contractAddress": "0x4ed7c70f96b99c776995fb64377f0d4ab3b0e1c1",
      "function": "makeOfferSimple(address,uint256,address,uint256)",
      "arguments": [
        "0xc6e7DF5E7b4f2A278906862b61205850344D4e7d",
        "6500000000000000000",
        "0x826551890Dc65655a0Aceca109aB11AbDbD7a07B",
        "29000000000000000000"
      ],
      "transaction": {
        "from": "0xf39fd6e51aad88f6f4ce6ab8827279cfffb92266",
        "to": "0x4ed7c70f96b99c776995fb64377f0d4ab3b0e1c1",
        "gas": "0x50d39",
        "value": "0x0",
        "input": "0x082c3bc4000000000000000000000000c6e7df5e7b4f2a278906862b61205850344d4e7d0000000000000000000000000000000000000000000000005a34a38fc00a0000000000000000000000000000826551890dc65655a0aceca109ab11abdbd7a07b0000000000000000000000000000000000000000000000019274b259f6540000",
        "nonce": "0x22",
        "chainId": "0x1e14"
      },
      "additionalContracts": [],
      "isFixedGasLimit": false
    },
    {
      "hash": "0xd3dff2dd858f94d6d21c9eebc26f436968fa312dbfa7f051ab547a9d554cf27e",
      "transactionType": "CALL",
      "contractName": "PublicMarket",
      "contractAddress": "0x4ed7c70f96b99c776995fb64377f0d4ab3b0e1c1",
      "function": "makeOfferSimple(address,uint256,address,uint256)",
      "arguments": [
        "0x826551890Dc65655a0Aceca109aB11AbDbD7a07B",
        "20000000000000000000",
        "0xc6e7DF5E7b4f2A278906862b61205850344D4e7d",
        "5200000000000000000"
      ],
      "transaction": {
        "from": "0xf39fd6e51aad88f6f4ce6ab8827279cfffb92266",
        "to": "0x4ed7c70f96b99c776995fb64377f0d4ab3b0e1c1",
        "gas": "0x52353",
        "value": "0x0",
        "input": "0x082c3bc4000000000000000000000000826551890dc65655a0aceca109ab11abdbd7a07b000000000000000000000000000000000000000000000001158e460913d00000000000000000000000000000c6e7df5e7b4f2a278906862b61205850344d4e7d000000000000000000000000000000000000000000000000482a1c7300080000",
        "nonce": "0x23",
        "chainId": "0x1e14"
      },
      "additionalContracts": [],
      "isFixedGasLimit": false
    },
    {
      "hash": "0xad9d00b0b2c26d462a9a75bf324714bb3d9e9abc63a5665b9e9b42bd2adf6472",
      "transactionType": "CALL",
      "contractName": "PublicMarket",
      "contractAddress": "0x4ed7c70f96b99c776995fb64377f0d4ab3b0e1c1",
      "function": "makeOfferSimple(address,uint256,address,uint256)",
      "arguments": [
        "0x826551890Dc65655a0Aceca109aB11AbDbD7a07B",
        "22000000000000000000",
        "0xc6e7DF5E7b4f2A278906862b61205850344D4e7d",
        "5800000000000000000"
      ],
      "transaction": {
        "from": "0xf39fd6e51aad88f6f4ce6ab8827279cfffb92266",
        "to": "0x4ed7c70f96b99c776995fb64377f0d4ab3b0e1c1",
        "gas": "0x4dc0c",
        "value": "0x0",
        "input": "0x082c3bc4000000000000000000000000826551890dc65655a0aceca109ab11abdbd7a07b000000000000000000000000000000000000000000000001314fb37062980000000000000000000000000000c6e7df5e7b4f2a278906862b61205850344d4e7d000000000000000000000000000000000000000000000000507dbd4531440000",
        "nonce": "0x24",
        "chainId": "0x1e14"
      },
      "additionalContracts": [],
      "isFixedGasLimit": false
    },
    {
      "hash": "0xabe66c0d48a4863c509f34fa91557f4383a90419da8780bfc80ab7b6a9284edc",
      "transactionType": "CALL",
      "contractName": "PublicMarket",
      "contractAddress": "0x4ed7c70f96b99c776995fb64377f0d4ab3b0e1c1",
      "function": "makeOfferSimple(address,uint256,address,uint256)",
      "arguments": [
        "0x826551890Dc65655a0Aceca109aB11AbDbD7a07B",
        "21000000000000000000",
        "0xc6e7DF5E7b4f2A278906862b61205850344D4e7d",
        "5300000000000000000"
      ],
      "transaction": {
        "from": "0xf39fd6e51aad88f6f4ce6ab8827279cfffb92266",
        "to": "0x4ed7c70f96b99c776995fb64377f0d4ab3b0e1c1",
        "gas": "0x4a171",
        "value": "0x0",
        "input": "0x082c3bc4000000000000000000000000826551890dc65655a0aceca109ab11abdbd7a07b000000000000000000000000000000000000000000000001236efcbcbb340000000000000000000000000000c6e7df5e7b4f2a278906862b61205850344d4e7d000000000000000000000000000000000000000000000000498d61eb5d920000",
        "nonce": "0x25",
        "chainId": "0x1e14"
      },
      "additionalContracts": [],
      "isFixedGasLimit": false
    },
    {
      "hash": "0x1b3691311368f541d8a5f4a506487db81f28ae318acf51c768f1e26baf13ee7d",
      "transactionType": "CALL",
      "contractName": "PublicMarket",
      "contractAddress": "0x4ed7c70f96b99c776995fb64377f0d4ab3b0e1c1",
      "function": "makeOfferSimple(address,uint256,address,uint256)",
      "arguments": [
        "0x826551890Dc65655a0Aceca109aB11AbDbD7a07B",
        "25000000000000000000",
        "0xc6e7DF5E7b4f2A278906862b61205850344D4e7d",
        "6300000000000000000"
      ],
      "transaction": {
        "from": "0xf39fd6e51aad88f6f4ce6ab8827279cfffb92266",
        "to": "0x4ed7c70f96b99c776995fb64377f0d4ab3b0e1c1",
        "gas": "0x4a171",
        "value": "0x0",
        "input": "0x082c3bc4000000000000000000000000826551890dc65655a0aceca109ab11abdbd7a07b0000000000000000000000000000000000000000000000015af1d78b58c40000000000000000000000000000c6e7df5e7b4f2a278906862b61205850344d4e7d000000000000000000000000000000000000000000000000576e189f04f60000",
        "nonce": "0x26",
        "chainId": "0x1e14"
      },
      "additionalContracts": [],
      "isFixedGasLimit": false
    },
    {
      "hash": "0xdccf9092984229ead4a81ae7a874ddcb08e85b1d6a83b34a89fd36e8d9f89aaf",
      "transactionType": "CALL",
      "contractName": "PublicMarket",
      "contractAddress": "0x4ed7c70f96b99c776995fb64377f0d4ab3b0e1c1",
      "function": "makeOfferSimple(address,uint256,address,uint256)",
      "arguments": [
        "0x826551890Dc65655a0Aceca109aB11AbDbD7a07B",
        "29000000000000000000",
        "0xc6e7DF5E7b4f2A278906862b61205850344D4e7d",
        "7300000000000000000"
      ],
      "transaction": {
        "from": "0xf39fd6e51aad88f6f4ce6ab8827279cfffb92266",
        "to": "0x4ed7c70f96b99c776995fb64377f0d4ab3b0e1c1",
        "gas": "0x4a171",
        "value": "0x0",
        "input": "0x082c3bc4000000000000000000000000826551890dc65655a0aceca109ab11abdbd7a07b0000000000000000000000000000000000000000000000019274b259f6540000000000000000000000000000c6e7df5e7b4f2a278906862b61205850344d4e7d000000000000000000000000000000000000000000000000654ecf52ac5a0000",
        "nonce": "0x27",
        "chainId": "0x1e14"
      },
      "additionalContracts": [],
      "isFixedGasLimit": false
    }
  ],
  "receipts": [
    {
      "status": "0x1",
      "cumulativeGasUsed": "0x8432c",
      "logs": [],
      "logsBloom": "0x00000000000000000000000000000000000000000000000000000000000000000000000000000000000000000000000000000000000000000000000000000000000000000000000000000000000000000000000000000000000000000000000000000000000000000000000000000000000000000000000000000000000000000000000000000000000000000000000000000000000000000000000000000000000000000000000000000000000000000000000000000000000000000000000000000000000000000000000000000000000000000000000000000000000000000000000000000000000000000000000000000000000000000000000000000000",
      "type": "0x2",
      "transactionHash": "0x89647a75efd1234e009b176816c9dc3f33bb21b0376d015cdbc68fc832a1495c",
      "transactionIndex": "0x0",
      "blockHash": "0xf61643e507f6b6547d7ab3bfb57b0d235be492626cafb7cd31d02c5aed63fd4c",
      "blockNumber": "0x8fd388",
      "gasUsed": "0x8432c",
      "effectiveGasPrice": "0xd6ba79ea4",
      "from": "0xf39fd6e51aad88f6f4ce6ab8827279cfffb92266",
      "to": null,
      "contractAddress": "0xc6e7df5e7b4f2a278906862b61205850344d4e7d",
      "root": "0x0000000000000000000000000000000000000000000000000000000000000000"
    },
    {
      "status": "0x1",
      "cumulativeGasUsed": "0x8432c",
      "logs": [],
      "logsBloom": "0x00000000000000000000000000000000000000000000000000000000000000000000000000000000000000000000000000000000000000000000000000000000000000000000000000000000000000000000000000000000000000000000000000000000000000000000000000000000000000000000000000000000000000000000000000000000000000000000000000000000000000000000000000000000000000000000000000000000000000000000000000000000000000000000000000000000000000000000000000000000000000000000000000000000000000000000000000000000000000000000000000000000000000000000000000000000",
      "type": "0x2",
      "transactionHash": "0x56511ae2e172e25dce76144adfd2f4adf13104801ce1d10fb9cc559649c76876",
      "transactionIndex": "0x0",
      "blockHash": "0x44cf7aa3847ff7d2db0cbeb2f756afdbd9340ae44b4551d62329842765eff368",
      "blockNumber": "0x8fd389",
      "gasUsed": "0x8432c",
      "effectiveGasPrice": "0xc3072bad7",
      "from": "0xf39fd6e51aad88f6f4ce6ab8827279cfffb92266",
      "to": null,
      "contractAddress": "0x59b670e9fa9d0a427751af201d676719a970857b",
      "root": "0x0000000000000000000000000000000000000000000000000000000000000000"
    },
    {
      "status": "0x1",
      "cumulativeGasUsed": "0x20509b",
      "logs": [],
      "logsBloom": "0x00000000000000000000000000000000000000000000000000000000000000000000000000000000000000000000000000000000000000000000000000000000000000000000000000000000000000000000000000000000000000000000000000000000000000000000000000000000000000000000000000000000000000000000000000000000000000000000000000000000000000000000000000000000000000000000000000000000000000000000000000000000000000000000000000000000000000000000000000000000000000000000000000000000000000000000000000000000000000000000000000000000000000000000000000000000",
      "type": "0x2",
      "transactionHash": "0x91121ffd7a3a69eced14efc33b225eef759b1b694789e8438bd627558be9e34b",
      "transactionIndex": "0x1",
      "blockHash": "0x44cf7aa3847ff7d2db0cbeb2f756afdbd9340ae44b4551d62329842765eff368",
      "blockNumber": "0x8fd389",
      "gasUsed": "0x180d6f",
      "effectiveGasPrice": "0xc3072bad7",
      "from": "0xf39fd6e51aad88f6f4ce6ab8827279cfffb92266",
      "to": null,
      "contractAddress": "0x4ed7c70f96b99c776995fb64377f0d4ab3b0e1c1",
      "root": "0x0000000000000000000000000000000000000000000000000000000000000000"
    },
    {
      "status": "0x1",
      "cumulativeGasUsed": "0x10b51",
      "logs": [
        {
          "address": "0xc6e7df5e7b4f2a278906862b61205850344d4e7d",
          "topics": [
            "0xddf252ad1be2c89b69c2b068fc378daa952ba7f163c4a11628f55a4df523b3ef",
            "0x0000000000000000000000000000000000000000000000000000000000000000",
            "0x000000000000000000000000f39fd6e51aad88f6f4ce6ab8827279cfffb92266"
          ],
          "data": "0x00000000000000000000000000000000000000000000d3c21bcecceda1000000",
          "blockHash": "0x49ac0a270b7248f1f7e31688b399361a50cd3a4f3878ff539890eb9db76e68f4",
          "blockNumber": "0x8fd38a",
          "blockTimestamp": "0x6632bbdd",
          "transactionHash": "0x14ed3d8fab83b589db86c034d19a9719dfd51635716f020eb9c7b9a8f53e33e9",
          "transactionIndex": "0x0",
          "logIndex": "0x0",
          "removed": false
        }
      ],
      "logsBloom": "0x00000000000000000000000000000000000000000000000000000000000000000000000000000000000000800000000000000000000000000000000000000000000000000000000000000008000000000000000000000000000000000000000000000000020000000000000100000800000000000000000000000010000000000000000000000000000000000000000000000000000000000000000000000000000000000000000000000000000000000000000000000000000000000000000000000002000000200000000000100000000000002000000000000000000020000000000000000000000000800000000000000000000000000000000000000000",
      "type": "0x2",
      "transactionHash": "0x14ed3d8fab83b589db86c034d19a9719dfd51635716f020eb9c7b9a8f53e33e9",
      "transactionIndex": "0x0",
      "blockHash": "0x49ac0a270b7248f1f7e31688b399361a50cd3a4f3878ff539890eb9db76e68f4",
      "blockNumber": "0x8fd38a",
      "gasUsed": "0x10b51",
      "effectiveGasPrice": "0xb3971b3d1",
      "from": "0xf39fd6e51aad88f6f4ce6ab8827279cfffb92266",
      "to": "0xc6e7df5e7b4f2a278906862b61205850344d4e7d",
      "contractAddress": null,
      "root": "0x0000000000000000000000000000000000000000000000000000000000000000"
    },
    {
      "status": "0x1",
      "cumulativeGasUsed": "0x216a2",
      "logs": [
        {
          "address": "0x59b670e9fa9d0a427751af201d676719a970857b",
          "topics": [
            "0xddf252ad1be2c89b69c2b068fc378daa952ba7f163c4a11628f55a4df523b3ef",
            "0x0000000000000000000000000000000000000000000000000000000000000000",
            "0x000000000000000000000000f39fd6e51aad88f6f4ce6ab8827279cfffb92266"
          ],
          "data": "0x00000000000000000000000000000000000000000000d3c21bcecceda1000000",
          "blockHash": "0x49ac0a270b7248f1f7e31688b399361a50cd3a4f3878ff539890eb9db76e68f4",
          "blockNumber": "0x8fd38a",
          "blockTimestamp": "0x6632bbdd",
          "transactionHash": "0x327eca42f9a481f68811a74f683d46acf6ddde27d7502744e86a5545c5109334",
          "transactionIndex": "0x1",
          "logIndex": "0x1",
          "removed": false
        }
      ],
      "logsBloom": "0x00000000000000000000000000000000000000000000000000000000000000000000000000000000000000000000000000000000000000000000000000000000000000000000000000000008000000000000000008000000000000000000000000000000020000000000000100000800000000000000000000000010000000000000000000000000000000000000000000000000000000000000000000000000000000000000000000000000000000080000000000000000000000000000000000000002000000200000000000020000000000002000000000000000000020000000000000000000000000000000000000000000000000000000000000000000",
      "type": "0x2",
      "transactionHash": "0x327eca42f9a481f68811a74f683d46acf6ddde27d7502744e86a5545c5109334",
      "transactionIndex": "0x1",
      "blockHash": "0x49ac0a270b7248f1f7e31688b399361a50cd3a4f3878ff539890eb9db76e68f4",
      "blockNumber": "0x8fd38a",
      "gasUsed": "0x10b51",
      "effectiveGasPrice": "0xb3971b3d1",
      "from": "0xf39fd6e51aad88f6f4ce6ab8827279cfffb92266",
      "to": "0x59b670e9fa9d0a427751af201d676719a970857b",
      "contractAddress": null,
      "root": "0x0000000000000000000000000000000000000000000000000000000000000000"
    },
    {
      "status": "0x1",
      "cumulativeGasUsed": "0x2c623",
      "logs": [
        {
          "address": "0x826551890dc65655a0aceca109ab11abdbd7a07b",
          "topics": [
            "0xe1fffcc4923d04b559f4d29a8bfc6cda04eb5b0d3c460751c2402c5c5cc9109c",
            "0x000000000000000000000000f39fd6e51aad88f6f4ce6ab8827279cfffb92266"
          ],
          "data": "0x0000000000000000000000000000000000000000000001b1ae4d6e2ef5000000",
          "blockHash": "0x49ac0a270b7248f1f7e31688b399361a50cd3a4f3878ff539890eb9db76e68f4",
          "blockNumber": "0x8fd38a",
          "blockTimestamp": "0x6632bbdd",
          "transactionHash": "0xff783e73d222917dfa9b568ac8c224e87467830ef89229257a9fbc66f297cc66",
          "transactionIndex": "0x2",
          "logIndex": "0x2",
          "removed": false
        }
      ],
      "logsBloom": "0x00000000000000000000000000000000000000000000000000000000000000000000000000000000000000000000000000000000000000800000000000000080000000000000000000000000000000000000000000000000000000008000000000000000000000000000000100000000000000000000000000000000000000000000000000000000000000000000000000000001000000000000000000000000000000000000000000000000000000000000000000000000008000000000000000000000000000200000000000000000000000002000000000000000000000000000000000000000000000000000000000000000000000400000000000000000",
      "type": "0x2",
      "transactionHash": "0xff783e73d222917dfa9b568ac8c224e87467830ef89229257a9fbc66f297cc66",
      "transactionIndex": "0x2",
      "blockHash": "0x49ac0a270b7248f1f7e31688b399361a50cd3a4f3878ff539890eb9db76e68f4",
      "blockNumber": "0x8fd38a",
      "gasUsed": "0xaf81",
      "effectiveGasPrice": "0xb3971b3d1",
      "from": "0xf39fd6e51aad88f6f4ce6ab8827279cfffb92266",
      "to": "0x826551890dc65655a0aceca109ab11abdbd7a07b",
      "contractAddress": null,
      "root": "0x0000000000000000000000000000000000000000000000000000000000000000"
    },
    {
      "status": "0x1",
      "cumulativeGasUsed": "0x37c22",
      "logs": [
        {
          "address": "0x4e71a2e537b7f9d9413d3991d37958c0b5e1e503",
          "topics": [
            "0x8c5be1e5ebec7d5bd14f71427d1e84f3dd0314c0f7b2291e5b200ac8c7c3b925",
            "0x000000000000000000000000f39fd6e51aad88f6f4ce6ab8827279cfffb92266",
            "0x0000000000000000000000004ed7c70f96b99c776995fb64377f0d4ab3b0e1c1"
          ],
          "data": "0xffffffffffffffffffffffffffffffffffffffffffffffffffffffffffffffff",
          "blockHash": "0x49ac0a270b7248f1f7e31688b399361a50cd3a4f3878ff539890eb9db76e68f4",
          "blockNumber": "0x8fd38a",
          "blockTimestamp": "0x6632bbdd",
          "transactionHash": "0x959cf4eb7d84057bf68e7489736d5be9cd58097ae4a79430e4b4069bda0f46a8",
          "transactionIndex": "0x3",
          "logIndex": "0x3",
          "removed": false
        }
      ],
      "logsBloom": "0x00000000000000000000000000000000000000000000000000000000000000000000000000000000000000000000000000000000000000000200000000200000008000000000000000000000000000000000000000000000000000000000000000000000000000000000000100000000000000000000000000000000000000000000000000000000000000000000000000000000080000000000000000000000020000000000000000000000000000000000000000000000000000000000000000000000000000200000000000000000000000002000000000000000400000000010000000000000000000000000000000000002002000000000000000000000",
      "type": "0x2",
      "transactionHash": "0x959cf4eb7d84057bf68e7489736d5be9cd58097ae4a79430e4b4069bda0f46a8",
      "transactionIndex": "0x3",
      "blockHash": "0x49ac0a270b7248f1f7e31688b399361a50cd3a4f3878ff539890eb9db76e68f4",
      "blockNumber": "0x8fd38a",
      "gasUsed": "0xb5ff",
      "effectiveGasPrice": "0xb3971b3d1",
      "from": "0xf39fd6e51aad88f6f4ce6ab8827279cfffb92266",
      "to": "0x4e71a2e537b7f9d9413d3991d37958c0b5e1e503",
      "contractAddress": null,
      "root": "0x0000000000000000000000000000000000000000000000000000000000000000"
    },
    {
      "status": "0x1",
      "cumulativeGasUsed": "0x4392b",
      "logs": [
        {
          "address": "0x826551890dc65655a0aceca109ab11abdbd7a07b",
          "topics": [
            "0x8c5be1e5ebec7d5bd14f71427d1e84f3dd0314c0f7b2291e5b200ac8c7c3b925",
            "0x000000000000000000000000f39fd6e51aad88f6f4ce6ab8827279cfffb92266",
            "0x0000000000000000000000004ed7c70f96b99c776995fb64377f0d4ab3b0e1c1"
          ],
          "data": "0xffffffffffffffffffffffffffffffffffffffffffffffffffffffffffffffff",
          "blockHash": "0x49ac0a270b7248f1f7e31688b399361a50cd3a4f3878ff539890eb9db76e68f4",
          "blockNumber": "0x8fd38a",
          "blockTimestamp": "0x6632bbdd",
          "transactionHash": "0x4dfa6fd3ab5c768b30e6a7b656429509dae96166945b1e088499ee5ed6df4719",
          "transactionIndex": "0x4",
          "logIndex": "0x4",
          "removed": false
        },
        {
          "address": "0x826551890dc65655a0aceca109ab11abdbd7a07b",
          "topics": [
            "0x8c5be1e5ebec7d5bd14f71427d1e84f3dd0314c0f7b2291e5b200ac8c7c3b925",
            "0x000000000000000000000000f39fd6e51aad88f6f4ce6ab8827279cfffb92266",
            "0x0000000000000000000000004ed7c70f96b99c776995fb64377f0d4ab3b0e1c1"
          ],
          "data": "0xffffffffffffffffffffffffffffffffffffffffffffffffffffffffffffffff",
          "blockHash": "0x49ac0a270b7248f1f7e31688b399361a50cd3a4f3878ff539890eb9db76e68f4",
          "blockNumber": "0x8fd38a",
          "blockTimestamp": "0x6632bbdd",
          "transactionHash": "0x4dfa6fd3ab5c768b30e6a7b656429509dae96166945b1e088499ee5ed6df4719",
          "transactionIndex": "0x4",
          "logIndex": "0x5",
          "removed": false
        }
      ],
      "logsBloom": "0x00000000000000000000000000000000000000000000000000000000000000000000000000000000000000000000000000000000000000800000000000200080000000000000000000000000000000000000000000000000000000000000000000000000000000000000000100000000000000000000000000000000000000000000000000000000000000000000000000000000080000000000000000000000020000000000000000000000000000000000000000000000008000000000000000000000000000200000000000000000000000002000000000000000400000000010000000000000000000000000000000000000002000000000000000000000",
      "type": "0x2",
      "transactionHash": "0x4dfa6fd3ab5c768b30e6a7b656429509dae96166945b1e088499ee5ed6df4719",
      "transactionIndex": "0x4",
      "blockHash": "0x49ac0a270b7248f1f7e31688b399361a50cd3a4f3878ff539890eb9db76e68f4",
      "blockNumber": "0x8fd38a",
      "gasUsed": "0xbd09",
      "effectiveGasPrice": "0xb3971b3d1",
      "from": "0xf39fd6e51aad88f6f4ce6ab8827279cfffb92266",
      "to": "0x826551890dc65655a0aceca109ab11abdbd7a07b",
      "contractAddress": null,
      "root": "0x0000000000000000000000000000000000000000000000000000000000000000"
    },
    {
      "status": "0x1",
      "cumulativeGasUsed": "0xb65b",
      "logs": [
        {
          "address": "0xc6e7df5e7b4f2a278906862b61205850344d4e7d",
          "topics": [
            "0x8c5be1e5ebec7d5bd14f71427d1e84f3dd0314c0f7b2291e5b200ac8c7c3b925",
            "0x000000000000000000000000f39fd6e51aad88f6f4ce6ab8827279cfffb92266",
            "0x0000000000000000000000004ed7c70f96b99c776995fb64377f0d4ab3b0e1c1"
          ],
          "data": "0xffffffffffffffffffffffffffffffffffffffffffffffffffffffffffffffff",
          "blockHash": "0xd4e5023022de1e78f71eb06d171dd243c5360c80b5e43cc3e048cd034ad67e80",
          "blockNumber": "0x8fd38b",
          "blockTimestamp": "0x6632bbde",
          "transactionHash": "0x12c784eb5c7fe333a7f427a0d273a4d33aff084bf20d063c833f8ca635100d4f",
          "transactionIndex": "0x0",
          "logIndex": "0x0",
          "removed": false
        }
      ],
      "logsBloom": "0x00000000000000000000000000000000000000000000000000000000000000000000000000000000000000800000000000000000000000000000000000200000000000000000000000000000000000000000000000000000000000000000000000000000000000000000000100000000000000000000000000000000000000000000000000000000000000000000000000000000080000000000000000000000020000000000000000000000000000000000000000000000000000000000000000000000000000200000000000100000000000002000000000000000400000000010000000000000000000800000000000000000002000000000000000000000",
      "type": "0x2",
      "transactionHash": "0x12c784eb5c7fe333a7f427a0d273a4d33aff084bf20d063c833f8ca635100d4f",
      "transactionIndex": "0x0",
      "blockHash": "0xd4e5023022de1e78f71eb06d171dd243c5360c80b5e43cc3e048cd034ad67e80",
      "blockNumber": "0x8fd38b",
      "gasUsed": "0xb65b",
      "effectiveGasPrice": "0xa3d724574",
      "from": "0xf39fd6e51aad88f6f4ce6ab8827279cfffb92266",
      "to": "0xc6e7df5e7b4f2a278906862b61205850344d4e7d",
      "contractAddress": null,
      "root": "0x0000000000000000000000000000000000000000000000000000000000000000"
    },
    {
      "status": "0x1",
      "cumulativeGasUsed": "0x16cb6",
      "logs": [
        {
          "address": "0x59b670e9fa9d0a427751af201d676719a970857b",
          "topics": [
            "0x8c5be1e5ebec7d5bd14f71427d1e84f3dd0314c0f7b2291e5b200ac8c7c3b925",
            "0x000000000000000000000000f39fd6e51aad88f6f4ce6ab8827279cfffb92266",
            "0x0000000000000000000000004ed7c70f96b99c776995fb64377f0d4ab3b0e1c1"
          ],
          "data": "0xffffffffffffffffffffffffffffffffffffffffffffffffffffffffffffffff",
          "blockHash": "0xd4e5023022de1e78f71eb06d171dd243c5360c80b5e43cc3e048cd034ad67e80",
          "blockNumber": "0x8fd38b",
          "blockTimestamp": "0x6632bbde",
          "transactionHash": "0x0d3b7125848c31abbde5ca45bd8cf25e8e91afd301bbcb9984e10ec67a37eaa2",
          "transactionIndex": "0x1",
          "logIndex": "0x1",
          "removed": false
        }
      ],
      "logsBloom": "0x00000000000000000000000000000000000000000000000000000000000000000000000000000000000000000000000000000000000000000000000000200000000000000000000000000000000000000000000008000000000000000000000000000000000000000000000100000000000000000000000000000000000000000000000000000000000000000000000000000000080000000000000000000000020000000000000000000000000000080000000000000000000000000000000000000000000000200000000000020000000000002000000000000000400000000010000000000000000000000000000000000000002000000000000000000000",
      "type": "0x2",
      "transactionHash": "0x0d3b7125848c31abbde5ca45bd8cf25e8e91afd301bbcb9984e10ec67a37eaa2",
      "transactionIndex": "0x1",
      "blockHash": "0xd4e5023022de1e78f71eb06d171dd243c5360c80b5e43cc3e048cd034ad67e80",
      "blockNumber": "0x8fd38b",
      "gasUsed": "0xb65b",
      "effectiveGasPrice": "0xa3d724574",
      "from": "0xf39fd6e51aad88f6f4ce6ab8827279cfffb92266",
      "to": "0x59b670e9fa9d0a427751af201d676719a970857b",
      "contractAddress": null,
      "root": "0x0000000000000000000000000000000000000000000000000000000000000000"
    },
    {
      "status": "0x1",
      "cumulativeGasUsed": "0x514b9",
      "logs": [
        {
          "address": "0xc6e7df5e7b4f2a278906862b61205850344d4e7d",
          "topics": [
            "0xddf252ad1be2c89b69c2b068fc378daa952ba7f163c4a11628f55a4df523b3ef",
            "0x000000000000000000000000f39fd6e51aad88f6f4ce6ab8827279cfffb92266",
            "0x0000000000000000000000004ed7c70f96b99c776995fb64377f0d4ab3b0e1c1"
          ],
          "data": "0x0000000000000000000000000000000000000000000000004563918244f40000",
          "blockHash": "0xd4e5023022de1e78f71eb06d171dd243c5360c80b5e43cc3e048cd034ad67e80",
          "blockNumber": "0x8fd38b",
          "blockTimestamp": "0x6632bbde",
          "transactionHash": "0x2b92552d7ae8dd247572e07095ec753aeb8b904317b9090901d6895c2b114fe9",
          "transactionIndex": "0x2",
          "logIndex": "0x2",
          "removed": false
        },
        {
          "address": "0x4ed7c70f96b99c776995fb64377f0d4ab3b0e1c1",
          "topics": [
            "0x43118103466f8475c26ca895a4fb497bc81164e16090b6c5d8d29bff0b2a068c"
          ],
          "data": "0x0000000000000000000000000000000000000000000000000000000000000001eff581411eae03b5f8dcb2ff440cfab2833431ea72009104245509a136f40cd800000000000000000000000000000000000000000cecb8f27f4200f3a0000000",
          "blockHash": "0xd4e5023022de1e78f71eb06d171dd243c5360c80b5e43cc3e048cd034ad67e80",
          "blockNumber": "0x8fd38b",
          "blockTimestamp": "0x6632bbde",
          "transactionHash": "0x2b92552d7ae8dd247572e07095ec753aeb8b904317b9090901d6895c2b114fe9",
          "transactionIndex": "0x2",
          "logIndex": "0x3",
          "removed": false
        }
      ],
      "logsBloom": "0x01000000000000000000000000000000000000000000000000000020000000000000000000000000000000800000000000000000000000000000000000000000000000010000000000000008000000000000000000000000000000000000000000000000000000000000000100000000008000000000000000000010000000000000000000000000000000000000000000000000080000000000000000000000000000000000000000000000000000200000000000000000000000001000000000000002000000200000000000100000000000002000000000000000400000000000000000000000000000800000000000000000002000000000000000000000",
      "type": "0x2",
      "transactionHash": "0x2b92552d7ae8dd247572e07095ec753aeb8b904317b9090901d6895c2b114fe9",
      "transactionIndex": "0x2",
      "blockHash": "0xd4e5023022de1e78f71eb06d171dd243c5360c80b5e43cc3e048cd034ad67e80",
      "blockNumber": "0x8fd38b",
      "gasUsed": "0x3a803",
      "effectiveGasPrice": "0xa3d724574",
      "from": "0xf39fd6e51aad88f6f4ce6ab8827279cfffb92266",
      "to": "0x4ed7c70f96b99c776995fb64377f0d4ab3b0e1c1",
      "contractAddress": null,
      "root": "0x0000000000000000000000000000000000000000000000000000000000000000"
    },
    {
      "status": "0x1",
      "cumulativeGasUsed": "0x8570c",
      "logs": [
        {
          "address": "0xc6e7df5e7b4f2a278906862b61205850344d4e7d",
          "topics": [
            "0xddf252ad1be2c89b69c2b068fc378daa952ba7f163c4a11628f55a4df523b3ef",
            "0x000000000000000000000000f39fd6e51aad88f6f4ce6ab8827279cfffb92266",
            "0x0000000000000000000000004ed7c70f96b99c776995fb64377f0d4ab3b0e1c1"
          ],
          "data": "0x0000000000000000000000000000000000000000000000004c0cdef739240000",
          "blockHash": "0xd4e5023022de1e78f71eb06d171dd243c5360c80b5e43cc3e048cd034ad67e80",
          "blockNumber": "0x8fd38b",
          "blockTimestamp": "0x6632bbde",
          "transactionHash": "0x74e7878cbdb9c7190cf3d0ec63fea8229037b860395e66b49b04be4185c654f6",
          "transactionIndex": "0x3",
          "logIndex": "0x4",
          "removed": false
        },
        {
          "address": "0x4ed7c70f96b99c776995fb64377f0d4ab3b0e1c1",
          "topics": [
            "0x43118103466f8475c26ca895a4fb497bc81164e16090b6c5d8d29bff0b2a068c"
          ],
          "data": "0x0000000000000000000000000000000000000000000000000000000000000002eff581411eae03b5f8dcb2ff440cfab2833431ea72009104245509a136f40cd800000000000000000000000000000000000000000cf8cc4ef1b52a108b184abe",
          "blockHash": "0xd4e5023022de1e78f71eb06d171dd243c5360c80b5e43cc3e048cd034ad67e80",
          "blockNumber": "0x8fd38b",
          "blockTimestamp": "0x6632bbde",
          "transactionHash": "0x74e7878cbdb9c7190cf3d0ec63fea8229037b860395e66b49b04be4185c654f6",
          "transactionIndex": "0x3",
          "logIndex": "0x5",
          "removed": false
        }
      ],
      "logsBloom": "0x01000000000000000000000000000000000000000000000000000020000000000000000000000000000000800000000000000000000000000000000000000000000000010000000000000008000000000000000000000000000000000000000000000000000000000000000100000000008000000000000000000010000000000000000000000000000000000000000000000000080000000000000000000000000000000000000000000000000000200000000000000000000000001000000000000002000000200000000000100000000000002000000000000000400000000000000000000000000000800000000000000000002000000000000000000000",
      "type": "0x2",
      "transactionHash": "0x74e7878cbdb9c7190cf3d0ec63fea8229037b860395e66b49b04be4185c654f6",
      "transactionIndex": "0x3",
      "blockHash": "0xd4e5023022de1e78f71eb06d171dd243c5360c80b5e43cc3e048cd034ad67e80",
      "blockNumber": "0x8fd38b",
      "gasUsed": "0x34253",
      "effectiveGasPrice": "0xa3d724574",
      "from": "0xf39fd6e51aad88f6f4ce6ab8827279cfffb92266",
      "to": "0x4ed7c70f96b99c776995fb64377f0d4ab3b0e1c1",
      "contractAddress": null,
      "root": "0x0000000000000000000000000000000000000000000000000000000000000000"
    },
    {
      "status": "0x1",
      "cumulativeGasUsed": "0xbad78",
      "logs": [
        {
          "address": "0xc6e7df5e7b4f2a278906862b61205850344d4e7d",
          "topics": [
            "0xddf252ad1be2c89b69c2b068fc378daa952ba7f163c4a11628f55a4df523b3ef",
            "0x000000000000000000000000f39fd6e51aad88f6f4ce6ab8827279cfffb92266",
            "0x0000000000000000000000004ed7c70f96b99c776995fb64377f0d4ab3b0e1c1"
          ],
          "data": "0x0000000000000000000000000000000000000000000000004139c1192c560000",
          "blockHash": "0xd4e5023022de1e78f71eb06d171dd243c5360c80b5e43cc3e048cd034ad67e80",
          "blockNumber": "0x8fd38b",
          "blockTimestamp": "0x6632bbde",
          "transactionHash": "0xd0fccb1d71dbec1054ab7ad39984adcd91bd6055d13d1f95f784678f52a523a8",
          "transactionIndex": "0x4",
          "logIndex": "0x6",
          "removed": false
        },
        {
          "address": "0x4ed7c70f96b99c776995fb64377f0d4ab3b0e1c1",
          "topics": [
            "0x43118103466f8475c26ca895a4fb497bc81164e16090b6c5d8d29bff0b2a068c"
          ],
          "data": "0x0000000000000000000000000000000000000000000000000000000000000003eff581411eae03b5f8dcb2ff440cfab2833431ea72009104245509a136f40cd800000000000000000000000000000000000000000e6fe9d2f5a39992db931057",
          "blockHash": "0xd4e5023022de1e78f71eb06d171dd243c5360c80b5e43cc3e048cd034ad67e80",
          "blockNumber": "0x8fd38b",
          "blockTimestamp": "0x6632bbde",
          "transactionHash": "0xd0fccb1d71dbec1054ab7ad39984adcd91bd6055d13d1f95f784678f52a523a8",
          "transactionIndex": "0x4",
          "logIndex": "0x7",
          "removed": false
        }
      ],
      "logsBloom": "0x01000000000000000000000000000000000000000000000000000020000000000000000000000000000000800000000000000000000000000000000000000000000000010000000000000008000000000000000000000000000000000000000000000000000000000000000100000000008000000000000000000010000000000000000000000000000000000000000000000000080000000000000000000000000000000000000000000000000000200000000000000000000000001000000000000002000000200000000000100000000000002000000000000000400000000000000000000000000000800000000000000000002000000000000000000000",
      "type": "0x2",
      "transactionHash": "0xd0fccb1d71dbec1054ab7ad39984adcd91bd6055d13d1f95f784678f52a523a8",
      "transactionIndex": "0x4",
      "blockHash": "0xd4e5023022de1e78f71eb06d171dd243c5360c80b5e43cc3e048cd034ad67e80",
      "blockNumber": "0x8fd38b",
      "gasUsed": "0x3566c",
      "effectiveGasPrice": "0xa3d724574",
      "from": "0xf39fd6e51aad88f6f4ce6ab8827279cfffb92266",
      "to": "0x4ed7c70f96b99c776995fb64377f0d4ab3b0e1c1",
      "contractAddress": null,
      "root": "0x0000000000000000000000000000000000000000000000000000000000000000"
    },
    {
      "status": "0x1",
      "cumulativeGasUsed": "0xf17fd",
      "logs": [
        {
          "address": "0xc6e7df5e7b4f2a278906862b61205850344d4e7d",
          "topics": [
            "0xddf252ad1be2c89b69c2b068fc378daa952ba7f163c4a11628f55a4df523b3ef",
            "0x000000000000000000000000f39fd6e51aad88f6f4ce6ab8827279cfffb92266",
            "0x0000000000000000000000004ed7c70f96b99c776995fb64377f0d4ab3b0e1c1"
          ],
          "data": "0x00000000000000000000000000000000000000000000000053444835ec580000",
          "blockHash": "0xd4e5023022de1e78f71eb06d171dd243c5360c80b5e43cc3e048cd034ad67e80",
          "blockNumber": "0x8fd38b",
          "blockTimestamp": "0x6632bbde",
          "transactionHash": "0x6e3be5c99a9d0760929fa6c699a994cb81365d52827488cc67c7b2921c682f6a",
          "transactionIndex": "0x5",
          "logIndex": "0x8",
          "removed": false
        },
        {
          "address": "0x4ed7c70f96b99c776995fb64377f0d4ab3b0e1c1",
          "topics": [
            "0x43118103466f8475c26ca895a4fb497bc81164e16090b6c5d8d29bff0b2a068c"
          ],
          "data": "0x0000000000000000000000000000000000000000000000000000000000000004eff581411eae03b5f8dcb2ff440cfab2833431ea72009104245509a136f40cd800000000000000000000000000000000000000000e8a5010cf2a411214000000",
          "blockHash": "0xd4e5023022de1e78f71eb06d171dd243c5360c80b5e43cc3e048cd034ad67e80",
          "blockNumber": "0x8fd38b",
          "blockTimestamp": "0x6632bbde",
          "transactionHash": "0x6e3be5c99a9d0760929fa6c699a994cb81365d52827488cc67c7b2921c682f6a",
          "transactionIndex": "0x5",
          "logIndex": "0x9",
          "removed": false
        }
      ],
      "logsBloom": "0x01000000000000000000000000000000000000000000000000000020000000000000000000000000000000800000000000000000000000000000000000000000000000010000000000000008000000000000000000000000000000000000000000000000000000000000000100000000008000000000000000000010000000000000000000000000000000000000000000000000080000000000000000000000000000000000000000000000000000200000000000000000000000001000000000000002000000200000000000100000000000002000000000000000400000000000000000000000000000800000000000000000002000000000000000000000",
      "type": "0x2",
      "transactionHash": "0x6e3be5c99a9d0760929fa6c699a994cb81365d52827488cc67c7b2921c682f6a",
      "transactionIndex": "0x5",
      "blockHash": "0xd4e5023022de1e78f71eb06d171dd243c5360c80b5e43cc3e048cd034ad67e80",
      "blockNumber": "0x8fd38b",
      "gasUsed": "0x36a85",
      "effectiveGasPrice": "0xa3d724574",
      "from": "0xf39fd6e51aad88f6f4ce6ab8827279cfffb92266",
      "to": "0x4ed7c70f96b99c776995fb64377f0d4ab3b0e1c1",
      "contractAddress": null,
      "root": "0x0000000000000000000000000000000000000000000000000000000000000000"
    },
    {
      "status": "0x1",
      "cumulativeGasUsed": "0x128c3f",
      "logs": [
        {
          "address": "0xc6e7df5e7b4f2a278906862b61205850344d4e7d",
          "topics": [
            "0xddf252ad1be2c89b69c2b068fc378daa952ba7f163c4a11628f55a4df523b3ef",
            "0x000000000000000000000000f39fd6e51aad88f6f4ce6ab8827279cfffb92266",
            "0x0000000000000000000000004ed7c70f96b99c776995fb64377f0d4ab3b0e1c1"
          ],
          "data": "0x0000000000000000000000000000000000000000000000005a34a38fc00a0000",
          "blockHash": "0xd4e5023022de1e78f71eb06d171dd243c5360c80b5e43cc3e048cd034ad67e80",
          "blockNumber": "0x8fd38b",
          "blockTimestamp": "0x6632bbde",
          "transactionHash": "0xc755a275d4397febf61f40d5f9d93657fd1620c08f3b1fb1ed2a500aeee44f7a",
          "transactionIndex": "0x6",
          "logIndex": "0xa",
          "removed": false
        },
        {
          "address": "0x4ed7c70f96b99c776995fb64377f0d4ab3b0e1c1",
          "topics": [
            "0x43118103466f8475c26ca895a4fb497bc81164e16090b6c5d8d29bff0b2a068c"
          ],
          "data": "0x0000000000000000000000000000000000000000000000000000000000000005eff581411eae03b5f8dcb2ff440cfab2833431ea72009104245509a136f40cd800000000000000000000000000000000000000000e6a7f84a1a23c236d89d89d",
          "blockHash": "0xd4e5023022de1e78f71eb06d171dd243c5360c80b5e43cc3e048cd034ad67e80",
          "blockNumber": "0x8fd38b",
          "blockTimestamp": "0x6632bbde",
          "transactionHash": "0xc755a275d4397febf61f40d5f9d93657fd1620c08f3b1fb1ed2a500aeee44f7a",
          "transactionIndex": "0x6",
          "logIndex": "0xb",
          "removed": false
        }
      ],
      "logsBloom": "0x01000000000000000000000000000000000000000000000000000020000000000000000000000000000000800000000000000000000000000000000000000000000000010000000000000008000000000000000000000000000000000000000000000000000000000000000100000000008000000000000000000010000000000000000000000000000000000000000000000000080000000000000000000000000000000000000000000000000000200000000000000000000000001000000000000002000000200000000000100000000000002000000000000000400000000000000000000000000000800000000000000000002000000000000000000000",
      "type": "0x2",
      "transactionHash": "0xc755a275d4397febf61f40d5f9d93657fd1620c08f3b1fb1ed2a500aeee44f7a",
      "transactionIndex": "0x6",
      "blockHash": "0xd4e5023022de1e78f71eb06d171dd243c5360c80b5e43cc3e048cd034ad67e80",
      "blockNumber": "0x8fd38b",
      "gasUsed": "0x37442",
      "effectiveGasPrice": "0xa3d724574",
      "from": "0xf39fd6e51aad88f6f4ce6ab8827279cfffb92266",
      "to": "0x4ed7c70f96b99c776995fb64377f0d4ab3b0e1c1",
      "contractAddress": null,
      "root": "0x0000000000000000000000000000000000000000000000000000000000000000"
    },
    {
      "status": "0x1",
      "cumulativeGasUsed": "0x3b846",
      "logs": [
        {
          "address": "0x826551890dc65655a0aceca109ab11abdbd7a07b",
          "topics": [
            "0xddf252ad1be2c89b69c2b068fc378daa952ba7f163c4a11628f55a4df523b3ef",
            "0x000000000000000000000000f39fd6e51aad88f6f4ce6ab8827279cfffb92266",
            "0x0000000000000000000000004ed7c70f96b99c776995fb64377f0d4ab3b0e1c1"
          ],
          "data": "0x000000000000000000000000000000000000000000000001158e460913d00000",
          "blockHash": "0xb328055e1908dbd91375e6d1f4b8e9a93568672c8cd5f3520c5a352b6a2a8867",
          "blockNumber": "0x8fd38c",
          "blockTimestamp": "0x6632bbdf",
          "transactionHash": "0xd3dff2dd858f94d6d21c9eebc26f436968fa312dbfa7f051ab547a9d554cf27e",
          "transactionIndex": "0x0",
          "logIndex": "0x0",
          "removed": false
        },
        {
          "address": "0x4ed7c70f96b99c776995fb64377f0d4ab3b0e1c1",
          "topics": [
            "0x43118103466f8475c26ca895a4fb497bc81164e16090b6c5d8d29bff0b2a068c"
          ],
          "data": "0x00000000000000000000000000000000000000000000000000000000000000068dd430468436aa8fd5435828481157a6ff37e8c56f6127d5810a9b5c0ed56619000000000000000000000000000000000000000000d711243e08215784000000",
          "blockHash": "0xb328055e1908dbd91375e6d1f4b8e9a93568672c8cd5f3520c5a352b6a2a8867",
          "blockNumber": "0x8fd38c",
          "blockTimestamp": "0x6632bbdf",
          "transactionHash": "0xd3dff2dd858f94d6d21c9eebc26f436968fa312dbfa7f051ab547a9d554cf27e",
          "transactionIndex": "0x0",
          "logIndex": "0x1",
          "removed": false
        }
      ],
      "logsBloom": "0x01000000000000000000000000000000000000000000000000000020000000000000000000000000000000000000000000000000000000800000000000000080000000010000000000000008000000000000000000000000000000000000000000000000000000000000000100000000008000000000000000000010000000000000000000000000000000000000000000000000080000000000000000000000000000000000000000000000000000200000000000000000008000001000000000000002000000200000000000000000000000002000000000000000400000000000000000000000000000000000000000000000002000000000000000000000",
      "type": "0x2",
      "transactionHash": "0xd3dff2dd858f94d6d21c9eebc26f436968fa312dbfa7f051ab547a9d554cf27e",
      "transactionIndex": "0x0",
      "blockHash": "0xb328055e1908dbd91375e6d1f4b8e9a93568672c8cd5f3520c5a352b6a2a8867",
      "blockNumber": "0x8fd38c",
      "gasUsed": "0x3b846",
      "effectiveGasPrice": "0x96e76a0ec",
      "from": "0xf39fd6e51aad88f6f4ce6ab8827279cfffb92266",
      "to": "0x4ed7c70f96b99c776995fb64377f0d4ab3b0e1c1",
      "contractAddress": null,
      "root": "0x0000000000000000000000000000000000000000000000000000000000000000"
    },
    {
      "status": "0x1",
      "cumulativeGasUsed": "0x70ae8",
      "logs": [
        {
          "address": "0x826551890dc65655a0aceca109ab11abdbd7a07b",
          "topics": [
            "0xddf252ad1be2c89b69c2b068fc378daa952ba7f163c4a11628f55a4df523b3ef",
            "0x000000000000000000000000f39fd6e51aad88f6f4ce6ab8827279cfffb92266",
            "0x0000000000000000000000004ed7c70f96b99c776995fb64377f0d4ab3b0e1c1"
          ],
          "data": "0x000000000000000000000000000000000000000000000001314fb37062980000",
          "blockHash": "0xb328055e1908dbd91375e6d1f4b8e9a93568672c8cd5f3520c5a352b6a2a8867",
          "blockNumber": "0x8fd38c",
          "blockTimestamp": "0x6632bbdf",
          "transactionHash": "0xad9d00b0b2c26d462a9a75bf324714bb3d9e9abc63a5665b9e9b42bd2adf6472",
          "transactionIndex": "0x1",
          "logIndex": "0x2",
          "removed": false
        },
        {
          "address": "0x4ed7c70f96b99c776995fb64377f0d4ab3b0e1c1",
          "topics": [
            "0x43118103466f8475c26ca895a4fb497bc81164e16090b6c5d8d29bff0b2a068c"
          ],
          "data": "0x00000000000000000000000000000000000000000000000000000000000000078dd430468436aa8fd5435828481157a6ff37e8c56f6127d5810a9b5c0ed56619000000000000000000000000000000000000000000da132be8f821cee4ba2e8b",
          "blockHash": "0xb328055e1908dbd91375e6d1f4b8e9a93568672c8cd5f3520c5a352b6a2a8867",
          "blockNumber": "0x8fd38c",
          "blockTimestamp": "0x6632bbdf",
          "transactionHash": "0xad9d00b0b2c26d462a9a75bf324714bb3d9e9abc63a5665b9e9b42bd2adf6472",
          "transactionIndex": "0x1",
          "logIndex": "0x3",
          "removed": false
        }
      ],
      "logsBloom": "0x01000000000000000000000000000000000000000000000000000020000000000000000000000000000000000000000000000000000000800000000000000080000000010000000000000008000000000000000000000000000000000000000000000000000000000000000100000000008000000000000000000010000000000000000000000000000000000000000000000000080000000000000000000000000000000000000000000000000000200000000000000000008000001000000000000002000000200000000000000000000000002000000000000000400000000000000000000000000000000000000000000000002000000000000000000000",
      "type": "0x2",
      "transactionHash": "0xad9d00b0b2c26d462a9a75bf324714bb3d9e9abc63a5665b9e9b42bd2adf6472",
      "transactionIndex": "0x1",
      "blockHash": "0xb328055e1908dbd91375e6d1f4b8e9a93568672c8cd5f3520c5a352b6a2a8867",
      "blockNumber": "0x8fd38c",
      "gasUsed": "0x352a2",
      "effectiveGasPrice": "0x96e76a0ec",
      "from": "0xf39fd6e51aad88f6f4ce6ab8827279cfffb92266",
      "to": "0x4ed7c70f96b99c776995fb64377f0d4ab3b0e1c1",
      "contractAddress": null,
      "root": "0x0000000000000000000000000000000000000000000000000000000000000000"
    },
    {
      "status": "0x1",
      "cumulativeGasUsed": "0xa6526",
      "logs": [
        {
          "address": "0x826551890dc65655a0aceca109ab11abdbd7a07b",
          "topics": [
            "0xddf252ad1be2c89b69c2b068fc378daa952ba7f163c4a11628f55a4df523b3ef",
            "0x000000000000000000000000f39fd6e51aad88f6f4ce6ab8827279cfffb92266",
            "0x0000000000000000000000004ed7c70f96b99c776995fb64377f0d4ab3b0e1c1"
          ],
          "data": "0x000000000000000000000000000000000000000000000001236efcbcbb340000",
          "blockHash": "0xb328055e1908dbd91375e6d1f4b8e9a93568672c8cd5f3520c5a352b6a2a8867",
          "blockNumber": "0x8fd38c",
          "blockTimestamp": "0x6632bbdf",
          "transactionHash": "0xabe66c0d48a4863c509f34fa91557f4383a90419da8780bfc80ab7b6a9284edc",
          "transactionIndex": "0x2",
          "logIndex": "0x4",
          "removed": false
        },
        {
          "address": "0x4ed7c70f96b99c776995fb64377f0d4ab3b0e1c1",
          "topics": [
            "0x43118103466f8475c26ca895a4fb497bc81164e16090b6c5d8d29bff0b2a068c"
          ],
          "data": "0x00000000000000000000000000000000000000000000000000000000000000088dd430468436aa8fd5435828481157a6ff37e8c56f6127d5810a9b5c0ed56619000000000000000000000000000000000000000000d0c3bed7e081e37c618618",
          "blockHash": "0xb328055e1908dbd91375e6d1f4b8e9a93568672c8cd5f3520c5a352b6a2a8867",
          "blockNumber": "0x8fd38c",
          "blockTimestamp": "0x6632bbdf",
          "transactionHash": "0xabe66c0d48a4863c509f34fa91557f4383a90419da8780bfc80ab7b6a9284edc",
          "transactionIndex": "0x2",
          "logIndex": "0x5",
          "removed": false
        }
      ],
      "logsBloom": "0x01000000000000000000000000000000000000000000000000000020000000000000000000000000000000000000000000000000000000800000000000000080000000010000000000000008000000000000000000000000000000000000000000000000000000000000000100000000008000000000000000000010000000000000000000000000000000000000000000000000080000000000000000000000000000000000000000000000000000200000000000000000008000001000000000000002000000200000000000000000000000002000000000000000400000000000000000000000000000000000000000000000002000000000000000000000",
      "type": "0x2",
      "transactionHash": "0xabe66c0d48a4863c509f34fa91557f4383a90419da8780bfc80ab7b6a9284edc",
      "transactionIndex": "0x2",
      "blockHash": "0xb328055e1908dbd91375e6d1f4b8e9a93568672c8cd5f3520c5a352b6a2a8867",
      "blockNumber": "0x8fd38c",
      "gasUsed": "0x35a3e",
      "effectiveGasPrice": "0x96e76a0ec",
      "from": "0xf39fd6e51aad88f6f4ce6ab8827279cfffb92266",
      "to": "0x4ed7c70f96b99c776995fb64377f0d4ab3b0e1c1",
      "contractAddress": null,
      "root": "0x0000000000000000000000000000000000000000000000000000000000000000"
    },
    {
      "status": "0x1",
      "cumulativeGasUsed": "0xdbf64",
      "logs": [
        {
          "address": "0x826551890dc65655a0aceca109ab11abdbd7a07b",
          "topics": [
            "0xddf252ad1be2c89b69c2b068fc378daa952ba7f163c4a11628f55a4df523b3ef",
            "0x000000000000000000000000f39fd6e51aad88f6f4ce6ab8827279cfffb92266",
            "0x0000000000000000000000004ed7c70f96b99c776995fb64377f0d4ab3b0e1c1"
          ],
          "data": "0x0000000000000000000000000000000000000000000000015af1d78b58c40000",
          "blockHash": "0xb328055e1908dbd91375e6d1f4b8e9a93568672c8cd5f3520c5a352b6a2a8867",
          "blockNumber": "0x8fd38c",
          "blockTimestamp": "0x6632bbdf",
          "transactionHash": "0x1b3691311368f541d8a5f4a506487db81f28ae318acf51c768f1e26baf13ee7d",
          "transactionIndex": "0x3",
          "logIndex": "0x6",
          "removed": false
        },
        {
          "address": "0x4ed7c70f96b99c776995fb64377f0d4ab3b0e1c1",
          "topics": [
            "0x43118103466f8475c26ca895a4fb497bc81164e16090b6c5d8d29bff0b2a068c"
          ],
          "data": "0x00000000000000000000000000000000000000000000000000000000000000098dd430468436aa8fd5435828481157a6ff37e8c56f6127d5810a9b5c0ed56619000000000000000000000000000000000000000000d073135f91b9ea7c000000",
          "blockHash": "0xb328055e1908dbd91375e6d1f4b8e9a93568672c8cd5f3520c5a352b6a2a8867",
          "blockNumber": "0x8fd38c",
          "blockTimestamp": "0x6632bbdf",
          "transactionHash": "0x1b3691311368f541d8a5f4a506487db81f28ae318acf51c768f1e26baf13ee7d",
          "transactionIndex": "0x3",
          "logIndex": "0x7",
          "removed": false
        }
      ],
      "logsBloom": "0x01000000000000000000000000000000000000000000000000000020000000000000000000000000000000000000000000000000000000800000000000000080000000010000000000000008000000000000000000000000000000000000000000000000000000000000000100000000008000000000000000000010000000000000000000000000000000000000000000000000080000000000000000000000000000000000000000000000000000200000000000000000008000001000000000000002000000200000000000000000000000002000000000000000400000000000000000000000000000000000000000000000002000000000000000000000",
      "type": "0x2",
      "transactionHash": "0x1b3691311368f541d8a5f4a506487db81f28ae318acf51c768f1e26baf13ee7d",
      "transactionIndex": "0x3",
      "blockHash": "0xb328055e1908dbd91375e6d1f4b8e9a93568672c8cd5f3520c5a352b6a2a8867",
      "blockNumber": "0x8fd38c",
      "gasUsed": "0x35a3e",
      "effectiveGasPrice": "0x96e76a0ec",
      "from": "0xf39fd6e51aad88f6f4ce6ab8827279cfffb92266",
      "to": "0x4ed7c70f96b99c776995fb64377f0d4ab3b0e1c1",
      "contractAddress": null,
      "root": "0x0000000000000000000000000000000000000000000000000000000000000000"
    },
    {
      "status": "0x1",
      "cumulativeGasUsed": "0x1119a2",
      "logs": [
        {
          "address": "0x826551890dc65655a0aceca109ab11abdbd7a07b",
          "topics": [
            "0xddf252ad1be2c89b69c2b068fc378daa952ba7f163c4a11628f55a4df523b3ef",
            "0x000000000000000000000000f39fd6e51aad88f6f4ce6ab8827279cfffb92266",
            "0x0000000000000000000000004ed7c70f96b99c776995fb64377f0d4ab3b0e1c1"
          ],
          "data": "0x0000000000000000000000000000000000000000000000019274b259f6540000",
          "blockHash": "0xb328055e1908dbd91375e6d1f4b8e9a93568672c8cd5f3520c5a352b6a2a8867",
          "blockNumber": "0x8fd38c",
          "blockTimestamp": "0x6632bbdf",
          "transactionHash": "0xdccf9092984229ead4a81ae7a874ddcb08e85b1d6a83b34a89fd36e8d9f89aaf",
          "transactionIndex": "0x4",
          "logIndex": "0x8",
          "removed": false
        },
        {
          "address": "0x4ed7c70f96b99c776995fb64377f0d4ab3b0e1c1",
          "topics": [
            "0x43118103466f8475c26ca895a4fb497bc81164e16090b6c5d8d29bff0b2a068c"
          ],
          "data": "0x000000000000000000000000000000000000000000000000000000000000000a8dd430468436aa8fd5435828481157a6ff37e8c56f6127d5810a9b5c0ed56619000000000000000000000000000000000000000000d038a8dc4fd9a8ee7b9611",
          "blockHash": "0xb328055e1908dbd91375e6d1f4b8e9a93568672c8cd5f3520c5a352b6a2a8867",
          "blockNumber": "0x8fd38c",
          "blockTimestamp": "0x6632bbdf",
          "transactionHash": "0xdccf9092984229ead4a81ae7a874ddcb08e85b1d6a83b34a89fd36e8d9f89aaf",
          "transactionIndex": "0x4",
          "logIndex": "0x9",
          "removed": false
        }
      ],
      "logsBloom": "0x01000000000000000000000000000000000000000000000000000020000000000000000000000000000000000000000000000000000000800000000000000080000000010000000000000008000000000000000000000000000000000000000000000000000000000000000100000000008000000000000000000010000000000000000000000000000000000000000000000000080000000000000000000000000000000000000000000000000000200000000000000000008000001000000000000002000000200000000000000000000000002000000000000000400000000000000000000000000000000000000000000000002000000000000000000000",
      "type": "0x2",
      "transactionHash": "0xdccf9092984229ead4a81ae7a874ddcb08e85b1d6a83b34a89fd36e8d9f89aaf",
      "transactionIndex": "0x4",
      "blockHash": "0xb328055e1908dbd91375e6d1f4b8e9a93568672c8cd5f3520c5a352b6a2a8867",
      "blockNumber": "0x8fd38c",
      "gasUsed": "0x35a3e",
      "effectiveGasPrice": "0x96e76a0ec",
      "from": "0xf39fd6e51aad88f6f4ce6ab8827279cfffb92266",
      "to": "0x4ed7c70f96b99c776995fb64377f0d4ab3b0e1c1",
      "contractAddress": null,
      "root": "0x0000000000000000000000000000000000000000000000000000000000000000"
    }
  ],
  "libraries": [],
  "pending": [],
  "returns": {},
  "timestamp": 1714861960,
  "chain": 7700,
  "commit": "23d0732"
}