{
  "transactions": [
    {
      "hash": "0x1eb6875203ec595b1bef23a5564f846b563a91a2d44efa36fb7c0185c0a29215",
      "transactionType": "CALL",
      "contractName": "ERC20Mock",
      "contractAddress": "0xc7f2cf4845c6db0e1a1e91ed41bcd0fcc1b0e141",
      "function": "mint(address,uint256)",
      "arguments": [
        "0xf39Fd6e51aad88F6F4ce6aB8827279cffFb92266",
        "1000000000000000000000000"
      ],
      "transaction": {
        "from": "0xf39fd6e51aad88f6f4ce6ab8827279cfffb92266",
        "to": "0xc7f2cf4845c6db0e1a1e91ed41bcd0fcc1b0e141",
        "gas": "0x74c6",
        "value": "0x0",
        "input": "0x40c10f19000000000000000000000000f39fd6e51aad88f6f4ce6ab8827279cfffb9226600000000000000000000000000000000000000000000d3c21bcecceda1000000",
        "nonce": "0x15",
        "chainId": "0x1e14"
      },
      "additionalContracts": [],
      "isFixedGasLimit": false
    },
    {
      "hash": "0xb171283ff63d33ca63e363d81d1faacdaa22d5ecf634dad8ec3ab6229e1311d2",
      "transactionType": "CALL",
      "contractName": "ERC20Mock",
      "contractAddress": "0xdae97900d4b184c5d2012dcdb658c008966466dd",
      "function": "mint(address,uint256)",
      "arguments": [
        "0xf39Fd6e51aad88F6F4ce6aB8827279cffFb92266",
        "1000000000000000000000000"
      ],
      "transaction": {
        "from": "0xf39fd6e51aad88f6f4ce6ab8827279cfffb92266",
        "to": "0xdae97900d4b184c5d2012dcdb658c008966466dd",
        "gas": "0x74c6",
        "value": "0x0",
        "input": "0x40c10f19000000000000000000000000f39fd6e51aad88f6f4ce6ab8827279cfffb9226600000000000000000000000000000000000000000000d3c21bcecceda1000000",
        "nonce": "0x16",
        "chainId": "0x1e14"
      },
      "additionalContracts": [],
      "isFixedGasLimit": false
    },
    {
      "hash": "0xfbaa24ac174b92a151d4481ef81bccc0d3e9bc83e4fcdc216cdd0b74c6117927",
      "transactionType": "CALL",
      "contractName": null,
      "contractAddress": "0x826551890dc65655a0aceca109ab11abdbd7a07b",
      "function": null,
      "arguments": null,
      "transaction": {
        "from": "0xf39fd6e51aad88f6f4ce6ab8827279cfffb92266",
        "to": "0x826551890dc65655a0aceca109ab11abdbd7a07b",
        "gas": "0x100ac",
        "value": "0x1b1ae4d6e2ef5000000",
        "input": "0xd0e30db0",
        "nonce": "0x17",
        "chainId": "0x1e14"
      },
      "additionalContracts": [],
      "isFixedGasLimit": false
    },
    {
      "hash": "0xf870ea841818e3eac6bb143cf44f4dda31cdaf7a7e4225e941b5e4dccf5f2b11",
      "transactionType": "CALL",
      "contractName": null,
      "contractAddress": "0x826551890dc65655a0aceca109ab11abdbd7a07b",
      "function": "approve(address,uint256)",
      "arguments": [
        "0xa252eEE9BDe830Ca4793F054B506587027825a8e",
        "8000000000000000000000"
      ],
      "transaction": {
        "from": "0xf39fd6e51aad88f6f4ce6ab8827279cfffb92266",
        "to": "0x826551890dc65655a0aceca109ab11abdbd7a07b",
        "gas": "0x1037b",
        "value": "0x0",
        "input": "0x095ea7b3000000000000000000000000a252eee9bde830ca4793f054b506587027825a8e0000000000000000000000000000000000000000000001b1ae4d6e2ef5000000",
        "nonce": "0x18",
        "chainId": "0x1e14"
      },
      "additionalContracts": [],
      "isFixedGasLimit": false
    },
    {
      "hash": "0xb7f9d346fe369749e4043116dad2bb7e91226f19d1ce4c44855d773fd89afeab",
      "transactionType": "CALL",
      "contractName": null,
      "contractAddress": "0xa252eee9bde830ca4793f054b506587027825a8e",
      "function": null,
      "arguments": null,
      "transaction": {
        "from": "0xf39fd6e51aad88f6f4ce6ab8827279cfffb92266",
        "to": "0xa252eee9bde830ca4793f054b506587027825a8e",
        "gas": "0x34a1e",
        "value": "0x0",
        "input": "0x13dcfc5900000000000000000000000000000000000000000000010f0cf064dd59200000000000000000000000000000000000000000000000000000002386f26fc10000000000000000000000000000826551890dc65655a0aceca109ab11abdbd7a07b0000000000000000000000004e71a2e537b7f9d9413d3991d37958c0b5e1e5030000000000000000000000000000000000000000000000000000000000000000000000000000000000000000f39fd6e51aad88f6f4ce6ab8827279cfffb92266000000000000000000000000000000000000000000000000000000006632bfe7",
        "nonce": "0x19",
        "chainId": "0x1e14"
      },
      "additionalContracts": [],
      "isFixedGasLimit": false
    },
    {
      "hash": "0xfc941720adc2a1573778a6e0b5ff57a772ef6ba634f5ee1cda37fe2abaa8666c",
      "transactionType": "CALL",
      "contractName": null,
      "contractAddress": "0x4e71a2e537b7f9d9413d3991d37958c0b5e1e503",
      "function": "approve(address,uint256)",
      "arguments": [
        "0xc6e7DF5E7b4f2A278906862b61205850344D4e7d",
        "115792089237316195423570985008687907853269984665640564039457584007913129639935"
      ],
      "transaction": {
        "from": "0xf39fd6e51aad88f6f4ce6ab8827279cfffb92266",
        "to": "0x4e71a2e537b7f9d9413d3991d37958c0b5e1e503",
        "gas": "0xfb60",
        "value": "0x0",
        "input": "0x095ea7b3000000000000000000000000c6e7df5e7b4f2a278906862b61205850344d4e7dffffffffffffffffffffffffffffffffffffffffffffffffffffffffffffffff",
        "nonce": "0x1a",
        "chainId": "0x1e14"
      },
      "additionalContracts": [],
      "isFixedGasLimit": false
    },
    {
      "hash": "0xf53bddc373ebdcccb4df9e47b4f939d67521ed0526007f1e82c388d989881d1a",
      "transactionType": "CALL",
      "contractName": null,
      "contractAddress": "0x826551890dc65655a0aceca109ab11abdbd7a07b",
      "function": "approve(address,uint256)",
      "arguments": [
        "0xc6e7DF5E7b4f2A278906862b61205850344D4e7d",
        "115792089237316195423570985008687907853269984665640564039457584007913129639935"
      ],
      "transaction": {
        "from": "0xf39fd6e51aad88f6f4ce6ab8827279cfffb92266",
        "to": "0x826551890dc65655a0aceca109ab11abdbd7a07b",
        "gas": "0x11476",
        "value": "0x0",
        "input": "0x095ea7b3000000000000000000000000c6e7df5e7b4f2a278906862b61205850344d4e7dffffffffffffffffffffffffffffffffffffffffffffffffffffffffffffffff",
        "nonce": "0x1b",
        "chainId": "0x1e14"
      },
      "additionalContracts": [],
      "isFixedGasLimit": false
    },
    {
      "hash": "0x0cd1468b7f2c86e5beb18b75fc883dd5c911794ac5d37e5d30c4ae6e5eb1175b",
      "transactionType": "CALL",
      "contractName": "ERC20Mock",
      "contractAddress": "0xc7f2cf4845c6db0e1a1e91ed41bcd0fcc1b0e141",
      "function": "approve(address,uint256)",
      "arguments": [
        "0xc6e7DF5E7b4f2A278906862b61205850344D4e7d",
        "115792089237316195423570985008687907853269984665640564039457584007913129639935"
      ],
      "transaction": {
        "from": "0xf39fd6e51aad88f6f4ce6ab8827279cfffb92266",
        "to": "0xc7f2cf4845c6db0e1a1e91ed41bcd0fcc1b0e141",
        "gas": "0x7665",
        "value": "0x0",
        "input": "0x095ea7b3000000000000000000000000c6e7df5e7b4f2a278906862b61205850344d4e7dffffffffffffffffffffffffffffffffffffffffffffffffffffffffffffffff",
        "nonce": "0x1c",
        "chainId": "0x1e14"
      },
      "additionalContracts": [],
      "isFixedGasLimit": false
    },
    {
      "hash": "0xfd0dc8ab5af28b0acbcdb53466808bf393bc3d88d21f92e5c709ee2da3cb302b",
      "transactionType": "CALL",
      "contractName": "ERC20Mock",
      "contractAddress": "0xdae97900d4b184c5d2012dcdb658c008966466dd",
      "function": "approve(address,uint256)",
      "arguments": [
        "0xc6e7DF5E7b4f2A278906862b61205850344D4e7d",
        "115792089237316195423570985008687907853269984665640564039457584007913129639935"
      ],
      "transaction": {
        "from": "0xf39fd6e51aad88f6f4ce6ab8827279cfffb92266",
        "to": "0xdae97900d4b184c5d2012dcdb658c008966466dd",
        "gas": "0x7665",
        "value": "0x0",
        "input": "0x095ea7b3000000000000000000000000c6e7df5e7b4f2a278906862b61205850344d4e7dffffffffffffffffffffffffffffffffffffffffffffffffffffffffffffffff",
        "nonce": "0x1d",
        "chainId": "0x1e14"
      },
      "additionalContracts": [],
      "isFixedGasLimit": false
    }
  ],
  "receipts": [
    {
      "status": "0x1",
      "cumulativeGasUsed": "0x548c",
      "logs": [],
      "logsBloom": "0x00000000000000000000000000000000000000000000000000000000000000000000000000000000000000000000000000000000000000000000000000000000000000000000000000000000000000000000000000000000000000000000000000000000000000000000000000000000000000000000000000000000000000000000000000000000000000000000000000000000000000000000000000000000000000000000000000000000000000000000000000000000000000000000000000000000000000000000000000000000000000000000000000000000000000000000000000000000000000000000000000000000000000000000000000000000",
      "type": "0x2",
      "transactionHash": "0x1eb6875203ec595b1bef23a5564f846b563a91a2d44efa36fb7c0185c0a29215",
      "transactionIndex": "0x0",
      "blockHash": "0xbd9346be7a6bab3dc5819f4b6ae642773de6729d38439eabc3e80b7e82ad7d46",
      "blockNumber": "0x8fd42d",
      "gasUsed": "0x548c",
      "effectiveGasPrice": "0xc40808875",
      "from": "0xf39fd6e51aad88f6f4ce6ab8827279cfffb92266",
      "to": "0xc7f2cf4845c6db0e1a1e91ed41bcd0fcc1b0e141",
      "contractAddress": null,
      "root": "0x0000000000000000000000000000000000000000000000000000000000000000"
    },
    {
      "status": "0x1",
      "cumulativeGasUsed": "0x548c",
      "logs": [],
      "logsBloom": "0x00000000000000000000000000000000000000000000000000000000000000000000000000000000000000000000000000000000000000000000000000000000000000000000000000000000000000000000000000000000000000000000000000000000000000000000000000000000000000000000000000000000000000000000000000000000000000000000000000000000000000000000000000000000000000000000000000000000000000000000000000000000000000000000000000000000000000000000000000000000000000000000000000000000000000000000000000000000000000000000000000000000000000000000000000000000",
      "type": "0x2",
      "transactionHash": "0xb171283ff63d33ca63e363d81d1faacdaa22d5ecf634dad8ec3ab6229e1311d2",
      "transactionIndex": "0x0",
      "blockHash": "0x44ac66551003efa68b07ae7352c8b221a2e5c628b043d526658a3d9671cbf276",
      "blockNumber": "0x8fd42e",
      "gasUsed": "0x548c",
      "effectiveGasPrice": "0xb1f4d7dfb",
      "from": "0xf39fd6e51aad88f6f4ce6ab8827279cfffb92266",
      "to": "0xdae97900d4b184c5d2012dcdb658c008966466dd",
      "contractAddress": null,
      "root": "0x0000000000000000000000000000000000000000000000000000000000000000"
    },
    {
      "status": "0x1",
      "cumulativeGasUsed": "0xaf81",
      "logs": [
        {
          "address": "0x826551890dc65655a0aceca109ab11abdbd7a07b",
          "topics": [
            "0xe1fffcc4923d04b559f4d29a8bfc6cda04eb5b0d3c460751c2402c5c5cc9109c",
            "0x000000000000000000000000f39fd6e51aad88f6f4ce6ab8827279cfffb92266"
          ],
          "data": "0x0000000000000000000000000000000000000000000001b1ae4d6e2ef5000000",
          "blockHash": "0x5e40097d51a34a4b099fd7310230fa04dc84c8edb15959303aa747eb65a488f9",
          "blockNumber": "0x8fd42f",
          "blockTimestamp": "0x6632c001",
          "transactionHash": "0xfbaa24ac174b92a151d4481ef81bccc0d3e9bc83e4fcdc216cdd0b74c6117927",
          "transactionIndex": "0x0",
          "logIndex": "0x0",
          "removed": false
        }
      ],
      "logsBloom": "0x00000000000000000000000000000000000000000000000000000000000000000000000000000000000000000000000000000000000000800000000000000080000000000000000000000000000000000000000000000000000000008000000000000000000000000000000100000000000000000000000000000000000000000000000000000000000000000000000000000001000000000000000000000000000000000000000000000000000000000000000000000000008000000000000000000000000000200000000000000000000000002000000000000000000000000000000000000000000000000000000000000000000000400000000000000000",
      "type": "0x2",
      "transactionHash": "0xfbaa24ac174b92a151d4481ef81bccc0d3e9bc83e4fcdc216cdd0b74c6117927",
      "transactionIndex": "0x0",
      "blockHash": "0x5e40097d51a34a4b099fd7310230fa04dc84c8edb15959303aa747eb65a488f9",
      "blockNumber": "0x8fd42f",
      "gasUsed": "0xaf81",
      "effectiveGasPrice": "0xa22337a54",
      "from": "0xf39fd6e51aad88f6f4ce6ab8827279cfffb92266",
      "to": "0x826551890dc65655a0aceca109ab11abdbd7a07b",
      "contractAddress": null,
      "root": "0x0000000000000000000000000000000000000000000000000000000000000000"
    },
    {
      "status": "0x1",
      "cumulativeGasUsed": "0xbbdd",
      "logs": [
        {
          "address": "0x826551890dc65655a0aceca109ab11abdbd7a07b",
          "topics": [
            "0x8c5be1e5ebec7d5bd14f71427d1e84f3dd0314c0f7b2291e5b200ac8c7c3b925",
            "0x000000000000000000000000f39fd6e51aad88f6f4ce6ab8827279cfffb92266",
            "0x000000000000000000000000a252eee9bde830ca4793f054b506587027825a8e"
          ],
          "data": "0x0000000000000000000000000000000000000000000001b1ae4d6e2ef5000000",
          "blockHash": "0x81507838fe89a15434adc47246a2704c0454dfa1c33f7248c514a119f08830cd",
          "blockNumber": "0x8fd430",
          "blockTimestamp": "0x6632c002",
          "transactionHash": "0xf870ea841818e3eac6bb143cf44f4dda31cdaf7a7e4225e941b5e4dccf5f2b11",
          "transactionIndex": "0x0",
          "logIndex": "0x0",
          "removed": false
        },
        {
          "address": "0x826551890dc65655a0aceca109ab11abdbd7a07b",
          "topics": [
            "0x8c5be1e5ebec7d5bd14f71427d1e84f3dd0314c0f7b2291e5b200ac8c7c3b925",
            "0x000000000000000000000000f39fd6e51aad88f6f4ce6ab8827279cfffb92266",
            "0x000000000000000000000000a252eee9bde830ca4793f054b506587027825a8e"
          ],
          "data": "0x0000000000000000000000000000000000000000000001b1ae4d6e2ef5000000",
          "blockHash": "0x81507838fe89a15434adc47246a2704c0454dfa1c33f7248c514a119f08830cd",
          "blockNumber": "0x8fd430",
          "blockTimestamp": "0x6632c002",
          "transactionHash": "0xf870ea841818e3eac6bb143cf44f4dda31cdaf7a7e4225e941b5e4dccf5f2b11",
          "transactionIndex": "0x0",
          "logIndex": "0x1",
          "removed": false
        }
      ],
      "logsBloom": "0x00000000000000000000000000000000000000000000000000000000000000000000000000000000000000000000000000000000000000800000000000200080000000000000000000000000000000000000000000000000000000000000000000000000000000000000000100000000000000000000000000000000000000000000000000000000000000000000000000000000000000000000000000000000020000000000000000000000000000000000000000000000008000000000000000000000000000200000080000000000001000002000000000000000000000000010000000000000000000000000004000000000000000000000000000000000",
      "type": "0x2",
      "transactionHash": "0xf870ea841818e3eac6bb143cf44f4dda31cdaf7a7e4225e941b5e4dccf5f2b11",
      "transactionIndex": "0x0",
      "blockHash": "0x81507838fe89a15434adc47246a2704c0454dfa1c33f7248c514a119f08830cd",
      "blockNumber": "0x8fd430",
      "gasUsed": "0xbbdd",
      "effectiveGasPrice": "0x945092ee6",
      "from": "0xf39fd6e51aad88f6f4ce6ab8827279cfffb92266",
      "to": "0x826551890dc65655a0aceca109ab11abdbd7a07b",
      "contractAddress": null,
      "root": "0x0000000000000000000000000000000000000000000000000000000000000000"
    },
    {
      "status": "0x1",
      "cumulativeGasUsed": "0x1cea9",
      "logs": [
        {
          "address": "0x4e71a2e537b7f9d9413d3991d37958c0b5e1e503",
          "topics": [
            "0x8c5be1e5ebec7d5bd14f71427d1e84f3dd0314c0f7b2291e5b200ac8c7c3b925",
            "0x000000000000000000000000f39fd6e51aad88f6f4ce6ab8827279cfffb92266",
            "0x000000000000000000000000c6e7df5e7b4f2a278906862b61205850344d4e7d"
          ],
          "data": "0xffffffffffffffffffffffffffffffffffffffffffffffffffffffffffffffff",
          "blockHash": "0x81507838fe89a15434adc47246a2704c0454dfa1c33f7248c514a119f08830cd",
          "blockNumber": "0x8fd430",
          "blockTimestamp": "0x6632c002",
          "transactionHash": "0xfc941720adc2a1573778a6e0b5ff57a772ef6ba634f5ee1cda37fe2abaa8666c",
          "transactionIndex": "0x2",
          "logIndex": "0x2",
          "removed": false
        }
      ],
      "logsBloom": "0x00000000000000000000000000000000000000000000000000000000000000000000000000000000000000000000000000000000000400000200000000200000008000000000000000000000000000000000000000000000000000000010000000000000000000000000000100000000000000000000000000000000000000000000000000000000000000000000000000000000000000000000000000000000020000000000000000000000000000000000000000000000000000000000000000000000000000200000000000000000000000002000400000000000000000000010000000000000000000000000000000000002000000000000000000000000",
      "type": "0x2",
      "transactionHash": "0xfc941720adc2a1573778a6e0b5ff57a772ef6ba634f5ee1cda37fe2abaa8666c",
      "transactionIndex": "0x2",
      "blockHash": "0x81507838fe89a15434adc47246a2704c0454dfa1c33f7248c514a119f08830cd",
      "blockNumber": "0x8fd430",
      "gasUsed": "0xb5ff",
      "effectiveGasPrice": "0x945092ee6",
      "from": "0xf39fd6e51aad88f6f4ce6ab8827279cfffb92266",
      "to": "0x4e71a2e537b7f9d9413d3991d37958c0b5e1e503",
      "contractAddress": null,
      "root": "0x0000000000000000000000000000000000000000000000000000000000000000"
    },
    {
      "status": "0x1",
      "cumulativeGasUsed": "0x28bb2",
      "logs": [
        {
          "address": "0x826551890dc65655a0aceca109ab11abdbd7a07b",
          "topics": [
            "0x8c5be1e5ebec7d5bd14f71427d1e84f3dd0314c0f7b2291e5b200ac8c7c3b925",
            "0x000000000000000000000000f39fd6e51aad88f6f4ce6ab8827279cfffb92266",
            "0x000000000000000000000000c6e7df5e7b4f2a278906862b61205850344d4e7d"
          ],
          "data": "0xffffffffffffffffffffffffffffffffffffffffffffffffffffffffffffffff",
          "blockHash": "0x81507838fe89a15434adc47246a2704c0454dfa1c33f7248c514a119f08830cd",
          "blockNumber": "0x8fd430",
          "blockTimestamp": "0x6632c002",
          "transactionHash": "0xf53bddc373ebdcccb4df9e47b4f939d67521ed0526007f1e82c388d989881d1a",
          "transactionIndex": "0x3",
          "logIndex": "0x3",
          "removed": false
        },
        {
          "address": "0x826551890dc65655a0aceca109ab11abdbd7a07b",
          "topics": [
            "0x8c5be1e5ebec7d5bd14f71427d1e84f3dd0314c0f7b2291e5b200ac8c7c3b925",
            "0x000000000000000000000000f39fd6e51aad88f6f4ce6ab8827279cfffb92266",
            "0x000000000000000000000000c6e7df5e7b4f2a278906862b61205850344d4e7d"
          ],
          "data": "0xffffffffffffffffffffffffffffffffffffffffffffffffffffffffffffffff",
          "blockHash": "0x81507838fe89a15434adc47246a2704c0454dfa1c33f7248c514a119f08830cd",
          "blockNumber": "0x8fd430",
          "blockTimestamp": "0x6632c002",
          "transactionHash": "0xf53bddc373ebdcccb4df9e47b4f939d67521ed0526007f1e82c388d989881d1a",
          "transactionIndex": "0x3",
          "logIndex": "0x4",
          "removed": false
        }
      ],
      "logsBloom": "0x00000000000000000000000000000000000000000000000000000000000000000000000000000000000000000000000000000000000400800000000000200080000000000000000000000000000000000000000000000000000000000010000000000000000000000000000100000000000000000000000000000000000000000000000000000000000000000000000000000000000000000000000000000000020000000000000000000000000000000000000000000000008000000000000000000000000000200000000000000000000000002000400000000000000000000010000000000000000000000000000000000000000000000000000000000000",
      "type": "0x2",
      "transactionHash": "0xf53bddc373ebdcccb4df9e47b4f939d67521ed0526007f1e82c388d989881d1a",
      "transactionIndex": "0x3",
      "blockHash": "0x81507838fe89a15434adc47246a2704c0454dfa1c33f7248c514a119f08830cd",
      "blockNumber": "0x8fd430",
      "gasUsed": "0xbd09",
      "effectiveGasPrice": "0x945092ee6",
      "from": "0xf39fd6e51aad88f6f4ce6ab8827279cfffb92266",
      "to": "0x826551890dc65655a0aceca109ab11abdbd7a07b",
      "contractAddress": null,
      "root": "0x0000000000000000000000000000000000000000000000000000000000000000"
    },
    {
      "status": "0x1",
      "cumulativeGasUsed": "0x2e16a",
      "logs": [],
      "logsBloom": "0x00000000000000000000000000000000000000000000000000000000000000000000000000000000000000000000000000000000000000000000000000000000000000000000000000000000000000000000000000000000000000000000000000000000000000000000000000000000000000000000000000000000000000000000000000000000000000000000000000000000000000000000000000000000000000000000000000000000000000000000000000000000000000000000000000000000000000000000000000000000000000000000000000000000000000000000000000000000000000000000000000000000000000000000000000000000",
      "type": "0x2",
      "transactionHash": "0x0cd1468b7f2c86e5beb18b75fc883dd5c911794ac5d37e5d30c4ae6e5eb1175b",
      "transactionIndex": "0x4",
      "blockHash": "0x81507838fe89a15434adc47246a2704c0454dfa1c33f7248c514a119f08830cd",
      "blockNumber": "0x8fd430",
      "gasUsed": "0x55b8",
      "effectiveGasPrice": "0x945092ee6",
      "from": "0xf39fd6e51aad88f6f4ce6ab8827279cfffb92266",
      "to": "0xc7f2cf4845c6db0e1a1e91ed41bcd0fcc1b0e141",
      "contractAddress": null,
      "root": "0x0000000000000000000000000000000000000000000000000000000000000000"
    },
    {
      "status": "0x1",
      "cumulativeGasUsed": "0x55b8",
      "logs": [],
      "logsBloom": "0x00000000000000000000000000000000000000000000000000000000000000000000000000000000000000000000000000000000000000000000000000000000000000000000000000000000000000000000000000000000000000000000000000000000000000000000000000000000000000000000000000000000000000000000000000000000000000000000000000000000000000000000000000000000000000000000000000000000000000000000000000000000000000000000000000000000000000000000000000000000000000000000000000000000000000000000000000000000000000000000000000000000000000000000000000000000",
      "type": "0x2",
      "transactionHash": "0xfd0dc8ab5af28b0acbcdb53466808bf393bc3d88d21f92e5c709ee2da3cb302b",
      "transactionIndex": "0x0",
      "blockHash": "0x2b2684116925d33c7f71fd82425d23aff271f89d25ff9ebddc115e9d3c31a23f",
      "blockNumber": "0x8fd431",
      "gasUsed": "0x55b8",
      "effectiveGasPrice": "0x8854bb405",
      "from": "0xf39fd6e51aad88f6f4ce6ab8827279cfffb92266",
      "to": "0xdae97900d4b184c5d2012dcdb658c008966466dd",
      "contractAddress": null,
      "root": "0x0000000000000000000000000000000000000000000000000000000000000000"
    }
  ],
  "libraries": [],
  "pending": [],
  "returns": {},
  "timestamp": 1714601991,
  "chain": 7700,
  "commit": "1e415e5"
}