{
  "transactions": [
    {
      "hash": "0x6de6a1925b753fcf3896fad7648387615573c5a54f27ea8122c6007a82704269",
      "transactionType": "CALL",
      "contractName": "ERC20Mock",
      "contractAddress": "0xc7f2cf4845c6db0e1a1e91ed41bcd0fcc1b0e141",
      "function": "mint(address,uint256)",
      "arguments": [
        "0xf39Fd6e51aad88F6F4ce6aB8827279cffFb92266",
        "1000000000000000000000000"
      ],
      "transaction": {
        "from": "0xf39fd6e51aad88f6f4ce6ab8827279cfffb92266",
        "to": "0xc7f2cf4845c6db0e1a1e91ed41bcd0fcc1b0e141",
        "gas": "0x74c6",
        "value": "0x0",
        "input": "0x40c10f19000000000000000000000000f39fd6e51aad88f6f4ce6ab8827279cfffb9226600000000000000000000000000000000000000000000d3c21bcecceda1000000",
        "nonce": "0x14",
        "chainId": "0x1e14"
      },
      "additionalContracts": [],
      "isFixedGasLimit": false
    },
    {
      "hash": "0xeb827fe26d21d71c5e19ab6e8ca95c06583ea50b13f966a9a4e6c9070b236e5c",
      "transactionType": "CALL",
      "contractName": "ERC20Mock",
      "contractAddress": "0xdae97900d4b184c5d2012dcdb658c008966466dd",
      "function": "mint(address,uint256)",
      "arguments": [
        "0xf39Fd6e51aad88F6F4ce6aB8827279cffFb92266",
        "1000000000000000000000000"
      ],
      "transaction": {
        "from": "0xf39fd6e51aad88f6f4ce6ab8827279cfffb92266",
        "to": "0xdae97900d4b184c5d2012dcdb658c008966466dd",
        "gas": "0x74c6",
        "value": "0x0",
        "input": "0x40c10f19000000000000000000000000f39fd6e51aad88f6f4ce6ab8827279cfffb9226600000000000000000000000000000000000000000000d3c21bcecceda1000000",
        "nonce": "0x15",
        "chainId": "0x1e14"
      },
      "additionalContracts": [],
      "isFixedGasLimit": false
    }
  ],
  "receipts": [
    {
      "status": "0x1",
      "cumulativeGasUsed": "0x548c",
      "logs": [],
      "logsBloom": "0x00000000000000000000000000000000000000000000000000000000000000000000000000000000000000000000000000000000000000000000000000000000000000000000000000000000000000000000000000000000000000000000000000000000000000000000000000000000000000000000000000000000000000000000000000000000000000000000000000000000000000000000000000000000000000000000000000000000000000000000000000000000000000000000000000000000000000000000000000000000000000000000000000000000000000000000000000000000000000000000000000000000000000000000000000000000",
      "type": "0x2",
      "transactionHash": "0x6de6a1925b753fcf3896fad7648387615573c5a54f27ea8122c6007a82704269",
      "transactionIndex": "0x0",
      "blockHash": "0x2e0ac5a4eae0710100d553b12a36b18d1209599d5e7d970eb2bd602e2d74e1ea",
      "blockNumber": "0x8fd388",
      "gasUsed": "0x548c",
      "effectiveGasPrice": "0xd6ba79ea4",
      "from": "0xf39fd6e51aad88f6f4ce6ab8827279cfffb92266",
      "to": "0xc7f2cf4845c6db0e1a1e91ed41bcd0fcc1b0e141",
      "contractAddress": null,
      "root": "0x0000000000000000000000000000000000000000000000000000000000000000"
    },
    {
      "status": "0x1",
      "cumulativeGasUsed": "0x548c",
      "logs": [],
      "logsBloom": "0x00000000000000000000000000000000000000000000000000000000000000000000000000000000000000000000000000000000000000000000000000000000000000000000000000000000000000000000000000000000000000000000000000000000000000000000000000000000000000000000000000000000000000000000000000000000000000000000000000000000000000000000000000000000000000000000000000000000000000000000000000000000000000000000000000000000000000000000000000000000000000000000000000000000000000000000000000000000000000000000000000000000000000000000000000000000",
      "type": "0x2",
      "transactionHash": "0xeb827fe26d21d71c5e19ab6e8ca95c06583ea50b13f966a9a4e6c9070b236e5c",
      "transactionIndex": "0x0",
      "blockHash": "0xa200e85f7c73d1ab56762a844c10ccf40caa38144b4159f3fad969d56867d079",
      "blockNumber": "0x8fd389",
      "gasUsed": "0x548c",
      "effectiveGasPrice": "0xc251d8187",
      "from": "0xf39fd6e51aad88f6f4ce6ab8827279cfffb92266",
      "to": "0xdae97900d4b184c5d2012dcdb658c008966466dd",
      "contractAddress": null,
      "root": "0x0000000000000000000000000000000000000000000000000000000000000000"
    }
  ],
  "libraries": [],
  "pending": [],
  "returns": {},
  "timestamp": 1714604869,
  "chain": 7700,
  "commit": "1e415e5"
}