{
  "transactions": [
    {
      "hash": "0x8b90666431106f91ba57ca0711c11ccfb16df8822fca9c523067b784f560e241",
      "transactionType": "CALL",
      "contractName": "ERC20Mock",
      "contractAddress": "0xc7f2cf4845c6db0e1a1e91ed41bcd0fcc1b0e141",
      "function": "mint(address,uint256)",
      "arguments": [
        "0xf39Fd6e51aad88F6F4ce6aB8827279cffFb92266",
        "1000000000000000000000000"
      ],
      "transaction": {
        "from": "0xf39fd6e51aad88f6f4ce6ab8827279cfffb92266",
        "to": "0xc7f2cf4845c6db0e1a1e91ed41bcd0fcc1b0e141",
        "gas": "0x74c6",
        "value": "0x0",
        "input": "0x40c10f19000000000000000000000000f39fd6e51aad88f6f4ce6ab8827279cfffb9226600000000000000000000000000000000000000000000d3c21bcecceda1000000",
        "nonce": "0x15",
        "chainId": "0x1e14"
      },
      "additionalContracts": [],
      "isFixedGasLimit": false
    },
    {
      "hash": "0x738b5fe95cb8ca958b313e580a2541b71eefe55b30e3e0cdc00185ce706d4766",
      "transactionType": "CALL",
      "contractName": "ERC20Mock",
      "contractAddress": "0xdae97900d4b184c5d2012dcdb658c008966466dd",
      "function": "mint(address,uint256)",
      "arguments": [
        "0xf39Fd6e51aad88F6F4ce6aB8827279cffFb92266",
        "1000000000000000000000000"
      ],
      "transaction": {
        "from": "0xf39fd6e51aad88f6f4ce6ab8827279cfffb92266",
        "to": "0xdae97900d4b184c5d2012dcdb658c008966466dd",
        "gas": "0x74c6",
        "value": "0x0",
        "input": "0x40c10f19000000000000000000000000f39fd6e51aad88f6f4ce6ab8827279cfffb9226600000000000000000000000000000000000000000000d3c21bcecceda1000000",
        "nonce": "0x16",
        "chainId": "0x1e14"
      },
      "additionalContracts": [],
      "isFixedGasLimit": false
    },
    {
      "hash": "0x738023efd0ff6d36d42e8a297ca244a9ad7124a6aa03292321f6263bad6b8935",
      "transactionType": "CALL",
      "contractName": null,
      "contractAddress": "0x826551890dc65655a0aceca109ab11abdbd7a07b",
      "function": null,
      "arguments": null,
      "transaction": {
        "from": "0xf39fd6e51aad88f6f4ce6ab8827279cfffb92266",
        "to": "0x826551890dc65655a0aceca109ab11abdbd7a07b",
        "gas": "0x100ac",
        "value": "0x30ca024f987b900000",
        "input": "0xd0e30db0",
        "nonce": "0x17",
        "chainId": "0x1e14"
      },
      "additionalContracts": [],
      "isFixedGasLimit": false
    },
    {
      "hash": "0x6f2cc383657aa9b51e4a4973dfbef8b69bb67a092902395ce8061948d55b0334",
      "transactionType": "CALL",
      "contractName": null,
      "contractAddress": "0x826551890dc65655a0aceca109ab11abdbd7a07b",
      "function": "approve(address,uint256)",
      "arguments": [
        "0xa252eEE9BDe830Ca4793F054B506587027825a8e",
        "900000000000000000000"
      ],
      "transaction": {
        "from": "0xf39fd6e51aad88f6f4ce6ab8827279cfffb92266",
        "to": "0x826551890dc65655a0aceca109ab11abdbd7a07b",
        "gas": "0x1037b",
        "value": "0x0",
        "input": "0x095ea7b3000000000000000000000000a252eee9bde830ca4793f054b506587027825a8e000000000000000000000000000000000000000000000030ca024f987b900000",
        "nonce": "0x18",
        "chainId": "0x1e14"
      },
      "additionalContracts": [],
      "isFixedGasLimit": false
    },
    {
      "hash": "0x42a303daf8ba31ff831491811be286395e15decd1fb86d784825b721ba0cb0bb",
      "transactionType": "CALL",
      "contractName": null,
      "contractAddress": "0xa252eee9bde830ca4793f054b506587027825a8e",
      "function": null,
      "arguments": null,
      "transaction": {
        "from": "0xf39fd6e51aad88f6f4ce6ab8827279cfffb92266",
        "to": "0xa252eee9bde830ca4793f054b506587027825a8e",
        "gas": "0x34a1e",
        "value": "0x0",
        "input": "0x13dcfc5900000000000000000000000000000000000000000000001b1ae4d6e2ef500000000000000000000000000000000000000000000000000000016345785d8a0000000000000000000000000000826551890dc65655a0aceca109ab11abdbd7a07b0000000000000000000000004e71a2e537b7f9d9413d3991d37958c0b5e1e5030000000000000000000000000000000000000000000000000000000000000000000000000000000000000000f39fd6e51aad88f6f4ce6ab8827279cfffb92266000000000000000000000000000000000000000000000000000000006632bc70",
        "nonce": "0x19",
        "chainId": "0x1e14"
      },
      "additionalContracts": [],
      "isFixedGasLimit": false
    },
    {
      "hash": "0xb18f60b5758dbe11deb9bb6b18c5bf9ce18e21a860712bead08db0c23bd1459c",
      "transactionType": "CALL",
      "contractName": null,
      "contractAddress": "0x4e71a2e537b7f9d9413d3991d37958c0b5e1e503",
      "function": "approve(address,uint256)",
      "arguments": [
        "0xc6e7DF5E7b4f2A278906862b61205850344D4e7d",
        "115792089237316195423570985008687907853269984665640564039457584007913129639935"
      ],
      "transaction": {
        "from": "0xf39fd6e51aad88f6f4ce6ab8827279cfffb92266",
        "to": "0x4e71a2e537b7f9d9413d3991d37958c0b5e1e503",
        "gas": "0xfb60",
        "value": "0x0",
        "input": "0x095ea7b3000000000000000000000000c6e7df5e7b4f2a278906862b61205850344d4e7dffffffffffffffffffffffffffffffffffffffffffffffffffffffffffffffff",
        "nonce": "0x1a",
        "chainId": "0x1e14"
      },
      "additionalContracts": [],
      "isFixedGasLimit": false
    },
    {
      "hash": "0x20cb361d9c1d17d5cf8c10a1522fa5cc84e7cf3efb4d07cc39603d46478cd13d",
      "transactionType": "CALL",
      "contractName": null,
      "contractAddress": "0x826551890dc65655a0aceca109ab11abdbd7a07b",
      "function": "approve(address,uint256)",
      "arguments": [
        "0xc6e7DF5E7b4f2A278906862b61205850344D4e7d",
        "115792089237316195423570985008687907853269984665640564039457584007913129639935"
      ],
      "transaction": {
        "from": "0xf39fd6e51aad88f6f4ce6ab8827279cfffb92266",
        "to": "0x826551890dc65655a0aceca109ab11abdbd7a07b",
        "gas": "0x11476",
        "value": "0x0",
        "input": "0x095ea7b3000000000000000000000000c6e7df5e7b4f2a278906862b61205850344d4e7dffffffffffffffffffffffffffffffffffffffffffffffffffffffffffffffff",
        "nonce": "0x1b",
        "chainId": "0x1e14"
      },
      "additionalContracts": [],
      "isFixedGasLimit": false
    },
    {
      "hash": "0x77da9587833fc5b2b93142da26f68cb553e31d8e1e75b10bdc0b23ffd1617b57",
      "transactionType": "CALL",
      "contractName": "ERC20Mock",
      "contractAddress": "0xc7f2cf4845c6db0e1a1e91ed41bcd0fcc1b0e141",
      "function": "approve(address,uint256)",
      "arguments": [
        "0xc6e7DF5E7b4f2A278906862b61205850344D4e7d",
        "115792089237316195423570985008687907853269984665640564039457584007913129639935"
      ],
      "transaction": {
        "from": "0xf39fd6e51aad88f6f4ce6ab8827279cfffb92266",
        "to": "0xc7f2cf4845c6db0e1a1e91ed41bcd0fcc1b0e141",
        "gas": "0x7665",
        "value": "0x0",
        "input": "0x095ea7b3000000000000000000000000c6e7df5e7b4f2a278906862b61205850344d4e7dffffffffffffffffffffffffffffffffffffffffffffffffffffffffffffffff",
        "nonce": "0x1c",
        "chainId": "0x1e14"
      },
      "additionalContracts": [],
      "isFixedGasLimit": false
    },
    {
      "hash": "0x08c06e9453cf31fa025ef440e86f236ad0c014cf99b53200e4d64d9d97a4e936",
      "transactionType": "CALL",
      "contractName": "ERC20Mock",
      "contractAddress": "0xdae97900d4b184c5d2012dcdb658c008966466dd",
      "function": "approve(address,uint256)",
      "arguments": [
        "0xc6e7DF5E7b4f2A278906862b61205850344D4e7d",
        "115792089237316195423570985008687907853269984665640564039457584007913129639935"
      ],
      "transaction": {
        "from": "0xf39fd6e51aad88f6f4ce6ab8827279cfffb92266",
        "to": "0xdae97900d4b184c5d2012dcdb658c008966466dd",
        "gas": "0x7665",
        "value": "0x0",
        "input": "0x095ea7b3000000000000000000000000c6e7df5e7b4f2a278906862b61205850344d4e7dffffffffffffffffffffffffffffffffffffffffffffffffffffffffffffffff",
        "nonce": "0x1d",
        "chainId": "0x1e14"
      },
      "additionalContracts": [],
      "isFixedGasLimit": false
    }
  ],
  "receipts": [
    {
      "status": "0x1",
      "cumulativeGasUsed": "0x548c",
      "logs": [],
      "logsBloom": "0x00000000000000000000000000000000000000000000000000000000000000000000000000000000000000000000000000000000000000000000000000000000000000000000000000000000000000000000000000000000000000000000000000000000000000000000000000000000000000000000000000000000000000000000000000000000000000000000000000000000000000000000000000000000000000000000000000000000000000000000000000000000000000000000000000000000000000000000000000000000000000000000000000000000000000000000000000000000000000000000000000000000000000000000000000000000",
      "type": "0x2",
      "transactionHash": "0x8b90666431106f91ba57ca0711c11ccfb16df8822fca9c523067b784f560e241",
      "transactionIndex": "0x0",
      "blockHash": "0xeda04117078e9949a280183107966340860613fc61408cbe98bbb7e3a5fd7cc7",
      "blockNumber": "0x8fd389",
      "gasUsed": "0x548c",
      "effectiveGasPrice": "0xc47f45bc0",
      "from": "0xf39fd6e51aad88f6f4ce6ab8827279cfffb92266",
      "to": "0xc7f2cf4845c6db0e1a1e91ed41bcd0fcc1b0e141",
      "contractAddress": null,
      "root": "0x0000000000000000000000000000000000000000000000000000000000000000"
    },
    {
      "status": "0x1",
      "cumulativeGasUsed": "0x548c",
      "logs": [],
      "logsBloom": "0x00000000000000000000000000000000000000000000000000000000000000000000000000000000000000000000000000000000000000000000000000000000000000000000000000000000000000000000000000000000000000000000000000000000000000000000000000000000000000000000000000000000000000000000000000000000000000000000000000000000000000000000000000000000000000000000000000000000000000000000000000000000000000000000000000000000000000000000000000000000000000000000000000000000000000000000000000000000000000000000000000000000000000000000000000000000",
      "type": "0x2",
      "transactionHash": "0x738b5fe95cb8ca958b313e580a2541b71eefe55b30e3e0cdc00185ce706d4766",
      "transactionIndex": "0x0",
      "blockHash": "0xf49ddf3e50b5d8853091f20b103c36b305b66374096db4c8a14b7ac30874d707",
      "blockNumber": "0x8fd38a",
      "gasUsed": "0x548c",
      "effectiveGasPrice": "0xb25d32ef4",
      "from": "0xf39fd6e51aad88f6f4ce6ab8827279cfffb92266",
      "to": "0xdae97900d4b184c5d2012dcdb658c008966466dd",
      "contractAddress": null,
      "root": "0x0000000000000000000000000000000000000000000000000000000000000000"
    },
    {
      "status": "0x1",
      "cumulativeGasUsed": "0x1040d",
      "logs": [
        {
          "address": "0x826551890dc65655a0aceca109ab11abdbd7a07b",
          "topics": [
            "0xe1fffcc4923d04b559f4d29a8bfc6cda04eb5b0d3c460751c2402c5c5cc9109c",
            "0x000000000000000000000000f39fd6e51aad88f6f4ce6ab8827279cfffb92266"
          ],
          "data": "0x000000000000000000000000000000000000000000000030ca024f987b900000",
          "blockHash": "0xf49ddf3e50b5d8853091f20b103c36b305b66374096db4c8a14b7ac30874d707",
          "blockNumber": "0x8fd38a",
          "blockTimestamp": "0x6632be8d",
          "transactionHash": "0x738023efd0ff6d36d42e8a297ca244a9ad7124a6aa03292321f6263bad6b8935",
          "transactionIndex": "0x1",
          "logIndex": "0x0",
          "removed": false
        }
      ],
      "logsBloom": "0x00000000000000000000000000000000000000000000000000000000000000000000000000000000000000000000000000000000000000800000000000000080000000000000000000000000000000000000000000000000000000008000000000000000000000000000000100000000000000000000000000000000000000000000000000000000000000000000000000000001000000000000000000000000000000000000000000000000000000000000000000000000008000000000000000000000000000200000000000000000000000002000000000000000000000000000000000000000000000000000000000000000000000400000000000000000",
      "type": "0x2",
      "transactionHash": "0x738023efd0ff6d36d42e8a297ca244a9ad7124a6aa03292321f6263bad6b8935",
      "transactionIndex": "0x1",
      "blockHash": "0xf49ddf3e50b5d8853091f20b103c36b305b66374096db4c8a14b7ac30874d707",
      "blockNumber": "0x8fd38a",
      "gasUsed": "0xaf81",
      "effectiveGasPrice": "0xb25d32ef4",
      "from": "0xf39fd6e51aad88f6f4ce6ab8827279cfffb92266",
      "to": "0x826551890dc65655a0aceca109ab11abdbd7a07b",
      "contractAddress": null,
      "root": "0x0000000000000000000000000000000000000000000000000000000000000000"
    },
    {
      "status": "0x1",
      "cumulativeGasUsed": "0x1bfea",
      "logs": [
        {
          "address": "0x826551890dc65655a0aceca109ab11abdbd7a07b",
          "topics": [
            "0x8c5be1e5ebec7d5bd14f71427d1e84f3dd0314c0f7b2291e5b200ac8c7c3b925",
            "0x000000000000000000000000f39fd6e51aad88f6f4ce6ab8827279cfffb92266",
            "0x000000000000000000000000a252eee9bde830ca4793f054b506587027825a8e"
          ],
          "data": "0x000000000000000000000000000000000000000000000030ca024f987b900000",
          "blockHash": "0xf49ddf3e50b5d8853091f20b103c36b305b66374096db4c8a14b7ac30874d707",
          "blockNumber": "0x8fd38a",
          "blockTimestamp": "0x6632be8d",
          "transactionHash": "0x6f2cc383657aa9b51e4a4973dfbef8b69bb67a092902395ce8061948d55b0334",
          "transactionIndex": "0x2",
          "logIndex": "0x1",
          "removed": false
        },
        {
          "address": "0x826551890dc65655a0aceca109ab11abdbd7a07b",
          "topics": [
            "0x8c5be1e5ebec7d5bd14f71427d1e84f3dd0314c0f7b2291e5b200ac8c7c3b925",
            "0x000000000000000000000000f39fd6e51aad88f6f4ce6ab8827279cfffb92266",
            "0x000000000000000000000000a252eee9bde830ca4793f054b506587027825a8e"
          ],
          "data": "0x000000000000000000000000000000000000000000000030ca024f987b900000",
          "blockHash": "0xf49ddf3e50b5d8853091f20b103c36b305b66374096db4c8a14b7ac30874d707",
          "blockNumber": "0x8fd38a",
          "blockTimestamp": "0x6632be8d",
          "transactionHash": "0x6f2cc383657aa9b51e4a4973dfbef8b69bb67a092902395ce8061948d55b0334",
          "transactionIndex": "0x2",
          "logIndex": "0x2",
          "removed": false
        }
      ],
      "logsBloom": "0x00000000000000000000000000000000000000000000000000000000000000000000000000000000000000000000000000000000000000800000000000200080000000000000000000000000000000000000000000000000000000000000000000000000000000000000000100000000000000000000000000000000000000000000000000000000000000000000000000000000000000000000000000000000020000000000000000000000000000000000000000000000008000000000000000000000000000200000080000000000001000002000000000000000000000000010000000000000000000000000004000000000000000000000000000000000",
      "type": "0x2",
      "transactionHash": "0x6f2cc383657aa9b51e4a4973dfbef8b69bb67a092902395ce8061948d55b0334",
      "transactionIndex": "0x2",
      "blockHash": "0xf49ddf3e50b5d8853091f20b103c36b305b66374096db4c8a14b7ac30874d707",
      "blockNumber": "0x8fd38a",
      "gasUsed": "0xbbdd",
      "effectiveGasPrice": "0xb25d32ef4",
      "from": "0xf39fd6e51aad88f6f4ce6ab8827279cfffb92266",
      "to": "0x826551890dc65655a0aceca109ab11abdbd7a07b",
      "contractAddress": null,
      "root": "0x0000000000000000000000000000000000000000000000000000000000000000"
    },
    {
      "status": "0x1",
      "cumulativeGasUsed": "0x112cc",
      "logs": [
        {
          "address": "0x4e71a2e537b7f9d9413d3991d37958c0b5e1e503",
          "topics": [
            "0x8c5be1e5ebec7d5bd14f71427d1e84f3dd0314c0f7b2291e5b200ac8c7c3b925",
            "0x000000000000000000000000f39fd6e51aad88f6f4ce6ab8827279cfffb92266",
            "0x000000000000000000000000c6e7df5e7b4f2a278906862b61205850344d4e7d"
          ],
          "data": "0xffffffffffffffffffffffffffffffffffffffffffffffffffffffffffffffff",
          "blockHash": "0xf4b955005258b3e733138d039d446ea47309a380e1c48c3c2f15e00abd67f8a7",
          "blockNumber": "0x8fd38b",
          "blockTimestamp": "0x6632be8e",
          "transactionHash": "0xb18f60b5758dbe11deb9bb6b18c5bf9ce18e21a860712bead08db0c23bd1459c",
          "transactionIndex": "0x1",
          "logIndex": "0x0",
          "removed": false
        }
      ],
      "logsBloom": "0x00000000000000000000000000000000000000000000000000000000000000000000000000000000000000000000000000000000000400000200000000200000008000000000000000000000000000000000000000000000000000000010000000000000000000000000000100000000000000000000000000000000000000000000000000000000000000000000000000000000000000000000000000000000020000000000000000000000000000000000000000000000000000000000000000000000000000200000000000000000000000002000400000000000000000000010000000000000000000000000000000000002000000000000000000000000",
      "type": "0x2",
      "transactionHash": "0xb18f60b5758dbe11deb9bb6b18c5bf9ce18e21a860712bead08db0c23bd1459c",
      "transactionIndex": "0x1",
      "blockHash": "0xf4b955005258b3e733138d039d446ea47309a380e1c48c3c2f15e00abd67f8a7",
      "blockNumber": "0x8fd38b",
      "gasUsed": "0xb5ff",
      "effectiveGasPrice": "0xa297c73a7",
      "from": "0xf39fd6e51aad88f6f4ce6ab8827279cfffb92266",
      "to": "0x4e71a2e537b7f9d9413d3991d37958c0b5e1e503",
      "contractAddress": null,
      "root": "0x0000000000000000000000000000000000000000000000000000000000000000"
    },
    {
      "status": "0x1",
      "cumulativeGasUsed": "0xbd09",
      "logs": [
        {
          "address": "0x826551890dc65655a0aceca109ab11abdbd7a07b",
          "topics": [
            "0x8c5be1e5ebec7d5bd14f71427d1e84f3dd0314c0f7b2291e5b200ac8c7c3b925",
            "0x000000000000000000000000f39fd6e51aad88f6f4ce6ab8827279cfffb92266",
            "0x000000000000000000000000c6e7df5e7b4f2a278906862b61205850344d4e7d"
          ],
          "data": "0xffffffffffffffffffffffffffffffffffffffffffffffffffffffffffffffff",
          "blockHash": "0x4edf90cd1d598e427bf38636a93b27e5a160f1bc88afea6e910f1460f7623118",
          "blockNumber": "0x8fd38c",
          "blockTimestamp": "0x6632be8f",
          "transactionHash": "0x20cb361d9c1d17d5cf8c10a1522fa5cc84e7cf3efb4d07cc39603d46478cd13d",
          "transactionIndex": "0x0",
          "logIndex": "0x0",
          "removed": false
        },
        {
          "address": "0x826551890dc65655a0aceca109ab11abdbd7a07b",
          "topics": [
            "0x8c5be1e5ebec7d5bd14f71427d1e84f3dd0314c0f7b2291e5b200ac8c7c3b925",
            "0x000000000000000000000000f39fd6e51aad88f6f4ce6ab8827279cfffb92266",
            "0x000000000000000000000000c6e7df5e7b4f2a278906862b61205850344d4e7d"
          ],
          "data": "0xffffffffffffffffffffffffffffffffffffffffffffffffffffffffffffffff",
          "blockHash": "0x4edf90cd1d598e427bf38636a93b27e5a160f1bc88afea6e910f1460f7623118",
          "blockNumber": "0x8fd38c",
          "blockTimestamp": "0x6632be8f",
          "transactionHash": "0x20cb361d9c1d17d5cf8c10a1522fa5cc84e7cf3efb4d07cc39603d46478cd13d",
          "transactionIndex": "0x0",
          "logIndex": "0x1",
          "removed": false
        }
      ],
      "logsBloom": "0x00000000000000000000000000000000000000000000000000000000000000000000000000000000000000000000000000000000000400800000000000200080000000000000000000000000000000000000000000000000000000000010000000000000000000000000000100000000000000000000000000000000000000000000000000000000000000000000000000000000000000000000000000000000020000000000000000000000000000000000000000000000008000000000000000000000000000200000000000000000000000002000400000000000000000000010000000000000000000000000000000000000000000000000000000000000",
      "type": "0x2",
      "transactionHash": "0x20cb361d9c1d17d5cf8c10a1522fa5cc84e7cf3efb4d07cc39603d46478cd13d",
      "transactionIndex": "0x0",
      "blockHash": "0x4edf90cd1d598e427bf38636a93b27e5a160f1bc88afea6e910f1460f7623118",
      "blockNumber": "0x8fd38c",
      "gasUsed": "0xbd09",
      "effectiveGasPrice": "0x94bca5cbf",
      "from": "0xf39fd6e51aad88f6f4ce6ab8827279cfffb92266",
      "to": "0x826551890dc65655a0aceca109ab11abdbd7a07b",
      "contractAddress": null,
      "root": "0x0000000000000000000000000000000000000000000000000000000000000000"
    },
    {
      "status": "0x1",
      "cumulativeGasUsed": "0x112c1",
      "logs": [],
      "logsBloom": "0x00000000000000000000000000000000000000000000000000000000000000000000000000000000000000000000000000000000000000000000000000000000000000000000000000000000000000000000000000000000000000000000000000000000000000000000000000000000000000000000000000000000000000000000000000000000000000000000000000000000000000000000000000000000000000000000000000000000000000000000000000000000000000000000000000000000000000000000000000000000000000000000000000000000000000000000000000000000000000000000000000000000000000000000000000000000",
      "type": "0x2",
      "transactionHash": "0x77da9587833fc5b2b93142da26f68cb553e31d8e1e75b10bdc0b23ffd1617b57",
      "transactionIndex": "0x1",
      "blockHash": "0x4edf90cd1d598e427bf38636a93b27e5a160f1bc88afea6e910f1460f7623118",
      "blockNumber": "0x8fd38c",
      "gasUsed": "0x55b8",
      "effectiveGasPrice": "0x94bca5cbf",
      "from": "0xf39fd6e51aad88f6f4ce6ab8827279cfffb92266",
      "to": "0xc7f2cf4845c6db0e1a1e91ed41bcd0fcc1b0e141",
      "contractAddress": null,
      "root": "0x0000000000000000000000000000000000000000000000000000000000000000"
    },
    {
      "status": "0x1",
      "cumulativeGasUsed": "0x55b8",
      "logs": [],
      "logsBloom": "0x00000000000000000000000000000000000000000000000000000000000000000000000000000000000000000000000000000000000000000000000000000000000000000000000000000000000000000000000000000000000000000000000000000000000000000000000000000000000000000000000000000000000000000000000000000000000000000000000000000000000000000000000000000000000000000000000000000000000000000000000000000000000000000000000000000000000000000000000000000000000000000000000000000000000000000000000000000000000000000000000000000000000000000000000000000000",
      "type": "0x2",
      "transactionHash": "0x08c06e9453cf31fa025ef440e86f236ad0c014cf99b53200e4d64d9d97a4e936",
      "transactionIndex": "0x0",
      "blockHash": "0xa336e7e33c7394c3ad2351bd07ccfd9f4ab8e599675563c6ea6f7e737df3c977",
      "blockNumber": "0x8fd38d",
      "gasUsed": "0x55b8",
      "effectiveGasPrice": "0x889ad39ec",
      "from": "0xf39fd6e51aad88f6f4ce6ab8827279cfffb92266",
      "to": "0xdae97900d4b184c5d2012dcdb658c008966466dd",
      "contractAddress": null,
      "root": "0x0000000000000000000000000000000000000000000000000000000000000000"
    }
  ],
  "libraries": [],
  "pending": [],
  "returns": {},
  "timestamp": 1714601624,
  "chain": 7700,
  "commit": "1e415e5"
}